{
	"contracts/main.sol": {
		"Doctor": {
			"abi": [
				{
					"inputs": [
						{
							"internalType": "uint256",
							"name": "_id",
							"type": "uint256"
						},
						{
							"internalType": "string",
							"name": "_name",
							"type": "string"
						},
						{
							"internalType": "string",
							"name": "_expiryDate",
							"type": "string"
						},
						{
							"internalType": "string",
							"name": "_dose",
							"type": "string"
						},
						{
							"internalType": "uint256",
							"name": "_price",
							"type": "uint256"
						}
					],
					"name": "addMedicine",
					"outputs": [],
					"stateMutability": "nonpayable",
					"type": "function"
				},
				{
					"inputs": [],
					"name": "doctorID",
					"outputs": [
						{
							"internalType": "uint256",
							"name": "",
							"type": "uint256"
						}
					],
					"stateMutability": "view",
					"type": "function"
				},
				{
					"inputs": [
						{
							"internalType": "string",
							"name": "_name",
							"type": "string"
						},
						{
							"internalType": "string",
							"name": "_qualification",
							"type": "string"
						},
						{
							"internalType": "string",
							"name": "_workPlace",
							"type": "string"
						}
					],
					"name": "registerDoctor",
					"outputs": [],
					"stateMutability": "nonpayable",
					"type": "function"
				},
				{
					"inputs": [
						{
							"internalType": "uint256",
							"name": "_doctorID",
							"type": "uint256"
						}
					],
					"name": "viewDoctorByID",
					"outputs": [
						{
							"internalType": "string",
							"name": "",
							"type": "string"
						},
						{
							"internalType": "string",
							"name": "",
							"type": "string"
						},
						{
							"internalType": "string",
							"name": "",
							"type": "string"
						}
					],
					"stateMutability": "view",
					"type": "function"
				}
			],
			"devdoc": {
				"kind": "dev",
				"methods": {},
				"version": 1
			},
			"evm": {
				"assembly": "    /* \"contracts/main.sol\":59:1036  contract Doctor {... */\n  mstore(0x40, 0x80)\n  callvalue\n  dup1\n  iszero\n  tag_1\n  jumpi\n  0x00\n  dup1\n  revert\ntag_1:\n  pop\n  dataSize(sub_0)\n  dup1\n  dataOffset(sub_0)\n  0x00\n  codecopy\n  0x00\n  return\nstop\n\nsub_0: assembly {\n        /* \"contracts/main.sol\":59:1036  contract Doctor {... */\n      mstore(0x40, 0x80)\n      callvalue\n      dup1\n      iszero\n      tag_1\n      jumpi\n      0x00\n      dup1\n      revert\n    tag_1:\n      pop\n      jumpi(tag_2, lt(calldatasize, 0x04))\n      shr(0xe0, calldataload(0x00))\n      dup1\n      0x46f9c5bb\n      eq\n      tag_3\n      jumpi\n      dup1\n      0x50c7a912\n      eq\n      tag_4\n      jumpi\n      dup1\n      0x75f49529\n      eq\n      tag_5\n      jumpi\n      dup1\n      0x91e0e428\n      eq\n      tag_6\n      jumpi\n    tag_2:\n      0x00\n      dup1\n      revert\n        /* \"contracts/main.sol\":380:400  uint public doctorID */\n    tag_3:\n      tag_7\n      tag_8\n      jump\t// in\n    tag_7:\n      mload(0x40)\n      tag_9\n      swap2\n      swap1\n      tag_10\n      jump\t// in\n    tag_9:\n      mload(0x40)\n      dup1\n      swap2\n      sub\n      swap1\n      return\n        /* \"contracts/main.sol\":549:772  function registerDoctor(string memory _name, string memory _qualification, string memory _workPlace) public {... */\n    tag_4:\n      tag_11\n      0x04\n      dup1\n      calldatasize\n      sub\n      dup2\n      add\n      swap1\n      tag_12\n      swap2\n      swap1\n      tag_13\n      jump\t// in\n    tag_12:\n      tag_14\n      jump\t// in\n    tag_11:\n      stop\n        /* \"contracts/main.sol\":409:539  function addMedicine(uint _id, string memory _name, string memory _expiryDate, string memory _dose, uint _price) public {... */\n    tag_5:\n      tag_15\n      0x04\n      dup1\n      calldatasize\n      sub\n      dup2\n      add\n      swap1\n      tag_16\n      swap2\n      swap1\n      tag_17\n      jump\t// in\n    tag_16:\n      tag_18\n      jump\t// in\n    tag_15:\n      stop\n        /* \"contracts/main.sol\":780:1029  function viewDoctorByID(uint _doctorID) view public returns(string memory, string memory, string memory) {... */\n    tag_6:\n      tag_19\n      0x04\n      dup1\n      calldatasize\n      sub\n      dup2\n      add\n      swap1\n      tag_20\n      swap2\n      swap1\n      tag_21\n      jump\t// in\n    tag_20:\n      tag_22\n      jump\t// in\n    tag_19:\n      mload(0x40)\n      tag_23\n      swap4\n      swap3\n      swap2\n      swap1\n      tag_24\n      jump\t// in\n    tag_23:\n      mload(0x40)\n      dup1\n      swap2\n      sub\n      swap1\n      return\n        /* \"contracts/main.sol\":380:400  uint public doctorID */\n    tag_8:\n      sload(0x01)\n      dup2\n      jump\t// out\n        /* \"contracts/main.sol\":549:772  function registerDoctor(string memory _name, string memory _qualification, string memory _workPlace) public {... */\n    tag_14:\n        /* \"contracts/main.sol\":668:676  doctorID */\n      0x01\n      0x00\n        /* \"contracts/main.sol\":668:679  doctorID ++ */\n      dup2\n      sload\n      dup1\n      swap3\n      swap2\n      swap1\n      tag_26\n      swap1\n      tag_27\n      jump\t// in\n    tag_26:\n      swap2\n      swap1\n      pop\n      sstore\n      pop\n        /* \"contracts/main.sol\":716:764  doctorStruct( _name, _qualification, _workPlace) */\n      mload(0x40)\n      dup1\n      0x60\n      add\n      0x40\n      mstore\n      dup1\n        /* \"contracts/main.sol\":730:735  _name */\n      dup5\n        /* \"contracts/main.sol\":716:764  doctorStruct( _name, _qualification, _workPlace) */\n      dup2\n      mstore\n      0x20\n      add\n        /* \"contracts/main.sol\":737:751  _qualification */\n      dup4\n        /* \"contracts/main.sol\":716:764  doctorStruct( _name, _qualification, _workPlace) */\n      dup2\n      mstore\n      0x20\n      add\n        /* \"contracts/main.sol\":753:763  _workPlace */\n      dup3\n        /* \"contracts/main.sol\":716:764  doctorStruct( _name, _qualification, _workPlace) */\n      dup2\n      mstore\n      pop\n        /* \"contracts/main.sol\":690:703  doctorMapping */\n      0x00\n        /* \"contracts/main.sol\":690:713  doctorMapping[doctorID] */\n      dup1\n        /* \"contracts/main.sol\":704:712  doctorID */\n      sload(0x01)\n        /* \"contracts/main.sol\":690:713  doctorMapping[doctorID] */\n      dup2\n      mstore\n      0x20\n      add\n      swap1\n      dup2\n      mstore\n      0x20\n      add\n      0x00\n      keccak256\n        /* \"contracts/main.sol\":690:764  doctorMapping[doctorID] = doctorStruct( _name, _qualification, _workPlace) */\n      0x00\n      dup3\n      add\n      mload\n      dup2\n      0x00\n      add\n      swap1\n      dup2\n      tag_28\n      swap2\n      swap1\n      tag_29\n      jump\t// in\n    tag_28:\n      pop\n      0x20\n      dup3\n      add\n      mload\n      dup2\n      0x01\n      add\n      swap1\n      dup2\n      tag_30\n      swap2\n      swap1\n      tag_29\n      jump\t// in\n    tag_30:\n      pop\n      0x40\n      dup3\n      add\n      mload\n      dup2\n      0x02\n      add\n      swap1\n      dup2\n      tag_31\n      swap2\n      swap1\n      tag_29\n      jump\t// in\n    tag_31:\n      pop\n      swap1\n      pop\n      pop\n        /* \"contracts/main.sol\":549:772  function registerDoctor(string memory _name, string memory _qualification, string memory _workPlace) public {... */\n      pop\n      pop\n      pop\n      jump\t// out\n        /* \"contracts/main.sol\":409:539  function addMedicine(uint _id, string memory _name, string memory _expiryDate, string memory _dose, uint _price) public {... */\n    tag_18:\n      pop\n      pop\n      pop\n      pop\n      pop\n      jump\t// out\n        /* \"contracts/main.sol\":780:1029  function viewDoctorByID(uint _doctorID) view public returns(string memory, string memory, string memory) {... */\n    tag_22:\n        /* \"contracts/main.sol\":840:853  string memory */\n      0x60\n        /* \"contracts/main.sol\":855:868  string memory */\n      dup1\n        /* \"contracts/main.sol\":870:883  string memory */\n      0x60\n        /* \"contracts/main.sol\":896:923  doctorStruct storage doctor */\n      0x00\n        /* \"contracts/main.sol\":926:939  doctorMapping */\n      dup1\n        /* \"contracts/main.sol\":926:950  doctorMapping[_doctorID] */\n      0x00\n        /* \"contracts/main.sol\":940:949  _doctorID */\n      dup7\n        /* \"contracts/main.sol\":926:950  doctorMapping[_doctorID] */\n      dup2\n      mstore\n      0x20\n      add\n      swap1\n      dup2\n      mstore\n      0x20\n      add\n      0x00\n      keccak256\n        /* \"contracts/main.sol\":896:950  doctorStruct storage doctor = doctorMapping[_doctorID] */\n      swap1\n      pop\n        /* \"contracts/main.sol\":969:975  doctor */\n      dup1\n        /* \"contracts/main.sol\":969:980  doctor.name */\n      0x00\n      add\n        /* \"contracts/main.sol\":982:988  doctor */\n      dup2\n        /* \"contracts/main.sol\":982:1002  doctor.qualification */\n      0x01\n      add\n        /* \"contracts/main.sol\":1004:1010  doctor */\n      dup3\n        /* \"contracts/main.sol\":1004:1020  doctor.workPlace */\n      0x02\n      add\n        /* \"contracts/main.sol\":961:1021  return (doctor.name, doctor.qualification, doctor.workPlace) */\n      dup3\n      dup1\n      sload\n      tag_34\n      swap1\n      tag_35\n      jump\t// in\n    tag_34:\n      dup1\n      0x1f\n      add\n      0x20\n      dup1\n      swap2\n      div\n      mul\n      0x20\n      add\n      mload(0x40)\n      swap1\n      dup2\n      add\n      0x40\n      mstore\n      dup1\n      swap3\n      swap2\n      swap1\n      dup2\n      dup2\n      mstore\n      0x20\n      add\n      dup3\n      dup1\n      sload\n      tag_36\n      swap1\n      tag_35\n      jump\t// in\n    tag_36:\n      dup1\n      iszero\n      tag_37\n      jumpi\n      dup1\n      0x1f\n      lt\n      tag_38\n      jumpi\n      0x0100\n      dup1\n      dup4\n      sload\n      div\n      mul\n      dup4\n      mstore\n      swap2\n      0x20\n      add\n      swap2\n      jump(tag_37)\n    tag_38:\n      dup3\n      add\n      swap2\n      swap1\n      0x00\n      mstore\n      keccak256(0x00, 0x20)\n      swap1\n    tag_39:\n      dup2\n      sload\n      dup2\n      mstore\n      swap1\n      0x01\n      add\n      swap1\n      0x20\n      add\n      dup1\n      dup4\n      gt\n      tag_39\n      jumpi\n      dup3\n      swap1\n      sub\n      0x1f\n      and\n      dup3\n      add\n      swap2\n    tag_37:\n      pop\n      pop\n      pop\n      pop\n      pop\n      swap3\n      pop\n      dup2\n      dup1\n      sload\n      tag_40\n      swap1\n      tag_35\n      jump\t// in\n    tag_40:\n      dup1\n      0x1f\n      add\n      0x20\n      dup1\n      swap2\n      div\n      mul\n      0x20\n      add\n      mload(0x40)\n      swap1\n      dup2\n      add\n      0x40\n      mstore\n      dup1\n      swap3\n      swap2\n      swap1\n      dup2\n      dup2\n      mstore\n      0x20\n      add\n      dup3\n      dup1\n      sload\n      tag_41\n      swap1\n      tag_35\n      jump\t// in\n    tag_41:\n      dup1\n      iszero\n      tag_42\n      jumpi\n      dup1\n      0x1f\n      lt\n      tag_43\n      jumpi\n      0x0100\n      dup1\n      dup4\n      sload\n      div\n      mul\n      dup4\n      mstore\n      swap2\n      0x20\n      add\n      swap2\n      jump(tag_42)\n    tag_43:\n      dup3\n      add\n      swap2\n      swap1\n      0x00\n      mstore\n      keccak256(0x00, 0x20)\n      swap1\n    tag_44:\n      dup2\n      sload\n      dup2\n      mstore\n      swap1\n      0x01\n      add\n      swap1\n      0x20\n      add\n      dup1\n      dup4\n      gt\n      tag_44\n      jumpi\n      dup3\n      swap1\n      sub\n      0x1f\n      and\n      dup3\n      add\n      swap2\n    tag_42:\n      pop\n      pop\n      pop\n      pop\n      pop\n      swap2\n      pop\n      dup1\n      dup1\n      sload\n      tag_45\n      swap1\n      tag_35\n      jump\t// in\n    tag_45:\n      dup1\n      0x1f\n      add\n      0x20\n      dup1\n      swap2\n      div\n      mul\n      0x20\n      add\n      mload(0x40)\n      swap1\n      dup2\n      add\n      0x40\n      mstore\n      dup1\n      swap3\n      swap2\n      swap1\n      dup2\n      dup2\n      mstore\n      0x20\n      add\n      dup3\n      dup1\n      sload\n      tag_46\n      swap1\n      tag_35\n      jump\t// in\n    tag_46:\n      dup1\n      iszero\n      tag_47\n      jumpi\n      dup1\n      0x1f\n      lt\n      tag_48\n      jumpi\n      0x0100\n      dup1\n      dup4\n      sload\n      div\n      mul\n      dup4\n      mstore\n      swap2\n      0x20\n      add\n      swap2\n      jump(tag_47)\n    tag_48:\n      dup3\n      add\n      swap2\n      swap1\n      0x00\n      mstore\n      keccak256(0x00, 0x20)\n      swap1\n    tag_49:\n      dup2\n      sload\n      dup2\n      mstore\n      swap1\n      0x01\n      add\n      swap1\n      0x20\n      add\n      dup1\n      dup4\n      gt\n      tag_49\n      jumpi\n      dup3\n      swap1\n      sub\n      0x1f\n      and\n      dup3\n      add\n      swap2\n    tag_47:\n      pop\n      pop\n      pop\n      pop\n      pop\n      swap1\n      pop\n      swap4\n      pop\n      swap4\n      pop\n      swap4\n      pop\n      pop\n        /* \"contracts/main.sol\":780:1029  function viewDoctorByID(uint _doctorID) view public returns(string memory, string memory, string memory) {... */\n      swap2\n      swap4\n      swap1\n      swap3\n      pop\n      jump\t// out\n        /* \"#utility.yul\":7:84   */\n    tag_50:\n        /* \"#utility.yul\":44:51   */\n      0x00\n        /* \"#utility.yul\":73:78   */\n      dup2\n        /* \"#utility.yul\":62:78   */\n      swap1\n      pop\n        /* \"#utility.yul\":7:84   */\n      swap2\n      swap1\n      pop\n      jump\t// out\n        /* \"#utility.yul\":90:208   */\n    tag_51:\n        /* \"#utility.yul\":177:201   */\n      tag_91\n        /* \"#utility.yul\":195:200   */\n      dup2\n        /* \"#utility.yul\":177:201   */\n      tag_50\n      jump\t// in\n    tag_91:\n        /* \"#utility.yul\":172:175   */\n      dup3\n        /* \"#utility.yul\":165:202   */\n      mstore\n        /* \"#utility.yul\":90:208   */\n      pop\n      pop\n      jump\t// out\n        /* \"#utility.yul\":214:436   */\n    tag_10:\n        /* \"#utility.yul\":307:311   */\n      0x00\n        /* \"#utility.yul\":345:347   */\n      0x20\n        /* \"#utility.yul\":334:343   */\n      dup3\n        /* \"#utility.yul\":330:348   */\n      add\n        /* \"#utility.yul\":322:348   */\n      swap1\n      pop\n        /* \"#utility.yul\":358:429   */\n      tag_93\n        /* \"#utility.yul\":426:427   */\n      0x00\n        /* \"#utility.yul\":415:424   */\n      dup4\n        /* \"#utility.yul\":411:428   */\n      add\n        /* \"#utility.yul\":402:408   */\n      dup5\n        /* \"#utility.yul\":358:429   */\n      tag_51\n      jump\t// in\n    tag_93:\n        /* \"#utility.yul\":214:436   */\n      swap3\n      swap2\n      pop\n      pop\n      jump\t// out\n        /* \"#utility.yul\":442:517   */\n    tag_52:\n        /* \"#utility.yul\":475:481   */\n      0x00\n        /* \"#utility.yul\":508:510   */\n      0x40\n        /* \"#utility.yul\":502:511   */\n      mload\n        /* \"#utility.yul\":492:511   */\n      swap1\n      pop\n        /* \"#utility.yul\":442:517   */\n      swap1\n      jump\t// out\n        /* \"#utility.yul\":523:640   */\n    tag_53:\n        /* \"#utility.yul\":632:633   */\n      0x00\n        /* \"#utility.yul\":629:630   */\n      dup1\n        /* \"#utility.yul\":622:634   */\n      revert\n        /* \"#utility.yul\":646:763   */\n    tag_54:\n        /* \"#utility.yul\":755:756   */\n      0x00\n        /* \"#utility.yul\":752:753   */\n      dup1\n        /* \"#utility.yul\":745:757   */\n      revert\n        /* \"#utility.yul\":769:886   */\n    tag_55:\n        /* \"#utility.yul\":878:879   */\n      0x00\n        /* \"#utility.yul\":875:876   */\n      dup1\n        /* \"#utility.yul\":868:880   */\n      revert\n        /* \"#utility.yul\":892:1009   */\n    tag_56:\n        /* \"#utility.yul\":1001:1002   */\n      0x00\n        /* \"#utility.yul\":998:999   */\n      dup1\n        /* \"#utility.yul\":991:1003   */\n      revert\n        /* \"#utility.yul\":1015:1117   */\n    tag_57:\n        /* \"#utility.yul\":1056:1062   */\n      0x00\n        /* \"#utility.yul\":1107:1109   */\n      0x1f\n        /* \"#utility.yul\":1103:1110   */\n      not\n        /* \"#utility.yul\":1098:1100   */\n      0x1f\n        /* \"#utility.yul\":1091:1096   */\n      dup4\n        /* \"#utility.yul\":1087:1101   */\n      add\n        /* \"#utility.yul\":1083:1111   */\n      and\n        /* \"#utility.yul\":1073:1111   */\n      swap1\n      pop\n        /* \"#utility.yul\":1015:1117   */\n      swap2\n      swap1\n      pop\n      jump\t// out\n        /* \"#utility.yul\":1123:1303   */\n    tag_58:\n        /* \"#utility.yul\":1171:1248   */\n      0x4e487b7100000000000000000000000000000000000000000000000000000000\n        /* \"#utility.yul\":1168:1169   */\n      0x00\n        /* \"#utility.yul\":1161:1249   */\n      mstore\n        /* \"#utility.yul\":1268:1272   */\n      0x41\n        /* \"#utility.yul\":1265:1266   */\n      0x04\n        /* \"#utility.yul\":1258:1273   */\n      mstore\n        /* \"#utility.yul\":1292:1296   */\n      0x24\n        /* \"#utility.yul\":1289:1290   */\n      0x00\n        /* \"#utility.yul\":1282:1297   */\n      revert\n        /* \"#utility.yul\":1309:1590   */\n    tag_59:\n        /* \"#utility.yul\":1392:1419   */\n      tag_102\n        /* \"#utility.yul\":1414:1418   */\n      dup3\n        /* \"#utility.yul\":1392:1419   */\n      tag_57\n      jump\t// in\n    tag_102:\n        /* \"#utility.yul\":1384:1390   */\n      dup2\n        /* \"#utility.yul\":1380:1420   */\n      add\n        /* \"#utility.yul\":1522:1528   */\n      dup2\n        /* \"#utility.yul\":1510:1520   */\n      dup2\n        /* \"#utility.yul\":1507:1529   */\n      lt\n        /* \"#utility.yul\":1486:1504   */\n      0xffffffffffffffff\n        /* \"#utility.yul\":1474:1484   */\n      dup3\n        /* \"#utility.yul\":1471:1505   */\n      gt\n        /* \"#utility.yul\":1468:1530   */\n      or\n        /* \"#utility.yul\":1465:1553   */\n      iszero\n      tag_103\n      jumpi\n        /* \"#utility.yul\":1533:1551   */\n      tag_104\n      tag_58\n      jump\t// in\n    tag_104:\n        /* \"#utility.yul\":1465:1553   */\n    tag_103:\n        /* \"#utility.yul\":1573:1583   */\n      dup1\n        /* \"#utility.yul\":1569:1571   */\n      0x40\n        /* \"#utility.yul\":1562:1584   */\n      mstore\n        /* \"#utility.yul\":1352:1590   */\n      pop\n        /* \"#utility.yul\":1309:1590   */\n      pop\n      pop\n      jump\t// out\n        /* \"#utility.yul\":1596:1725   */\n    tag_60:\n        /* \"#utility.yul\":1630:1636   */\n      0x00\n        /* \"#utility.yul\":1657:1677   */\n      tag_106\n      tag_52\n      jump\t// in\n    tag_106:\n        /* \"#utility.yul\":1647:1677   */\n      swap1\n      pop\n        /* \"#utility.yul\":1686:1719   */\n      tag_107\n        /* \"#utility.yul\":1714:1718   */\n      dup3\n        /* \"#utility.yul\":1706:1712   */\n      dup3\n        /* \"#utility.yul\":1686:1719   */\n      tag_59\n      jump\t// in\n    tag_107:\n        /* \"#utility.yul\":1596:1725   */\n      swap2\n      swap1\n      pop\n      jump\t// out\n        /* \"#utility.yul\":1731:2039   */\n    tag_61:\n        /* \"#utility.yul\":1793:1797   */\n      0x00\n        /* \"#utility.yul\":1883:1901   */\n      0xffffffffffffffff\n        /* \"#utility.yul\":1875:1881   */\n      dup3\n        /* \"#utility.yul\":1872:1902   */\n      gt\n        /* \"#utility.yul\":1869:1925   */\n      iszero\n      tag_109\n      jumpi\n        /* \"#utility.yul\":1905:1923   */\n      tag_110\n      tag_58\n      jump\t// in\n    tag_110:\n        /* \"#utility.yul\":1869:1925   */\n    tag_109:\n        /* \"#utility.yul\":1943:1972   */\n      tag_111\n        /* \"#utility.yul\":1965:1971   */\n      dup3\n        /* \"#utility.yul\":1943:1972   */\n      tag_57\n      jump\t// in\n    tag_111:\n        /* \"#utility.yul\":1935:1972   */\n      swap1\n      pop\n        /* \"#utility.yul\":2027:2031   */\n      0x20\n        /* \"#utility.yul\":2021:2025   */\n      dup2\n        /* \"#utility.yul\":2017:2032   */\n      add\n        /* \"#utility.yul\":2009:2032   */\n      swap1\n      pop\n        /* \"#utility.yul\":1731:2039   */\n      swap2\n      swap1\n      pop\n      jump\t// out\n        /* \"#utility.yul\":2045:2191   */\n    tag_62:\n        /* \"#utility.yul\":2142:2148   */\n      dup3\n        /* \"#utility.yul\":2137:2140   */\n      dup2\n        /* \"#utility.yul\":2132:2135   */\n      dup4\n        /* \"#utility.yul\":2119:2149   */\n      calldatacopy\n        /* \"#utility.yul\":2183:2184   */\n      0x00\n        /* \"#utility.yul\":2174:2180   */\n      dup4\n        /* \"#utility.yul\":2169:2172   */\n      dup4\n        /* \"#utility.yul\":2165:2181   */\n      add\n        /* \"#utility.yul\":2158:2185   */\n      mstore\n        /* \"#utility.yul\":2045:2191   */\n      pop\n      pop\n      pop\n      jump\t// out\n        /* \"#utility.yul\":2197:2622   */\n    tag_63:\n        /* \"#utility.yul\":2275:2280   */\n      0x00\n        /* \"#utility.yul\":2300:2366   */\n      tag_114\n        /* \"#utility.yul\":2316:2365   */\n      tag_115\n        /* \"#utility.yul\":2358:2364   */\n      dup5\n        /* \"#utility.yul\":2316:2365   */\n      tag_61\n      jump\t// in\n    tag_115:\n        /* \"#utility.yul\":2300:2366   */\n      tag_60\n      jump\t// in\n    tag_114:\n        /* \"#utility.yul\":2291:2366   */\n      swap1\n      pop\n        /* \"#utility.yul\":2389:2395   */\n      dup3\n        /* \"#utility.yul\":2382:2387   */\n      dup2\n        /* \"#utility.yul\":2375:2396   */\n      mstore\n        /* \"#utility.yul\":2427:2431   */\n      0x20\n        /* \"#utility.yul\":2420:2425   */\n      dup2\n        /* \"#utility.yul\":2416:2432   */\n      add\n        /* \"#utility.yul\":2465:2468   */\n      dup5\n        /* \"#utility.yul\":2456:2462   */\n      dup5\n        /* \"#utility.yul\":2451:2454   */\n      dup5\n        /* \"#utility.yul\":2447:2463   */\n      add\n        /* \"#utility.yul\":2444:2469   */\n      gt\n        /* \"#utility.yul\":2441:2553   */\n      iszero\n      tag_116\n      jumpi\n        /* \"#utility.yul\":2472:2551   */\n      tag_117\n      tag_56\n      jump\t// in\n    tag_117:\n        /* \"#utility.yul\":2441:2553   */\n    tag_116:\n        /* \"#utility.yul\":2562:2616   */\n      tag_118\n        /* \"#utility.yul\":2609:2615   */\n      dup5\n        /* \"#utility.yul\":2604:2607   */\n      dup3\n        /* \"#utility.yul\":2599:2602   */\n      dup6\n        /* \"#utility.yul\":2562:2616   */\n      tag_62\n      jump\t// in\n    tag_118:\n        /* \"#utility.yul\":2281:2622   */\n      pop\n        /* \"#utility.yul\":2197:2622   */\n      swap4\n      swap3\n      pop\n      pop\n      pop\n      jump\t// out\n        /* \"#utility.yul\":2642:2982   */\n    tag_64:\n        /* \"#utility.yul\":2698:2703   */\n      0x00\n        /* \"#utility.yul\":2747:2750   */\n      dup3\n        /* \"#utility.yul\":2740:2744   */\n      0x1f\n        /* \"#utility.yul\":2732:2738   */\n      dup4\n        /* \"#utility.yul\":2728:2745   */\n      add\n        /* \"#utility.yul\":2724:2751   */\n      slt\n        /* \"#utility.yul\":2714:2836   */\n      tag_120\n      jumpi\n        /* \"#utility.yul\":2755:2834   */\n      tag_121\n      tag_55\n      jump\t// in\n    tag_121:\n        /* \"#utility.yul\":2714:2836   */\n    tag_120:\n        /* \"#utility.yul\":2872:2878   */\n      dup2\n        /* \"#utility.yul\":2859:2879   */\n      calldataload\n        /* \"#utility.yul\":2897:2976   */\n      tag_122\n        /* \"#utility.yul\":2972:2975   */\n      dup5\n        /* \"#utility.yul\":2964:2970   */\n      dup3\n        /* \"#utility.yul\":2957:2961   */\n      0x20\n        /* \"#utility.yul\":2949:2955   */\n      dup7\n        /* \"#utility.yul\":2945:2962   */\n      add\n        /* \"#utility.yul\":2897:2976   */\n      tag_63\n      jump\t// in\n    tag_122:\n        /* \"#utility.yul\":2888:2976   */\n      swap2\n      pop\n        /* \"#utility.yul\":2704:2982   */\n      pop\n        /* \"#utility.yul\":2642:2982   */\n      swap3\n      swap2\n      pop\n      pop\n      jump\t// out\n        /* \"#utility.yul\":2988:4147   */\n    tag_13:\n        /* \"#utility.yul\":3095:3101   */\n      0x00\n        /* \"#utility.yul\":3103:3109   */\n      dup1\n        /* \"#utility.yul\":3111:3117   */\n      0x00\n        /* \"#utility.yul\":3160:3162   */\n      0x60\n        /* \"#utility.yul\":3148:3157   */\n      dup5\n        /* \"#utility.yul\":3139:3146   */\n      dup7\n        /* \"#utility.yul\":3135:3158   */\n      sub\n        /* \"#utility.yul\":3131:3163   */\n      slt\n        /* \"#utility.yul\":3128:3247   */\n      iszero\n      tag_124\n      jumpi\n        /* \"#utility.yul\":3166:3245   */\n      tag_125\n      tag_53\n      jump\t// in\n    tag_125:\n        /* \"#utility.yul\":3128:3247   */\n    tag_124:\n        /* \"#utility.yul\":3314:3315   */\n      0x00\n        /* \"#utility.yul\":3303:3312   */\n      dup5\n        /* \"#utility.yul\":3299:3316   */\n      add\n        /* \"#utility.yul\":3286:3317   */\n      calldataload\n        /* \"#utility.yul\":3344:3362   */\n      0xffffffffffffffff\n        /* \"#utility.yul\":3336:3342   */\n      dup2\n        /* \"#utility.yul\":3333:3363   */\n      gt\n        /* \"#utility.yul\":3330:3447   */\n      iszero\n      tag_126\n      jumpi\n        /* \"#utility.yul\":3366:3445   */\n      tag_127\n      tag_54\n      jump\t// in\n    tag_127:\n        /* \"#utility.yul\":3330:3447   */\n    tag_126:\n        /* \"#utility.yul\":3471:3534   */\n      tag_128\n        /* \"#utility.yul\":3526:3533   */\n      dup7\n        /* \"#utility.yul\":3517:3523   */\n      dup3\n        /* \"#utility.yul\":3506:3515   */\n      dup8\n        /* \"#utility.yul\":3502:3524   */\n      add\n        /* \"#utility.yul\":3471:3534   */\n      tag_64\n      jump\t// in\n    tag_128:\n        /* \"#utility.yul\":3461:3534   */\n      swap4\n      pop\n        /* \"#utility.yul\":3257:3544   */\n      pop\n        /* \"#utility.yul\":3611:3613   */\n      0x20\n        /* \"#utility.yul\":3600:3609   */\n      dup5\n        /* \"#utility.yul\":3596:3614   */\n      add\n        /* \"#utility.yul\":3583:3615   */\n      calldataload\n        /* \"#utility.yul\":3642:3660   */\n      0xffffffffffffffff\n        /* \"#utility.yul\":3634:3640   */\n      dup2\n        /* \"#utility.yul\":3631:3661   */\n      gt\n        /* \"#utility.yul\":3628:3745   */\n      iszero\n      tag_129\n      jumpi\n        /* \"#utility.yul\":3664:3743   */\n      tag_130\n      tag_54\n      jump\t// in\n    tag_130:\n        /* \"#utility.yul\":3628:3745   */\n    tag_129:\n        /* \"#utility.yul\":3769:3832   */\n      tag_131\n        /* \"#utility.yul\":3824:3831   */\n      dup7\n        /* \"#utility.yul\":3815:3821   */\n      dup3\n        /* \"#utility.yul\":3804:3813   */\n      dup8\n        /* \"#utility.yul\":3800:3822   */\n      add\n        /* \"#utility.yul\":3769:3832   */\n      tag_64\n      jump\t// in\n    tag_131:\n        /* \"#utility.yul\":3759:3832   */\n      swap3\n      pop\n        /* \"#utility.yul\":3554:3842   */\n      pop\n        /* \"#utility.yul\":3909:3911   */\n      0x40\n        /* \"#utility.yul\":3898:3907   */\n      dup5\n        /* \"#utility.yul\":3894:3912   */\n      add\n        /* \"#utility.yul\":3881:3913   */\n      calldataload\n        /* \"#utility.yul\":3940:3958   */\n      0xffffffffffffffff\n        /* \"#utility.yul\":3932:3938   */\n      dup2\n        /* \"#utility.yul\":3929:3959   */\n      gt\n        /* \"#utility.yul\":3926:4043   */\n      iszero\n      tag_132\n      jumpi\n        /* \"#utility.yul\":3962:4041   */\n      tag_133\n      tag_54\n      jump\t// in\n    tag_133:\n        /* \"#utility.yul\":3926:4043   */\n    tag_132:\n        /* \"#utility.yul\":4067:4130   */\n      tag_134\n        /* \"#utility.yul\":4122:4129   */\n      dup7\n        /* \"#utility.yul\":4113:4119   */\n      dup3\n        /* \"#utility.yul\":4102:4111   */\n      dup8\n        /* \"#utility.yul\":4098:4120   */\n      add\n        /* \"#utility.yul\":4067:4130   */\n      tag_64\n      jump\t// in\n    tag_134:\n        /* \"#utility.yul\":4057:4130   */\n      swap2\n      pop\n        /* \"#utility.yul\":3852:4140   */\n      pop\n        /* \"#utility.yul\":2988:4147   */\n      swap3\n      pop\n      swap3\n      pop\n      swap3\n      jump\t// out\n        /* \"#utility.yul\":4153:4275   */\n    tag_65:\n        /* \"#utility.yul\":4226:4250   */\n      tag_136\n        /* \"#utility.yul\":4244:4249   */\n      dup2\n        /* \"#utility.yul\":4226:4250   */\n      tag_50\n      jump\t// in\n    tag_136:\n        /* \"#utility.yul\":4219:4224   */\n      dup2\n        /* \"#utility.yul\":4216:4251   */\n      eq\n        /* \"#utility.yul\":4206:4269   */\n      tag_137\n      jumpi\n        /* \"#utility.yul\":4265:4266   */\n      0x00\n        /* \"#utility.yul\":4262:4263   */\n      dup1\n        /* \"#utility.yul\":4255:4267   */\n      revert\n        /* \"#utility.yul\":4206:4269   */\n    tag_137:\n        /* \"#utility.yul\":4153:4275   */\n      pop\n      jump\t// out\n        /* \"#utility.yul\":4281:4420   */\n    tag_66:\n        /* \"#utility.yul\":4327:4332   */\n      0x00\n        /* \"#utility.yul\":4365:4371   */\n      dup2\n        /* \"#utility.yul\":4352:4372   */\n      calldataload\n        /* \"#utility.yul\":4343:4372   */\n      swap1\n      pop\n        /* \"#utility.yul\":4381:4414   */\n      tag_139\n        /* \"#utility.yul\":4408:4413   */\n      dup2\n        /* \"#utility.yul\":4381:4414   */\n      tag_65\n      jump\t// in\n    tag_139:\n        /* \"#utility.yul\":4281:4420   */\n      swap3\n      swap2\n      pop\n      pop\n      jump\t// out\n        /* \"#utility.yul\":4426:5877   */\n    tag_17:\n        /* \"#utility.yul\":4551:4557   */\n      0x00\n        /* \"#utility.yul\":4559:4565   */\n      dup1\n        /* \"#utility.yul\":4567:4573   */\n      0x00\n        /* \"#utility.yul\":4575:4581   */\n      dup1\n        /* \"#utility.yul\":4583:4589   */\n      0x00\n        /* \"#utility.yul\":4632:4635   */\n      0xa0\n        /* \"#utility.yul\":4620:4629   */\n      dup7\n        /* \"#utility.yul\":4611:4618   */\n      dup9\n        /* \"#utility.yul\":4607:4630   */\n      sub\n        /* \"#utility.yul\":4603:4636   */\n      slt\n        /* \"#utility.yul\":4600:4720   */\n      iszero\n      tag_141\n      jumpi\n        /* \"#utility.yul\":4639:4718   */\n      tag_142\n      tag_53\n      jump\t// in\n    tag_142:\n        /* \"#utility.yul\":4600:4720   */\n    tag_141:\n        /* \"#utility.yul\":4759:4760   */\n      0x00\n        /* \"#utility.yul\":4784:4837   */\n      tag_143\n        /* \"#utility.yul\":4829:4836   */\n      dup9\n        /* \"#utility.yul\":4820:4826   */\n      dup3\n        /* \"#utility.yul\":4809:4818   */\n      dup10\n        /* \"#utility.yul\":4805:4827   */\n      add\n        /* \"#utility.yul\":4784:4837   */\n      tag_66\n      jump\t// in\n    tag_143:\n        /* \"#utility.yul\":4774:4837   */\n      swap6\n      pop\n        /* \"#utility.yul\":4730:4847   */\n      pop\n        /* \"#utility.yul\":4914:4916   */\n      0x20\n        /* \"#utility.yul\":4903:4912   */\n      dup7\n        /* \"#utility.yul\":4899:4917   */\n      add\n        /* \"#utility.yul\":4886:4918   */\n      calldataload\n        /* \"#utility.yul\":4945:4963   */\n      0xffffffffffffffff\n        /* \"#utility.yul\":4937:4943   */\n      dup2\n        /* \"#utility.yul\":4934:4964   */\n      gt\n        /* \"#utility.yul\":4931:5048   */\n      iszero\n      tag_144\n      jumpi\n        /* \"#utility.yul\":4967:5046   */\n      tag_145\n      tag_54\n      jump\t// in\n    tag_145:\n        /* \"#utility.yul\":4931:5048   */\n    tag_144:\n        /* \"#utility.yul\":5072:5135   */\n      tag_146\n        /* \"#utility.yul\":5127:5134   */\n      dup9\n        /* \"#utility.yul\":5118:5124   */\n      dup3\n        /* \"#utility.yul\":5107:5116   */\n      dup10\n        /* \"#utility.yul\":5103:5125   */\n      add\n        /* \"#utility.yul\":5072:5135   */\n      tag_64\n      jump\t// in\n    tag_146:\n        /* \"#utility.yul\":5062:5135   */\n      swap5\n      pop\n        /* \"#utility.yul\":4857:5145   */\n      pop\n        /* \"#utility.yul\":5212:5214   */\n      0x40\n        /* \"#utility.yul\":5201:5210   */\n      dup7\n        /* \"#utility.yul\":5197:5215   */\n      add\n        /* \"#utility.yul\":5184:5216   */\n      calldataload\n        /* \"#utility.yul\":5243:5261   */\n      0xffffffffffffffff\n        /* \"#utility.yul\":5235:5241   */\n      dup2\n        /* \"#utility.yul\":5232:5262   */\n      gt\n        /* \"#utility.yul\":5229:5346   */\n      iszero\n      tag_147\n      jumpi\n        /* \"#utility.yul\":5265:5344   */\n      tag_148\n      tag_54\n      jump\t// in\n    tag_148:\n        /* \"#utility.yul\":5229:5346   */\n    tag_147:\n        /* \"#utility.yul\":5370:5433   */\n      tag_149\n        /* \"#utility.yul\":5425:5432   */\n      dup9\n        /* \"#utility.yul\":5416:5422   */\n      dup3\n        /* \"#utility.yul\":5405:5414   */\n      dup10\n        /* \"#utility.yul\":5401:5423   */\n      add\n        /* \"#utility.yul\":5370:5433   */\n      tag_64\n      jump\t// in\n    tag_149:\n        /* \"#utility.yul\":5360:5433   */\n      swap4\n      pop\n        /* \"#utility.yul\":5155:5443   */\n      pop\n        /* \"#utility.yul\":5510:5512   */\n      0x60\n        /* \"#utility.yul\":5499:5508   */\n      dup7\n        /* \"#utility.yul\":5495:5513   */\n      add\n        /* \"#utility.yul\":5482:5514   */\n      calldataload\n        /* \"#utility.yul\":5541:5559   */\n      0xffffffffffffffff\n        /* \"#utility.yul\":5533:5539   */\n      dup2\n        /* \"#utility.yul\":5530:5560   */\n      gt\n        /* \"#utility.yul\":5527:5644   */\n      iszero\n      tag_150\n      jumpi\n        /* \"#utility.yul\":5563:5642   */\n      tag_151\n      tag_54\n      jump\t// in\n    tag_151:\n        /* \"#utility.yul\":5527:5644   */\n    tag_150:\n        /* \"#utility.yul\":5668:5731   */\n      tag_152\n        /* \"#utility.yul\":5723:5730   */\n      dup9\n        /* \"#utility.yul\":5714:5720   */\n      dup3\n        /* \"#utility.yul\":5703:5712   */\n      dup10\n        /* \"#utility.yul\":5699:5721   */\n      add\n        /* \"#utility.yul\":5668:5731   */\n      tag_64\n      jump\t// in\n    tag_152:\n        /* \"#utility.yul\":5658:5731   */\n      swap3\n      pop\n        /* \"#utility.yul\":5453:5741   */\n      pop\n        /* \"#utility.yul\":5780:5783   */\n      0x80\n        /* \"#utility.yul\":5807:5860   */\n      tag_153\n        /* \"#utility.yul\":5852:5859   */\n      dup9\n        /* \"#utility.yul\":5843:5849   */\n      dup3\n        /* \"#utility.yul\":5832:5841   */\n      dup10\n        /* \"#utility.yul\":5828:5850   */\n      add\n        /* \"#utility.yul\":5807:5860   */\n      tag_66\n      jump\t// in\n    tag_153:\n        /* \"#utility.yul\":5797:5860   */\n      swap2\n      pop\n        /* \"#utility.yul\":5751:5870   */\n      pop\n        /* \"#utility.yul\":4426:5877   */\n      swap3\n      swap6\n      pop\n      swap3\n      swap6\n      swap1\n      swap4\n      pop\n      jump\t// out\n        /* \"#utility.yul\":5883:6212   */\n    tag_21:\n        /* \"#utility.yul\":5942:5948   */\n      0x00\n        /* \"#utility.yul\":5991:5993   */\n      0x20\n        /* \"#utility.yul\":5979:5988   */\n      dup3\n        /* \"#utility.yul\":5970:5977   */\n      dup5\n        /* \"#utility.yul\":5966:5989   */\n      sub\n        /* \"#utility.yul\":5962:5994   */\n      slt\n        /* \"#utility.yul\":5959:6078   */\n      iszero\n      tag_155\n      jumpi\n        /* \"#utility.yul\":5997:6076   */\n      tag_156\n      tag_53\n      jump\t// in\n    tag_156:\n        /* \"#utility.yul\":5959:6078   */\n    tag_155:\n        /* \"#utility.yul\":6117:6118   */\n      0x00\n        /* \"#utility.yul\":6142:6195   */\n      tag_157\n        /* \"#utility.yul\":6187:6194   */\n      dup5\n        /* \"#utility.yul\":6178:6184   */\n      dup3\n        /* \"#utility.yul\":6167:6176   */\n      dup6\n        /* \"#utility.yul\":6163:6185   */\n      add\n        /* \"#utility.yul\":6142:6195   */\n      tag_66\n      jump\t// in\n    tag_157:\n        /* \"#utility.yul\":6132:6195   */\n      swap2\n      pop\n        /* \"#utility.yul\":6088:6205   */\n      pop\n        /* \"#utility.yul\":5883:6212   */\n      swap3\n      swap2\n      pop\n      pop\n      jump\t// out\n        /* \"#utility.yul\":6218:6317   */\n    tag_67:\n        /* \"#utility.yul\":6270:6276   */\n      0x00\n        /* \"#utility.yul\":6304:6309   */\n      dup2\n        /* \"#utility.yul\":6298:6310   */\n      mload\n        /* \"#utility.yul\":6288:6310   */\n      swap1\n      pop\n        /* \"#utility.yul\":6218:6317   */\n      swap2\n      swap1\n      pop\n      jump\t// out\n        /* \"#utility.yul\":6323:6492   */\n    tag_68:\n        /* \"#utility.yul\":6407:6418   */\n      0x00\n        /* \"#utility.yul\":6441:6447   */\n      dup3\n        /* \"#utility.yul\":6436:6439   */\n      dup3\n        /* \"#utility.yul\":6429:6448   */\n      mstore\n        /* \"#utility.yul\":6481:6485   */\n      0x20\n        /* \"#utility.yul\":6476:6479   */\n      dup3\n        /* \"#utility.yul\":6472:6486   */\n      add\n        /* \"#utility.yul\":6457:6486   */\n      swap1\n      pop\n        /* \"#utility.yul\":6323:6492   */\n      swap3\n      swap2\n      pop\n      pop\n      jump\t// out\n        /* \"#utility.yul\":6498:6744   */\n    tag_69:\n        /* \"#utility.yul\":6579:6580   */\n      0x00\n        /* \"#utility.yul\":6589:6702   */\n    tag_161:\n        /* \"#utility.yul\":6603:6609   */\n      dup4\n        /* \"#utility.yul\":6600:6601   */\n      dup2\n        /* \"#utility.yul\":6597:6610   */\n      lt\n        /* \"#utility.yul\":6589:6702   */\n      iszero\n      tag_163\n      jumpi\n        /* \"#utility.yul\":6688:6689   */\n      dup1\n        /* \"#utility.yul\":6683:6686   */\n      dup3\n        /* \"#utility.yul\":6679:6690   */\n      add\n        /* \"#utility.yul\":6673:6691   */\n      mload\n        /* \"#utility.yul\":6669:6670   */\n      dup2\n        /* \"#utility.yul\":6664:6667   */\n      dup5\n        /* \"#utility.yul\":6660:6671   */\n      add\n        /* \"#utility.yul\":6653:6692   */\n      mstore\n        /* \"#utility.yul\":6625:6627   */\n      0x20\n        /* \"#utility.yul\":6622:6623   */\n      dup2\n        /* \"#utility.yul\":6618:6628   */\n      add\n        /* \"#utility.yul\":6613:6628   */\n      swap1\n      pop\n        /* \"#utility.yul\":6589:6702   */\n      jump(tag_161)\n    tag_163:\n        /* \"#utility.yul\":6736:6737   */\n      0x00\n        /* \"#utility.yul\":6727:6733   */\n      dup5\n        /* \"#utility.yul\":6722:6725   */\n      dup5\n        /* \"#utility.yul\":6718:6734   */\n      add\n        /* \"#utility.yul\":6711:6738   */\n      mstore\n        /* \"#utility.yul\":6560:6744   */\n      pop\n        /* \"#utility.yul\":6498:6744   */\n      pop\n      pop\n      pop\n      jump\t// out\n        /* \"#utility.yul\":6750:7127   */\n    tag_70:\n        /* \"#utility.yul\":6838:6841   */\n      0x00\n        /* \"#utility.yul\":6866:6905   */\n      tag_165\n        /* \"#utility.yul\":6899:6904   */\n      dup3\n        /* \"#utility.yul\":6866:6905   */\n      tag_67\n      jump\t// in\n    tag_165:\n        /* \"#utility.yul\":6921:6992   */\n      tag_166\n        /* \"#utility.yul\":6985:6991   */\n      dup2\n        /* \"#utility.yul\":6980:6983   */\n      dup6\n        /* \"#utility.yul\":6921:6992   */\n      tag_68\n      jump\t// in\n    tag_166:\n        /* \"#utility.yul\":6914:6992   */\n      swap4\n      pop\n        /* \"#utility.yul\":7001:7066   */\n      tag_167\n        /* \"#utility.yul\":7059:7065   */\n      dup2\n        /* \"#utility.yul\":7054:7057   */\n      dup6\n        /* \"#utility.yul\":7047:7051   */\n      0x20\n        /* \"#utility.yul\":7040:7045   */\n      dup7\n        /* \"#utility.yul\":7036:7052   */\n      add\n        /* \"#utility.yul\":7001:7066   */\n      tag_69\n      jump\t// in\n    tag_167:\n        /* \"#utility.yul\":7091:7120   */\n      tag_168\n        /* \"#utility.yul\":7113:7119   */\n      dup2\n        /* \"#utility.yul\":7091:7120   */\n      tag_57\n      jump\t// in\n    tag_168:\n        /* \"#utility.yul\":7086:7089   */\n      dup5\n        /* \"#utility.yul\":7082:7121   */\n      add\n        /* \"#utility.yul\":7075:7121   */\n      swap2\n      pop\n        /* \"#utility.yul\":6842:7127   */\n      pop\n        /* \"#utility.yul\":6750:7127   */\n      swap3\n      swap2\n      pop\n      pop\n      jump\t// out\n        /* \"#utility.yul\":7133:7848   */\n    tag_24:\n        /* \"#utility.yul\":7342:7346   */\n      0x00\n        /* \"#utility.yul\":7380:7382   */\n      0x60\n        /* \"#utility.yul\":7369:7378   */\n      dup3\n        /* \"#utility.yul\":7365:7383   */\n      add\n        /* \"#utility.yul\":7357:7383   */\n      swap1\n      pop\n        /* \"#utility.yul\":7429:7438   */\n      dup2\n        /* \"#utility.yul\":7423:7427   */\n      dup2\n        /* \"#utility.yul\":7419:7439   */\n      sub\n        /* \"#utility.yul\":7415:7416   */\n      0x00\n        /* \"#utility.yul\":7404:7413   */\n      dup4\n        /* \"#utility.yul\":7400:7417   */\n      add\n        /* \"#utility.yul\":7393:7440   */\n      mstore\n        /* \"#utility.yul\":7457:7535   */\n      tag_170\n        /* \"#utility.yul\":7530:7534   */\n      dup2\n        /* \"#utility.yul\":7521:7527   */\n      dup7\n        /* \"#utility.yul\":7457:7535   */\n      tag_70\n      jump\t// in\n    tag_170:\n        /* \"#utility.yul\":7449:7535   */\n      swap1\n      pop\n        /* \"#utility.yul\":7582:7591   */\n      dup2\n        /* \"#utility.yul\":7576:7580   */\n      dup2\n        /* \"#utility.yul\":7572:7592   */\n      sub\n        /* \"#utility.yul\":7567:7569   */\n      0x20\n        /* \"#utility.yul\":7556:7565   */\n      dup4\n        /* \"#utility.yul\":7552:7570   */\n      add\n        /* \"#utility.yul\":7545:7593   */\n      mstore\n        /* \"#utility.yul\":7610:7688   */\n      tag_171\n        /* \"#utility.yul\":7683:7687   */\n      dup2\n        /* \"#utility.yul\":7674:7680   */\n      dup6\n        /* \"#utility.yul\":7610:7688   */\n      tag_70\n      jump\t// in\n    tag_171:\n        /* \"#utility.yul\":7602:7688   */\n      swap1\n      pop\n        /* \"#utility.yul\":7735:7744   */\n      dup2\n        /* \"#utility.yul\":7729:7733   */\n      dup2\n        /* \"#utility.yul\":7725:7745   */\n      sub\n        /* \"#utility.yul\":7720:7722   */\n      0x40\n        /* \"#utility.yul\":7709:7718   */\n      dup4\n        /* \"#utility.yul\":7705:7723   */\n      add\n        /* \"#utility.yul\":7698:7746   */\n      mstore\n        /* \"#utility.yul\":7763:7841   */\n      tag_172\n        /* \"#utility.yul\":7836:7840   */\n      dup2\n        /* \"#utility.yul\":7827:7833   */\n      dup5\n        /* \"#utility.yul\":7763:7841   */\n      tag_70\n      jump\t// in\n    tag_172:\n        /* \"#utility.yul\":7755:7841   */\n      swap1\n      pop\n        /* \"#utility.yul\":7133:7848   */\n      swap5\n      swap4\n      pop\n      pop\n      pop\n      pop\n      jump\t// out\n        /* \"#utility.yul\":7854:8034   */\n    tag_71:\n        /* \"#utility.yul\":7902:7979   */\n      0x4e487b7100000000000000000000000000000000000000000000000000000000\n        /* \"#utility.yul\":7899:7900   */\n      0x00\n        /* \"#utility.yul\":7892:7980   */\n      mstore\n        /* \"#utility.yul\":7999:8003   */\n      0x11\n        /* \"#utility.yul\":7996:7997   */\n      0x04\n        /* \"#utility.yul\":7989:8004   */\n      mstore\n        /* \"#utility.yul\":8023:8027   */\n      0x24\n        /* \"#utility.yul\":8020:8021   */\n      0x00\n        /* \"#utility.yul\":8013:8028   */\n      revert\n        /* \"#utility.yul\":8040:8273   */\n    tag_27:\n        /* \"#utility.yul\":8079:8082   */\n      0x00\n        /* \"#utility.yul\":8102:8126   */\n      tag_175\n        /* \"#utility.yul\":8120:8125   */\n      dup3\n        /* \"#utility.yul\":8102:8126   */\n      tag_50\n      jump\t// in\n    tag_175:\n        /* \"#utility.yul\":8093:8126   */\n      swap2\n      pop\n        /* \"#utility.yul\":8148:8214   */\n      0xffffffffffffffffffffffffffffffffffffffffffffffffffffffffffffffff\n        /* \"#utility.yul\":8141:8146   */\n      dup3\n        /* \"#utility.yul\":8138:8215   */\n      sub\n        /* \"#utility.yul\":8135:8238   */\n      tag_176\n      jumpi\n        /* \"#utility.yul\":8218:8236   */\n      tag_177\n      tag_71\n      jump\t// in\n    tag_177:\n        /* \"#utility.yul\":8135:8238   */\n    tag_176:\n        /* \"#utility.yul\":8265:8266   */\n      0x01\n        /* \"#utility.yul\":8258:8263   */\n      dup3\n        /* \"#utility.yul\":8254:8267   */\n      add\n        /* \"#utility.yul\":8247:8267   */\n      swap1\n      pop\n        /* \"#utility.yul\":8040:8273   */\n      swap2\n      swap1\n      pop\n      jump\t// out\n        /* \"#utility.yul\":8279:8459   */\n    tag_72:\n        /* \"#utility.yul\":8327:8404   */\n      0x4e487b7100000000000000000000000000000000000000000000000000000000\n        /* \"#utility.yul\":8324:8325   */\n      0x00\n        /* \"#utility.yul\":8317:8405   */\n      mstore\n        /* \"#utility.yul\":8424:8428   */\n      0x22\n        /* \"#utility.yul\":8421:8422   */\n      0x04\n        /* \"#utility.yul\":8414:8429   */\n      mstore\n        /* \"#utility.yul\":8448:8452   */\n      0x24\n        /* \"#utility.yul\":8445:8446   */\n      0x00\n        /* \"#utility.yul\":8438:8453   */\n      revert\n        /* \"#utility.yul\":8465:8785   */\n    tag_35:\n        /* \"#utility.yul\":8509:8515   */\n      0x00\n        /* \"#utility.yul\":8546:8547   */\n      0x02\n        /* \"#utility.yul\":8540:8544   */\n      dup3\n        /* \"#utility.yul\":8536:8548   */\n      div\n        /* \"#utility.yul\":8526:8548   */\n      swap1\n      pop\n        /* \"#utility.yul\":8593:8594   */\n      0x01\n        /* \"#utility.yul\":8587:8591   */\n      dup3\n        /* \"#utility.yul\":8583:8595   */\n      and\n        /* \"#utility.yul\":8614:8632   */\n      dup1\n        /* \"#utility.yul\":8604:8685   */\n      tag_180\n      jumpi\n        /* \"#utility.yul\":8670:8674   */\n      0x7f\n        /* \"#utility.yul\":8662:8668   */\n      dup3\n        /* \"#utility.yul\":8658:8675   */\n      and\n        /* \"#utility.yul\":8648:8675   */\n      swap2\n      pop\n        /* \"#utility.yul\":8604:8685   */\n    tag_180:\n        /* \"#utility.yul\":8732:8734   */\n      0x20\n        /* \"#utility.yul\":8724:8730   */\n      dup3\n        /* \"#utility.yul\":8721:8735   */\n      lt\n        /* \"#utility.yul\":8701:8719   */\n      dup2\n        /* \"#utility.yul\":8698:8736   */\n      sub\n        /* \"#utility.yul\":8695:8779   */\n      tag_181\n      jumpi\n        /* \"#utility.yul\":8751:8769   */\n      tag_182\n      tag_72\n      jump\t// in\n    tag_182:\n        /* \"#utility.yul\":8695:8779   */\n    tag_181:\n        /* \"#utility.yul\":8516:8785   */\n      pop\n        /* \"#utility.yul\":8465:8785   */\n      swap2\n      swap1\n      pop\n      jump\t// out\n        /* \"#utility.yul\":8791:8932   */\n    tag_73:\n        /* \"#utility.yul\":8840:8844   */\n      0x00\n        /* \"#utility.yul\":8863:8866   */\n      dup2\n        /* \"#utility.yul\":8855:8866   */\n      swap1\n      pop\n        /* \"#utility.yul\":8886:8889   */\n      dup2\n        /* \"#utility.yul\":8883:8884   */\n      0x00\n        /* \"#utility.yul\":8876:8890   */\n      mstore\n        /* \"#utility.yul\":8920:8924   */\n      0x20\n        /* \"#utility.yul\":8917:8918   */\n      0x00\n        /* \"#utility.yul\":8907:8925   */\n      keccak256\n        /* \"#utility.yul\":8899:8925   */\n      swap1\n      pop\n        /* \"#utility.yul\":8791:8932   */\n      swap2\n      swap1\n      pop\n      jump\t// out\n        /* \"#utility.yul\":8938:9031   */\n    tag_74:\n        /* \"#utility.yul\":8975:8981   */\n      0x00\n        /* \"#utility.yul\":9022:9024   */\n      0x20\n        /* \"#utility.yul\":9017:9019   */\n      0x1f\n        /* \"#utility.yul\":9010:9015   */\n      dup4\n        /* \"#utility.yul\":9006:9020   */\n      add\n        /* \"#utility.yul\":9002:9025   */\n      div\n        /* \"#utility.yul\":8992:9025   */\n      swap1\n      pop\n        /* \"#utility.yul\":8938:9031   */\n      swap2\n      swap1\n      pop\n      jump\t// out\n        /* \"#utility.yul\":9037:9144   */\n    tag_75:\n        /* \"#utility.yul\":9081:9089   */\n      0x00\n        /* \"#utility.yul\":9131:9136   */\n      dup3\n        /* \"#utility.yul\":9125:9129   */\n      dup3\n        /* \"#utility.yul\":9121:9137   */\n      shl\n        /* \"#utility.yul\":9100:9137   */\n      swap1\n      pop\n        /* \"#utility.yul\":9037:9144   */\n      swap3\n      swap2\n      pop\n      pop\n      jump\t// out\n        /* \"#utility.yul\":9150:9543   */\n    tag_76:\n        /* \"#utility.yul\":9219:9225   */\n      0x00\n        /* \"#utility.yul\":9269:9270   */\n      0x08\n        /* \"#utility.yul\":9257:9267   */\n      dup4\n        /* \"#utility.yul\":9253:9271   */\n      mul\n        /* \"#utility.yul\":9292:9389   */\n      tag_187\n        /* \"#utility.yul\":9322:9388   */\n      0xffffffffffffffffffffffffffffffffffffffffffffffffffffffffffffffff\n        /* \"#utility.yul\":9311:9320   */\n      dup3\n        /* \"#utility.yul\":9292:9389   */\n      tag_75\n      jump\t// in\n    tag_187:\n        /* \"#utility.yul\":9410:9449   */\n      tag_188\n        /* \"#utility.yul\":9440:9448   */\n      dup7\n        /* \"#utility.yul\":9429:9438   */\n      dup4\n        /* \"#utility.yul\":9410:9449   */\n      tag_75\n      jump\t// in\n    tag_188:\n        /* \"#utility.yul\":9398:9449   */\n      swap6\n      pop\n        /* \"#utility.yul\":9482:9486   */\n      dup1\n        /* \"#utility.yul\":9478:9487   */\n      not\n        /* \"#utility.yul\":9471:9476   */\n      dup5\n        /* \"#utility.yul\":9467:9488   */\n      and\n        /* \"#utility.yul\":9458:9488   */\n      swap4\n      pop\n        /* \"#utility.yul\":9531:9535   */\n      dup1\n        /* \"#utility.yul\":9521:9529   */\n      dup7\n        /* \"#utility.yul\":9517:9536   */\n      and\n        /* \"#utility.yul\":9510:9515   */\n      dup5\n        /* \"#utility.yul\":9507:9537   */\n      or\n        /* \"#utility.yul\":9497:9537   */\n      swap3\n      pop\n        /* \"#utility.yul\":9226:9543   */\n      pop\n      pop\n        /* \"#utility.yul\":9150:9543   */\n      swap4\n      swap3\n      pop\n      pop\n      pop\n      jump\t// out\n        /* \"#utility.yul\":9549:9609   */\n    tag_77:\n        /* \"#utility.yul\":9577:9580   */\n      0x00\n        /* \"#utility.yul\":9598:9603   */\n      dup2\n        /* \"#utility.yul\":9591:9603   */\n      swap1\n      pop\n        /* \"#utility.yul\":9549:9609   */\n      swap2\n      swap1\n      pop\n      jump\t// out\n        /* \"#utility.yul\":9615:9757   */\n    tag_78:\n        /* \"#utility.yul\":9665:9674   */\n      0x00\n        /* \"#utility.yul\":9698:9751   */\n      tag_191\n        /* \"#utility.yul\":9716:9750   */\n      tag_192\n        /* \"#utility.yul\":9725:9749   */\n      tag_193\n        /* \"#utility.yul\":9743:9748   */\n      dup5\n        /* \"#utility.yul\":9725:9749   */\n      tag_50\n      jump\t// in\n    tag_193:\n        /* \"#utility.yul\":9716:9750   */\n      tag_77\n      jump\t// in\n    tag_192:\n        /* \"#utility.yul\":9698:9751   */\n      tag_50\n      jump\t// in\n    tag_191:\n        /* \"#utility.yul\":9685:9751   */\n      swap1\n      pop\n        /* \"#utility.yul\":9615:9757   */\n      swap2\n      swap1\n      pop\n      jump\t// out\n        /* \"#utility.yul\":9763:9838   */\n    tag_79:\n        /* \"#utility.yul\":9806:9809   */\n      0x00\n        /* \"#utility.yul\":9827:9832   */\n      dup2\n        /* \"#utility.yul\":9820:9832   */\n      swap1\n      pop\n        /* \"#utility.yul\":9763:9838   */\n      swap2\n      swap1\n      pop\n      jump\t// out\n        /* \"#utility.yul\":9844:10113   */\n    tag_80:\n        /* \"#utility.yul\":9954:9993   */\n      tag_196\n        /* \"#utility.yul\":9985:9992   */\n      dup4\n        /* \"#utility.yul\":9954:9993   */\n      tag_78\n      jump\t// in\n    tag_196:\n        /* \"#utility.yul\":10015:10106   */\n      tag_197\n        /* \"#utility.yul\":10064:10105   */\n      tag_198\n        /* \"#utility.yul\":10088:10104   */\n      dup3\n        /* \"#utility.yul\":10064:10105   */\n      tag_79\n      jump\t// in\n    tag_198:\n        /* \"#utility.yul\":10056:10062   */\n      dup5\n        /* \"#utility.yul\":10049:10053   */\n      dup5\n        /* \"#utility.yul\":10043:10054   */\n      sload\n        /* \"#utility.yul\":10015:10106   */\n      tag_76\n      jump\t// in\n    tag_197:\n        /* \"#utility.yul\":10009:10013   */\n      dup3\n        /* \"#utility.yul\":10002:10107   */\n      sstore\n        /* \"#utility.yul\":9920:10113   */\n      pop\n        /* \"#utility.yul\":9844:10113   */\n      pop\n      pop\n      pop\n      jump\t// out\n        /* \"#utility.yul\":10119:10192   */\n    tag_81:\n        /* \"#utility.yul\":10164:10167   */\n      0x00\n        /* \"#utility.yul\":10119:10192   */\n      swap1\n      jump\t// out\n        /* \"#utility.yul\":10198:10387   */\n    tag_82:\n        /* \"#utility.yul\":10275:10307   */\n      tag_201\n      tag_81\n      jump\t// in\n    tag_201:\n        /* \"#utility.yul\":10316:10381   */\n      tag_202\n        /* \"#utility.yul\":10374:10380   */\n      dup2\n        /* \"#utility.yul\":10366:10372   */\n      dup5\n        /* \"#utility.yul\":10360:10364   */\n      dup5\n        /* \"#utility.yul\":10316:10381   */\n      tag_80\n      jump\t// in\n    tag_202:\n        /* \"#utility.yul\":10251:10387   */\n      pop\n        /* \"#utility.yul\":10198:10387   */\n      pop\n      pop\n      jump\t// out\n        /* \"#utility.yul\":10393:10579   */\n    tag_83:\n        /* \"#utility.yul\":10453:10573   */\n    tag_204:\n        /* \"#utility.yul\":10470:10473   */\n      dup2\n        /* \"#utility.yul\":10463:10468   */\n      dup2\n        /* \"#utility.yul\":10460:10474   */\n      lt\n        /* \"#utility.yul\":10453:10573   */\n      iszero\n      tag_206\n      jumpi\n        /* \"#utility.yul\":10524:10563   */\n      tag_207\n        /* \"#utility.yul\":10561:10562   */\n      0x00\n        /* \"#utility.yul\":10554:10559   */\n      dup3\n        /* \"#utility.yul\":10524:10563   */\n      tag_82\n      jump\t// in\n    tag_207:\n        /* \"#utility.yul\":10497:10498   */\n      0x01\n        /* \"#utility.yul\":10490:10495   */\n      dup2\n        /* \"#utility.yul\":10486:10499   */\n      add\n        /* \"#utility.yul\":10477:10499   */\n      swap1\n      pop\n        /* \"#utility.yul\":10453:10573   */\n      jump(tag_204)\n    tag_206:\n        /* \"#utility.yul\":10393:10579   */\n      pop\n      pop\n      jump\t// out\n        /* \"#utility.yul\":10585:11128   */\n    tag_84:\n        /* \"#utility.yul\":10686:10688   */\n      0x1f\n        /* \"#utility.yul\":10681:10684   */\n      dup3\n        /* \"#utility.yul\":10678:10689   */\n      gt\n        /* \"#utility.yul\":10675:11121   */\n      iszero\n      tag_209\n      jumpi\n        /* \"#utility.yul\":10720:10758   */\n      tag_210\n        /* \"#utility.yul\":10752:10757   */\n      dup2\n        /* \"#utility.yul\":10720:10758   */\n      tag_73\n      jump\t// in\n    tag_210:\n        /* \"#utility.yul\":10804:10833   */\n      tag_211\n        /* \"#utility.yul\":10822:10832   */\n      dup5\n        /* \"#utility.yul\":10804:10833   */\n      tag_74\n      jump\t// in\n    tag_211:\n        /* \"#utility.yul\":10794:10802   */\n      dup2\n        /* \"#utility.yul\":10790:10834   */\n      add\n        /* \"#utility.yul\":10987:10989   */\n      0x20\n        /* \"#utility.yul\":10975:10985   */\n      dup6\n        /* \"#utility.yul\":10972:10990   */\n      lt\n        /* \"#utility.yul\":10969:11018   */\n      iszero\n      tag_212\n      jumpi\n        /* \"#utility.yul\":11008:11016   */\n      dup2\n        /* \"#utility.yul\":10993:11016   */\n      swap1\n      pop\n        /* \"#utility.yul\":10969:11018   */\n    tag_212:\n        /* \"#utility.yul\":11031:11111   */\n      tag_213\n        /* \"#utility.yul\":11087:11109   */\n      tag_214\n        /* \"#utility.yul\":11105:11108   */\n      dup6\n        /* \"#utility.yul\":11087:11109   */\n      tag_74\n      jump\t// in\n    tag_214:\n        /* \"#utility.yul\":11077:11085   */\n      dup4\n        /* \"#utility.yul\":11073:11110   */\n      add\n        /* \"#utility.yul\":11060:11071   */\n      dup3\n        /* \"#utility.yul\":11031:11111   */\n      tag_83\n      jump\t// in\n    tag_213:\n        /* \"#utility.yul\":10690:11121   */\n      pop\n      pop\n        /* \"#utility.yul\":10675:11121   */\n    tag_209:\n        /* \"#utility.yul\":10585:11128   */\n      pop\n      pop\n      pop\n      jump\t// out\n        /* \"#utility.yul\":11134:11251   */\n    tag_85:\n        /* \"#utility.yul\":11188:11196   */\n      0x00\n        /* \"#utility.yul\":11238:11243   */\n      dup3\n        /* \"#utility.yul\":11232:11236   */\n      dup3\n        /* \"#utility.yul\":11228:11244   */\n      shr\n        /* \"#utility.yul\":11207:11244   */\n      swap1\n      pop\n        /* \"#utility.yul\":11134:11251   */\n      swap3\n      swap2\n      pop\n      pop\n      jump\t// out\n        /* \"#utility.yul\":11257:11426   */\n    tag_86:\n        /* \"#utility.yul\":11301:11307   */\n      0x00\n        /* \"#utility.yul\":11334:11385   */\n      tag_217\n        /* \"#utility.yul\":11382:11383   */\n      0x00\n        /* \"#utility.yul\":11378:11384   */\n      not\n        /* \"#utility.yul\":11370:11375   */\n      dup5\n        /* \"#utility.yul\":11367:11368   */\n      0x08\n        /* \"#utility.yul\":11363:11376   */\n      mul\n        /* \"#utility.yul\":11334:11385   */\n      tag_85\n      jump\t// in\n    tag_217:\n        /* \"#utility.yul\":11330:11386   */\n      not\n        /* \"#utility.yul\":11415:11419   */\n      dup1\n        /* \"#utility.yul\":11409:11413   */\n      dup4\n        /* \"#utility.yul\":11405:11420   */\n      and\n        /* \"#utility.yul\":11395:11420   */\n      swap2\n      pop\n        /* \"#utility.yul\":11308:11426   */\n      pop\n        /* \"#utility.yul\":11257:11426   */\n      swap3\n      swap2\n      pop\n      pop\n      jump\t// out\n        /* \"#utility.yul\":11431:11726   */\n    tag_87:\n        /* \"#utility.yul\":11507:11511   */\n      0x00\n        /* \"#utility.yul\":11653:11682   */\n      tag_219\n        /* \"#utility.yul\":11678:11681   */\n      dup4\n        /* \"#utility.yul\":11672:11676   */\n      dup4\n        /* \"#utility.yul\":11653:11682   */\n      tag_86\n      jump\t// in\n    tag_219:\n        /* \"#utility.yul\":11645:11682   */\n      swap2\n      pop\n        /* \"#utility.yul\":11715:11718   */\n      dup3\n        /* \"#utility.yul\":11712:11713   */\n      0x02\n        /* \"#utility.yul\":11708:11719   */\n      mul\n        /* \"#utility.yul\":11702:11706   */\n      dup3\n        /* \"#utility.yul\":11699:11720   */\n      or\n        /* \"#utility.yul\":11691:11720   */\n      swap1\n      pop\n        /* \"#utility.yul\":11431:11726   */\n      swap3\n      swap2\n      pop\n      pop\n      jump\t// out\n        /* \"#utility.yul\":11731:13126   */\n    tag_29:\n        /* \"#utility.yul\":11848:11885   */\n      tag_221\n        /* \"#utility.yul\":11881:11884   */\n      dup3\n        /* \"#utility.yul\":11848:11885   */\n      tag_67\n      jump\t// in\n    tag_221:\n        /* \"#utility.yul\":11950:11968   */\n      0xffffffffffffffff\n        /* \"#utility.yul\":11942:11948   */\n      dup2\n        /* \"#utility.yul\":11939:11969   */\n      gt\n        /* \"#utility.yul\":11936:11992   */\n      iszero\n      tag_222\n      jumpi\n        /* \"#utility.yul\":11972:11990   */\n      tag_223\n      tag_58\n      jump\t// in\n    tag_223:\n        /* \"#utility.yul\":11936:11992   */\n    tag_222:\n        /* \"#utility.yul\":12016:12054   */\n      tag_224\n        /* \"#utility.yul\":12048:12052   */\n      dup3\n        /* \"#utility.yul\":12042:12053   */\n      sload\n        /* \"#utility.yul\":12016:12054   */\n      tag_35\n      jump\t// in\n    tag_224:\n        /* \"#utility.yul\":12101:12168   */\n      tag_225\n        /* \"#utility.yul\":12161:12167   */\n      dup3\n        /* \"#utility.yul\":12153:12159   */\n      dup3\n        /* \"#utility.yul\":12147:12151   */\n      dup6\n        /* \"#utility.yul\":12101:12168   */\n      tag_84\n      jump\t// in\n    tag_225:\n        /* \"#utility.yul\":12195:12196   */\n      0x00\n        /* \"#utility.yul\":12219:12223   */\n      0x20\n        /* \"#utility.yul\":12206:12223   */\n      swap1\n      pop\n        /* \"#utility.yul\":12251:12253   */\n      0x1f\n        /* \"#utility.yul\":12243:12249   */\n      dup4\n        /* \"#utility.yul\":12240:12254   */\n      gt\n        /* \"#utility.yul\":12268:12269   */\n      0x01\n        /* \"#utility.yul\":12263:12881   */\n      dup2\n      eq\n      tag_227\n      jumpi\n        /* \"#utility.yul\":12925:12926   */\n      0x00\n        /* \"#utility.yul\":12942:12948   */\n      dup5\n        /* \"#utility.yul\":12939:13016   */\n      iszero\n      tag_228\n      jumpi\n        /* \"#utility.yul\":12991:13000   */\n      dup3\n        /* \"#utility.yul\":12986:12989   */\n      dup8\n        /* \"#utility.yul\":12982:13001   */\n      add\n        /* \"#utility.yul\":12976:13002   */\n      mload\n        /* \"#utility.yul\":12967:13002   */\n      swap1\n      pop\n        /* \"#utility.yul\":12939:13016   */\n    tag_228:\n        /* \"#utility.yul\":13042:13109   */\n      tag_229\n        /* \"#utility.yul\":13102:13108   */\n      dup6\n        /* \"#utility.yul\":13095:13100   */\n      dup3\n        /* \"#utility.yul\":13042:13109   */\n      tag_87\n      jump\t// in\n    tag_229:\n        /* \"#utility.yul\":13036:13040   */\n      dup7\n        /* \"#utility.yul\":13029:13110   */\n      sstore\n        /* \"#utility.yul\":12898:13120   */\n      pop\n        /* \"#utility.yul\":12233:13120   */\n      jump(tag_226)\n        /* \"#utility.yul\":12263:12881   */\n    tag_227:\n        /* \"#utility.yul\":12315:12319   */\n      0x1f\n        /* \"#utility.yul\":12311:12320   */\n      not\n        /* \"#utility.yul\":12303:12309   */\n      dup5\n        /* \"#utility.yul\":12299:12321   */\n      and\n        /* \"#utility.yul\":12349:12386   */\n      tag_230\n        /* \"#utility.yul\":12381:12385   */\n      dup7\n        /* \"#utility.yul\":12349:12386   */\n      tag_73\n      jump\t// in\n    tag_230:\n        /* \"#utility.yul\":12408:12409   */\n      0x00\n        /* \"#utility.yul\":12422:12630   */\n    tag_231:\n        /* \"#utility.yul\":12436:12443   */\n      dup3\n        /* \"#utility.yul\":12433:12434   */\n      dup2\n        /* \"#utility.yul\":12430:12444   */\n      lt\n        /* \"#utility.yul\":12422:12630   */\n      iszero\n      tag_233\n      jumpi\n        /* \"#utility.yul\":12515:12524   */\n      dup5\n        /* \"#utility.yul\":12510:12513   */\n      dup10\n        /* \"#utility.yul\":12506:12525   */\n      add\n        /* \"#utility.yul\":12500:12526   */\n      mload\n        /* \"#utility.yul\":12492:12498   */\n      dup3\n        /* \"#utility.yul\":12485:12527   */\n      sstore\n        /* \"#utility.yul\":12566:12567   */\n      0x01\n        /* \"#utility.yul\":12558:12564   */\n      dup3\n        /* \"#utility.yul\":12554:12568   */\n      add\n        /* \"#utility.yul\":12544:12568   */\n      swap2\n      pop\n        /* \"#utility.yul\":12613:12615   */\n      0x20\n        /* \"#utility.yul\":12602:12611   */\n      dup6\n        /* \"#utility.yul\":12598:12616   */\n      add\n        /* \"#utility.yul\":12585:12616   */\n      swap5\n      pop\n        /* \"#utility.yul\":12459:12463   */\n      0x20\n        /* \"#utility.yul\":12456:12457   */\n      dup2\n        /* \"#utility.yul\":12452:12464   */\n      add\n        /* \"#utility.yul\":12447:12464   */\n      swap1\n      pop\n        /* \"#utility.yul\":12422:12630   */\n      jump(tag_231)\n    tag_233:\n        /* \"#utility.yul\":12658:12664   */\n      dup7\n        /* \"#utility.yul\":12649:12656   */\n      dup4\n        /* \"#utility.yul\":12646:12665   */\n      lt\n        /* \"#utility.yul\":12643:12822   */\n      iszero\n      tag_234\n      jumpi\n        /* \"#utility.yul\":12716:12725   */\n      dup5\n        /* \"#utility.yul\":12711:12714   */\n      dup10\n        /* \"#utility.yul\":12707:12726   */\n      add\n        /* \"#utility.yul\":12701:12727   */\n      mload\n        /* \"#utility.yul\":12759:12807   */\n      tag_235\n        /* \"#utility.yul\":12801:12805   */\n      0x1f\n        /* \"#utility.yul\":12793:12799   */\n      dup10\n        /* \"#utility.yul\":12789:12806   */\n      and\n        /* \"#utility.yul\":12778:12787   */\n      dup3\n        /* \"#utility.yul\":12759:12807   */\n      tag_86\n      jump\t// in\n    tag_235:\n        /* \"#utility.yul\":12751:12757   */\n      dup4\n        /* \"#utility.yul\":12744:12808   */\n      sstore\n        /* \"#utility.yul\":12666:12822   */\n      pop\n        /* \"#utility.yul\":12643:12822   */\n    tag_234:\n        /* \"#utility.yul\":12868:12869   */\n      0x01\n        /* \"#utility.yul\":12864:12865   */\n      0x02\n        /* \"#utility.yul\":12856:12862   */\n      dup9\n        /* \"#utility.yul\":12852:12866   */\n      mul\n        /* \"#utility.yul\":12848:12870   */\n      add\n        /* \"#utility.yul\":12842:12846   */\n      dup9\n        /* \"#utility.yul\":12835:12871   */\n      sstore\n        /* \"#utility.yul\":12270:12881   */\n      pop\n      pop\n      pop\n        /* \"#utility.yul\":12233:13120   */\n    tag_226:\n      pop\n        /* \"#utility.yul\":11823:13126   */\n      pop\n      pop\n      pop\n        /* \"#utility.yul\":11731:13126   */\n      pop\n      pop\n      jump\t// out\n\n    auxdata: 0xa26469706673582212207d458e32091160bac1472983a42e5f670b2f84d17301090263ccd6fe512352db64736f6c63430008120033\n}\n",
				"bytecode": {
					"linkReferences": {},
					"object": "608060405234801561001057600080fd5b50610b03806100206000396000f3fe608060405234801561001057600080fd5b506004361061004c5760003560e01c806346f9c5bb1461005157806350c7a9121461006f57806375f495291461008b57806391e0e428146100a7575b600080fd5b6100596100d9565b6040516100669190610369565b60405180910390f35b610089600480360381019061008491906104de565b6100df565b005b6100a560048036038101906100a091906105b1565b610170565b005b6100c160048036038101906100bc9190610680565b610177565b6040516100d09392919061072c565b60405180910390f35b60015481565b600160008154809291906100f2906107a7565b91905055506040518060600160405280848152602001838152602001828152506000806001548152602001908152602001600020600082015181600001908161013b91906109fb565b50602082015181600101908161015191906109fb565b50604082015181600201908161016791906109fb565b50905050505050565b5050505050565b6060806060600080600086815260200190815260200160002090508060000181600101826002018280546101aa9061081e565b80601f01602080910402602001604051908101604052809291908181526020018280546101d69061081e565b80156102235780601f106101f857610100808354040283529160200191610223565b820191906000526020600020905b81548152906001019060200180831161020657829003601f168201915b505050505092508180546102369061081e565b80601f01602080910402602001604051908101604052809291908181526020018280546102629061081e565b80156102af5780601f10610284576101008083540402835291602001916102af565b820191906000526020600020905b81548152906001019060200180831161029257829003601f168201915b505050505091508080546102c29061081e565b80601f01602080910402602001604051908101604052809291908181526020018280546102ee9061081e565b801561033b5780601f106103105761010080835404028352916020019161033b565b820191906000526020600020905b81548152906001019060200180831161031e57829003601f168201915b50505050509050935093509350509193909250565b6000819050919050565b61036381610350565b82525050565b600060208201905061037e600083018461035a565b92915050565b6000604051905090565b600080fd5b600080fd5b600080fd5b600080fd5b6000601f19601f8301169050919050565b7f4e487b7100000000000000000000000000000000000000000000000000000000600052604160045260246000fd5b6103eb826103a2565b810181811067ffffffffffffffff8211171561040a576104096103b3565b5b80604052505050565b600061041d610384565b905061042982826103e2565b919050565b600067ffffffffffffffff821115610449576104486103b3565b5b610452826103a2565b9050602081019050919050565b82818337600083830152505050565b600061048161047c8461042e565b610413565b90508281526020810184848401111561049d5761049c61039d565b5b6104a884828561045f565b509392505050565b600082601f8301126104c5576104c4610398565b5b81356104d584826020860161046e565b91505092915050565b6000806000606084860312156104f7576104f661038e565b5b600084013567ffffffffffffffff81111561051557610514610393565b5b610521868287016104b0565b935050602084013567ffffffffffffffff81111561054257610541610393565b5b61054e868287016104b0565b925050604084013567ffffffffffffffff81111561056f5761056e610393565b5b61057b868287016104b0565b9150509250925092565b61058e81610350565b811461059957600080fd5b50565b6000813590506105ab81610585565b92915050565b600080600080600060a086880312156105cd576105cc61038e565b5b60006105db8882890161059c565b955050602086013567ffffffffffffffff8111156105fc576105fb610393565b5b610608888289016104b0565b945050604086013567ffffffffffffffff81111561062957610628610393565b5b610635888289016104b0565b935050606086013567ffffffffffffffff81111561065657610655610393565b5b610662888289016104b0565b92505060806106738882890161059c565b9150509295509295909350565b6000602082840312156106965761069561038e565b5b60006106a48482850161059c565b91505092915050565b600081519050919050565b600082825260208201905092915050565b60005b838110156106e75780820151818401526020810190506106cc565b60008484015250505050565b60006106fe826106ad565b61070881856106b8565b93506107188185602086016106c9565b610721816103a2565b840191505092915050565b6000606082019050818103600083015261074681866106f3565b9050818103602083015261075a81856106f3565b9050818103604083015261076e81846106f3565b9050949350505050565b7f4e487b7100000000000000000000000000000000000000000000000000000000600052601160045260246000fd5b60006107b282610350565b91507fffffffffffffffffffffffffffffffffffffffffffffffffffffffffffffffff82036107e4576107e3610778565b5b600182019050919050565b7f4e487b7100000000000000000000000000000000000000000000000000000000600052602260045260246000fd5b6000600282049050600182168061083657607f821691505b602082108103610849576108486107ef565b5b50919050565b60008190508160005260206000209050919050565b60006020601f8301049050919050565b600082821b905092915050565b6000600883026108b17fffffffffffffffffffffffffffffffffffffffffffffffffffffffffffffffff82610874565b6108bb8683610874565b95508019841693508086168417925050509392505050565b6000819050919050565b60006108f86108f36108ee84610350565b6108d3565b610350565b9050919050565b6000819050919050565b610912836108dd565b61092661091e826108ff565b848454610881565b825550505050565b600090565b61093b61092e565b610946818484610909565b505050565b5b8181101561096a5761095f600082610933565b60018101905061094c565b5050565b601f8211156109af576109808161084f565b61098984610864565b81016020851015610998578190505b6109ac6109a485610864565b83018261094b565b50505b505050565b600082821c905092915050565b60006109d2600019846008026109b4565b1980831691505092915050565b60006109eb83836109c1565b9150826002028217905092915050565b610a04826106ad565b67ffffffffffffffff811115610a1d57610a1c6103b3565b5b610a27825461081e565b610a3282828561096e565b600060209050601f831160018114610a655760008415610a53578287015190505b610a5d85826109df565b865550610ac5565b601f198416610a738661084f565b60005b82811015610a9b57848901518255600182019150602085019450602081019050610a76565b86831015610ab85784890151610ab4601f8916826109c1565b8355505b6001600288020188555050505b50505050505056fea26469706673582212207d458e32091160bac1472983a42e5f670b2f84d17301090263ccd6fe512352db64736f6c63430008120033",
					"opcodes": "PUSH1 0x80 PUSH1 0x40 MSTORE CALLVALUE DUP1 ISZERO PUSH2 0x10 JUMPI PUSH1 0x0 DUP1 REVERT JUMPDEST POP PUSH2 0xB03 DUP1 PUSH2 0x20 PUSH1 0x0 CODECOPY PUSH1 0x0 RETURN INVALID PUSH1 0x80 PUSH1 0x40 MSTORE CALLVALUE DUP1 ISZERO PUSH2 0x10 JUMPI PUSH1 0x0 DUP1 REVERT JUMPDEST POP PUSH1 0x4 CALLDATASIZE LT PUSH2 0x4C JUMPI PUSH1 0x0 CALLDATALOAD PUSH1 0xE0 SHR DUP1 PUSH4 0x46F9C5BB EQ PUSH2 0x51 JUMPI DUP1 PUSH4 0x50C7A912 EQ PUSH2 0x6F JUMPI DUP1 PUSH4 0x75F49529 EQ PUSH2 0x8B JUMPI DUP1 PUSH4 0x91E0E428 EQ PUSH2 0xA7 JUMPI JUMPDEST PUSH1 0x0 DUP1 REVERT JUMPDEST PUSH2 0x59 PUSH2 0xD9 JUMP JUMPDEST PUSH1 0x40 MLOAD PUSH2 0x66 SWAP2 SWAP1 PUSH2 0x369 JUMP JUMPDEST PUSH1 0x40 MLOAD DUP1 SWAP2 SUB SWAP1 RETURN JUMPDEST PUSH2 0x89 PUSH1 0x4 DUP1 CALLDATASIZE SUB DUP2 ADD SWAP1 PUSH2 0x84 SWAP2 SWAP1 PUSH2 0x4DE JUMP JUMPDEST PUSH2 0xDF JUMP JUMPDEST STOP JUMPDEST PUSH2 0xA5 PUSH1 0x4 DUP1 CALLDATASIZE SUB DUP2 ADD SWAP1 PUSH2 0xA0 SWAP2 SWAP1 PUSH2 0x5B1 JUMP JUMPDEST PUSH2 0x170 JUMP JUMPDEST STOP JUMPDEST PUSH2 0xC1 PUSH1 0x4 DUP1 CALLDATASIZE SUB DUP2 ADD SWAP1 PUSH2 0xBC SWAP2 SWAP1 PUSH2 0x680 JUMP JUMPDEST PUSH2 0x177 JUMP JUMPDEST PUSH1 0x40 MLOAD PUSH2 0xD0 SWAP4 SWAP3 SWAP2 SWAP1 PUSH2 0x72C JUMP JUMPDEST PUSH1 0x40 MLOAD DUP1 SWAP2 SUB SWAP1 RETURN JUMPDEST PUSH1 0x1 SLOAD DUP2 JUMP JUMPDEST PUSH1 0x1 PUSH1 0x0 DUP2 SLOAD DUP1 SWAP3 SWAP2 SWAP1 PUSH2 0xF2 SWAP1 PUSH2 0x7A7 JUMP JUMPDEST SWAP2 SWAP1 POP SSTORE POP PUSH1 0x40 MLOAD DUP1 PUSH1 0x60 ADD PUSH1 0x40 MSTORE DUP1 DUP5 DUP2 MSTORE PUSH1 0x20 ADD DUP4 DUP2 MSTORE PUSH1 0x20 ADD DUP3 DUP2 MSTORE POP PUSH1 0x0 DUP1 PUSH1 0x1 SLOAD DUP2 MSTORE PUSH1 0x20 ADD SWAP1 DUP2 MSTORE PUSH1 0x20 ADD PUSH1 0x0 KECCAK256 PUSH1 0x0 DUP3 ADD MLOAD DUP2 PUSH1 0x0 ADD SWAP1 DUP2 PUSH2 0x13B SWAP2 SWAP1 PUSH2 0x9FB JUMP JUMPDEST POP PUSH1 0x20 DUP3 ADD MLOAD DUP2 PUSH1 0x1 ADD SWAP1 DUP2 PUSH2 0x151 SWAP2 SWAP1 PUSH2 0x9FB JUMP JUMPDEST POP PUSH1 0x40 DUP3 ADD MLOAD DUP2 PUSH1 0x2 ADD SWAP1 DUP2 PUSH2 0x167 SWAP2 SWAP1 PUSH2 0x9FB JUMP JUMPDEST POP SWAP1 POP POP POP POP POP JUMP JUMPDEST POP POP POP POP POP JUMP JUMPDEST PUSH1 0x60 DUP1 PUSH1 0x60 PUSH1 0x0 DUP1 PUSH1 0x0 DUP7 DUP2 MSTORE PUSH1 0x20 ADD SWAP1 DUP2 MSTORE PUSH1 0x20 ADD PUSH1 0x0 KECCAK256 SWAP1 POP DUP1 PUSH1 0x0 ADD DUP2 PUSH1 0x1 ADD DUP3 PUSH1 0x2 ADD DUP3 DUP1 SLOAD PUSH2 0x1AA SWAP1 PUSH2 0x81E JUMP JUMPDEST DUP1 PUSH1 0x1F ADD PUSH1 0x20 DUP1 SWAP2 DIV MUL PUSH1 0x20 ADD PUSH1 0x40 MLOAD SWAP1 DUP2 ADD PUSH1 0x40 MSTORE DUP1 SWAP3 SWAP2 SWAP1 DUP2 DUP2 MSTORE PUSH1 0x20 ADD DUP3 DUP1 SLOAD PUSH2 0x1D6 SWAP1 PUSH2 0x81E JUMP JUMPDEST DUP1 ISZERO PUSH2 0x223 JUMPI DUP1 PUSH1 0x1F LT PUSH2 0x1F8 JUMPI PUSH2 0x100 DUP1 DUP4 SLOAD DIV MUL DUP4 MSTORE SWAP2 PUSH1 0x20 ADD SWAP2 PUSH2 0x223 JUMP JUMPDEST DUP3 ADD SWAP2 SWAP1 PUSH1 0x0 MSTORE PUSH1 0x20 PUSH1 0x0 KECCAK256 SWAP1 JUMPDEST DUP2 SLOAD DUP2 MSTORE SWAP1 PUSH1 0x1 ADD SWAP1 PUSH1 0x20 ADD DUP1 DUP4 GT PUSH2 0x206 JUMPI DUP3 SWAP1 SUB PUSH1 0x1F AND DUP3 ADD SWAP2 JUMPDEST POP POP POP POP POP SWAP3 POP DUP2 DUP1 SLOAD PUSH2 0x236 SWAP1 PUSH2 0x81E JUMP JUMPDEST DUP1 PUSH1 0x1F ADD PUSH1 0x20 DUP1 SWAP2 DIV MUL PUSH1 0x20 ADD PUSH1 0x40 MLOAD SWAP1 DUP2 ADD PUSH1 0x40 MSTORE DUP1 SWAP3 SWAP2 SWAP1 DUP2 DUP2 MSTORE PUSH1 0x20 ADD DUP3 DUP1 SLOAD PUSH2 0x262 SWAP1 PUSH2 0x81E JUMP JUMPDEST DUP1 ISZERO PUSH2 0x2AF JUMPI DUP1 PUSH1 0x1F LT PUSH2 0x284 JUMPI PUSH2 0x100 DUP1 DUP4 SLOAD DIV MUL DUP4 MSTORE SWAP2 PUSH1 0x20 ADD SWAP2 PUSH2 0x2AF JUMP JUMPDEST DUP3 ADD SWAP2 SWAP1 PUSH1 0x0 MSTORE PUSH1 0x20 PUSH1 0x0 KECCAK256 SWAP1 JUMPDEST DUP2 SLOAD DUP2 MSTORE SWAP1 PUSH1 0x1 ADD SWAP1 PUSH1 0x20 ADD DUP1 DUP4 GT PUSH2 0x292 JUMPI DUP3 SWAP1 SUB PUSH1 0x1F AND DUP3 ADD SWAP2 JUMPDEST POP POP POP POP POP SWAP2 POP DUP1 DUP1 SLOAD PUSH2 0x2C2 SWAP1 PUSH2 0x81E JUMP JUMPDEST DUP1 PUSH1 0x1F ADD PUSH1 0x20 DUP1 SWAP2 DIV MUL PUSH1 0x20 ADD PUSH1 0x40 MLOAD SWAP1 DUP2 ADD PUSH1 0x40 MSTORE DUP1 SWAP3 SWAP2 SWAP1 DUP2 DUP2 MSTORE PUSH1 0x20 ADD DUP3 DUP1 SLOAD PUSH2 0x2EE SWAP1 PUSH2 0x81E JUMP JUMPDEST DUP1 ISZERO PUSH2 0x33B JUMPI DUP1 PUSH1 0x1F LT PUSH2 0x310 JUMPI PUSH2 0x100 DUP1 DUP4 SLOAD DIV MUL DUP4 MSTORE SWAP2 PUSH1 0x20 ADD SWAP2 PUSH2 0x33B JUMP JUMPDEST DUP3 ADD SWAP2 SWAP1 PUSH1 0x0 MSTORE PUSH1 0x20 PUSH1 0x0 KECCAK256 SWAP1 JUMPDEST DUP2 SLOAD DUP2 MSTORE SWAP1 PUSH1 0x1 ADD SWAP1 PUSH1 0x20 ADD DUP1 DUP4 GT PUSH2 0x31E JUMPI DUP3 SWAP1 SUB PUSH1 0x1F AND DUP3 ADD SWAP2 JUMPDEST POP POP POP POP POP SWAP1 POP SWAP4 POP SWAP4 POP SWAP4 POP POP SWAP2 SWAP4 SWAP1 SWAP3 POP JUMP JUMPDEST PUSH1 0x0 DUP2 SWAP1 POP SWAP2 SWAP1 POP JUMP JUMPDEST PUSH2 0x363 DUP2 PUSH2 0x350 JUMP JUMPDEST DUP3 MSTORE POP POP JUMP JUMPDEST PUSH1 0x0 PUSH1 0x20 DUP3 ADD SWAP1 POP PUSH2 0x37E PUSH1 0x0 DUP4 ADD DUP5 PUSH2 0x35A JUMP JUMPDEST SWAP3 SWAP2 POP POP JUMP JUMPDEST PUSH1 0x0 PUSH1 0x40 MLOAD SWAP1 POP SWAP1 JUMP JUMPDEST PUSH1 0x0 DUP1 REVERT JUMPDEST PUSH1 0x0 DUP1 REVERT JUMPDEST PUSH1 0x0 DUP1 REVERT JUMPDEST PUSH1 0x0 DUP1 REVERT JUMPDEST PUSH1 0x0 PUSH1 0x1F NOT PUSH1 0x1F DUP4 ADD AND SWAP1 POP SWAP2 SWAP1 POP JUMP JUMPDEST PUSH32 0x4E487B7100000000000000000000000000000000000000000000000000000000 PUSH1 0x0 MSTORE PUSH1 0x41 PUSH1 0x4 MSTORE PUSH1 0x24 PUSH1 0x0 REVERT JUMPDEST PUSH2 0x3EB DUP3 PUSH2 0x3A2 JUMP JUMPDEST DUP2 ADD DUP2 DUP2 LT PUSH8 0xFFFFFFFFFFFFFFFF DUP3 GT OR ISZERO PUSH2 0x40A JUMPI PUSH2 0x409 PUSH2 0x3B3 JUMP JUMPDEST JUMPDEST DUP1 PUSH1 0x40 MSTORE POP POP POP JUMP JUMPDEST PUSH1 0x0 PUSH2 0x41D PUSH2 0x384 JUMP JUMPDEST SWAP1 POP PUSH2 0x429 DUP3 DUP3 PUSH2 0x3E2 JUMP JUMPDEST SWAP2 SWAP1 POP JUMP JUMPDEST PUSH1 0x0 PUSH8 0xFFFFFFFFFFFFFFFF DUP3 GT ISZERO PUSH2 0x449 JUMPI PUSH2 0x448 PUSH2 0x3B3 JUMP JUMPDEST JUMPDEST PUSH2 0x452 DUP3 PUSH2 0x3A2 JUMP JUMPDEST SWAP1 POP PUSH1 0x20 DUP2 ADD SWAP1 POP SWAP2 SWAP1 POP JUMP JUMPDEST DUP3 DUP2 DUP4 CALLDATACOPY PUSH1 0x0 DUP4 DUP4 ADD MSTORE POP POP POP JUMP JUMPDEST PUSH1 0x0 PUSH2 0x481 PUSH2 0x47C DUP5 PUSH2 0x42E JUMP JUMPDEST PUSH2 0x413 JUMP JUMPDEST SWAP1 POP DUP3 DUP2 MSTORE PUSH1 0x20 DUP2 ADD DUP5 DUP5 DUP5 ADD GT ISZERO PUSH2 0x49D JUMPI PUSH2 0x49C PUSH2 0x39D JUMP JUMPDEST JUMPDEST PUSH2 0x4A8 DUP5 DUP3 DUP6 PUSH2 0x45F JUMP JUMPDEST POP SWAP4 SWAP3 POP POP POP JUMP JUMPDEST PUSH1 0x0 DUP3 PUSH1 0x1F DUP4 ADD SLT PUSH2 0x4C5 JUMPI PUSH2 0x4C4 PUSH2 0x398 JUMP JUMPDEST JUMPDEST DUP2 CALLDATALOAD PUSH2 0x4D5 DUP5 DUP3 PUSH1 0x20 DUP7 ADD PUSH2 0x46E JUMP JUMPDEST SWAP2 POP POP SWAP3 SWAP2 POP POP JUMP JUMPDEST PUSH1 0x0 DUP1 PUSH1 0x0 PUSH1 0x60 DUP5 DUP7 SUB SLT ISZERO PUSH2 0x4F7 JUMPI PUSH2 0x4F6 PUSH2 0x38E JUMP JUMPDEST JUMPDEST PUSH1 0x0 DUP5 ADD CALLDATALOAD PUSH8 0xFFFFFFFFFFFFFFFF DUP2 GT ISZERO PUSH2 0x515 JUMPI PUSH2 0x514 PUSH2 0x393 JUMP JUMPDEST JUMPDEST PUSH2 0x521 DUP7 DUP3 DUP8 ADD PUSH2 0x4B0 JUMP JUMPDEST SWAP4 POP POP PUSH1 0x20 DUP5 ADD CALLDATALOAD PUSH8 0xFFFFFFFFFFFFFFFF DUP2 GT ISZERO PUSH2 0x542 JUMPI PUSH2 0x541 PUSH2 0x393 JUMP JUMPDEST JUMPDEST PUSH2 0x54E DUP7 DUP3 DUP8 ADD PUSH2 0x4B0 JUMP JUMPDEST SWAP3 POP POP PUSH1 0x40 DUP5 ADD CALLDATALOAD PUSH8 0xFFFFFFFFFFFFFFFF DUP2 GT ISZERO PUSH2 0x56F JUMPI PUSH2 0x56E PUSH2 0x393 JUMP JUMPDEST JUMPDEST PUSH2 0x57B DUP7 DUP3 DUP8 ADD PUSH2 0x4B0 JUMP JUMPDEST SWAP2 POP POP SWAP3 POP SWAP3 POP SWAP3 JUMP JUMPDEST PUSH2 0x58E DUP2 PUSH2 0x350 JUMP JUMPDEST DUP2 EQ PUSH2 0x599 JUMPI PUSH1 0x0 DUP1 REVERT JUMPDEST POP JUMP JUMPDEST PUSH1 0x0 DUP2 CALLDATALOAD SWAP1 POP PUSH2 0x5AB DUP2 PUSH2 0x585 JUMP JUMPDEST SWAP3 SWAP2 POP POP JUMP JUMPDEST PUSH1 0x0 DUP1 PUSH1 0x0 DUP1 PUSH1 0x0 PUSH1 0xA0 DUP7 DUP9 SUB SLT ISZERO PUSH2 0x5CD JUMPI PUSH2 0x5CC PUSH2 0x38E JUMP JUMPDEST JUMPDEST PUSH1 0x0 PUSH2 0x5DB DUP9 DUP3 DUP10 ADD PUSH2 0x59C JUMP JUMPDEST SWAP6 POP POP PUSH1 0x20 DUP7 ADD CALLDATALOAD PUSH8 0xFFFFFFFFFFFFFFFF DUP2 GT ISZERO PUSH2 0x5FC JUMPI PUSH2 0x5FB PUSH2 0x393 JUMP JUMPDEST JUMPDEST PUSH2 0x608 DUP9 DUP3 DUP10 ADD PUSH2 0x4B0 JUMP JUMPDEST SWAP5 POP POP PUSH1 0x40 DUP7 ADD CALLDATALOAD PUSH8 0xFFFFFFFFFFFFFFFF DUP2 GT ISZERO PUSH2 0x629 JUMPI PUSH2 0x628 PUSH2 0x393 JUMP JUMPDEST JUMPDEST PUSH2 0x635 DUP9 DUP3 DUP10 ADD PUSH2 0x4B0 JUMP JUMPDEST SWAP4 POP POP PUSH1 0x60 DUP7 ADD CALLDATALOAD PUSH8 0xFFFFFFFFFFFFFFFF DUP2 GT ISZERO PUSH2 0x656 JUMPI PUSH2 0x655 PUSH2 0x393 JUMP JUMPDEST JUMPDEST PUSH2 0x662 DUP9 DUP3 DUP10 ADD PUSH2 0x4B0 JUMP JUMPDEST SWAP3 POP POP PUSH1 0x80 PUSH2 0x673 DUP9 DUP3 DUP10 ADD PUSH2 0x59C JUMP JUMPDEST SWAP2 POP POP SWAP3 SWAP6 POP SWAP3 SWAP6 SWAP1 SWAP4 POP JUMP JUMPDEST PUSH1 0x0 PUSH1 0x20 DUP3 DUP5 SUB SLT ISZERO PUSH2 0x696 JUMPI PUSH2 0x695 PUSH2 0x38E JUMP JUMPDEST JUMPDEST PUSH1 0x0 PUSH2 0x6A4 DUP5 DUP3 DUP6 ADD PUSH2 0x59C JUMP JUMPDEST SWAP2 POP POP SWAP3 SWAP2 POP POP JUMP JUMPDEST PUSH1 0x0 DUP2 MLOAD SWAP1 POP SWAP2 SWAP1 POP JUMP JUMPDEST PUSH1 0x0 DUP3 DUP3 MSTORE PUSH1 0x20 DUP3 ADD SWAP1 POP SWAP3 SWAP2 POP POP JUMP JUMPDEST PUSH1 0x0 JUMPDEST DUP4 DUP2 LT ISZERO PUSH2 0x6E7 JUMPI DUP1 DUP3 ADD MLOAD DUP2 DUP5 ADD MSTORE PUSH1 0x20 DUP2 ADD SWAP1 POP PUSH2 0x6CC JUMP JUMPDEST PUSH1 0x0 DUP5 DUP5 ADD MSTORE POP POP POP POP JUMP JUMPDEST PUSH1 0x0 PUSH2 0x6FE DUP3 PUSH2 0x6AD JUMP JUMPDEST PUSH2 0x708 DUP2 DUP6 PUSH2 0x6B8 JUMP JUMPDEST SWAP4 POP PUSH2 0x718 DUP2 DUP6 PUSH1 0x20 DUP7 ADD PUSH2 0x6C9 JUMP JUMPDEST PUSH2 0x721 DUP2 PUSH2 0x3A2 JUMP JUMPDEST DUP5 ADD SWAP2 POP POP SWAP3 SWAP2 POP POP JUMP JUMPDEST PUSH1 0x0 PUSH1 0x60 DUP3 ADD SWAP1 POP DUP2 DUP2 SUB PUSH1 0x0 DUP4 ADD MSTORE PUSH2 0x746 DUP2 DUP7 PUSH2 0x6F3 JUMP JUMPDEST SWAP1 POP DUP2 DUP2 SUB PUSH1 0x20 DUP4 ADD MSTORE PUSH2 0x75A DUP2 DUP6 PUSH2 0x6F3 JUMP JUMPDEST SWAP1 POP DUP2 DUP2 SUB PUSH1 0x40 DUP4 ADD MSTORE PUSH2 0x76E DUP2 DUP5 PUSH2 0x6F3 JUMP JUMPDEST SWAP1 POP SWAP5 SWAP4 POP POP POP POP JUMP JUMPDEST PUSH32 0x4E487B7100000000000000000000000000000000000000000000000000000000 PUSH1 0x0 MSTORE PUSH1 0x11 PUSH1 0x4 MSTORE PUSH1 0x24 PUSH1 0x0 REVERT JUMPDEST PUSH1 0x0 PUSH2 0x7B2 DUP3 PUSH2 0x350 JUMP JUMPDEST SWAP2 POP PUSH32 0xFFFFFFFFFFFFFFFFFFFFFFFFFFFFFFFFFFFFFFFFFFFFFFFFFFFFFFFFFFFFFFFF DUP3 SUB PUSH2 0x7E4 JUMPI PUSH2 0x7E3 PUSH2 0x778 JUMP JUMPDEST JUMPDEST PUSH1 0x1 DUP3 ADD SWAP1 POP SWAP2 SWAP1 POP JUMP JUMPDEST PUSH32 0x4E487B7100000000000000000000000000000000000000000000000000000000 PUSH1 0x0 MSTORE PUSH1 0x22 PUSH1 0x4 MSTORE PUSH1 0x24 PUSH1 0x0 REVERT JUMPDEST PUSH1 0x0 PUSH1 0x2 DUP3 DIV SWAP1 POP PUSH1 0x1 DUP3 AND DUP1 PUSH2 0x836 JUMPI PUSH1 0x7F DUP3 AND SWAP2 POP JUMPDEST PUSH1 0x20 DUP3 LT DUP2 SUB PUSH2 0x849 JUMPI PUSH2 0x848 PUSH2 0x7EF JUMP JUMPDEST JUMPDEST POP SWAP2 SWAP1 POP JUMP JUMPDEST PUSH1 0x0 DUP2 SWAP1 POP DUP2 PUSH1 0x0 MSTORE PUSH1 0x20 PUSH1 0x0 KECCAK256 SWAP1 POP SWAP2 SWAP1 POP JUMP JUMPDEST PUSH1 0x0 PUSH1 0x20 PUSH1 0x1F DUP4 ADD DIV SWAP1 POP SWAP2 SWAP1 POP JUMP JUMPDEST PUSH1 0x0 DUP3 DUP3 SHL SWAP1 POP SWAP3 SWAP2 POP POP JUMP JUMPDEST PUSH1 0x0 PUSH1 0x8 DUP4 MUL PUSH2 0x8B1 PUSH32 0xFFFFFFFFFFFFFFFFFFFFFFFFFFFFFFFFFFFFFFFFFFFFFFFFFFFFFFFFFFFFFFFF DUP3 PUSH2 0x874 JUMP JUMPDEST PUSH2 0x8BB DUP7 DUP4 PUSH2 0x874 JUMP JUMPDEST SWAP6 POP DUP1 NOT DUP5 AND SWAP4 POP DUP1 DUP7 AND DUP5 OR SWAP3 POP POP POP SWAP4 SWAP3 POP POP POP JUMP JUMPDEST PUSH1 0x0 DUP2 SWAP1 POP SWAP2 SWAP1 POP JUMP JUMPDEST PUSH1 0x0 PUSH2 0x8F8 PUSH2 0x8F3 PUSH2 0x8EE DUP5 PUSH2 0x350 JUMP JUMPDEST PUSH2 0x8D3 JUMP JUMPDEST PUSH2 0x350 JUMP JUMPDEST SWAP1 POP SWAP2 SWAP1 POP JUMP JUMPDEST PUSH1 0x0 DUP2 SWAP1 POP SWAP2 SWAP1 POP JUMP JUMPDEST PUSH2 0x912 DUP4 PUSH2 0x8DD JUMP JUMPDEST PUSH2 0x926 PUSH2 0x91E DUP3 PUSH2 0x8FF JUMP JUMPDEST DUP5 DUP5 SLOAD PUSH2 0x881 JUMP JUMPDEST DUP3 SSTORE POP POP POP POP JUMP JUMPDEST PUSH1 0x0 SWAP1 JUMP JUMPDEST PUSH2 0x93B PUSH2 0x92E JUMP JUMPDEST PUSH2 0x946 DUP2 DUP5 DUP5 PUSH2 0x909 JUMP JUMPDEST POP POP POP JUMP JUMPDEST JUMPDEST DUP2 DUP2 LT ISZERO PUSH2 0x96A JUMPI PUSH2 0x95F PUSH1 0x0 DUP3 PUSH2 0x933 JUMP JUMPDEST PUSH1 0x1 DUP2 ADD SWAP1 POP PUSH2 0x94C JUMP JUMPDEST POP POP JUMP JUMPDEST PUSH1 0x1F DUP3 GT ISZERO PUSH2 0x9AF JUMPI PUSH2 0x980 DUP2 PUSH2 0x84F JUMP JUMPDEST PUSH2 0x989 DUP5 PUSH2 0x864 JUMP JUMPDEST DUP2 ADD PUSH1 0x20 DUP6 LT ISZERO PUSH2 0x998 JUMPI DUP2 SWAP1 POP JUMPDEST PUSH2 0x9AC PUSH2 0x9A4 DUP6 PUSH2 0x864 JUMP JUMPDEST DUP4 ADD DUP3 PUSH2 0x94B JUMP JUMPDEST POP POP JUMPDEST POP POP POP JUMP JUMPDEST PUSH1 0x0 DUP3 DUP3 SHR SWAP1 POP SWAP3 SWAP2 POP POP JUMP JUMPDEST PUSH1 0x0 PUSH2 0x9D2 PUSH1 0x0 NOT DUP5 PUSH1 0x8 MUL PUSH2 0x9B4 JUMP JUMPDEST NOT DUP1 DUP4 AND SWAP2 POP POP SWAP3 SWAP2 POP POP JUMP JUMPDEST PUSH1 0x0 PUSH2 0x9EB DUP4 DUP4 PUSH2 0x9C1 JUMP JUMPDEST SWAP2 POP DUP3 PUSH1 0x2 MUL DUP3 OR SWAP1 POP SWAP3 SWAP2 POP POP JUMP JUMPDEST PUSH2 0xA04 DUP3 PUSH2 0x6AD JUMP JUMPDEST PUSH8 0xFFFFFFFFFFFFFFFF DUP2 GT ISZERO PUSH2 0xA1D JUMPI PUSH2 0xA1C PUSH2 0x3B3 JUMP JUMPDEST JUMPDEST PUSH2 0xA27 DUP3 SLOAD PUSH2 0x81E JUMP JUMPDEST PUSH2 0xA32 DUP3 DUP3 DUP6 PUSH2 0x96E JUMP JUMPDEST PUSH1 0x0 PUSH1 0x20 SWAP1 POP PUSH1 0x1F DUP4 GT PUSH1 0x1 DUP2 EQ PUSH2 0xA65 JUMPI PUSH1 0x0 DUP5 ISZERO PUSH2 0xA53 JUMPI DUP3 DUP8 ADD MLOAD SWAP1 POP JUMPDEST PUSH2 0xA5D DUP6 DUP3 PUSH2 0x9DF JUMP JUMPDEST DUP7 SSTORE POP PUSH2 0xAC5 JUMP JUMPDEST PUSH1 0x1F NOT DUP5 AND PUSH2 0xA73 DUP7 PUSH2 0x84F JUMP JUMPDEST PUSH1 0x0 JUMPDEST DUP3 DUP2 LT ISZERO PUSH2 0xA9B JUMPI DUP5 DUP10 ADD MLOAD DUP3 SSTORE PUSH1 0x1 DUP3 ADD SWAP2 POP PUSH1 0x20 DUP6 ADD SWAP5 POP PUSH1 0x20 DUP2 ADD SWAP1 POP PUSH2 0xA76 JUMP JUMPDEST DUP7 DUP4 LT ISZERO PUSH2 0xAB8 JUMPI DUP5 DUP10 ADD MLOAD PUSH2 0xAB4 PUSH1 0x1F DUP10 AND DUP3 PUSH2 0x9C1 JUMP JUMPDEST DUP4 SSTORE POP JUMPDEST PUSH1 0x1 PUSH1 0x2 DUP9 MUL ADD DUP9 SSTORE POP POP POP JUMPDEST POP POP POP POP POP POP JUMP INVALID LOG2 PUSH5 0x6970667358 0x22 SLT KECCAK256 PUSH30 0x458E32091160BAC1472983A42E5F670B2F84D17301090263CCD6FE512352 0xDB PUSH5 0x736F6C6343 STOP ADDMOD SLT STOP CALLER "
				},
				"gasEstimates": {
					"creation": {
						"codeDepositCost": "563800",
						"executionCost": "600",
						"totalCost": "564400"
					},
					"external": {
						"addMedicine(uint256,string,string,string,uint256)": "infinite",
						"doctorID()": "2407",
						"registerDoctor(string,string,string)": "infinite",
						"viewDoctorByID(uint256)": "infinite"
					}
				},
				"methodIdentifiers": {
					"addMedicine(uint256,string,string,string,uint256)": "75f49529",
					"doctorID()": "46f9c5bb",
					"registerDoctor(string,string,string)": "50c7a912",
					"viewDoctorByID(uint256)": "91e0e428"
				}
			},
			"storageLayout": {
				"storage": [
					{
						"astId": 22,
						"contract": "contracts/main.sol:Doctor",
						"label": "doctorMapping",
						"offset": 0,
						"slot": "0",
						"type": "t_mapping(t_uint256,t_struct(doctorStruct)8_storage)"
					},
					{
						"astId": 24,
						"contract": "contracts/main.sol:Doctor",
						"label": "doctorID",
						"offset": 0,
						"slot": "1",
						"type": "t_uint256"
					}
				],
				"types": {
					"t_mapping(t_uint256,t_struct(doctorStruct)8_storage)": {
						"encoding": "mapping",
						"key": "t_uint256",
						"label": "mapping(uint256 => struct Doctor.doctorStruct)",
						"numberOfBytes": "32",
						"value": "t_struct(doctorStruct)8_storage"
					},
					"t_string_storage": {
						"encoding": "bytes",
						"label": "string",
						"numberOfBytes": "32"
					},
					"t_struct(doctorStruct)8_storage": {
						"encoding": "inplace",
						"label": "struct Doctor.doctorStruct",
						"members": [
							{
								"astId": 3,
								"contract": "contracts/main.sol:Doctor",
								"label": "name",
								"offset": 0,
								"slot": "0",
								"type": "t_string_storage"
							},
							{
								"astId": 5,
								"contract": "contracts/main.sol:Doctor",
								"label": "qualification",
								"offset": 0,
								"slot": "1",
								"type": "t_string_storage"
							},
							{
								"astId": 7,
								"contract": "contracts/main.sol:Doctor",
								"label": "workPlace",
								"offset": 0,
								"slot": "2",
								"type": "t_string_storage"
							}
						],
						"numberOfBytes": "96"
					},
					"t_uint256": {
						"encoding": "inplace",
						"label": "uint256",
						"numberOfBytes": "32"
					}
				}
			},
			"userdoc": {
				"kind": "user",
				"methods": {},
				"version": 1
			}
		}
	}
}