{
	"contracts/Main.sol": {
		"Main": {
			"abi": [
				{
					"inputs": [
						{
							"internalType": "uint256",
							"name": "_id",
							"type": "uint256"
						},
						{
							"internalType": "string",
							"name": "_name",
							"type": "string"
						},
						{
							"internalType": "string",
							"name": "_expiryDate",
							"type": "string"
						},
						{
							"internalType": "string",
							"name": "_dose",
							"type": "string"
						},
						{
							"internalType": "uint256",
							"name": "_price",
							"type": "uint256"
						}
					],
					"name": "addMedicine",
					"outputs": [],
					"stateMutability": "nonpayable",
					"type": "function"
				},
				{
					"inputs": [
						{
							"internalType": "string",
							"name": "_disease",
							"type": "string"
						}
					],
					"name": "addNewDisease",
					"outputs": [],
					"stateMutability": "nonpayable",
					"type": "function"
				},
				{
					"inputs": [],
					"name": "doctorID",
					"outputs": [
						{
							"internalType": "uint256",
							"name": "",
							"type": "uint256"
						}
					],
					"stateMutability": "view",
					"type": "function"
				},
				{
					"inputs": [],
					"name": "patientID",
					"outputs": [
						{
							"internalType": "uint256",
							"name": "",
							"type": "uint256"
						}
					],
					"stateMutability": "view",
					"type": "function"
				},
				{
					"inputs": [
						{
							"internalType": "uint256",
							"name": "_id",
							"type": "uint256"
						},
						{
							"internalType": "address",
							"name": "_patient",
							"type": "address"
						}
					],
					"name": "prescribeMedicine",
					"outputs": [],
					"stateMutability": "nonpayable",
					"type": "function"
				},
				{
					"inputs": [
						{
							"internalType": "string",
							"name": "_name",
							"type": "string"
						},
						{
							"internalType": "string",
							"name": "_qualification",
							"type": "string"
						},
						{
							"internalType": "string",
							"name": "_workPlace",
							"type": "string"
						}
					],
					"name": "registerDoctor",
					"outputs": [],
					"stateMutability": "nonpayable",
					"type": "function"
				},
				{
					"inputs": [
						{
							"internalType": "string",
							"name": "_name",
							"type": "string"
						},
						{
							"internalType": "uint8",
							"name": "_age",
							"type": "uint8"
						},
						{
							"internalType": "string",
							"name": "_disease",
							"type": "string"
						}
					],
					"name": "registerPatient",
					"outputs": [],
					"stateMutability": "nonpayable",
					"type": "function"
				},
				{
					"inputs": [
						{
							"internalType": "uint256",
							"name": "_patientID",
							"type": "uint256"
						},
						{
							"internalType": "uint8",
							"name": "_newAge",
							"type": "uint8"
						}
					],
					"name": "updateAge",
					"outputs": [],
					"stateMutability": "nonpayable",
					"type": "function"
				},
				{
					"inputs": [
						{
							"internalType": "uint256",
							"name": "_doctorID",
							"type": "uint256"
						}
					],
					"name": "viewDoctorByID",
					"outputs": [
						{
							"internalType": "string",
							"name": "",
							"type": "string"
						},
						{
							"internalType": "string",
							"name": "",
							"type": "string"
						},
						{
							"internalType": "string",
							"name": "",
							"type": "string"
						}
					],
					"stateMutability": "view",
					"type": "function"
				},
				{
					"inputs": [
						{
							"internalType": "uint256",
							"name": "_id",
							"type": "uint256"
						}
					],
					"name": "viewMedicine",
					"outputs": [
						{
							"internalType": "string",
							"name": "",
							"type": "string"
						},
						{
							"internalType": "string",
							"name": "",
							"type": "string"
						},
						{
							"internalType": "string",
							"name": "",
							"type": "string"
						},
						{
							"internalType": "uint256",
							"name": "",
							"type": "uint256"
						}
					],
					"stateMutability": "view",
					"type": "function"
				},
				{
					"inputs": [
						{
							"internalType": "uint256",
							"name": "_id",
							"type": "uint256"
						}
					],
					"name": "viewPatientByDoctor",
					"outputs": [
						{
							"internalType": "uint256",
							"name": "",
							"type": "uint256"
						},
						{
							"internalType": "uint8",
							"name": "",
							"type": "uint8"
						},
						{
							"internalType": "string",
							"name": "",
							"type": "string"
						}
					],
					"stateMutability": "view",
					"type": "function"
				},
				{
					"inputs": [
						{
							"internalType": "address",
							"name": "_patient",
							"type": "address"
						}
					],
					"name": "viewPrescribedMedicine",
					"outputs": [
						{
							"internalType": "uint256",
							"name": "",
							"type": "uint256"
						}
					],
					"stateMutability": "view",
					"type": "function"
				}
			],
			"devdoc": {
				"kind": "dev",
				"methods": {},
				"version": 1
			},
			"evm": {
				"assembly": "    /* \"contracts/Main.sol\":60:2757  contract Main {... */\n  mstore(0x40, 0x80)\n  callvalue\n  dup1\n  iszero\n  tag_1\n  jumpi\n  0x00\n  dup1\n  revert\ntag_1:\n  pop\n  dataSize(sub_0)\n  dup1\n  dataOffset(sub_0)\n  0x00\n  codecopy\n  0x00\n  return\nstop\n\nsub_0: assembly {\n        /* \"contracts/Main.sol\":60:2757  contract Main {... */\n      mstore(0x40, 0x80)\n      callvalue\n      dup1\n      iszero\n      tag_1\n      jumpi\n      0x00\n      dup1\n      revert\n    tag_1:\n      pop\n      jumpi(tag_2, lt(calldatasize, 0x04))\n      shr(0xe0, calldataload(0x00))\n      dup1\n      0xa677104c\n      gt\n      tag_15\n      jumpi\n      dup1\n      0xa677104c\n      eq\n      tag_9\n      jumpi\n      dup1\n      0xdcd0c2b2\n      eq\n      tag_10\n      jumpi\n      dup1\n      0xddd865e8\n      eq\n      tag_11\n      jumpi\n      dup1\n      0xddfe2e87\n      eq\n      tag_12\n      jumpi\n      dup1\n      0xeda9b632\n      eq\n      tag_13\n      jumpi\n      dup1\n      0xf680a7bd\n      eq\n      tag_14\n      jumpi\n      jump(tag_2)\n    tag_15:\n      dup1\n      0x1c297205\n      eq\n      tag_3\n      jumpi\n      dup1\n      0x3f2feb21\n      eq\n      tag_4\n      jumpi\n      dup1\n      0x46f9c5bb\n      eq\n      tag_5\n      jumpi\n      dup1\n      0x50c7a912\n      eq\n      tag_6\n      jumpi\n      dup1\n      0x75f49529\n      eq\n      tag_7\n      jumpi\n      dup1\n      0x91e0e428\n      eq\n      tag_8\n      jumpi\n    tag_2:\n      0x00\n      dup1\n      revert\n        /* \"contracts/Main.sol\":1494:1688  function registerPatient(string memory _name, uint8 _age, string memory _disease) public {... */\n    tag_3:\n      tag_16\n      0x04\n      dup1\n      calldatasize\n      sub\n      dup2\n      add\n      swap1\n      tag_17\n      swap2\n      swap1\n      tag_18\n      jump\t// in\n    tag_17:\n      tag_19\n      jump\t// in\n    tag_16:\n      stop\n        /* \"contracts/Main.sol\":2398:2606  function viewPatientByDoctor(uint _id) view public returns(uint, uint8, string memory) {... */\n    tag_4:\n      tag_20\n      0x04\n      dup1\n      calldatasize\n      sub\n      dup2\n      add\n      swap1\n      tag_21\n      swap2\n      swap1\n      tag_22\n      jump\t// in\n    tag_21:\n      tag_23\n      jump\t// in\n    tag_20:\n      mload(0x40)\n      tag_24\n      swap4\n      swap3\n      swap2\n      swap1\n      tag_25\n      jump\t// in\n    tag_24:\n      mload(0x40)\n      dup1\n      swap2\n      sub\n      swap1\n      return\n        /* \"contracts/Main.sol\":254:274  uint public doctorID */\n    tag_5:\n      tag_26\n      tag_27\n      jump\t// in\n    tag_26:\n      mload(0x40)\n      tag_28\n      swap2\n      swap1\n      tag_29\n      jump\t// in\n    tag_28:\n      mload(0x40)\n      dup1\n      swap2\n      sub\n      swap1\n      return\n        /* \"contracts/Main.sol\":1263:1486  function registerDoctor(string memory _name, string memory _qualification, string memory _workPlace) public {... */\n    tag_6:\n      tag_30\n      0x04\n      dup1\n      calldatasize\n      sub\n      dup2\n      add\n      swap1\n      tag_31\n      swap2\n      swap1\n      tag_32\n      jump\t// in\n    tag_31:\n      tag_33\n      jump\t// in\n    tag_30:\n      stop\n        /* \"contracts/Main.sol\":780:991  function addMedicine(uint _id, string memory _name, string memory _expiryDate, string memory _dose, uint _price) public {... */\n    tag_7:\n      tag_34\n      0x04\n      dup1\n      calldatasize\n      sub\n      dup2\n      add\n      swap1\n      tag_35\n      swap2\n      swap1\n      tag_36\n      jump\t// in\n    tag_35:\n      tag_37\n      jump\t// in\n    tag_34:\n      stop\n        /* \"contracts/Main.sol\":1872:2121  function viewDoctorByID(uint _doctorID) view public returns(string memory, string memory, string memory) {... */\n    tag_8:\n      tag_38\n      0x04\n      dup1\n      calldatasize\n      sub\n      dup2\n      add\n      swap1\n      tag_39\n      swap2\n      swap1\n      tag_22\n      jump\t// in\n    tag_39:\n      tag_40\n      jump\t// in\n    tag_38:\n      mload(0x40)\n      tag_41\n      swap4\n      swap3\n      swap2\n      swap1\n      tag_42\n      jump\t// in\n    tag_41:\n      mload(0x40)\n      dup1\n      swap2\n      sub\n      swap1\n      return\n        /* \"contracts/Main.sol\":1696:1864  function updateAge (uint _patientID, uint8 _newAge) public {... */\n    tag_9:\n      tag_43\n      0x04\n      dup1\n      calldatasize\n      sub\n      dup2\n      add\n      swap1\n      tag_44\n      swap2\n      swap1\n      tag_45\n      jump\t// in\n    tag_44:\n      tag_46\n      jump\t// in\n    tag_43:\n      stop\n        /* \"contracts/Main.sol\":1133:1255  function prescribeMedicine(uint _id, address _patient) public {... */\n    tag_10:\n      tag_47\n      0x04\n      dup1\n      calldatasize\n      sub\n      dup2\n      add\n      swap1\n      tag_48\n      swap2\n      swap1\n      tag_49\n      jump\t// in\n    tag_48:\n      tag_50\n      jump\t// in\n    tag_47:\n      stop\n        /* \"contracts/Main.sol\":999:1125  function addNewDisease(string memory _disease) public {... */\n    tag_11:\n      tag_51\n      0x04\n      dup1\n      calldatasize\n      sub\n      dup2\n      add\n      swap1\n      tag_52\n      swap2\n      swap1\n      tag_53\n      jump\t// in\n    tag_52:\n      tag_54\n      jump\t// in\n    tag_51:\n      stop\n        /* \"contracts/Main.sol\":2129:2390  function viewMedicine(uint _id) view public returns(string memory, string memory, string memory, uint) {... */\n    tag_12:\n      tag_55\n      0x04\n      dup1\n      calldatasize\n      sub\n      dup2\n      add\n      swap1\n      tag_56\n      swap2\n      swap1\n      tag_22\n      jump\t// in\n    tag_56:\n      tag_57\n      jump\t// in\n    tag_55:\n      mload(0x40)\n      tag_58\n      swap5\n      swap4\n      swap3\n      swap2\n      swap1\n      tag_59\n      jump\t// in\n    tag_58:\n      mload(0x40)\n      dup1\n      swap2\n      sub\n      swap1\n      return\n        /* \"contracts/Main.sol\":2614:2750  function viewPrescribedMedicine(address _patient) view public returns(uint) {... */\n    tag_13:\n      tag_60\n      0x04\n      dup1\n      calldatasize\n      sub\n      dup2\n      add\n      swap1\n      tag_61\n      swap2\n      swap1\n      tag_62\n      jump\t// in\n    tag_61:\n      tag_63\n      jump\t// in\n    tag_60:\n      mload(0x40)\n      tag_64\n      swap2\n      swap1\n      tag_29\n      jump\t// in\n    tag_64:\n      mload(0x40)\n      dup1\n      swap2\n      sub\n      swap1\n      return\n        /* \"contracts/Main.sol\":440:461  uint public patientID */\n    tag_14:\n      tag_65\n      tag_66\n      jump\t// in\n    tag_65:\n      mload(0x40)\n      tag_67\n      swap2\n      swap1\n      tag_29\n      jump\t// in\n    tag_67:\n      mload(0x40)\n      dup1\n      swap2\n      sub\n      swap1\n      return\n        /* \"contracts/Main.sol\":1494:1688  function registerPatient(string memory _name, uint8 _age, string memory _disease) public {... */\n    tag_19:\n        /* \"contracts/Main.sol\":1594:1603  patientID */\n      0x03\n      0x00\n        /* \"contracts/Main.sol\":1594:1605  patientID++ */\n      dup2\n      sload\n      dup1\n      swap3\n      swap2\n      swap1\n      tag_69\n      swap1\n      tag_70\n      jump\t// in\n    tag_69:\n      swap2\n      swap1\n      pop\n      sstore\n      pop\n        /* \"contracts/Main.sol\":1644:1680  patientStruct(_name, _age, _disease) */\n      mload(0x40)\n      dup1\n      0x60\n      add\n      0x40\n      mstore\n      dup1\n        /* \"contracts/Main.sol\":1658:1663  _name */\n      dup5\n        /* \"contracts/Main.sol\":1644:1680  patientStruct(_name, _age, _disease) */\n      dup2\n      mstore\n      0x20\n      add\n        /* \"contracts/Main.sol\":1665:1669  _age */\n      dup4\n        /* \"contracts/Main.sol\":1644:1680  patientStruct(_name, _age, _disease) */\n      0xff\n      and\n      dup2\n      mstore\n      0x20\n      add\n        /* \"contracts/Main.sol\":1671:1679  _disease */\n      dup3\n        /* \"contracts/Main.sol\":1644:1680  patientStruct(_name, _age, _disease) */\n      dup2\n      mstore\n      pop\n        /* \"contracts/Main.sol\":1616:1630  patientMapping */\n      0x02\n        /* \"contracts/Main.sol\":1616:1641  patientMapping[patientID] */\n      0x00\n        /* \"contracts/Main.sol\":1631:1640  patientID */\n      sload(0x03)\n        /* \"contracts/Main.sol\":1616:1641  patientMapping[patientID] */\n      dup2\n      mstore\n      0x20\n      add\n      swap1\n      dup2\n      mstore\n      0x20\n      add\n      0x00\n      keccak256\n        /* \"contracts/Main.sol\":1616:1680  patientMapping[patientID] = patientStruct(_name, _age, _disease) */\n      0x00\n      dup3\n      add\n      mload\n      dup2\n      0x00\n      add\n      swap1\n      dup2\n      tag_71\n      swap2\n      swap1\n      tag_72\n      jump\t// in\n    tag_71:\n      pop\n      0x20\n      dup3\n      add\n      mload\n      dup2\n      0x01\n      add\n      exp(0x0100, 0x00)\n      dup2\n      sload\n      dup2\n      0xff\n      mul\n      not\n      and\n      swap1\n      dup4\n      0xff\n      and\n      mul\n      or\n      swap1\n      sstore\n      pop\n      0x40\n      dup3\n      add\n      mload\n      dup2\n      0x02\n      add\n      swap1\n      dup2\n      tag_73\n      swap2\n      swap1\n      tag_72\n      jump\t// in\n    tag_73:\n      pop\n      swap1\n      pop\n      pop\n        /* \"contracts/Main.sol\":1494:1688  function registerPatient(string memory _name, uint8 _age, string memory _disease) public {... */\n      pop\n      pop\n      pop\n      jump\t// out\n        /* \"contracts/Main.sol\":2398:2606  function viewPatientByDoctor(uint _id) view public returns(uint, uint8, string memory) {... */\n    tag_23:\n        /* \"contracts/Main.sol\":2457:2461  uint */\n      0x00\n        /* \"contracts/Main.sol\":2463:2468  uint8 */\n      dup1\n        /* \"contracts/Main.sol\":2470:2483  string memory */\n      0x60\n        /* \"contracts/Main.sol\":2496:2525  patientStruct storage patient */\n      0x00\n        /* \"contracts/Main.sol\":2528:2542  patientMapping */\n      0x02\n        /* \"contracts/Main.sol\":2528:2547  patientMapping[_id] */\n      0x00\n        /* \"contracts/Main.sol\":2543:2546  _id */\n      dup7\n        /* \"contracts/Main.sol\":2528:2547  patientMapping[_id] */\n      dup2\n      mstore\n      0x20\n      add\n      swap1\n      dup2\n      mstore\n      0x20\n      add\n      0x00\n      keccak256\n        /* \"contracts/Main.sol\":2496:2547  patientStruct storage patient = patientMapping[_id] */\n      swap1\n      pop\n        /* \"contracts/Main.sol\":2566:2569  _id */\n      dup5\n        /* \"contracts/Main.sol\":2571:2578  patient */\n      dup2\n        /* \"contracts/Main.sol\":2571:2582  patient.age */\n      0x01\n      add\n      0x00\n      swap1\n      sload\n      swap1\n      0x0100\n      exp\n      swap1\n      div\n      0xff\n      and\n        /* \"contracts/Main.sol\":2584:2591  patient */\n      dup3\n        /* \"contracts/Main.sol\":2584:2597  patient. name */\n      0x00\n      add\n        /* \"contracts/Main.sol\":2558:2598  return (_id, patient.age, patient. name) */\n      dup1\n      dup1\n      sload\n      tag_75\n      swap1\n      tag_76\n      jump\t// in\n    tag_75:\n      dup1\n      0x1f\n      add\n      0x20\n      dup1\n      swap2\n      div\n      mul\n      0x20\n      add\n      mload(0x40)\n      swap1\n      dup2\n      add\n      0x40\n      mstore\n      dup1\n      swap3\n      swap2\n      swap1\n      dup2\n      dup2\n      mstore\n      0x20\n      add\n      dup3\n      dup1\n      sload\n      tag_77\n      swap1\n      tag_76\n      jump\t// in\n    tag_77:\n      dup1\n      iszero\n      tag_78\n      jumpi\n      dup1\n      0x1f\n      lt\n      tag_79\n      jumpi\n      0x0100\n      dup1\n      dup4\n      sload\n      div\n      mul\n      dup4\n      mstore\n      swap2\n      0x20\n      add\n      swap2\n      jump(tag_78)\n    tag_79:\n      dup3\n      add\n      swap2\n      swap1\n      0x00\n      mstore\n      keccak256(0x00, 0x20)\n      swap1\n    tag_80:\n      dup2\n      sload\n      dup2\n      mstore\n      swap1\n      0x01\n      add\n      swap1\n      0x20\n      add\n      dup1\n      dup4\n      gt\n      tag_80\n      jumpi\n      dup3\n      swap1\n      sub\n      0x1f\n      and\n      dup3\n      add\n      swap2\n    tag_78:\n      pop\n      pop\n      pop\n      pop\n      pop\n      swap1\n      pop\n      swap4\n      pop\n      swap4\n      pop\n      swap4\n      pop\n      pop\n        /* \"contracts/Main.sol\":2398:2606  function viewPatientByDoctor(uint _id) view public returns(uint, uint8, string memory) {... */\n      swap2\n      swap4\n      swap1\n      swap3\n      pop\n      jump\t// out\n        /* \"contracts/Main.sol\":254:274  uint public doctorID */\n    tag_27:\n      sload(0x01)\n      dup2\n      jump\t// out\n        /* \"contracts/Main.sol\":1263:1486  function registerDoctor(string memory _name, string memory _qualification, string memory _workPlace) public {... */\n    tag_33:\n        /* \"contracts/Main.sol\":1382:1390  doctorID */\n      0x01\n      0x00\n        /* \"contracts/Main.sol\":1382:1393  doctorID ++ */\n      dup2\n      sload\n      dup1\n      swap3\n      swap2\n      swap1\n      tag_82\n      swap1\n      tag_70\n      jump\t// in\n    tag_82:\n      swap2\n      swap1\n      pop\n      sstore\n      pop\n        /* \"contracts/Main.sol\":1430:1478  doctorStruct( _name, _qualification, _workPlace) */\n      mload(0x40)\n      dup1\n      0x60\n      add\n      0x40\n      mstore\n      dup1\n        /* \"contracts/Main.sol\":1444:1449  _name */\n      dup5\n        /* \"contracts/Main.sol\":1430:1478  doctorStruct( _name, _qualification, _workPlace) */\n      dup2\n      mstore\n      0x20\n      add\n        /* \"contracts/Main.sol\":1451:1465  _qualification */\n      dup4\n        /* \"contracts/Main.sol\":1430:1478  doctorStruct( _name, _qualification, _workPlace) */\n      dup2\n      mstore\n      0x20\n      add\n        /* \"contracts/Main.sol\":1467:1477  _workPlace */\n      dup3\n        /* \"contracts/Main.sol\":1430:1478  doctorStruct( _name, _qualification, _workPlace) */\n      dup2\n      mstore\n      pop\n        /* \"contracts/Main.sol\":1404:1417  doctorMapping */\n      0x00\n        /* \"contracts/Main.sol\":1404:1427  doctorMapping[doctorID] */\n      dup1\n        /* \"contracts/Main.sol\":1418:1426  doctorID */\n      sload(0x01)\n        /* \"contracts/Main.sol\":1404:1427  doctorMapping[doctorID] */\n      dup2\n      mstore\n      0x20\n      add\n      swap1\n      dup2\n      mstore\n      0x20\n      add\n      0x00\n      keccak256\n        /* \"contracts/Main.sol\":1404:1478  doctorMapping[doctorID] = doctorStruct( _name, _qualification, _workPlace) */\n      0x00\n      dup3\n      add\n      mload\n      dup2\n      0x00\n      add\n      swap1\n      dup2\n      tag_83\n      swap2\n      swap1\n      tag_72\n      jump\t// in\n    tag_83:\n      pop\n      0x20\n      dup3\n      add\n      mload\n      dup2\n      0x01\n      add\n      swap1\n      dup2\n      tag_84\n      swap2\n      swap1\n      tag_72\n      jump\t// in\n    tag_84:\n      pop\n      0x40\n      dup3\n      add\n      mload\n      dup2\n      0x02\n      add\n      swap1\n      dup2\n      tag_85\n      swap2\n      swap1\n      tag_72\n      jump\t// in\n    tag_85:\n      pop\n      swap1\n      pop\n      pop\n        /* \"contracts/Main.sol\":1263:1486  function registerDoctor(string memory _name, string memory _qualification, string memory _workPlace) public {... */\n      pop\n      pop\n      pop\n      jump\t// out\n        /* \"contracts/Main.sol\":780:991  function addMedicine(uint _id, string memory _name, string memory _expiryDate, string memory _dose, uint _price) public {... */\n    tag_37:\n        /* \"contracts/Main.sol\":934:983  medicineStruct(_name, _expiryDate, _dose, _price) */\n      mload(0x40)\n      dup1\n      0x80\n      add\n      0x40\n      mstore\n      dup1\n        /* \"contracts/Main.sol\":949:954  _name */\n      dup6\n        /* \"contracts/Main.sol\":934:983  medicineStruct(_name, _expiryDate, _dose, _price) */\n      dup2\n      mstore\n      0x20\n      add\n        /* \"contracts/Main.sol\":956:967  _expiryDate */\n      dup5\n        /* \"contracts/Main.sol\":934:983  medicineStruct(_name, _expiryDate, _dose, _price) */\n      dup2\n      mstore\n      0x20\n      add\n        /* \"contracts/Main.sol\":969:974  _dose */\n      dup4\n        /* \"contracts/Main.sol\":934:983  medicineStruct(_name, _expiryDate, _dose, _price) */\n      dup2\n      mstore\n      0x20\n      add\n        /* \"contracts/Main.sol\":976:982  _price */\n      dup3\n        /* \"contracts/Main.sol\":934:983  medicineStruct(_name, _expiryDate, _dose, _price) */\n      dup2\n      mstore\n      pop\n        /* \"contracts/Main.sol\":911:926  medicineMapping */\n      0x04\n        /* \"contracts/Main.sol\":911:931  medicineMapping[_id] */\n      0x00\n        /* \"contracts/Main.sol\":927:930  _id */\n      dup8\n        /* \"contracts/Main.sol\":911:931  medicineMapping[_id] */\n      dup2\n      mstore\n      0x20\n      add\n      swap1\n      dup2\n      mstore\n      0x20\n      add\n      0x00\n      keccak256\n        /* \"contracts/Main.sol\":911:983  medicineMapping[_id] = medicineStruct(_name, _expiryDate, _dose, _price) */\n      0x00\n      dup3\n      add\n      mload\n      dup2\n      0x00\n      add\n      swap1\n      dup2\n      tag_87\n      swap2\n      swap1\n      tag_72\n      jump\t// in\n    tag_87:\n      pop\n      0x20\n      dup3\n      add\n      mload\n      dup2\n      0x01\n      add\n      swap1\n      dup2\n      tag_88\n      swap2\n      swap1\n      tag_72\n      jump\t// in\n    tag_88:\n      pop\n      0x40\n      dup3\n      add\n      mload\n      dup2\n      0x02\n      add\n      swap1\n      dup2\n      tag_89\n      swap2\n      swap1\n      tag_72\n      jump\t// in\n    tag_89:\n      pop\n      0x60\n      dup3\n      add\n      mload\n      dup2\n      0x03\n      add\n      sstore\n      swap1\n      pop\n      pop\n        /* \"contracts/Main.sol\":780:991  function addMedicine(uint _id, string memory _name, string memory _expiryDate, string memory _dose, uint _price) public {... */\n      pop\n      pop\n      pop\n      pop\n      pop\n      jump\t// out\n        /* \"contracts/Main.sol\":1872:2121  function viewDoctorByID(uint _doctorID) view public returns(string memory, string memory, string memory) {... */\n    tag_40:\n        /* \"contracts/Main.sol\":1932:1945  string memory */\n      0x60\n        /* \"contracts/Main.sol\":1947:1960  string memory */\n      dup1\n        /* \"contracts/Main.sol\":1962:1975  string memory */\n      0x60\n        /* \"contracts/Main.sol\":1988:2015  doctorStruct storage doctor */\n      0x00\n        /* \"contracts/Main.sol\":2018:2031  doctorMapping */\n      dup1\n        /* \"contracts/Main.sol\":2018:2042  doctorMapping[_doctorID] */\n      0x00\n        /* \"contracts/Main.sol\":2032:2041  _doctorID */\n      dup7\n        /* \"contracts/Main.sol\":2018:2042  doctorMapping[_doctorID] */\n      dup2\n      mstore\n      0x20\n      add\n      swap1\n      dup2\n      mstore\n      0x20\n      add\n      0x00\n      keccak256\n        /* \"contracts/Main.sol\":1988:2042  doctorStruct storage doctor = doctorMapping[_doctorID] */\n      swap1\n      pop\n        /* \"contracts/Main.sol\":2061:2067  doctor */\n      dup1\n        /* \"contracts/Main.sol\":2061:2072  doctor.name */\n      0x00\n      add\n        /* \"contracts/Main.sol\":2074:2080  doctor */\n      dup2\n        /* \"contracts/Main.sol\":2074:2094  doctor.qualification */\n      0x01\n      add\n        /* \"contracts/Main.sol\":2096:2102  doctor */\n      dup3\n        /* \"contracts/Main.sol\":2096:2112  doctor.workPlace */\n      0x02\n      add\n        /* \"contracts/Main.sol\":2053:2113  return (doctor.name, doctor.qualification, doctor.workPlace) */\n      dup3\n      dup1\n      sload\n      tag_91\n      swap1\n      tag_76\n      jump\t// in\n    tag_91:\n      dup1\n      0x1f\n      add\n      0x20\n      dup1\n      swap2\n      div\n      mul\n      0x20\n      add\n      mload(0x40)\n      swap1\n      dup2\n      add\n      0x40\n      mstore\n      dup1\n      swap3\n      swap2\n      swap1\n      dup2\n      dup2\n      mstore\n      0x20\n      add\n      dup3\n      dup1\n      sload\n      tag_92\n      swap1\n      tag_76\n      jump\t// in\n    tag_92:\n      dup1\n      iszero\n      tag_93\n      jumpi\n      dup1\n      0x1f\n      lt\n      tag_94\n      jumpi\n      0x0100\n      dup1\n      dup4\n      sload\n      div\n      mul\n      dup4\n      mstore\n      swap2\n      0x20\n      add\n      swap2\n      jump(tag_93)\n    tag_94:\n      dup3\n      add\n      swap2\n      swap1\n      0x00\n      mstore\n      keccak256(0x00, 0x20)\n      swap1\n    tag_95:\n      dup2\n      sload\n      dup2\n      mstore\n      swap1\n      0x01\n      add\n      swap1\n      0x20\n      add\n      dup1\n      dup4\n      gt\n      tag_95\n      jumpi\n      dup3\n      swap1\n      sub\n      0x1f\n      and\n      dup3\n      add\n      swap2\n    tag_93:\n      pop\n      pop\n      pop\n      pop\n      pop\n      swap3\n      pop\n      dup2\n      dup1\n      sload\n      tag_96\n      swap1\n      tag_76\n      jump\t// in\n    tag_96:\n      dup1\n      0x1f\n      add\n      0x20\n      dup1\n      swap2\n      div\n      mul\n      0x20\n      add\n      mload(0x40)\n      swap1\n      dup2\n      add\n      0x40\n      mstore\n      dup1\n      swap3\n      swap2\n      swap1\n      dup2\n      dup2\n      mstore\n      0x20\n      add\n      dup3\n      dup1\n      sload\n      tag_97\n      swap1\n      tag_76\n      jump\t// in\n    tag_97:\n      dup1\n      iszero\n      tag_98\n      jumpi\n      dup1\n      0x1f\n      lt\n      tag_99\n      jumpi\n      0x0100\n      dup1\n      dup4\n      sload\n      div\n      mul\n      dup4\n      mstore\n      swap2\n      0x20\n      add\n      swap2\n      jump(tag_98)\n    tag_99:\n      dup3\n      add\n      swap2\n      swap1\n      0x00\n      mstore\n      keccak256(0x00, 0x20)\n      swap1\n    tag_100:\n      dup2\n      sload\n      dup2\n      mstore\n      swap1\n      0x01\n      add\n      swap1\n      0x20\n      add\n      dup1\n      dup4\n      gt\n      tag_100\n      jumpi\n      dup3\n      swap1\n      sub\n      0x1f\n      and\n      dup3\n      add\n      swap2\n    tag_98:\n      pop\n      pop\n      pop\n      pop\n      pop\n      swap2\n      pop\n      dup1\n      dup1\n      sload\n      tag_101\n      swap1\n      tag_76\n      jump\t// in\n    tag_101:\n      dup1\n      0x1f\n      add\n      0x20\n      dup1\n      swap2\n      div\n      mul\n      0x20\n      add\n      mload(0x40)\n      swap1\n      dup2\n      add\n      0x40\n      mstore\n      dup1\n      swap3\n      swap2\n      swap1\n      dup2\n      dup2\n      mstore\n      0x20\n      add\n      dup3\n      dup1\n      sload\n      tag_102\n      swap1\n      tag_76\n      jump\t// in\n    tag_102:\n      dup1\n      iszero\n      tag_103\n      jumpi\n      dup1\n      0x1f\n      lt\n      tag_104\n      jumpi\n      0x0100\n      dup1\n      dup4\n      sload\n      div\n      mul\n      dup4\n      mstore\n      swap2\n      0x20\n      add\n      swap2\n      jump(tag_103)\n    tag_104:\n      dup3\n      add\n      swap2\n      swap1\n      0x00\n      mstore\n      keccak256(0x00, 0x20)\n      swap1\n    tag_105:\n      dup2\n      sload\n      dup2\n      mstore\n      swap1\n      0x01\n      add\n      swap1\n      0x20\n      add\n      dup1\n      dup4\n      gt\n      tag_105\n      jumpi\n      dup3\n      swap1\n      sub\n      0x1f\n      and\n      dup3\n      add\n      swap2\n    tag_103:\n      pop\n      pop\n      pop\n      pop\n      pop\n      swap1\n      pop\n      swap4\n      pop\n      swap4\n      pop\n      swap4\n      pop\n      pop\n        /* \"contracts/Main.sol\":1872:2121  function viewDoctorByID(uint _doctorID) view public returns(string memory, string memory, string memory) {... */\n      swap2\n      swap4\n      swap1\n      swap3\n      pop\n      jump\t// out\n        /* \"contracts/Main.sol\":1696:1864  function updateAge (uint _patientID, uint8 _newAge) public {... */\n    tag_46:\n        /* \"contracts/Main.sol\":1766:1795  patientStruct storage patient */\n      0x00\n        /* \"contracts/Main.sol\":1798:1812  patientMapping */\n      0x02\n        /* \"contracts/Main.sol\":1798:1824  patientMapping[_patientID] */\n      0x00\n        /* \"contracts/Main.sol\":1813:1823  _patientID */\n      dup5\n        /* \"contracts/Main.sol\":1798:1824  patientMapping[_patientID] */\n      dup2\n      mstore\n      0x20\n      add\n      swap1\n      dup2\n      mstore\n      0x20\n      add\n      0x00\n      keccak256\n        /* \"contracts/Main.sol\":1766:1824  patientStruct storage patient = patientMapping[_patientID] */\n      swap1\n      pop\n        /* \"contracts/Main.sol\":1849:1856  _newAge */\n      dup2\n        /* \"contracts/Main.sol\":1835:1842  patient */\n      dup2\n        /* \"contracts/Main.sol\":1835:1846  patient.age */\n      0x01\n      add\n      0x00\n        /* \"contracts/Main.sol\":1835:1856  patient.age = _newAge */\n      0x0100\n      exp\n      dup2\n      sload\n      dup2\n      0xff\n      mul\n      not\n      and\n      swap1\n      dup4\n      0xff\n      and\n      mul\n      or\n      swap1\n      sstore\n      pop\n        /* \"contracts/Main.sol\":1755:1864  {... */\n      pop\n        /* \"contracts/Main.sol\":1696:1864  function updateAge (uint _patientID, uint8 _newAge) public {... */\n      pop\n      pop\n      jump\t// out\n        /* \"contracts/Main.sol\":1133:1255  function prescribeMedicine(uint _id, address _patient) public {... */\n    tag_50:\n        /* \"contracts/Main.sol\":1243:1246  _id */\n      dup2\n        /* \"contracts/Main.sol\":1206:1230  prescribeMedicineMapping */\n      0x07\n        /* \"contracts/Main.sol\":1206:1240  prescribeMedicineMapping[_patient] */\n      0x00\n        /* \"contracts/Main.sol\":1231:1239  _patient */\n      dup4\n        /* \"contracts/Main.sol\":1206:1240  prescribeMedicineMapping[_patient] */\n      0xffffffffffffffffffffffffffffffffffffffff\n      and\n      0xffffffffffffffffffffffffffffffffffffffff\n      and\n      dup2\n      mstore\n      0x20\n      add\n      swap1\n      dup2\n      mstore\n      0x20\n      add\n      0x00\n      keccak256\n        /* \"contracts/Main.sol\":1206:1246  prescribeMedicineMapping[_patient] = _id */\n      dup2\n      swap1\n      sstore\n      pop\n        /* \"contracts/Main.sol\":1133:1255  function prescribeMedicine(uint _id, address _patient) public {... */\n      pop\n      pop\n      jump\t// out\n        /* \"contracts/Main.sol\":999:1125  function addNewDisease(string memory _disease) public {... */\n    tag_54:\n        /* \"contracts/Main.sol\":1064:1073  diseaseID */\n      0x06\n      0x00\n        /* \"contracts/Main.sol\":1064:1076  diseaseID ++ */\n      dup2\n      sload\n      dup1\n      swap3\n      swap2\n      swap1\n      tag_109\n      swap1\n      tag_70\n      jump\t// in\n    tag_109:\n      swap2\n      swap1\n      pop\n      sstore\n      pop\n        /* \"contracts/Main.sol\":1109:1117  _disease */\n      dup1\n        /* \"contracts/Main.sol\":1087:1095  diseases */\n      0x05\n        /* \"contracts/Main.sol\":1087:1106  diseases[diseaseID] */\n      0x00\n        /* \"contracts/Main.sol\":1096:1105  diseaseID */\n      sload(0x06)\n        /* \"contracts/Main.sol\":1087:1106  diseases[diseaseID] */\n      dup2\n      mstore\n      0x20\n      add\n      swap1\n      dup2\n      mstore\n      0x20\n      add\n      0x00\n      keccak256\n        /* \"contracts/Main.sol\":1087:1117  diseases[diseaseID] = _disease */\n      swap1\n      dup2\n      tag_110\n      swap2\n      swap1\n      tag_72\n      jump\t// in\n    tag_110:\n      pop\n        /* \"contracts/Main.sol\":999:1125  function addNewDisease(string memory _disease) public {... */\n      pop\n      jump\t// out\n        /* \"contracts/Main.sol\":2129:2390  function viewMedicine(uint _id) view public returns(string memory, string memory, string memory, uint) {... */\n    tag_57:\n        /* \"contracts/Main.sol\":2181:2194  string memory */\n      0x60\n        /* \"contracts/Main.sol\":2196:2209  string memory */\n      dup1\n        /* \"contracts/Main.sol\":2211:2224  string memory */\n      0x60\n        /* \"contracts/Main.sol\":2226:2230  uint */\n      0x00\n        /* \"contracts/Main.sol\":2243:2274  medicineStruct storage medicine */\n      dup1\n        /* \"contracts/Main.sol\":2277:2292  medicineMapping */\n      0x04\n        /* \"contracts/Main.sol\":2277:2297  medicineMapping[_id] */\n      0x00\n        /* \"contracts/Main.sol\":2293:2296  _id */\n      dup8\n        /* \"contracts/Main.sol\":2277:2297  medicineMapping[_id] */\n      dup2\n      mstore\n      0x20\n      add\n      swap1\n      dup2\n      mstore\n      0x20\n      add\n      0x00\n      keccak256\n        /* \"contracts/Main.sol\":2243:2297  medicineStruct storage medicine = medicineMapping[_id] */\n      swap1\n      pop\n        /* \"contracts/Main.sol\":2316:2324  medicine */\n      dup1\n        /* \"contracts/Main.sol\":2316:2329  medicine.name */\n      0x00\n      add\n        /* \"contracts/Main.sol\":2331:2339  medicine */\n      dup2\n        /* \"contracts/Main.sol\":2331:2350  medicine.expiryDate */\n      0x01\n      add\n        /* \"contracts/Main.sol\":2352:2360  medicine */\n      dup3\n        /* \"contracts/Main.sol\":2352:2365  medicine.dose */\n      0x02\n      add\n        /* \"contracts/Main.sol\":2367:2375  medicine */\n      dup4\n        /* \"contracts/Main.sol\":2367:2381  medicine.price */\n      0x03\n      add\n      sload\n        /* \"contracts/Main.sol\":2308:2382  return (medicine.name, medicine.expiryDate, medicine.dose, medicine.price) */\n      dup4\n      dup1\n      sload\n      tag_112\n      swap1\n      tag_76\n      jump\t// in\n    tag_112:\n      dup1\n      0x1f\n      add\n      0x20\n      dup1\n      swap2\n      div\n      mul\n      0x20\n      add\n      mload(0x40)\n      swap1\n      dup2\n      add\n      0x40\n      mstore\n      dup1\n      swap3\n      swap2\n      swap1\n      dup2\n      dup2\n      mstore\n      0x20\n      add\n      dup3\n      dup1\n      sload\n      tag_113\n      swap1\n      tag_76\n      jump\t// in\n    tag_113:\n      dup1\n      iszero\n      tag_114\n      jumpi\n      dup1\n      0x1f\n      lt\n      tag_115\n      jumpi\n      0x0100\n      dup1\n      dup4\n      sload\n      div\n      mul\n      dup4\n      mstore\n      swap2\n      0x20\n      add\n      swap2\n      jump(tag_114)\n    tag_115:\n      dup3\n      add\n      swap2\n      swap1\n      0x00\n      mstore\n      keccak256(0x00, 0x20)\n      swap1\n    tag_116:\n      dup2\n      sload\n      dup2\n      mstore\n      swap1\n      0x01\n      add\n      swap1\n      0x20\n      add\n      dup1\n      dup4\n      gt\n      tag_116\n      jumpi\n      dup3\n      swap1\n      sub\n      0x1f\n      and\n      dup3\n      add\n      swap2\n    tag_114:\n      pop\n      pop\n      pop\n      pop\n      pop\n      swap4\n      pop\n      dup3\n      dup1\n      sload\n      tag_117\n      swap1\n      tag_76\n      jump\t// in\n    tag_117:\n      dup1\n      0x1f\n      add\n      0x20\n      dup1\n      swap2\n      div\n      mul\n      0x20\n      add\n      mload(0x40)\n      swap1\n      dup2\n      add\n      0x40\n      mstore\n      dup1\n      swap3\n      swap2\n      swap1\n      dup2\n      dup2\n      mstore\n      0x20\n      add\n      dup3\n      dup1\n      sload\n      tag_118\n      swap1\n      tag_76\n      jump\t// in\n    tag_118:\n      dup1\n      iszero\n      tag_119\n      jumpi\n      dup1\n      0x1f\n      lt\n      tag_120\n      jumpi\n      0x0100\n      dup1\n      dup4\n      sload\n      div\n      mul\n      dup4\n      mstore\n      swap2\n      0x20\n      add\n      swap2\n      jump(tag_119)\n    tag_120:\n      dup3\n      add\n      swap2\n      swap1\n      0x00\n      mstore\n      keccak256(0x00, 0x20)\n      swap1\n    tag_121:\n      dup2\n      sload\n      dup2\n      mstore\n      swap1\n      0x01\n      add\n      swap1\n      0x20\n      add\n      dup1\n      dup4\n      gt\n      tag_121\n      jumpi\n      dup3\n      swap1\n      sub\n      0x1f\n      and\n      dup3\n      add\n      swap2\n    tag_119:\n      pop\n      pop\n      pop\n      pop\n      pop\n      swap3\n      pop\n      dup2\n      dup1\n      sload\n      tag_122\n      swap1\n      tag_76\n      jump\t// in\n    tag_122:\n      dup1\n      0x1f\n      add\n      0x20\n      dup1\n      swap2\n      div\n      mul\n      0x20\n      add\n      mload(0x40)\n      swap1\n      dup2\n      add\n      0x40\n      mstore\n      dup1\n      swap3\n      swap2\n      swap1\n      dup2\n      dup2\n      mstore\n      0x20\n      add\n      dup3\n      dup1\n      sload\n      tag_123\n      swap1\n      tag_76\n      jump\t// in\n    tag_123:\n      dup1\n      iszero\n      tag_124\n      jumpi\n      dup1\n      0x1f\n      lt\n      tag_125\n      jumpi\n      0x0100\n      dup1\n      dup4\n      sload\n      div\n      mul\n      dup4\n      mstore\n      swap2\n      0x20\n      add\n      swap2\n      jump(tag_124)\n    tag_125:\n      dup3\n      add\n      swap2\n      swap1\n      0x00\n      mstore\n      keccak256(0x00, 0x20)\n      swap1\n    tag_126:\n      dup2\n      sload\n      dup2\n      mstore\n      swap1\n      0x01\n      add\n      swap1\n      0x20\n      add\n      dup1\n      dup4\n      gt\n      tag_126\n      jumpi\n      dup3\n      swap1\n      sub\n      0x1f\n      and\n      dup3\n      add\n      swap2\n    tag_124:\n      pop\n      pop\n      pop\n      pop\n      pop\n      swap2\n      pop\n      swap5\n      pop\n      swap5\n      pop\n      swap5\n      pop\n      swap5\n      pop\n      pop\n        /* \"contracts/Main.sol\":2129:2390  function viewMedicine(uint _id) view public returns(string memory, string memory, string memory, uint) {... */\n      swap2\n      swap4\n      pop\n      swap2\n      swap4\n      jump\t// out\n        /* \"contracts/Main.sol\":2614:2750  function viewPrescribedMedicine(address _patient) view public returns(uint) {... */\n    tag_63:\n        /* \"contracts/Main.sol\":2684:2688  uint */\n      0x00\n        /* \"contracts/Main.sol\":2708:2732  prescribeMedicineMapping */\n      0x07\n        /* \"contracts/Main.sol\":2708:2742  prescribeMedicineMapping[_patient] */\n      0x00\n        /* \"contracts/Main.sol\":2733:2741  _patient */\n      dup4\n        /* \"contracts/Main.sol\":2708:2742  prescribeMedicineMapping[_patient] */\n      0xffffffffffffffffffffffffffffffffffffffff\n      and\n      0xffffffffffffffffffffffffffffffffffffffff\n      and\n      dup2\n      mstore\n      0x20\n      add\n      swap1\n      dup2\n      mstore\n      0x20\n      add\n      0x00\n      keccak256\n      sload\n        /* \"contracts/Main.sol\":2701:2742  return prescribeMedicineMapping[_patient] */\n      swap1\n      pop\n        /* \"contracts/Main.sol\":2614:2750  function viewPrescribedMedicine(address _patient) view public returns(uint) {... */\n      swap2\n      swap1\n      pop\n      jump\t// out\n        /* \"contracts/Main.sol\":440:461  uint public patientID */\n    tag_66:\n      sload(0x03)\n      dup2\n      jump\t// out\n        /* \"#utility.yul\":7:82   */\n    tag_128:\n        /* \"#utility.yul\":40:46   */\n      0x00\n        /* \"#utility.yul\":73:75   */\n      0x40\n        /* \"#utility.yul\":67:76   */\n      mload\n        /* \"#utility.yul\":57:76   */\n      swap1\n      pop\n        /* \"#utility.yul\":7:82   */\n      swap1\n      jump\t// out\n        /* \"#utility.yul\":88:205   */\n    tag_129:\n        /* \"#utility.yul\":197:198   */\n      0x00\n        /* \"#utility.yul\":194:195   */\n      dup1\n        /* \"#utility.yul\":187:199   */\n      revert\n        /* \"#utility.yul\":211:328   */\n    tag_130:\n        /* \"#utility.yul\":320:321   */\n      0x00\n        /* \"#utility.yul\":317:318   */\n      dup1\n        /* \"#utility.yul\":310:322   */\n      revert\n        /* \"#utility.yul\":334:451   */\n    tag_131:\n        /* \"#utility.yul\":443:444   */\n      0x00\n        /* \"#utility.yul\":440:441   */\n      dup1\n        /* \"#utility.yul\":433:445   */\n      revert\n        /* \"#utility.yul\":457:574   */\n    tag_132:\n        /* \"#utility.yul\":566:567   */\n      0x00\n        /* \"#utility.yul\":563:564   */\n      dup1\n        /* \"#utility.yul\":556:568   */\n      revert\n        /* \"#utility.yul\":580:682   */\n    tag_133:\n        /* \"#utility.yul\":621:627   */\n      0x00\n        /* \"#utility.yul\":672:674   */\n      0x1f\n        /* \"#utility.yul\":668:675   */\n      not\n        /* \"#utility.yul\":663:665   */\n      0x1f\n        /* \"#utility.yul\":656:661   */\n      dup4\n        /* \"#utility.yul\":652:666   */\n      add\n        /* \"#utility.yul\":648:676   */\n      and\n        /* \"#utility.yul\":638:676   */\n      swap1\n      pop\n        /* \"#utility.yul\":580:682   */\n      swap2\n      swap1\n      pop\n      jump\t// out\n        /* \"#utility.yul\":688:868   */\n    tag_134:\n        /* \"#utility.yul\":736:813   */\n      0x4e487b7100000000000000000000000000000000000000000000000000000000\n        /* \"#utility.yul\":733:734   */\n      0x00\n        /* \"#utility.yul\":726:814   */\n      mstore\n        /* \"#utility.yul\":833:837   */\n      0x41\n        /* \"#utility.yul\":830:831   */\n      0x04\n        /* \"#utility.yul\":823:838   */\n      mstore\n        /* \"#utility.yul\":857:861   */\n      0x24\n        /* \"#utility.yul\":854:855   */\n      0x00\n        /* \"#utility.yul\":847:862   */\n      revert\n        /* \"#utility.yul\":874:1155   */\n    tag_135:\n        /* \"#utility.yul\":957:984   */\n      tag_183\n        /* \"#utility.yul\":979:983   */\n      dup3\n        /* \"#utility.yul\":957:984   */\n      tag_133\n      jump\t// in\n    tag_183:\n        /* \"#utility.yul\":949:955   */\n      dup2\n        /* \"#utility.yul\":945:985   */\n      add\n        /* \"#utility.yul\":1087:1093   */\n      dup2\n        /* \"#utility.yul\":1075:1085   */\n      dup2\n        /* \"#utility.yul\":1072:1094   */\n      lt\n        /* \"#utility.yul\":1051:1069   */\n      0xffffffffffffffff\n        /* \"#utility.yul\":1039:1049   */\n      dup3\n        /* \"#utility.yul\":1036:1070   */\n      gt\n        /* \"#utility.yul\":1033:1095   */\n      or\n        /* \"#utility.yul\":1030:1118   */\n      iszero\n      tag_184\n      jumpi\n        /* \"#utility.yul\":1098:1116   */\n      tag_185\n      tag_134\n      jump\t// in\n    tag_185:\n        /* \"#utility.yul\":1030:1118   */\n    tag_184:\n        /* \"#utility.yul\":1138:1148   */\n      dup1\n        /* \"#utility.yul\":1134:1136   */\n      0x40\n        /* \"#utility.yul\":1127:1149   */\n      mstore\n        /* \"#utility.yul\":917:1155   */\n      pop\n        /* \"#utility.yul\":874:1155   */\n      pop\n      pop\n      jump\t// out\n        /* \"#utility.yul\":1161:1290   */\n    tag_136:\n        /* \"#utility.yul\":1195:1201   */\n      0x00\n        /* \"#utility.yul\":1222:1242   */\n      tag_187\n      tag_128\n      jump\t// in\n    tag_187:\n        /* \"#utility.yul\":1212:1242   */\n      swap1\n      pop\n        /* \"#utility.yul\":1251:1284   */\n      tag_188\n        /* \"#utility.yul\":1279:1283   */\n      dup3\n        /* \"#utility.yul\":1271:1277   */\n      dup3\n        /* \"#utility.yul\":1251:1284   */\n      tag_135\n      jump\t// in\n    tag_188:\n        /* \"#utility.yul\":1161:1290   */\n      swap2\n      swap1\n      pop\n      jump\t// out\n        /* \"#utility.yul\":1296:1604   */\n    tag_137:\n        /* \"#utility.yul\":1358:1362   */\n      0x00\n        /* \"#utility.yul\":1448:1466   */\n      0xffffffffffffffff\n        /* \"#utility.yul\":1440:1446   */\n      dup3\n        /* \"#utility.yul\":1437:1467   */\n      gt\n        /* \"#utility.yul\":1434:1490   */\n      iszero\n      tag_190\n      jumpi\n        /* \"#utility.yul\":1470:1488   */\n      tag_191\n      tag_134\n      jump\t// in\n    tag_191:\n        /* \"#utility.yul\":1434:1490   */\n    tag_190:\n        /* \"#utility.yul\":1508:1537   */\n      tag_192\n        /* \"#utility.yul\":1530:1536   */\n      dup3\n        /* \"#utility.yul\":1508:1537   */\n      tag_133\n      jump\t// in\n    tag_192:\n        /* \"#utility.yul\":1500:1537   */\n      swap1\n      pop\n        /* \"#utility.yul\":1592:1596   */\n      0x20\n        /* \"#utility.yul\":1586:1590   */\n      dup2\n        /* \"#utility.yul\":1582:1597   */\n      add\n        /* \"#utility.yul\":1574:1597   */\n      swap1\n      pop\n        /* \"#utility.yul\":1296:1604   */\n      swap2\n      swap1\n      pop\n      jump\t// out\n        /* \"#utility.yul\":1610:1756   */\n    tag_138:\n        /* \"#utility.yul\":1707:1713   */\n      dup3\n        /* \"#utility.yul\":1702:1705   */\n      dup2\n        /* \"#utility.yul\":1697:1700   */\n      dup4\n        /* \"#utility.yul\":1684:1714   */\n      calldatacopy\n        /* \"#utility.yul\":1748:1749   */\n      0x00\n        /* \"#utility.yul\":1739:1745   */\n      dup4\n        /* \"#utility.yul\":1734:1737   */\n      dup4\n        /* \"#utility.yul\":1730:1746   */\n      add\n        /* \"#utility.yul\":1723:1750   */\n      mstore\n        /* \"#utility.yul\":1610:1756   */\n      pop\n      pop\n      pop\n      jump\t// out\n        /* \"#utility.yul\":1762:2187   */\n    tag_139:\n        /* \"#utility.yul\":1840:1845   */\n      0x00\n        /* \"#utility.yul\":1865:1931   */\n      tag_195\n        /* \"#utility.yul\":1881:1930   */\n      tag_196\n        /* \"#utility.yul\":1923:1929   */\n      dup5\n        /* \"#utility.yul\":1881:1930   */\n      tag_137\n      jump\t// in\n    tag_196:\n        /* \"#utility.yul\":1865:1931   */\n      tag_136\n      jump\t// in\n    tag_195:\n        /* \"#utility.yul\":1856:1931   */\n      swap1\n      pop\n        /* \"#utility.yul\":1954:1960   */\n      dup3\n        /* \"#utility.yul\":1947:1952   */\n      dup2\n        /* \"#utility.yul\":1940:1961   */\n      mstore\n        /* \"#utility.yul\":1992:1996   */\n      0x20\n        /* \"#utility.yul\":1985:1990   */\n      dup2\n        /* \"#utility.yul\":1981:1997   */\n      add\n        /* \"#utility.yul\":2030:2033   */\n      dup5\n        /* \"#utility.yul\":2021:2027   */\n      dup5\n        /* \"#utility.yul\":2016:2019   */\n      dup5\n        /* \"#utility.yul\":2012:2028   */\n      add\n        /* \"#utility.yul\":2009:2034   */\n      gt\n        /* \"#utility.yul\":2006:2118   */\n      iszero\n      tag_197\n      jumpi\n        /* \"#utility.yul\":2037:2116   */\n      tag_198\n      tag_132\n      jump\t// in\n    tag_198:\n        /* \"#utility.yul\":2006:2118   */\n    tag_197:\n        /* \"#utility.yul\":2127:2181   */\n      tag_199\n        /* \"#utility.yul\":2174:2180   */\n      dup5\n        /* \"#utility.yul\":2169:2172   */\n      dup3\n        /* \"#utility.yul\":2164:2167   */\n      dup6\n        /* \"#utility.yul\":2127:2181   */\n      tag_138\n      jump\t// in\n    tag_199:\n        /* \"#utility.yul\":1846:2187   */\n      pop\n        /* \"#utility.yul\":1762:2187   */\n      swap4\n      swap3\n      pop\n      pop\n      pop\n      jump\t// out\n        /* \"#utility.yul\":2207:2547   */\n    tag_140:\n        /* \"#utility.yul\":2263:2268   */\n      0x00\n        /* \"#utility.yul\":2312:2315   */\n      dup3\n        /* \"#utility.yul\":2305:2309   */\n      0x1f\n        /* \"#utility.yul\":2297:2303   */\n      dup4\n        /* \"#utility.yul\":2293:2310   */\n      add\n        /* \"#utility.yul\":2289:2316   */\n      slt\n        /* \"#utility.yul\":2279:2401   */\n      tag_201\n      jumpi\n        /* \"#utility.yul\":2320:2399   */\n      tag_202\n      tag_131\n      jump\t// in\n    tag_202:\n        /* \"#utility.yul\":2279:2401   */\n    tag_201:\n        /* \"#utility.yul\":2437:2443   */\n      dup2\n        /* \"#utility.yul\":2424:2444   */\n      calldataload\n        /* \"#utility.yul\":2462:2541   */\n      tag_203\n        /* \"#utility.yul\":2537:2540   */\n      dup5\n        /* \"#utility.yul\":2529:2535   */\n      dup3\n        /* \"#utility.yul\":2522:2526   */\n      0x20\n        /* \"#utility.yul\":2514:2520   */\n      dup7\n        /* \"#utility.yul\":2510:2527   */\n      add\n        /* \"#utility.yul\":2462:2541   */\n      tag_139\n      jump\t// in\n    tag_203:\n        /* \"#utility.yul\":2453:2541   */\n      swap2\n      pop\n        /* \"#utility.yul\":2269:2547   */\n      pop\n        /* \"#utility.yul\":2207:2547   */\n      swap3\n      swap2\n      pop\n      pop\n      jump\t// out\n        /* \"#utility.yul\":2553:2639   */\n    tag_141:\n        /* \"#utility.yul\":2588:2595   */\n      0x00\n        /* \"#utility.yul\":2628:2632   */\n      0xff\n        /* \"#utility.yul\":2621:2626   */\n      dup3\n        /* \"#utility.yul\":2617:2633   */\n      and\n        /* \"#utility.yul\":2606:2633   */\n      swap1\n      pop\n        /* \"#utility.yul\":2553:2639   */\n      swap2\n      swap1\n      pop\n      jump\t// out\n        /* \"#utility.yul\":2645:2763   */\n    tag_142:\n        /* \"#utility.yul\":2716:2738   */\n      tag_206\n        /* \"#utility.yul\":2732:2737   */\n      dup2\n        /* \"#utility.yul\":2716:2738   */\n      tag_141\n      jump\t// in\n    tag_206:\n        /* \"#utility.yul\":2709:2714   */\n      dup2\n        /* \"#utility.yul\":2706:2739   */\n      eq\n        /* \"#utility.yul\":2696:2757   */\n      tag_207\n      jumpi\n        /* \"#utility.yul\":2753:2754   */\n      0x00\n        /* \"#utility.yul\":2750:2751   */\n      dup1\n        /* \"#utility.yul\":2743:2755   */\n      revert\n        /* \"#utility.yul\":2696:2757   */\n    tag_207:\n        /* \"#utility.yul\":2645:2763   */\n      pop\n      jump\t// out\n        /* \"#utility.yul\":2769:2904   */\n    tag_143:\n        /* \"#utility.yul\":2813:2818   */\n      0x00\n        /* \"#utility.yul\":2851:2857   */\n      dup2\n        /* \"#utility.yul\":2838:2858   */\n      calldataload\n        /* \"#utility.yul\":2829:2858   */\n      swap1\n      pop\n        /* \"#utility.yul\":2867:2898   */\n      tag_209\n        /* \"#utility.yul\":2892:2897   */\n      dup2\n        /* \"#utility.yul\":2867:2898   */\n      tag_142\n      jump\t// in\n    tag_209:\n        /* \"#utility.yul\":2769:2904   */\n      swap3\n      swap2\n      pop\n      pop\n      jump\t// out\n        /* \"#utility.yul\":2910:3885   */\n    tag_18:\n        /* \"#utility.yul\":3005:3011   */\n      0x00\n        /* \"#utility.yul\":3013:3019   */\n      dup1\n        /* \"#utility.yul\":3021:3027   */\n      0x00\n        /* \"#utility.yul\":3070:3072   */\n      0x60\n        /* \"#utility.yul\":3058:3067   */\n      dup5\n        /* \"#utility.yul\":3049:3056   */\n      dup7\n        /* \"#utility.yul\":3045:3068   */\n      sub\n        /* \"#utility.yul\":3041:3073   */\n      slt\n        /* \"#utility.yul\":3038:3157   */\n      iszero\n      tag_211\n      jumpi\n        /* \"#utility.yul\":3076:3155   */\n      tag_212\n      tag_129\n      jump\t// in\n    tag_212:\n        /* \"#utility.yul\":3038:3157   */\n    tag_211:\n        /* \"#utility.yul\":3224:3225   */\n      0x00\n        /* \"#utility.yul\":3213:3222   */\n      dup5\n        /* \"#utility.yul\":3209:3226   */\n      add\n        /* \"#utility.yul\":3196:3227   */\n      calldataload\n        /* \"#utility.yul\":3254:3272   */\n      0xffffffffffffffff\n        /* \"#utility.yul\":3246:3252   */\n      dup2\n        /* \"#utility.yul\":3243:3273   */\n      gt\n        /* \"#utility.yul\":3240:3357   */\n      iszero\n      tag_213\n      jumpi\n        /* \"#utility.yul\":3276:3355   */\n      tag_214\n      tag_130\n      jump\t// in\n    tag_214:\n        /* \"#utility.yul\":3240:3357   */\n    tag_213:\n        /* \"#utility.yul\":3381:3444   */\n      tag_215\n        /* \"#utility.yul\":3436:3443   */\n      dup7\n        /* \"#utility.yul\":3427:3433   */\n      dup3\n        /* \"#utility.yul\":3416:3425   */\n      dup8\n        /* \"#utility.yul\":3412:3434   */\n      add\n        /* \"#utility.yul\":3381:3444   */\n      tag_140\n      jump\t// in\n    tag_215:\n        /* \"#utility.yul\":3371:3444   */\n      swap4\n      pop\n        /* \"#utility.yul\":3167:3454   */\n      pop\n        /* \"#utility.yul\":3493:3495   */\n      0x20\n        /* \"#utility.yul\":3519:3570   */\n      tag_216\n        /* \"#utility.yul\":3562:3569   */\n      dup7\n        /* \"#utility.yul\":3553:3559   */\n      dup3\n        /* \"#utility.yul\":3542:3551   */\n      dup8\n        /* \"#utility.yul\":3538:3560   */\n      add\n        /* \"#utility.yul\":3519:3570   */\n      tag_143\n      jump\t// in\n    tag_216:\n        /* \"#utility.yul\":3509:3570   */\n      swap3\n      pop\n        /* \"#utility.yul\":3464:3580   */\n      pop\n        /* \"#utility.yul\":3647:3649   */\n      0x40\n        /* \"#utility.yul\":3636:3645   */\n      dup5\n        /* \"#utility.yul\":3632:3650   */\n      add\n        /* \"#utility.yul\":3619:3651   */\n      calldataload\n        /* \"#utility.yul\":3678:3696   */\n      0xffffffffffffffff\n        /* \"#utility.yul\":3670:3676   */\n      dup2\n        /* \"#utility.yul\":3667:3697   */\n      gt\n        /* \"#utility.yul\":3664:3781   */\n      iszero\n      tag_217\n      jumpi\n        /* \"#utility.yul\":3700:3779   */\n      tag_218\n      tag_130\n      jump\t// in\n    tag_218:\n        /* \"#utility.yul\":3664:3781   */\n    tag_217:\n        /* \"#utility.yul\":3805:3868   */\n      tag_219\n        /* \"#utility.yul\":3860:3867   */\n      dup7\n        /* \"#utility.yul\":3851:3857   */\n      dup3\n        /* \"#utility.yul\":3840:3849   */\n      dup8\n        /* \"#utility.yul\":3836:3858   */\n      add\n        /* \"#utility.yul\":3805:3868   */\n      tag_140\n      jump\t// in\n    tag_219:\n        /* \"#utility.yul\":3795:3868   */\n      swap2\n      pop\n        /* \"#utility.yul\":3590:3878   */\n      pop\n        /* \"#utility.yul\":2910:3885   */\n      swap3\n      pop\n      swap3\n      pop\n      swap3\n      jump\t// out\n        /* \"#utility.yul\":3891:3968   */\n    tag_144:\n        /* \"#utility.yul\":3928:3935   */\n      0x00\n        /* \"#utility.yul\":3957:3962   */\n      dup2\n        /* \"#utility.yul\":3946:3962   */\n      swap1\n      pop\n        /* \"#utility.yul\":3891:3968   */\n      swap2\n      swap1\n      pop\n      jump\t// out\n        /* \"#utility.yul\":3974:4096   */\n    tag_145:\n        /* \"#utility.yul\":4047:4071   */\n      tag_222\n        /* \"#utility.yul\":4065:4070   */\n      dup2\n        /* \"#utility.yul\":4047:4071   */\n      tag_144\n      jump\t// in\n    tag_222:\n        /* \"#utility.yul\":4040:4045   */\n      dup2\n        /* \"#utility.yul\":4037:4072   */\n      eq\n        /* \"#utility.yul\":4027:4090   */\n      tag_223\n      jumpi\n        /* \"#utility.yul\":4086:4087   */\n      0x00\n        /* \"#utility.yul\":4083:4084   */\n      dup1\n        /* \"#utility.yul\":4076:4088   */\n      revert\n        /* \"#utility.yul\":4027:4090   */\n    tag_223:\n        /* \"#utility.yul\":3974:4096   */\n      pop\n      jump\t// out\n        /* \"#utility.yul\":4102:4241   */\n    tag_146:\n        /* \"#utility.yul\":4148:4153   */\n      0x00\n        /* \"#utility.yul\":4186:4192   */\n      dup2\n        /* \"#utility.yul\":4173:4193   */\n      calldataload\n        /* \"#utility.yul\":4164:4193   */\n      swap1\n      pop\n        /* \"#utility.yul\":4202:4235   */\n      tag_225\n        /* \"#utility.yul\":4229:4234   */\n      dup2\n        /* \"#utility.yul\":4202:4235   */\n      tag_145\n      jump\t// in\n    tag_225:\n        /* \"#utility.yul\":4102:4241   */\n      swap3\n      swap2\n      pop\n      pop\n      jump\t// out\n        /* \"#utility.yul\":4247:4576   */\n    tag_22:\n        /* \"#utility.yul\":4306:4312   */\n      0x00\n        /* \"#utility.yul\":4355:4357   */\n      0x20\n        /* \"#utility.yul\":4343:4352   */\n      dup3\n        /* \"#utility.yul\":4334:4341   */\n      dup5\n        /* \"#utility.yul\":4330:4353   */\n      sub\n        /* \"#utility.yul\":4326:4358   */\n      slt\n        /* \"#utility.yul\":4323:4442   */\n      iszero\n      tag_227\n      jumpi\n        /* \"#utility.yul\":4361:4440   */\n      tag_228\n      tag_129\n      jump\t// in\n    tag_228:\n        /* \"#utility.yul\":4323:4442   */\n    tag_227:\n        /* \"#utility.yul\":4481:4482   */\n      0x00\n        /* \"#utility.yul\":4506:4559   */\n      tag_229\n        /* \"#utility.yul\":4551:4558   */\n      dup5\n        /* \"#utility.yul\":4542:4548   */\n      dup3\n        /* \"#utility.yul\":4531:4540   */\n      dup6\n        /* \"#utility.yul\":4527:4549   */\n      add\n        /* \"#utility.yul\":4506:4559   */\n      tag_146\n      jump\t// in\n    tag_229:\n        /* \"#utility.yul\":4496:4559   */\n      swap2\n      pop\n        /* \"#utility.yul\":4452:4569   */\n      pop\n        /* \"#utility.yul\":4247:4576   */\n      swap3\n      swap2\n      pop\n      pop\n      jump\t// out\n        /* \"#utility.yul\":4582:4700   */\n    tag_147:\n        /* \"#utility.yul\":4669:4693   */\n      tag_231\n        /* \"#utility.yul\":4687:4692   */\n      dup2\n        /* \"#utility.yul\":4669:4693   */\n      tag_144\n      jump\t// in\n    tag_231:\n        /* \"#utility.yul\":4664:4667   */\n      dup3\n        /* \"#utility.yul\":4657:4694   */\n      mstore\n        /* \"#utility.yul\":4582:4700   */\n      pop\n      pop\n      jump\t// out\n        /* \"#utility.yul\":4706:4818   */\n    tag_148:\n        /* \"#utility.yul\":4789:4811   */\n      tag_233\n        /* \"#utility.yul\":4805:4810   */\n      dup2\n        /* \"#utility.yul\":4789:4811   */\n      tag_141\n      jump\t// in\n    tag_233:\n        /* \"#utility.yul\":4784:4787   */\n      dup3\n        /* \"#utility.yul\":4777:4812   */\n      mstore\n        /* \"#utility.yul\":4706:4818   */\n      pop\n      pop\n      jump\t// out\n        /* \"#utility.yul\":4824:4923   */\n    tag_149:\n        /* \"#utility.yul\":4876:4882   */\n      0x00\n        /* \"#utility.yul\":4910:4915   */\n      dup2\n        /* \"#utility.yul\":4904:4916   */\n      mload\n        /* \"#utility.yul\":4894:4916   */\n      swap1\n      pop\n        /* \"#utility.yul\":4824:4923   */\n      swap2\n      swap1\n      pop\n      jump\t// out\n        /* \"#utility.yul\":4929:5098   */\n    tag_150:\n        /* \"#utility.yul\":5013:5024   */\n      0x00\n        /* \"#utility.yul\":5047:5053   */\n      dup3\n        /* \"#utility.yul\":5042:5045   */\n      dup3\n        /* \"#utility.yul\":5035:5054   */\n      mstore\n        /* \"#utility.yul\":5087:5091   */\n      0x20\n        /* \"#utility.yul\":5082:5085   */\n      dup3\n        /* \"#utility.yul\":5078:5092   */\n      add\n        /* \"#utility.yul\":5063:5092   */\n      swap1\n      pop\n        /* \"#utility.yul\":4929:5098   */\n      swap3\n      swap2\n      pop\n      pop\n      jump\t// out\n        /* \"#utility.yul\":5104:5350   */\n    tag_151:\n        /* \"#utility.yul\":5185:5186   */\n      0x00\n        /* \"#utility.yul\":5195:5308   */\n    tag_237:\n        /* \"#utility.yul\":5209:5215   */\n      dup4\n        /* \"#utility.yul\":5206:5207   */\n      dup2\n        /* \"#utility.yul\":5203:5216   */\n      lt\n        /* \"#utility.yul\":5195:5308   */\n      iszero\n      tag_239\n      jumpi\n        /* \"#utility.yul\":5294:5295   */\n      dup1\n        /* \"#utility.yul\":5289:5292   */\n      dup3\n        /* \"#utility.yul\":5285:5296   */\n      add\n        /* \"#utility.yul\":5279:5297   */\n      mload\n        /* \"#utility.yul\":5275:5276   */\n      dup2\n        /* \"#utility.yul\":5270:5273   */\n      dup5\n        /* \"#utility.yul\":5266:5277   */\n      add\n        /* \"#utility.yul\":5259:5298   */\n      mstore\n        /* \"#utility.yul\":5231:5233   */\n      0x20\n        /* \"#utility.yul\":5228:5229   */\n      dup2\n        /* \"#utility.yul\":5224:5234   */\n      add\n        /* \"#utility.yul\":5219:5234   */\n      swap1\n      pop\n        /* \"#utility.yul\":5195:5308   */\n      jump(tag_237)\n    tag_239:\n        /* \"#utility.yul\":5342:5343   */\n      0x00\n        /* \"#utility.yul\":5333:5339   */\n      dup5\n        /* \"#utility.yul\":5328:5331   */\n      dup5\n        /* \"#utility.yul\":5324:5340   */\n      add\n        /* \"#utility.yul\":5317:5344   */\n      mstore\n        /* \"#utility.yul\":5166:5350   */\n      pop\n        /* \"#utility.yul\":5104:5350   */\n      pop\n      pop\n      pop\n      jump\t// out\n        /* \"#utility.yul\":5356:5733   */\n    tag_152:\n        /* \"#utility.yul\":5444:5447   */\n      0x00\n        /* \"#utility.yul\":5472:5511   */\n      tag_241\n        /* \"#utility.yul\":5505:5510   */\n      dup3\n        /* \"#utility.yul\":5472:5511   */\n      tag_149\n      jump\t// in\n    tag_241:\n        /* \"#utility.yul\":5527:5598   */\n      tag_242\n        /* \"#utility.yul\":5591:5597   */\n      dup2\n        /* \"#utility.yul\":5586:5589   */\n      dup6\n        /* \"#utility.yul\":5527:5598   */\n      tag_150\n      jump\t// in\n    tag_242:\n        /* \"#utility.yul\":5520:5598   */\n      swap4\n      pop\n        /* \"#utility.yul\":5607:5672   */\n      tag_243\n        /* \"#utility.yul\":5665:5671   */\n      dup2\n        /* \"#utility.yul\":5660:5663   */\n      dup6\n        /* \"#utility.yul\":5653:5657   */\n      0x20\n        /* \"#utility.yul\":5646:5651   */\n      dup7\n        /* \"#utility.yul\":5642:5658   */\n      add\n        /* \"#utility.yul\":5607:5672   */\n      tag_151\n      jump\t// in\n    tag_243:\n        /* \"#utility.yul\":5697:5726   */\n      tag_244\n        /* \"#utility.yul\":5719:5725   */\n      dup2\n        /* \"#utility.yul\":5697:5726   */\n      tag_133\n      jump\t// in\n    tag_244:\n        /* \"#utility.yul\":5692:5695   */\n      dup5\n        /* \"#utility.yul\":5688:5727   */\n      add\n        /* \"#utility.yul\":5681:5727   */\n      swap2\n      pop\n        /* \"#utility.yul\":5448:5733   */\n      pop\n        /* \"#utility.yul\":5356:5733   */\n      swap3\n      swap2\n      pop\n      pop\n      jump\t// out\n        /* \"#utility.yul\":5739:6264   */\n    tag_25:\n        /* \"#utility.yul\":5904:5908   */\n      0x00\n        /* \"#utility.yul\":5942:5944   */\n      0x60\n        /* \"#utility.yul\":5931:5940   */\n      dup3\n        /* \"#utility.yul\":5927:5945   */\n      add\n        /* \"#utility.yul\":5919:5945   */\n      swap1\n      pop\n        /* \"#utility.yul\":5955:6026   */\n      tag_246\n        /* \"#utility.yul\":6023:6024   */\n      0x00\n        /* \"#utility.yul\":6012:6021   */\n      dup4\n        /* \"#utility.yul\":6008:6025   */\n      add\n        /* \"#utility.yul\":5999:6005   */\n      dup7\n        /* \"#utility.yul\":5955:6026   */\n      tag_147\n      jump\t// in\n    tag_246:\n        /* \"#utility.yul\":6036:6104   */\n      tag_247\n        /* \"#utility.yul\":6100:6102   */\n      0x20\n        /* \"#utility.yul\":6089:6098   */\n      dup4\n        /* \"#utility.yul\":6085:6103   */\n      add\n        /* \"#utility.yul\":6076:6082   */\n      dup6\n        /* \"#utility.yul\":6036:6104   */\n      tag_148\n      jump\t// in\n    tag_247:\n        /* \"#utility.yul\":6151:6160   */\n      dup2\n        /* \"#utility.yul\":6145:6149   */\n      dup2\n        /* \"#utility.yul\":6141:6161   */\n      sub\n        /* \"#utility.yul\":6136:6138   */\n      0x40\n        /* \"#utility.yul\":6125:6134   */\n      dup4\n        /* \"#utility.yul\":6121:6139   */\n      add\n        /* \"#utility.yul\":6114:6162   */\n      mstore\n        /* \"#utility.yul\":6179:6257   */\n      tag_248\n        /* \"#utility.yul\":6252:6256   */\n      dup2\n        /* \"#utility.yul\":6243:6249   */\n      dup5\n        /* \"#utility.yul\":6179:6257   */\n      tag_152\n      jump\t// in\n    tag_248:\n        /* \"#utility.yul\":6171:6257   */\n      swap1\n      pop\n        /* \"#utility.yul\":5739:6264   */\n      swap5\n      swap4\n      pop\n      pop\n      pop\n      pop\n      jump\t// out\n        /* \"#utility.yul\":6270:6492   */\n    tag_29:\n        /* \"#utility.yul\":6363:6367   */\n      0x00\n        /* \"#utility.yul\":6401:6403   */\n      0x20\n        /* \"#utility.yul\":6390:6399   */\n      dup3\n        /* \"#utility.yul\":6386:6404   */\n      add\n        /* \"#utility.yul\":6378:6404   */\n      swap1\n      pop\n        /* \"#utility.yul\":6414:6485   */\n      tag_250\n        /* \"#utility.yul\":6482:6483   */\n      0x00\n        /* \"#utility.yul\":6471:6480   */\n      dup4\n        /* \"#utility.yul\":6467:6484   */\n      add\n        /* \"#utility.yul\":6458:6464   */\n      dup5\n        /* \"#utility.yul\":6414:6485   */\n      tag_147\n      jump\t// in\n    tag_250:\n        /* \"#utility.yul\":6270:6492   */\n      swap3\n      swap2\n      pop\n      pop\n      jump\t// out\n        /* \"#utility.yul\":6498:7657   */\n    tag_32:\n        /* \"#utility.yul\":6605:6611   */\n      0x00\n        /* \"#utility.yul\":6613:6619   */\n      dup1\n        /* \"#utility.yul\":6621:6627   */\n      0x00\n        /* \"#utility.yul\":6670:6672   */\n      0x60\n        /* \"#utility.yul\":6658:6667   */\n      dup5\n        /* \"#utility.yul\":6649:6656   */\n      dup7\n        /* \"#utility.yul\":6645:6668   */\n      sub\n        /* \"#utility.yul\":6641:6673   */\n      slt\n        /* \"#utility.yul\":6638:6757   */\n      iszero\n      tag_252\n      jumpi\n        /* \"#utility.yul\":6676:6755   */\n      tag_253\n      tag_129\n      jump\t// in\n    tag_253:\n        /* \"#utility.yul\":6638:6757   */\n    tag_252:\n        /* \"#utility.yul\":6824:6825   */\n      0x00\n        /* \"#utility.yul\":6813:6822   */\n      dup5\n        /* \"#utility.yul\":6809:6826   */\n      add\n        /* \"#utility.yul\":6796:6827   */\n      calldataload\n        /* \"#utility.yul\":6854:6872   */\n      0xffffffffffffffff\n        /* \"#utility.yul\":6846:6852   */\n      dup2\n        /* \"#utility.yul\":6843:6873   */\n      gt\n        /* \"#utility.yul\":6840:6957   */\n      iszero\n      tag_254\n      jumpi\n        /* \"#utility.yul\":6876:6955   */\n      tag_255\n      tag_130\n      jump\t// in\n    tag_255:\n        /* \"#utility.yul\":6840:6957   */\n    tag_254:\n        /* \"#utility.yul\":6981:7044   */\n      tag_256\n        /* \"#utility.yul\":7036:7043   */\n      dup7\n        /* \"#utility.yul\":7027:7033   */\n      dup3\n        /* \"#utility.yul\":7016:7025   */\n      dup8\n        /* \"#utility.yul\":7012:7034   */\n      add\n        /* \"#utility.yul\":6981:7044   */\n      tag_140\n      jump\t// in\n    tag_256:\n        /* \"#utility.yul\":6971:7044   */\n      swap4\n      pop\n        /* \"#utility.yul\":6767:7054   */\n      pop\n        /* \"#utility.yul\":7121:7123   */\n      0x20\n        /* \"#utility.yul\":7110:7119   */\n      dup5\n        /* \"#utility.yul\":7106:7124   */\n      add\n        /* \"#utility.yul\":7093:7125   */\n      calldataload\n        /* \"#utility.yul\":7152:7170   */\n      0xffffffffffffffff\n        /* \"#utility.yul\":7144:7150   */\n      dup2\n        /* \"#utility.yul\":7141:7171   */\n      gt\n        /* \"#utility.yul\":7138:7255   */\n      iszero\n      tag_257\n      jumpi\n        /* \"#utility.yul\":7174:7253   */\n      tag_258\n      tag_130\n      jump\t// in\n    tag_258:\n        /* \"#utility.yul\":7138:7255   */\n    tag_257:\n        /* \"#utility.yul\":7279:7342   */\n      tag_259\n        /* \"#utility.yul\":7334:7341   */\n      dup7\n        /* \"#utility.yul\":7325:7331   */\n      dup3\n        /* \"#utility.yul\":7314:7323   */\n      dup8\n        /* \"#utility.yul\":7310:7332   */\n      add\n        /* \"#utility.yul\":7279:7342   */\n      tag_140\n      jump\t// in\n    tag_259:\n        /* \"#utility.yul\":7269:7342   */\n      swap3\n      pop\n        /* \"#utility.yul\":7064:7352   */\n      pop\n        /* \"#utility.yul\":7419:7421   */\n      0x40\n        /* \"#utility.yul\":7408:7417   */\n      dup5\n        /* \"#utility.yul\":7404:7422   */\n      add\n        /* \"#utility.yul\":7391:7423   */\n      calldataload\n        /* \"#utility.yul\":7450:7468   */\n      0xffffffffffffffff\n        /* \"#utility.yul\":7442:7448   */\n      dup2\n        /* \"#utility.yul\":7439:7469   */\n      gt\n        /* \"#utility.yul\":7436:7553   */\n      iszero\n      tag_260\n      jumpi\n        /* \"#utility.yul\":7472:7551   */\n      tag_261\n      tag_130\n      jump\t// in\n    tag_261:\n        /* \"#utility.yul\":7436:7553   */\n    tag_260:\n        /* \"#utility.yul\":7577:7640   */\n      tag_262\n        /* \"#utility.yul\":7632:7639   */\n      dup7\n        /* \"#utility.yul\":7623:7629   */\n      dup3\n        /* \"#utility.yul\":7612:7621   */\n      dup8\n        /* \"#utility.yul\":7608:7630   */\n      add\n        /* \"#utility.yul\":7577:7640   */\n      tag_140\n      jump\t// in\n    tag_262:\n        /* \"#utility.yul\":7567:7640   */\n      swap2\n      pop\n        /* \"#utility.yul\":7362:7650   */\n      pop\n        /* \"#utility.yul\":6498:7657   */\n      swap3\n      pop\n      swap3\n      pop\n      swap3\n      jump\t// out\n        /* \"#utility.yul\":7663:9114   */\n    tag_36:\n        /* \"#utility.yul\":7788:7794   */\n      0x00\n        /* \"#utility.yul\":7796:7802   */\n      dup1\n        /* \"#utility.yul\":7804:7810   */\n      0x00\n        /* \"#utility.yul\":7812:7818   */\n      dup1\n        /* \"#utility.yul\":7820:7826   */\n      0x00\n        /* \"#utility.yul\":7869:7872   */\n      0xa0\n        /* \"#utility.yul\":7857:7866   */\n      dup7\n        /* \"#utility.yul\":7848:7855   */\n      dup9\n        /* \"#utility.yul\":7844:7867   */\n      sub\n        /* \"#utility.yul\":7840:7873   */\n      slt\n        /* \"#utility.yul\":7837:7957   */\n      iszero\n      tag_264\n      jumpi\n        /* \"#utility.yul\":7876:7955   */\n      tag_265\n      tag_129\n      jump\t// in\n    tag_265:\n        /* \"#utility.yul\":7837:7957   */\n    tag_264:\n        /* \"#utility.yul\":7996:7997   */\n      0x00\n        /* \"#utility.yul\":8021:8074   */\n      tag_266\n        /* \"#utility.yul\":8066:8073   */\n      dup9\n        /* \"#utility.yul\":8057:8063   */\n      dup3\n        /* \"#utility.yul\":8046:8055   */\n      dup10\n        /* \"#utility.yul\":8042:8064   */\n      add\n        /* \"#utility.yul\":8021:8074   */\n      tag_146\n      jump\t// in\n    tag_266:\n        /* \"#utility.yul\":8011:8074   */\n      swap6\n      pop\n        /* \"#utility.yul\":7967:8084   */\n      pop\n        /* \"#utility.yul\":8151:8153   */\n      0x20\n        /* \"#utility.yul\":8140:8149   */\n      dup7\n        /* \"#utility.yul\":8136:8154   */\n      add\n        /* \"#utility.yul\":8123:8155   */\n      calldataload\n        /* \"#utility.yul\":8182:8200   */\n      0xffffffffffffffff\n        /* \"#utility.yul\":8174:8180   */\n      dup2\n        /* \"#utility.yul\":8171:8201   */\n      gt\n        /* \"#utility.yul\":8168:8285   */\n      iszero\n      tag_267\n      jumpi\n        /* \"#utility.yul\":8204:8283   */\n      tag_268\n      tag_130\n      jump\t// in\n    tag_268:\n        /* \"#utility.yul\":8168:8285   */\n    tag_267:\n        /* \"#utility.yul\":8309:8372   */\n      tag_269\n        /* \"#utility.yul\":8364:8371   */\n      dup9\n        /* \"#utility.yul\":8355:8361   */\n      dup3\n        /* \"#utility.yul\":8344:8353   */\n      dup10\n        /* \"#utility.yul\":8340:8362   */\n      add\n        /* \"#utility.yul\":8309:8372   */\n      tag_140\n      jump\t// in\n    tag_269:\n        /* \"#utility.yul\":8299:8372   */\n      swap5\n      pop\n        /* \"#utility.yul\":8094:8382   */\n      pop\n        /* \"#utility.yul\":8449:8451   */\n      0x40\n        /* \"#utility.yul\":8438:8447   */\n      dup7\n        /* \"#utility.yul\":8434:8452   */\n      add\n        /* \"#utility.yul\":8421:8453   */\n      calldataload\n        /* \"#utility.yul\":8480:8498   */\n      0xffffffffffffffff\n        /* \"#utility.yul\":8472:8478   */\n      dup2\n        /* \"#utility.yul\":8469:8499   */\n      gt\n        /* \"#utility.yul\":8466:8583   */\n      iszero\n      tag_270\n      jumpi\n        /* \"#utility.yul\":8502:8581   */\n      tag_271\n      tag_130\n      jump\t// in\n    tag_271:\n        /* \"#utility.yul\":8466:8583   */\n    tag_270:\n        /* \"#utility.yul\":8607:8670   */\n      tag_272\n        /* \"#utility.yul\":8662:8669   */\n      dup9\n        /* \"#utility.yul\":8653:8659   */\n      dup3\n        /* \"#utility.yul\":8642:8651   */\n      dup10\n        /* \"#utility.yul\":8638:8660   */\n      add\n        /* \"#utility.yul\":8607:8670   */\n      tag_140\n      jump\t// in\n    tag_272:\n        /* \"#utility.yul\":8597:8670   */\n      swap4\n      pop\n        /* \"#utility.yul\":8392:8680   */\n      pop\n        /* \"#utility.yul\":8747:8749   */\n      0x60\n        /* \"#utility.yul\":8736:8745   */\n      dup7\n        /* \"#utility.yul\":8732:8750   */\n      add\n        /* \"#utility.yul\":8719:8751   */\n      calldataload\n        /* \"#utility.yul\":8778:8796   */\n      0xffffffffffffffff\n        /* \"#utility.yul\":8770:8776   */\n      dup2\n        /* \"#utility.yul\":8767:8797   */\n      gt\n        /* \"#utility.yul\":8764:8881   */\n      iszero\n      tag_273\n      jumpi\n        /* \"#utility.yul\":8800:8879   */\n      tag_274\n      tag_130\n      jump\t// in\n    tag_274:\n        /* \"#utility.yul\":8764:8881   */\n    tag_273:\n        /* \"#utility.yul\":8905:8968   */\n      tag_275\n        /* \"#utility.yul\":8960:8967   */\n      dup9\n        /* \"#utility.yul\":8951:8957   */\n      dup3\n        /* \"#utility.yul\":8940:8949   */\n      dup10\n        /* \"#utility.yul\":8936:8958   */\n      add\n        /* \"#utility.yul\":8905:8968   */\n      tag_140\n      jump\t// in\n    tag_275:\n        /* \"#utility.yul\":8895:8968   */\n      swap3\n      pop\n        /* \"#utility.yul\":8690:8978   */\n      pop\n        /* \"#utility.yul\":9017:9020   */\n      0x80\n        /* \"#utility.yul\":9044:9097   */\n      tag_276\n        /* \"#utility.yul\":9089:9096   */\n      dup9\n        /* \"#utility.yul\":9080:9086   */\n      dup3\n        /* \"#utility.yul\":9069:9078   */\n      dup10\n        /* \"#utility.yul\":9065:9087   */\n      add\n        /* \"#utility.yul\":9044:9097   */\n      tag_146\n      jump\t// in\n    tag_276:\n        /* \"#utility.yul\":9034:9097   */\n      swap2\n      pop\n        /* \"#utility.yul\":8988:9107   */\n      pop\n        /* \"#utility.yul\":7663:9114   */\n      swap3\n      swap6\n      pop\n      swap3\n      swap6\n      swap1\n      swap4\n      pop\n      jump\t// out\n        /* \"#utility.yul\":9120:9835   */\n    tag_42:\n        /* \"#utility.yul\":9329:9333   */\n      0x00\n        /* \"#utility.yul\":9367:9369   */\n      0x60\n        /* \"#utility.yul\":9356:9365   */\n      dup3\n        /* \"#utility.yul\":9352:9370   */\n      add\n        /* \"#utility.yul\":9344:9370   */\n      swap1\n      pop\n        /* \"#utility.yul\":9416:9425   */\n      dup2\n        /* \"#utility.yul\":9410:9414   */\n      dup2\n        /* \"#utility.yul\":9406:9426   */\n      sub\n        /* \"#utility.yul\":9402:9403   */\n      0x00\n        /* \"#utility.yul\":9391:9400   */\n      dup4\n        /* \"#utility.yul\":9387:9404   */\n      add\n        /* \"#utility.yul\":9380:9427   */\n      mstore\n        /* \"#utility.yul\":9444:9522   */\n      tag_278\n        /* \"#utility.yul\":9517:9521   */\n      dup2\n        /* \"#utility.yul\":9508:9514   */\n      dup7\n        /* \"#utility.yul\":9444:9522   */\n      tag_152\n      jump\t// in\n    tag_278:\n        /* \"#utility.yul\":9436:9522   */\n      swap1\n      pop\n        /* \"#utility.yul\":9569:9578   */\n      dup2\n        /* \"#utility.yul\":9563:9567   */\n      dup2\n        /* \"#utility.yul\":9559:9579   */\n      sub\n        /* \"#utility.yul\":9554:9556   */\n      0x20\n        /* \"#utility.yul\":9543:9552   */\n      dup4\n        /* \"#utility.yul\":9539:9557   */\n      add\n        /* \"#utility.yul\":9532:9580   */\n      mstore\n        /* \"#utility.yul\":9597:9675   */\n      tag_279\n        /* \"#utility.yul\":9670:9674   */\n      dup2\n        /* \"#utility.yul\":9661:9667   */\n      dup6\n        /* \"#utility.yul\":9597:9675   */\n      tag_152\n      jump\t// in\n    tag_279:\n        /* \"#utility.yul\":9589:9675   */\n      swap1\n      pop\n        /* \"#utility.yul\":9722:9731   */\n      dup2\n        /* \"#utility.yul\":9716:9720   */\n      dup2\n        /* \"#utility.yul\":9712:9732   */\n      sub\n        /* \"#utility.yul\":9707:9709   */\n      0x40\n        /* \"#utility.yul\":9696:9705   */\n      dup4\n        /* \"#utility.yul\":9692:9710   */\n      add\n        /* \"#utility.yul\":9685:9733   */\n      mstore\n        /* \"#utility.yul\":9750:9828   */\n      tag_280\n        /* \"#utility.yul\":9823:9827   */\n      dup2\n        /* \"#utility.yul\":9814:9820   */\n      dup5\n        /* \"#utility.yul\":9750:9828   */\n      tag_152\n      jump\t// in\n    tag_280:\n        /* \"#utility.yul\":9742:9828   */\n      swap1\n      pop\n        /* \"#utility.yul\":9120:9835   */\n      swap5\n      swap4\n      pop\n      pop\n      pop\n      pop\n      jump\t// out\n        /* \"#utility.yul\":9841:10311   */\n    tag_45:\n        /* \"#utility.yul\":9907:9913   */\n      0x00\n        /* \"#utility.yul\":9915:9921   */\n      dup1\n        /* \"#utility.yul\":9964:9966   */\n      0x40\n        /* \"#utility.yul\":9952:9961   */\n      dup4\n        /* \"#utility.yul\":9943:9950   */\n      dup6\n        /* \"#utility.yul\":9939:9962   */\n      sub\n        /* \"#utility.yul\":9935:9967   */\n      slt\n        /* \"#utility.yul\":9932:10051   */\n      iszero\n      tag_282\n      jumpi\n        /* \"#utility.yul\":9970:10049   */\n      tag_283\n      tag_129\n      jump\t// in\n    tag_283:\n        /* \"#utility.yul\":9932:10051   */\n    tag_282:\n        /* \"#utility.yul\":10090:10091   */\n      0x00\n        /* \"#utility.yul\":10115:10168   */\n      tag_284\n        /* \"#utility.yul\":10160:10167   */\n      dup6\n        /* \"#utility.yul\":10151:10157   */\n      dup3\n        /* \"#utility.yul\":10140:10149   */\n      dup7\n        /* \"#utility.yul\":10136:10158   */\n      add\n        /* \"#utility.yul\":10115:10168   */\n      tag_146\n      jump\t// in\n    tag_284:\n        /* \"#utility.yul\":10105:10168   */\n      swap3\n      pop\n        /* \"#utility.yul\":10061:10178   */\n      pop\n        /* \"#utility.yul\":10217:10219   */\n      0x20\n        /* \"#utility.yul\":10243:10294   */\n      tag_285\n        /* \"#utility.yul\":10286:10293   */\n      dup6\n        /* \"#utility.yul\":10277:10283   */\n      dup3\n        /* \"#utility.yul\":10266:10275   */\n      dup7\n        /* \"#utility.yul\":10262:10284   */\n      add\n        /* \"#utility.yul\":10243:10294   */\n      tag_143\n      jump\t// in\n    tag_285:\n        /* \"#utility.yul\":10233:10294   */\n      swap2\n      pop\n        /* \"#utility.yul\":10188:10304   */\n      pop\n        /* \"#utility.yul\":9841:10311   */\n      swap3\n      pop\n      swap3\n      swap1\n      pop\n      jump\t// out\n        /* \"#utility.yul\":10317:10443   */\n    tag_153:\n        /* \"#utility.yul\":10354:10361   */\n      0x00\n        /* \"#utility.yul\":10394:10436   */\n      0xffffffffffffffffffffffffffffffffffffffff\n        /* \"#utility.yul\":10387:10392   */\n      dup3\n        /* \"#utility.yul\":10383:10437   */\n      and\n        /* \"#utility.yul\":10372:10437   */\n      swap1\n      pop\n        /* \"#utility.yul\":10317:10443   */\n      swap2\n      swap1\n      pop\n      jump\t// out\n        /* \"#utility.yul\":10449:10545   */\n    tag_154:\n        /* \"#utility.yul\":10486:10493   */\n      0x00\n        /* \"#utility.yul\":10515:10539   */\n      tag_288\n        /* \"#utility.yul\":10533:10538   */\n      dup3\n        /* \"#utility.yul\":10515:10539   */\n      tag_153\n      jump\t// in\n    tag_288:\n        /* \"#utility.yul\":10504:10539   */\n      swap1\n      pop\n        /* \"#utility.yul\":10449:10545   */\n      swap2\n      swap1\n      pop\n      jump\t// out\n        /* \"#utility.yul\":10551:10673   */\n    tag_155:\n        /* \"#utility.yul\":10624:10648   */\n      tag_290\n        /* \"#utility.yul\":10642:10647   */\n      dup2\n        /* \"#utility.yul\":10624:10648   */\n      tag_154\n      jump\t// in\n    tag_290:\n        /* \"#utility.yul\":10617:10622   */\n      dup2\n        /* \"#utility.yul\":10614:10649   */\n      eq\n        /* \"#utility.yul\":10604:10667   */\n      tag_291\n      jumpi\n        /* \"#utility.yul\":10663:10664   */\n      0x00\n        /* \"#utility.yul\":10660:10661   */\n      dup1\n        /* \"#utility.yul\":10653:10665   */\n      revert\n        /* \"#utility.yul\":10604:10667   */\n    tag_291:\n        /* \"#utility.yul\":10551:10673   */\n      pop\n      jump\t// out\n        /* \"#utility.yul\":10679:10818   */\n    tag_156:\n        /* \"#utility.yul\":10725:10730   */\n      0x00\n        /* \"#utility.yul\":10763:10769   */\n      dup2\n        /* \"#utility.yul\":10750:10770   */\n      calldataload\n        /* \"#utility.yul\":10741:10770   */\n      swap1\n      pop\n        /* \"#utility.yul\":10779:10812   */\n      tag_293\n        /* \"#utility.yul\":10806:10811   */\n      dup2\n        /* \"#utility.yul\":10779:10812   */\n      tag_155\n      jump\t// in\n    tag_293:\n        /* \"#utility.yul\":10679:10818   */\n      swap3\n      swap2\n      pop\n      pop\n      jump\t// out\n        /* \"#utility.yul\":10824:11298   */\n    tag_49:\n        /* \"#utility.yul\":10892:10898   */\n      0x00\n        /* \"#utility.yul\":10900:10906   */\n      dup1\n        /* \"#utility.yul\":10949:10951   */\n      0x40\n        /* \"#utility.yul\":10937:10946   */\n      dup4\n        /* \"#utility.yul\":10928:10935   */\n      dup6\n        /* \"#utility.yul\":10924:10947   */\n      sub\n        /* \"#utility.yul\":10920:10952   */\n      slt\n        /* \"#utility.yul\":10917:11036   */\n      iszero\n      tag_295\n      jumpi\n        /* \"#utility.yul\":10955:11034   */\n      tag_296\n      tag_129\n      jump\t// in\n    tag_296:\n        /* \"#utility.yul\":10917:11036   */\n    tag_295:\n        /* \"#utility.yul\":11075:11076   */\n      0x00\n        /* \"#utility.yul\":11100:11153   */\n      tag_297\n        /* \"#utility.yul\":11145:11152   */\n      dup6\n        /* \"#utility.yul\":11136:11142   */\n      dup3\n        /* \"#utility.yul\":11125:11134   */\n      dup7\n        /* \"#utility.yul\":11121:11143   */\n      add\n        /* \"#utility.yul\":11100:11153   */\n      tag_146\n      jump\t// in\n    tag_297:\n        /* \"#utility.yul\":11090:11153   */\n      swap3\n      pop\n        /* \"#utility.yul\":11046:11163   */\n      pop\n        /* \"#utility.yul\":11202:11204   */\n      0x20\n        /* \"#utility.yul\":11228:11281   */\n      tag_298\n        /* \"#utility.yul\":11273:11280   */\n      dup6\n        /* \"#utility.yul\":11264:11270   */\n      dup3\n        /* \"#utility.yul\":11253:11262   */\n      dup7\n        /* \"#utility.yul\":11249:11271   */\n      add\n        /* \"#utility.yul\":11228:11281   */\n      tag_156\n      jump\t// in\n    tag_298:\n        /* \"#utility.yul\":11218:11281   */\n      swap2\n      pop\n        /* \"#utility.yul\":11173:11291   */\n      pop\n        /* \"#utility.yul\":10824:11298   */\n      swap3\n      pop\n      swap3\n      swap1\n      pop\n      jump\t// out\n        /* \"#utility.yul\":11304:11813   */\n    tag_53:\n        /* \"#utility.yul\":11373:11379   */\n      0x00\n        /* \"#utility.yul\":11422:11424   */\n      0x20\n        /* \"#utility.yul\":11410:11419   */\n      dup3\n        /* \"#utility.yul\":11401:11408   */\n      dup5\n        /* \"#utility.yul\":11397:11420   */\n      sub\n        /* \"#utility.yul\":11393:11425   */\n      slt\n        /* \"#utility.yul\":11390:11509   */\n      iszero\n      tag_300\n      jumpi\n        /* \"#utility.yul\":11428:11507   */\n      tag_301\n      tag_129\n      jump\t// in\n    tag_301:\n        /* \"#utility.yul\":11390:11509   */\n    tag_300:\n        /* \"#utility.yul\":11576:11577   */\n      0x00\n        /* \"#utility.yul\":11565:11574   */\n      dup3\n        /* \"#utility.yul\":11561:11578   */\n      add\n        /* \"#utility.yul\":11548:11579   */\n      calldataload\n        /* \"#utility.yul\":11606:11624   */\n      0xffffffffffffffff\n        /* \"#utility.yul\":11598:11604   */\n      dup2\n        /* \"#utility.yul\":11595:11625   */\n      gt\n        /* \"#utility.yul\":11592:11709   */\n      iszero\n      tag_302\n      jumpi\n        /* \"#utility.yul\":11628:11707   */\n      tag_303\n      tag_130\n      jump\t// in\n    tag_303:\n        /* \"#utility.yul\":11592:11709   */\n    tag_302:\n        /* \"#utility.yul\":11733:11796   */\n      tag_304\n        /* \"#utility.yul\":11788:11795   */\n      dup5\n        /* \"#utility.yul\":11779:11785   */\n      dup3\n        /* \"#utility.yul\":11768:11777   */\n      dup6\n        /* \"#utility.yul\":11764:11786   */\n      add\n        /* \"#utility.yul\":11733:11796   */\n      tag_140\n      jump\t// in\n    tag_304:\n        /* \"#utility.yul\":11723:11796   */\n      swap2\n      pop\n        /* \"#utility.yul\":11519:11806   */\n      pop\n        /* \"#utility.yul\":11304:11813   */\n      swap3\n      swap2\n      pop\n      pop\n      jump\t// out\n        /* \"#utility.yul\":11819:12645   */\n    tag_59:\n        /* \"#utility.yul\":12056:12060   */\n      0x00\n        /* \"#utility.yul\":12094:12097   */\n      0x80\n        /* \"#utility.yul\":12083:12092   */\n      dup3\n        /* \"#utility.yul\":12079:12098   */\n      add\n        /* \"#utility.yul\":12071:12098   */\n      swap1\n      pop\n        /* \"#utility.yul\":12144:12153   */\n      dup2\n        /* \"#utility.yul\":12138:12142   */\n      dup2\n        /* \"#utility.yul\":12134:12154   */\n      sub\n        /* \"#utility.yul\":12130:12131   */\n      0x00\n        /* \"#utility.yul\":12119:12128   */\n      dup4\n        /* \"#utility.yul\":12115:12132   */\n      add\n        /* \"#utility.yul\":12108:12155   */\n      mstore\n        /* \"#utility.yul\":12172:12250   */\n      tag_306\n        /* \"#utility.yul\":12245:12249   */\n      dup2\n        /* \"#utility.yul\":12236:12242   */\n      dup8\n        /* \"#utility.yul\":12172:12250   */\n      tag_152\n      jump\t// in\n    tag_306:\n        /* \"#utility.yul\":12164:12250   */\n      swap1\n      pop\n        /* \"#utility.yul\":12297:12306   */\n      dup2\n        /* \"#utility.yul\":12291:12295   */\n      dup2\n        /* \"#utility.yul\":12287:12307   */\n      sub\n        /* \"#utility.yul\":12282:12284   */\n      0x20\n        /* \"#utility.yul\":12271:12280   */\n      dup4\n        /* \"#utility.yul\":12267:12285   */\n      add\n        /* \"#utility.yul\":12260:12308   */\n      mstore\n        /* \"#utility.yul\":12325:12403   */\n      tag_307\n        /* \"#utility.yul\":12398:12402   */\n      dup2\n        /* \"#utility.yul\":12389:12395   */\n      dup7\n        /* \"#utility.yul\":12325:12403   */\n      tag_152\n      jump\t// in\n    tag_307:\n        /* \"#utility.yul\":12317:12403   */\n      swap1\n      pop\n        /* \"#utility.yul\":12450:12459   */\n      dup2\n        /* \"#utility.yul\":12444:12448   */\n      dup2\n        /* \"#utility.yul\":12440:12460   */\n      sub\n        /* \"#utility.yul\":12435:12437   */\n      0x40\n        /* \"#utility.yul\":12424:12433   */\n      dup4\n        /* \"#utility.yul\":12420:12438   */\n      add\n        /* \"#utility.yul\":12413:12461   */\n      mstore\n        /* \"#utility.yul\":12478:12556   */\n      tag_308\n        /* \"#utility.yul\":12551:12555   */\n      dup2\n        /* \"#utility.yul\":12542:12548   */\n      dup6\n        /* \"#utility.yul\":12478:12556   */\n      tag_152\n      jump\t// in\n    tag_308:\n        /* \"#utility.yul\":12470:12556   */\n      swap1\n      pop\n        /* \"#utility.yul\":12566:12638   */\n      tag_309\n        /* \"#utility.yul\":12634:12636   */\n      0x60\n        /* \"#utility.yul\":12623:12632   */\n      dup4\n        /* \"#utility.yul\":12619:12637   */\n      add\n        /* \"#utility.yul\":12610:12616   */\n      dup5\n        /* \"#utility.yul\":12566:12638   */\n      tag_147\n      jump\t// in\n    tag_309:\n        /* \"#utility.yul\":11819:12645   */\n      swap6\n      swap5\n      pop\n      pop\n      pop\n      pop\n      pop\n      jump\t// out\n        /* \"#utility.yul\":12651:12980   */\n    tag_62:\n        /* \"#utility.yul\":12710:12716   */\n      0x00\n        /* \"#utility.yul\":12759:12761   */\n      0x20\n        /* \"#utility.yul\":12747:12756   */\n      dup3\n        /* \"#utility.yul\":12738:12745   */\n      dup5\n        /* \"#utility.yul\":12734:12757   */\n      sub\n        /* \"#utility.yul\":12730:12762   */\n      slt\n        /* \"#utility.yul\":12727:12846   */\n      iszero\n      tag_311\n      jumpi\n        /* \"#utility.yul\":12765:12844   */\n      tag_312\n      tag_129\n      jump\t// in\n    tag_312:\n        /* \"#utility.yul\":12727:12846   */\n    tag_311:\n        /* \"#utility.yul\":12885:12886   */\n      0x00\n        /* \"#utility.yul\":12910:12963   */\n      tag_313\n        /* \"#utility.yul\":12955:12962   */\n      dup5\n        /* \"#utility.yul\":12946:12952   */\n      dup3\n        /* \"#utility.yul\":12935:12944   */\n      dup6\n        /* \"#utility.yul\":12931:12953   */\n      add\n        /* \"#utility.yul\":12910:12963   */\n      tag_156\n      jump\t// in\n    tag_313:\n        /* \"#utility.yul\":12900:12963   */\n      swap2\n      pop\n        /* \"#utility.yul\":12856:12973   */\n      pop\n        /* \"#utility.yul\":12651:12980   */\n      swap3\n      swap2\n      pop\n      pop\n      jump\t// out\n        /* \"#utility.yul\":12986:13166   */\n    tag_157:\n        /* \"#utility.yul\":13034:13111   */\n      0x4e487b7100000000000000000000000000000000000000000000000000000000\n        /* \"#utility.yul\":13031:13032   */\n      0x00\n        /* \"#utility.yul\":13024:13112   */\n      mstore\n        /* \"#utility.yul\":13131:13135   */\n      0x11\n        /* \"#utility.yul\":13128:13129   */\n      0x04\n        /* \"#utility.yul\":13121:13136   */\n      mstore\n        /* \"#utility.yul\":13155:13159   */\n      0x24\n        /* \"#utility.yul\":13152:13153   */\n      0x00\n        /* \"#utility.yul\":13145:13160   */\n      revert\n        /* \"#utility.yul\":13172:13405   */\n    tag_70:\n        /* \"#utility.yul\":13211:13214   */\n      0x00\n        /* \"#utility.yul\":13234:13258   */\n      tag_316\n        /* \"#utility.yul\":13252:13257   */\n      dup3\n        /* \"#utility.yul\":13234:13258   */\n      tag_144\n      jump\t// in\n    tag_316:\n        /* \"#utility.yul\":13225:13258   */\n      swap2\n      pop\n        /* \"#utility.yul\":13280:13346   */\n      0xffffffffffffffffffffffffffffffffffffffffffffffffffffffffffffffff\n        /* \"#utility.yul\":13273:13278   */\n      dup3\n        /* \"#utility.yul\":13270:13347   */\n      sub\n        /* \"#utility.yul\":13267:13370   */\n      tag_317\n      jumpi\n        /* \"#utility.yul\":13350:13368   */\n      tag_318\n      tag_157\n      jump\t// in\n    tag_318:\n        /* \"#utility.yul\":13267:13370   */\n    tag_317:\n        /* \"#utility.yul\":13397:13398   */\n      0x01\n        /* \"#utility.yul\":13390:13395   */\n      dup3\n        /* \"#utility.yul\":13386:13399   */\n      add\n        /* \"#utility.yul\":13379:13399   */\n      swap1\n      pop\n        /* \"#utility.yul\":13172:13405   */\n      swap2\n      swap1\n      pop\n      jump\t// out\n        /* \"#utility.yul\":13411:13591   */\n    tag_158:\n        /* \"#utility.yul\":13459:13536   */\n      0x4e487b7100000000000000000000000000000000000000000000000000000000\n        /* \"#utility.yul\":13456:13457   */\n      0x00\n        /* \"#utility.yul\":13449:13537   */\n      mstore\n        /* \"#utility.yul\":13556:13560   */\n      0x22\n        /* \"#utility.yul\":13553:13554   */\n      0x04\n        /* \"#utility.yul\":13546:13561   */\n      mstore\n        /* \"#utility.yul\":13580:13584   */\n      0x24\n        /* \"#utility.yul\":13577:13578   */\n      0x00\n        /* \"#utility.yul\":13570:13585   */\n      revert\n        /* \"#utility.yul\":13597:13917   */\n    tag_76:\n        /* \"#utility.yul\":13641:13647   */\n      0x00\n        /* \"#utility.yul\":13678:13679   */\n      0x02\n        /* \"#utility.yul\":13672:13676   */\n      dup3\n        /* \"#utility.yul\":13668:13680   */\n      div\n        /* \"#utility.yul\":13658:13680   */\n      swap1\n      pop\n        /* \"#utility.yul\":13725:13726   */\n      0x01\n        /* \"#utility.yul\":13719:13723   */\n      dup3\n        /* \"#utility.yul\":13715:13727   */\n      and\n        /* \"#utility.yul\":13746:13764   */\n      dup1\n        /* \"#utility.yul\":13736:13817   */\n      tag_321\n      jumpi\n        /* \"#utility.yul\":13802:13806   */\n      0x7f\n        /* \"#utility.yul\":13794:13800   */\n      dup3\n        /* \"#utility.yul\":13790:13807   */\n      and\n        /* \"#utility.yul\":13780:13807   */\n      swap2\n      pop\n        /* \"#utility.yul\":13736:13817   */\n    tag_321:\n        /* \"#utility.yul\":13864:13866   */\n      0x20\n        /* \"#utility.yul\":13856:13862   */\n      dup3\n        /* \"#utility.yul\":13853:13867   */\n      lt\n        /* \"#utility.yul\":13833:13851   */\n      dup2\n        /* \"#utility.yul\":13830:13868   */\n      sub\n        /* \"#utility.yul\":13827:13911   */\n      tag_322\n      jumpi\n        /* \"#utility.yul\":13883:13901   */\n      tag_323\n      tag_158\n      jump\t// in\n    tag_323:\n        /* \"#utility.yul\":13827:13911   */\n    tag_322:\n        /* \"#utility.yul\":13648:13917   */\n      pop\n        /* \"#utility.yul\":13597:13917   */\n      swap2\n      swap1\n      pop\n      jump\t// out\n        /* \"#utility.yul\":13923:14064   */\n    tag_159:\n        /* \"#utility.yul\":13972:13976   */\n      0x00\n        /* \"#utility.yul\":13995:13998   */\n      dup2\n        /* \"#utility.yul\":13987:13998   */\n      swap1\n      pop\n        /* \"#utility.yul\":14018:14021   */\n      dup2\n        /* \"#utility.yul\":14015:14016   */\n      0x00\n        /* \"#utility.yul\":14008:14022   */\n      mstore\n        /* \"#utility.yul\":14052:14056   */\n      0x20\n        /* \"#utility.yul\":14049:14050   */\n      0x00\n        /* \"#utility.yul\":14039:14057   */\n      keccak256\n        /* \"#utility.yul\":14031:14057   */\n      swap1\n      pop\n        /* \"#utility.yul\":13923:14064   */\n      swap2\n      swap1\n      pop\n      jump\t// out\n        /* \"#utility.yul\":14070:14163   */\n    tag_160:\n        /* \"#utility.yul\":14107:14113   */\n      0x00\n        /* \"#utility.yul\":14154:14156   */\n      0x20\n        /* \"#utility.yul\":14149:14151   */\n      0x1f\n        /* \"#utility.yul\":14142:14147   */\n      dup4\n        /* \"#utility.yul\":14138:14152   */\n      add\n        /* \"#utility.yul\":14134:14157   */\n      div\n        /* \"#utility.yul\":14124:14157   */\n      swap1\n      pop\n        /* \"#utility.yul\":14070:14163   */\n      swap2\n      swap1\n      pop\n      jump\t// out\n        /* \"#utility.yul\":14169:14276   */\n    tag_161:\n        /* \"#utility.yul\":14213:14221   */\n      0x00\n        /* \"#utility.yul\":14263:14268   */\n      dup3\n        /* \"#utility.yul\":14257:14261   */\n      dup3\n        /* \"#utility.yul\":14253:14269   */\n      shl\n        /* \"#utility.yul\":14232:14269   */\n      swap1\n      pop\n        /* \"#utility.yul\":14169:14276   */\n      swap3\n      swap2\n      pop\n      pop\n      jump\t// out\n        /* \"#utility.yul\":14282:14675   */\n    tag_162:\n        /* \"#utility.yul\":14351:14357   */\n      0x00\n        /* \"#utility.yul\":14401:14402   */\n      0x08\n        /* \"#utility.yul\":14389:14399   */\n      dup4\n        /* \"#utility.yul\":14385:14403   */\n      mul\n        /* \"#utility.yul\":14424:14521   */\n      tag_328\n        /* \"#utility.yul\":14454:14520   */\n      0xffffffffffffffffffffffffffffffffffffffffffffffffffffffffffffffff\n        /* \"#utility.yul\":14443:14452   */\n      dup3\n        /* \"#utility.yul\":14424:14521   */\n      tag_161\n      jump\t// in\n    tag_328:\n        /* \"#utility.yul\":14542:14581   */\n      tag_329\n        /* \"#utility.yul\":14572:14580   */\n      dup7\n        /* \"#utility.yul\":14561:14570   */\n      dup4\n        /* \"#utility.yul\":14542:14581   */\n      tag_161\n      jump\t// in\n    tag_329:\n        /* \"#utility.yul\":14530:14581   */\n      swap6\n      pop\n        /* \"#utility.yul\":14614:14618   */\n      dup1\n        /* \"#utility.yul\":14610:14619   */\n      not\n        /* \"#utility.yul\":14603:14608   */\n      dup5\n        /* \"#utility.yul\":14599:14620   */\n      and\n        /* \"#utility.yul\":14590:14620   */\n      swap4\n      pop\n        /* \"#utility.yul\":14663:14667   */\n      dup1\n        /* \"#utility.yul\":14653:14661   */\n      dup7\n        /* \"#utility.yul\":14649:14668   */\n      and\n        /* \"#utility.yul\":14642:14647   */\n      dup5\n        /* \"#utility.yul\":14639:14669   */\n      or\n        /* \"#utility.yul\":14629:14669   */\n      swap3\n      pop\n        /* \"#utility.yul\":14358:14675   */\n      pop\n      pop\n        /* \"#utility.yul\":14282:14675   */\n      swap4\n      swap3\n      pop\n      pop\n      pop\n      jump\t// out\n        /* \"#utility.yul\":14681:14741   */\n    tag_163:\n        /* \"#utility.yul\":14709:14712   */\n      0x00\n        /* \"#utility.yul\":14730:14735   */\n      dup2\n        /* \"#utility.yul\":14723:14735   */\n      swap1\n      pop\n        /* \"#utility.yul\":14681:14741   */\n      swap2\n      swap1\n      pop\n      jump\t// out\n        /* \"#utility.yul\":14747:14889   */\n    tag_164:\n        /* \"#utility.yul\":14797:14806   */\n      0x00\n        /* \"#utility.yul\":14830:14883   */\n      tag_332\n        /* \"#utility.yul\":14848:14882   */\n      tag_333\n        /* \"#utility.yul\":14857:14881   */\n      tag_334\n        /* \"#utility.yul\":14875:14880   */\n      dup5\n        /* \"#utility.yul\":14857:14881   */\n      tag_144\n      jump\t// in\n    tag_334:\n        /* \"#utility.yul\":14848:14882   */\n      tag_163\n      jump\t// in\n    tag_333:\n        /* \"#utility.yul\":14830:14883   */\n      tag_144\n      jump\t// in\n    tag_332:\n        /* \"#utility.yul\":14817:14883   */\n      swap1\n      pop\n        /* \"#utility.yul\":14747:14889   */\n      swap2\n      swap1\n      pop\n      jump\t// out\n        /* \"#utility.yul\":14895:14970   */\n    tag_165:\n        /* \"#utility.yul\":14938:14941   */\n      0x00\n        /* \"#utility.yul\":14959:14964   */\n      dup2\n        /* \"#utility.yul\":14952:14964   */\n      swap1\n      pop\n        /* \"#utility.yul\":14895:14970   */\n      swap2\n      swap1\n      pop\n      jump\t// out\n        /* \"#utility.yul\":14976:15245   */\n    tag_166:\n        /* \"#utility.yul\":15086:15125   */\n      tag_337\n        /* \"#utility.yul\":15117:15124   */\n      dup4\n        /* \"#utility.yul\":15086:15125   */\n      tag_164\n      jump\t// in\n    tag_337:\n        /* \"#utility.yul\":15147:15238   */\n      tag_338\n        /* \"#utility.yul\":15196:15237   */\n      tag_339\n        /* \"#utility.yul\":15220:15236   */\n      dup3\n        /* \"#utility.yul\":15196:15237   */\n      tag_165\n      jump\t// in\n    tag_339:\n        /* \"#utility.yul\":15188:15194   */\n      dup5\n        /* \"#utility.yul\":15181:15185   */\n      dup5\n        /* \"#utility.yul\":15175:15186   */\n      sload\n        /* \"#utility.yul\":15147:15238   */\n      tag_162\n      jump\t// in\n    tag_338:\n        /* \"#utility.yul\":15141:15145   */\n      dup3\n        /* \"#utility.yul\":15134:15239   */\n      sstore\n        /* \"#utility.yul\":15052:15245   */\n      pop\n        /* \"#utility.yul\":14976:15245   */\n      pop\n      pop\n      pop\n      jump\t// out\n        /* \"#utility.yul\":15251:15324   */\n    tag_167:\n        /* \"#utility.yul\":15296:15299   */\n      0x00\n        /* \"#utility.yul\":15251:15324   */\n      swap1\n      jump\t// out\n        /* \"#utility.yul\":15330:15519   */\n    tag_168:\n        /* \"#utility.yul\":15407:15439   */\n      tag_342\n      tag_167\n      jump\t// in\n    tag_342:\n        /* \"#utility.yul\":15448:15513   */\n      tag_343\n        /* \"#utility.yul\":15506:15512   */\n      dup2\n        /* \"#utility.yul\":15498:15504   */\n      dup5\n        /* \"#utility.yul\":15492:15496   */\n      dup5\n        /* \"#utility.yul\":15448:15513   */\n      tag_166\n      jump\t// in\n    tag_343:\n        /* \"#utility.yul\":15383:15519   */\n      pop\n        /* \"#utility.yul\":15330:15519   */\n      pop\n      pop\n      jump\t// out\n        /* \"#utility.yul\":15525:15711   */\n    tag_169:\n        /* \"#utility.yul\":15585:15705   */\n    tag_345:\n        /* \"#utility.yul\":15602:15605   */\n      dup2\n        /* \"#utility.yul\":15595:15600   */\n      dup2\n        /* \"#utility.yul\":15592:15606   */\n      lt\n        /* \"#utility.yul\":15585:15705   */\n      iszero\n      tag_347\n      jumpi\n        /* \"#utility.yul\":15656:15695   */\n      tag_348\n        /* \"#utility.yul\":15693:15694   */\n      0x00\n        /* \"#utility.yul\":15686:15691   */\n      dup3\n        /* \"#utility.yul\":15656:15695   */\n      tag_168\n      jump\t// in\n    tag_348:\n        /* \"#utility.yul\":15629:15630   */\n      0x01\n        /* \"#utility.yul\":15622:15627   */\n      dup2\n        /* \"#utility.yul\":15618:15631   */\n      add\n        /* \"#utility.yul\":15609:15631   */\n      swap1\n      pop\n        /* \"#utility.yul\":15585:15705   */\n      jump(tag_345)\n    tag_347:\n        /* \"#utility.yul\":15525:15711   */\n      pop\n      pop\n      jump\t// out\n        /* \"#utility.yul\":15717:16260   */\n    tag_170:\n        /* \"#utility.yul\":15818:15820   */\n      0x1f\n        /* \"#utility.yul\":15813:15816   */\n      dup3\n        /* \"#utility.yul\":15810:15821   */\n      gt\n        /* \"#utility.yul\":15807:16253   */\n      iszero\n      tag_350\n      jumpi\n        /* \"#utility.yul\":15852:15890   */\n      tag_351\n        /* \"#utility.yul\":15884:15889   */\n      dup2\n        /* \"#utility.yul\":15852:15890   */\n      tag_159\n      jump\t// in\n    tag_351:\n        /* \"#utility.yul\":15936:15965   */\n      tag_352\n        /* \"#utility.yul\":15954:15964   */\n      dup5\n        /* \"#utility.yul\":15936:15965   */\n      tag_160\n      jump\t// in\n    tag_352:\n        /* \"#utility.yul\":15926:15934   */\n      dup2\n        /* \"#utility.yul\":15922:15966   */\n      add\n        /* \"#utility.yul\":16119:16121   */\n      0x20\n        /* \"#utility.yul\":16107:16117   */\n      dup6\n        /* \"#utility.yul\":16104:16122   */\n      lt\n        /* \"#utility.yul\":16101:16150   */\n      iszero\n      tag_353\n      jumpi\n        /* \"#utility.yul\":16140:16148   */\n      dup2\n        /* \"#utility.yul\":16125:16148   */\n      swap1\n      pop\n        /* \"#utility.yul\":16101:16150   */\n    tag_353:\n        /* \"#utility.yul\":16163:16243   */\n      tag_354\n        /* \"#utility.yul\":16219:16241   */\n      tag_355\n        /* \"#utility.yul\":16237:16240   */\n      dup6\n        /* \"#utility.yul\":16219:16241   */\n      tag_160\n      jump\t// in\n    tag_355:\n        /* \"#utility.yul\":16209:16217   */\n      dup4\n        /* \"#utility.yul\":16205:16242   */\n      add\n        /* \"#utility.yul\":16192:16203   */\n      dup3\n        /* \"#utility.yul\":16163:16243   */\n      tag_169\n      jump\t// in\n    tag_354:\n        /* \"#utility.yul\":15822:16253   */\n      pop\n      pop\n        /* \"#utility.yul\":15807:16253   */\n    tag_350:\n        /* \"#utility.yul\":15717:16260   */\n      pop\n      pop\n      pop\n      jump\t// out\n        /* \"#utility.yul\":16266:16383   */\n    tag_171:\n        /* \"#utility.yul\":16320:16328   */\n      0x00\n        /* \"#utility.yul\":16370:16375   */\n      dup3\n        /* \"#utility.yul\":16364:16368   */\n      dup3\n        /* \"#utility.yul\":16360:16376   */\n      shr\n        /* \"#utility.yul\":16339:16376   */\n      swap1\n      pop\n        /* \"#utility.yul\":16266:16383   */\n      swap3\n      swap2\n      pop\n      pop\n      jump\t// out\n        /* \"#utility.yul\":16389:16558   */\n    tag_172:\n        /* \"#utility.yul\":16433:16439   */\n      0x00\n        /* \"#utility.yul\":16466:16517   */\n      tag_358\n        /* \"#utility.yul\":16514:16515   */\n      0x00\n        /* \"#utility.yul\":16510:16516   */\n      not\n        /* \"#utility.yul\":16502:16507   */\n      dup5\n        /* \"#utility.yul\":16499:16500   */\n      0x08\n        /* \"#utility.yul\":16495:16508   */\n      mul\n        /* \"#utility.yul\":16466:16517   */\n      tag_171\n      jump\t// in\n    tag_358:\n        /* \"#utility.yul\":16462:16518   */\n      not\n        /* \"#utility.yul\":16547:16551   */\n      dup1\n        /* \"#utility.yul\":16541:16545   */\n      dup4\n        /* \"#utility.yul\":16537:16552   */\n      and\n        /* \"#utility.yul\":16527:16552   */\n      swap2\n      pop\n        /* \"#utility.yul\":16440:16558   */\n      pop\n        /* \"#utility.yul\":16389:16558   */\n      swap3\n      swap2\n      pop\n      pop\n      jump\t// out\n        /* \"#utility.yul\":16563:16858   */\n    tag_173:\n        /* \"#utility.yul\":16639:16643   */\n      0x00\n        /* \"#utility.yul\":16785:16814   */\n      tag_360\n        /* \"#utility.yul\":16810:16813   */\n      dup4\n        /* \"#utility.yul\":16804:16808   */\n      dup4\n        /* \"#utility.yul\":16785:16814   */\n      tag_172\n      jump\t// in\n    tag_360:\n        /* \"#utility.yul\":16777:16814   */\n      swap2\n      pop\n        /* \"#utility.yul\":16847:16850   */\n      dup3\n        /* \"#utility.yul\":16844:16845   */\n      0x02\n        /* \"#utility.yul\":16840:16851   */\n      mul\n        /* \"#utility.yul\":16834:16838   */\n      dup3\n        /* \"#utility.yul\":16831:16852   */\n      or\n        /* \"#utility.yul\":16823:16852   */\n      swap1\n      pop\n        /* \"#utility.yul\":16563:16858   */\n      swap3\n      swap2\n      pop\n      pop\n      jump\t// out\n        /* \"#utility.yul\":16863:18258   */\n    tag_72:\n        /* \"#utility.yul\":16980:17017   */\n      tag_362\n        /* \"#utility.yul\":17013:17016   */\n      dup3\n        /* \"#utility.yul\":16980:17017   */\n      tag_149\n      jump\t// in\n    tag_362:\n        /* \"#utility.yul\":17082:17100   */\n      0xffffffffffffffff\n        /* \"#utility.yul\":17074:17080   */\n      dup2\n        /* \"#utility.yul\":17071:17101   */\n      gt\n        /* \"#utility.yul\":17068:17124   */\n      iszero\n      tag_363\n      jumpi\n        /* \"#utility.yul\":17104:17122   */\n      tag_364\n      tag_134\n      jump\t// in\n    tag_364:\n        /* \"#utility.yul\":17068:17124   */\n    tag_363:\n        /* \"#utility.yul\":17148:17186   */\n      tag_365\n        /* \"#utility.yul\":17180:17184   */\n      dup3\n        /* \"#utility.yul\":17174:17185   */\n      sload\n        /* \"#utility.yul\":17148:17186   */\n      tag_76\n      jump\t// in\n    tag_365:\n        /* \"#utility.yul\":17233:17300   */\n      tag_366\n        /* \"#utility.yul\":17293:17299   */\n      dup3\n        /* \"#utility.yul\":17285:17291   */\n      dup3\n        /* \"#utility.yul\":17279:17283   */\n      dup6\n        /* \"#utility.yul\":17233:17300   */\n      tag_170\n      jump\t// in\n    tag_366:\n        /* \"#utility.yul\":17327:17328   */\n      0x00\n        /* \"#utility.yul\":17351:17355   */\n      0x20\n        /* \"#utility.yul\":17338:17355   */\n      swap1\n      pop\n        /* \"#utility.yul\":17383:17385   */\n      0x1f\n        /* \"#utility.yul\":17375:17381   */\n      dup4\n        /* \"#utility.yul\":17372:17386   */\n      gt\n        /* \"#utility.yul\":17400:17401   */\n      0x01\n        /* \"#utility.yul\":17395:18013   */\n      dup2\n      eq\n      tag_368\n      jumpi\n        /* \"#utility.yul\":18057:18058   */\n      0x00\n        /* \"#utility.yul\":18074:18080   */\n      dup5\n        /* \"#utility.yul\":18071:18148   */\n      iszero\n      tag_369\n      jumpi\n        /* \"#utility.yul\":18123:18132   */\n      dup3\n        /* \"#utility.yul\":18118:18121   */\n      dup8\n        /* \"#utility.yul\":18114:18133   */\n      add\n        /* \"#utility.yul\":18108:18134   */\n      mload\n        /* \"#utility.yul\":18099:18134   */\n      swap1\n      pop\n        /* \"#utility.yul\":18071:18148   */\n    tag_369:\n        /* \"#utility.yul\":18174:18241   */\n      tag_370\n        /* \"#utility.yul\":18234:18240   */\n      dup6\n        /* \"#utility.yul\":18227:18232   */\n      dup3\n        /* \"#utility.yul\":18174:18241   */\n      tag_173\n      jump\t// in\n    tag_370:\n        /* \"#utility.yul\":18168:18172   */\n      dup7\n        /* \"#utility.yul\":18161:18242   */\n      sstore\n        /* \"#utility.yul\":18030:18252   */\n      pop\n        /* \"#utility.yul\":17365:18252   */\n      jump(tag_367)\n        /* \"#utility.yul\":17395:18013   */\n    tag_368:\n        /* \"#utility.yul\":17447:17451   */\n      0x1f\n        /* \"#utility.yul\":17443:17452   */\n      not\n        /* \"#utility.yul\":17435:17441   */\n      dup5\n        /* \"#utility.yul\":17431:17453   */\n      and\n        /* \"#utility.yul\":17481:17518   */\n      tag_371\n        /* \"#utility.yul\":17513:17517   */\n      dup7\n        /* \"#utility.yul\":17481:17518   */\n      tag_159\n      jump\t// in\n    tag_371:\n        /* \"#utility.yul\":17540:17541   */\n      0x00\n        /* \"#utility.yul\":17554:17762   */\n    tag_372:\n        /* \"#utility.yul\":17568:17575   */\n      dup3\n        /* \"#utility.yul\":17565:17566   */\n      dup2\n        /* \"#utility.yul\":17562:17576   */\n      lt\n        /* \"#utility.yul\":17554:17762   */\n      iszero\n      tag_374\n      jumpi\n        /* \"#utility.yul\":17647:17656   */\n      dup5\n        /* \"#utility.yul\":17642:17645   */\n      dup10\n        /* \"#utility.yul\":17638:17657   */\n      add\n        /* \"#utility.yul\":17632:17658   */\n      mload\n        /* \"#utility.yul\":17624:17630   */\n      dup3\n        /* \"#utility.yul\":17617:17659   */\n      sstore\n        /* \"#utility.yul\":17698:17699   */\n      0x01\n        /* \"#utility.yul\":17690:17696   */\n      dup3\n        /* \"#utility.yul\":17686:17700   */\n      add\n        /* \"#utility.yul\":17676:17700   */\n      swap2\n      pop\n        /* \"#utility.yul\":17745:17747   */\n      0x20\n        /* \"#utility.yul\":17734:17743   */\n      dup6\n        /* \"#utility.yul\":17730:17748   */\n      add\n        /* \"#utility.yul\":17717:17748   */\n      swap5\n      pop\n        /* \"#utility.yul\":17591:17595   */\n      0x20\n        /* \"#utility.yul\":17588:17589   */\n      dup2\n        /* \"#utility.yul\":17584:17596   */\n      add\n        /* \"#utility.yul\":17579:17596   */\n      swap1\n      pop\n        /* \"#utility.yul\":17554:17762   */\n      jump(tag_372)\n    tag_374:\n        /* \"#utility.yul\":17790:17796   */\n      dup7\n        /* \"#utility.yul\":17781:17788   */\n      dup4\n        /* \"#utility.yul\":17778:17797   */\n      lt\n        /* \"#utility.yul\":17775:17954   */\n      iszero\n      tag_375\n      jumpi\n        /* \"#utility.yul\":17848:17857   */\n      dup5\n        /* \"#utility.yul\":17843:17846   */\n      dup10\n        /* \"#utility.yul\":17839:17858   */\n      add\n        /* \"#utility.yul\":17833:17859   */\n      mload\n        /* \"#utility.yul\":17891:17939   */\n      tag_376\n        /* \"#utility.yul\":17933:17937   */\n      0x1f\n        /* \"#utility.yul\":17925:17931   */\n      dup10\n        /* \"#utility.yul\":17921:17938   */\n      and\n        /* \"#utility.yul\":17910:17919   */\n      dup3\n        /* \"#utility.yul\":17891:17939   */\n      tag_172\n      jump\t// in\n    tag_376:\n        /* \"#utility.yul\":17883:17889   */\n      dup4\n        /* \"#utility.yul\":17876:17940   */\n      sstore\n        /* \"#utility.yul\":17798:17954   */\n      pop\n        /* \"#utility.yul\":17775:17954   */\n    tag_375:\n        /* \"#utility.yul\":18000:18001   */\n      0x01\n        /* \"#utility.yul\":17996:17997   */\n      0x02\n        /* \"#utility.yul\":17988:17994   */\n      dup9\n        /* \"#utility.yul\":17984:17998   */\n      mul\n        /* \"#utility.yul\":17980:18002   */\n      add\n        /* \"#utility.yul\":17974:17978   */\n      dup9\n        /* \"#utility.yul\":17967:18003   */\n      sstore\n        /* \"#utility.yul\":17402:18013   */\n      pop\n      pop\n      pop\n        /* \"#utility.yul\":17365:18252   */\n    tag_367:\n      pop\n        /* \"#utility.yul\":16955:18258   */\n      pop\n      pop\n      pop\n        /* \"#utility.yul\":16863:18258   */\n      pop\n      pop\n      jump\t// out\n\n    auxdata: 0xa26469706673582212208551c4610d78825197ba7c691a887f4b9c6885242c4ae8dd521dd5612bfd48c464736f6c63430008120033\n}\n",
				"bytecode": {
					"linkReferences": {},
					"object": "608060405234801561001057600080fd5b5061142d806100206000396000f3fe608060405234801561001057600080fd5b50600436106100b45760003560e01c8063a677104c11610071578063a677104c1461018f578063dcd0c2b2146101ab578063ddd865e8146101c7578063ddfe2e87146101e3578063eda9b63214610216578063f680a7bd14610246576100b4565b80631c297205146100b95780633f2feb21146100d557806346f9c5bb1461010757806350c7a9121461012557806375f495291461014157806391e0e4281461015d575b600080fd5b6100d360048036038101906100ce9190610b4e565b610264565b005b6100ef60048036038101906100ea9190610c0f565b610304565b6040516100fe93929190610cd9565b60405180910390f35b61010f6103d1565b60405161011c9190610d17565b60405180910390f35b61013f600480360381019061013a9190610d32565b6103d7565b005b61015b60048036038101906101569190610dd9565b610468565b005b61017760048036038101906101729190610c0f565b6104f2565b60405161018693929190610ea8565b60405180910390f35b6101a960048036038101906101a49190610ef4565b6106cb565b005b6101c560048036038101906101c09190610f92565b610704565b005b6101e160048036038101906101dc9190610fd2565b61074c565b005b6101fd60048036038101906101f89190610c0f565b61078a565b60405161020d949392919061101b565b60405180910390f35b610230600480360381019061022b9190611075565b61096c565b60405161023d9190610d17565b60405180910390f35b61024e6109b5565b60405161025b9190610d17565b60405180910390f35b60036000815480929190610277906110d1565b919050555060405180606001604052808481526020018360ff1681526020018281525060026000600354815260200190815260200160002060008201518160000190816102c49190611325565b5060208201518160010160006101000a81548160ff021916908360ff16021790555060408201518160020190816102fb9190611325565b50905050505050565b60008060606000600260008681526020019081526020016000209050848160010160009054906101000a900460ff168260000180805461034390611148565b80601f016020809104026020016040519081016040528092919081815260200182805461036f90611148565b80156103bc5780601f10610391576101008083540402835291602001916103bc565b820191906000526020600020905b81548152906001019060200180831161039f57829003601f168201915b50505050509050935093509350509193909250565b60015481565b600160008154809291906103ea906110d1565b9190505550604051806060016040528084815260200183815260200182815250600080600154815260200190815260200160002060008201518160000190816104339190611325565b5060208201518160010190816104499190611325565b50604082015181600201908161045f9190611325565b50905050505050565b6040518060800160405280858152602001848152602001838152602001828152506004600087815260200190815260200160002060008201518160000190816104b19190611325565b5060208201518160010190816104c79190611325565b5060408201518160020190816104dd9190611325565b50606082015181600301559050505050505050565b60608060606000806000868152602001908152602001600020905080600001816001018260020182805461052590611148565b80601f016020809104026020016040519081016040528092919081815260200182805461055190611148565b801561059e5780601f106105735761010080835404028352916020019161059e565b820191906000526020600020905b81548152906001019060200180831161058157829003601f168201915b505050505092508180546105b190611148565b80601f01602080910402602001604051908101604052809291908181526020018280546105dd90611148565b801561062a5780601f106105ff5761010080835404028352916020019161062a565b820191906000526020600020905b81548152906001019060200180831161060d57829003601f168201915b5050505050915080805461063d90611148565b80601f016020809104026020016040519081016040528092919081815260200182805461066990611148565b80156106b65780601f1061068b576101008083540402835291602001916106b6565b820191906000526020600020905b81548152906001019060200180831161069957829003601f168201915b50505050509050935093509350509193909250565b6000600260008481526020019081526020016000209050818160010160006101000a81548160ff021916908360ff160217905550505050565b81600760008373ffffffffffffffffffffffffffffffffffffffff1673ffffffffffffffffffffffffffffffffffffffff168152602001908152602001600020819055505050565b6006600081548092919061075f906110d1565b91905055508060056000600654815260200190815260200160002090816107869190611325565b5050565b606080606060008060046000878152602001908152602001600020905080600001816001018260020183600301548380546107c490611148565b80601f01602080910402602001604051908101604052809291908181526020018280546107f090611148565b801561083d5780601f106108125761010080835404028352916020019161083d565b820191906000526020600020905b81548152906001019060200180831161082057829003601f168201915b5050505050935082805461085090611148565b80601f016020809104026020016040519081016040528092919081815260200182805461087c90611148565b80156108c95780601f1061089e576101008083540402835291602001916108c9565b820191906000526020600020905b8154815290600101906020018083116108ac57829003601f168201915b505050505092508180546108dc90611148565b80601f016020809104026020016040519081016040528092919081815260200182805461090890611148565b80156109555780601f1061092a57610100808354040283529160200191610955565b820191906000526020600020905b81548152906001019060200180831161093857829003601f168201915b505050505091509450945094509450509193509193565b6000600760008373ffffffffffffffffffffffffffffffffffffffff1673ffffffffffffffffffffffffffffffffffffffff168152602001908152602001600020549050919050565b60035481565b6000604051905090565b600080fd5b600080fd5b600080fd5b600080fd5b6000601f19601f8301169050919050565b7f4e487b7100000000000000000000000000000000000000000000000000000000600052604160045260246000fd5b610a22826109d9565b810181811067ffffffffffffffff82111715610a4157610a406109ea565b5b80604052505050565b6000610a546109bb565b9050610a608282610a19565b919050565b600067ffffffffffffffff821115610a8057610a7f6109ea565b5b610a89826109d9565b9050602081019050919050565b82818337600083830152505050565b6000610ab8610ab384610a65565b610a4a565b905082815260208101848484011115610ad457610ad36109d4565b5b610adf848285610a96565b509392505050565b600082601f830112610afc57610afb6109cf565b5b8135610b0c848260208601610aa5565b91505092915050565b600060ff82169050919050565b610b2b81610b15565b8114610b3657600080fd5b50565b600081359050610b4881610b22565b92915050565b600080600060608486031215610b6757610b666109c5565b5b600084013567ffffffffffffffff811115610b8557610b846109ca565b5b610b9186828701610ae7565b9350506020610ba286828701610b39565b925050604084013567ffffffffffffffff811115610bc357610bc26109ca565b5b610bcf86828701610ae7565b9150509250925092565b6000819050919050565b610bec81610bd9565b8114610bf757600080fd5b50565b600081359050610c0981610be3565b92915050565b600060208284031215610c2557610c246109c5565b5b6000610c3384828501610bfa565b91505092915050565b610c4581610bd9565b82525050565b610c5481610b15565b82525050565b600081519050919050565b600082825260208201905092915050565b60005b83811015610c94578082015181840152602081019050610c79565b60008484015250505050565b6000610cab82610c5a565b610cb58185610c65565b9350610cc5818560208601610c76565b610cce816109d9565b840191505092915050565b6000606082019050610cee6000830186610c3c565b610cfb6020830185610c4b565b8181036040830152610d0d8184610ca0565b9050949350505050565b6000602082019050610d2c6000830184610c3c565b92915050565b600080600060608486031215610d4b57610d4a6109c5565b5b600084013567ffffffffffffffff811115610d6957610d686109ca565b5b610d7586828701610ae7565b935050602084013567ffffffffffffffff811115610d9657610d956109ca565b5b610da286828701610ae7565b925050604084013567ffffffffffffffff811115610dc357610dc26109ca565b5b610dcf86828701610ae7565b9150509250925092565b600080600080600060a08688031215610df557610df46109c5565b5b6000610e0388828901610bfa565b955050602086013567ffffffffffffffff811115610e2457610e236109ca565b5b610e3088828901610ae7565b945050604086013567ffffffffffffffff811115610e5157610e506109ca565b5b610e5d88828901610ae7565b935050606086013567ffffffffffffffff811115610e7e57610e7d6109ca565b5b610e8a88828901610ae7565b9250506080610e9b88828901610bfa565b9150509295509295909350565b60006060820190508181036000830152610ec28186610ca0565b90508181036020830152610ed68185610ca0565b90508181036040830152610eea8184610ca0565b9050949350505050565b60008060408385031215610f0b57610f0a6109c5565b5b6000610f1985828601610bfa565b9250506020610f2a85828601610b39565b9150509250929050565b600073ffffffffffffffffffffffffffffffffffffffff82169050919050565b6000610f5f82610f34565b9050919050565b610f6f81610f54565b8114610f7a57600080fd5b50565b600081359050610f8c81610f66565b92915050565b60008060408385031215610fa957610fa86109c5565b5b6000610fb785828601610bfa565b9250506020610fc885828601610f7d565b9150509250929050565b600060208284031215610fe857610fe76109c5565b5b600082013567ffffffffffffffff811115611006576110056109ca565b5b61101284828501610ae7565b91505092915050565b600060808201905081810360008301526110358187610ca0565b905081810360208301526110498186610ca0565b9050818103604083015261105d8185610ca0565b905061106c6060830184610c3c565b95945050505050565b60006020828403121561108b5761108a6109c5565b5b600061109984828501610f7d565b91505092915050565b7f4e487b7100000000000000000000000000000000000000000000000000000000600052601160045260246000fd5b60006110dc82610bd9565b91507fffffffffffffffffffffffffffffffffffffffffffffffffffffffffffffffff820361110e5761110d6110a2565b5b600182019050919050565b7f4e487b7100000000000000000000000000000000000000000000000000000000600052602260045260246000fd5b6000600282049050600182168061116057607f821691505b60208210810361117357611172611119565b5b50919050565b60008190508160005260206000209050919050565b60006020601f8301049050919050565b600082821b905092915050565b6000600883026111db7fffffffffffffffffffffffffffffffffffffffffffffffffffffffffffffffff8261119e565b6111e5868361119e565b95508019841693508086168417925050509392505050565b6000819050919050565b600061122261121d61121884610bd9565b6111fd565b610bd9565b9050919050565b6000819050919050565b61123c83611207565b61125061124882611229565b8484546111ab565b825550505050565b600090565b611265611258565b611270818484611233565b505050565b5b818110156112945761128960008261125d565b600181019050611276565b5050565b601f8211156112d9576112aa81611179565b6112b38461118e565b810160208510156112c2578190505b6112d66112ce8561118e565b830182611275565b50505b505050565b600082821c905092915050565b60006112fc600019846008026112de565b1980831691505092915050565b600061131583836112eb565b9150826002028217905092915050565b61132e82610c5a565b67ffffffffffffffff811115611347576113466109ea565b5b6113518254611148565b61135c828285611298565b600060209050601f83116001811461138f576000841561137d578287015190505b6113878582611309565b8655506113ef565b601f19841661139d86611179565b60005b828110156113c5578489015182556001820191506020850194506020810190506113a0565b868310156113e257848901516113de601f8916826112eb565b8355505b6001600288020188555050505b50505050505056fea26469706673582212208551c4610d78825197ba7c691a887f4b9c6885242c4ae8dd521dd5612bfd48c464736f6c63430008120033",
					"opcodes": "PUSH1 0x80 PUSH1 0x40 MSTORE CALLVALUE DUP1 ISZERO PUSH2 0x10 JUMPI PUSH1 0x0 DUP1 REVERT JUMPDEST POP PUSH2 0x142D DUP1 PUSH2 0x20 PUSH1 0x0 CODECOPY PUSH1 0x0 RETURN INVALID PUSH1 0x80 PUSH1 0x40 MSTORE CALLVALUE DUP1 ISZERO PUSH2 0x10 JUMPI PUSH1 0x0 DUP1 REVERT JUMPDEST POP PUSH1 0x4 CALLDATASIZE LT PUSH2 0xB4 JUMPI PUSH1 0x0 CALLDATALOAD PUSH1 0xE0 SHR DUP1 PUSH4 0xA677104C GT PUSH2 0x71 JUMPI DUP1 PUSH4 0xA677104C EQ PUSH2 0x18F JUMPI DUP1 PUSH4 0xDCD0C2B2 EQ PUSH2 0x1AB JUMPI DUP1 PUSH4 0xDDD865E8 EQ PUSH2 0x1C7 JUMPI DUP1 PUSH4 0xDDFE2E87 EQ PUSH2 0x1E3 JUMPI DUP1 PUSH4 0xEDA9B632 EQ PUSH2 0x216 JUMPI DUP1 PUSH4 0xF680A7BD EQ PUSH2 0x246 JUMPI PUSH2 0xB4 JUMP JUMPDEST DUP1 PUSH4 0x1C297205 EQ PUSH2 0xB9 JUMPI DUP1 PUSH4 0x3F2FEB21 EQ PUSH2 0xD5 JUMPI DUP1 PUSH4 0x46F9C5BB EQ PUSH2 0x107 JUMPI DUP1 PUSH4 0x50C7A912 EQ PUSH2 0x125 JUMPI DUP1 PUSH4 0x75F49529 EQ PUSH2 0x141 JUMPI DUP1 PUSH4 0x91E0E428 EQ PUSH2 0x15D JUMPI JUMPDEST PUSH1 0x0 DUP1 REVERT JUMPDEST PUSH2 0xD3 PUSH1 0x4 DUP1 CALLDATASIZE SUB DUP2 ADD SWAP1 PUSH2 0xCE SWAP2 SWAP1 PUSH2 0xB4E JUMP JUMPDEST PUSH2 0x264 JUMP JUMPDEST STOP JUMPDEST PUSH2 0xEF PUSH1 0x4 DUP1 CALLDATASIZE SUB DUP2 ADD SWAP1 PUSH2 0xEA SWAP2 SWAP1 PUSH2 0xC0F JUMP JUMPDEST PUSH2 0x304 JUMP JUMPDEST PUSH1 0x40 MLOAD PUSH2 0xFE SWAP4 SWAP3 SWAP2 SWAP1 PUSH2 0xCD9 JUMP JUMPDEST PUSH1 0x40 MLOAD DUP1 SWAP2 SUB SWAP1 RETURN JUMPDEST PUSH2 0x10F PUSH2 0x3D1 JUMP JUMPDEST PUSH1 0x40 MLOAD PUSH2 0x11C SWAP2 SWAP1 PUSH2 0xD17 JUMP JUMPDEST PUSH1 0x40 MLOAD DUP1 SWAP2 SUB SWAP1 RETURN JUMPDEST PUSH2 0x13F PUSH1 0x4 DUP1 CALLDATASIZE SUB DUP2 ADD SWAP1 PUSH2 0x13A SWAP2 SWAP1 PUSH2 0xD32 JUMP JUMPDEST PUSH2 0x3D7 JUMP JUMPDEST STOP JUMPDEST PUSH2 0x15B PUSH1 0x4 DUP1 CALLDATASIZE SUB DUP2 ADD SWAP1 PUSH2 0x156 SWAP2 SWAP1 PUSH2 0xDD9 JUMP JUMPDEST PUSH2 0x468 JUMP JUMPDEST STOP JUMPDEST PUSH2 0x177 PUSH1 0x4 DUP1 CALLDATASIZE SUB DUP2 ADD SWAP1 PUSH2 0x172 SWAP2 SWAP1 PUSH2 0xC0F JUMP JUMPDEST PUSH2 0x4F2 JUMP JUMPDEST PUSH1 0x40 MLOAD PUSH2 0x186 SWAP4 SWAP3 SWAP2 SWAP1 PUSH2 0xEA8 JUMP JUMPDEST PUSH1 0x40 MLOAD DUP1 SWAP2 SUB SWAP1 RETURN JUMPDEST PUSH2 0x1A9 PUSH1 0x4 DUP1 CALLDATASIZE SUB DUP2 ADD SWAP1 PUSH2 0x1A4 SWAP2 SWAP1 PUSH2 0xEF4 JUMP JUMPDEST PUSH2 0x6CB JUMP JUMPDEST STOP JUMPDEST PUSH2 0x1C5 PUSH1 0x4 DUP1 CALLDATASIZE SUB DUP2 ADD SWAP1 PUSH2 0x1C0 SWAP2 SWAP1 PUSH2 0xF92 JUMP JUMPDEST PUSH2 0x704 JUMP JUMPDEST STOP JUMPDEST PUSH2 0x1E1 PUSH1 0x4 DUP1 CALLDATASIZE SUB DUP2 ADD SWAP1 PUSH2 0x1DC SWAP2 SWAP1 PUSH2 0xFD2 JUMP JUMPDEST PUSH2 0x74C JUMP JUMPDEST STOP JUMPDEST PUSH2 0x1FD PUSH1 0x4 DUP1 CALLDATASIZE SUB DUP2 ADD SWAP1 PUSH2 0x1F8 SWAP2 SWAP1 PUSH2 0xC0F JUMP JUMPDEST PUSH2 0x78A JUMP JUMPDEST PUSH1 0x40 MLOAD PUSH2 0x20D SWAP5 SWAP4 SWAP3 SWAP2 SWAP1 PUSH2 0x101B JUMP JUMPDEST PUSH1 0x40 MLOAD DUP1 SWAP2 SUB SWAP1 RETURN JUMPDEST PUSH2 0x230 PUSH1 0x4 DUP1 CALLDATASIZE SUB DUP2 ADD SWAP1 PUSH2 0x22B SWAP2 SWAP1 PUSH2 0x1075 JUMP JUMPDEST PUSH2 0x96C JUMP JUMPDEST PUSH1 0x40 MLOAD PUSH2 0x23D SWAP2 SWAP1 PUSH2 0xD17 JUMP JUMPDEST PUSH1 0x40 MLOAD DUP1 SWAP2 SUB SWAP1 RETURN JUMPDEST PUSH2 0x24E PUSH2 0x9B5 JUMP JUMPDEST PUSH1 0x40 MLOAD PUSH2 0x25B SWAP2 SWAP1 PUSH2 0xD17 JUMP JUMPDEST PUSH1 0x40 MLOAD DUP1 SWAP2 SUB SWAP1 RETURN JUMPDEST PUSH1 0x3 PUSH1 0x0 DUP2 SLOAD DUP1 SWAP3 SWAP2 SWAP1 PUSH2 0x277 SWAP1 PUSH2 0x10D1 JUMP JUMPDEST SWAP2 SWAP1 POP SSTORE POP PUSH1 0x40 MLOAD DUP1 PUSH1 0x60 ADD PUSH1 0x40 MSTORE DUP1 DUP5 DUP2 MSTORE PUSH1 0x20 ADD DUP4 PUSH1 0xFF AND DUP2 MSTORE PUSH1 0x20 ADD DUP3 DUP2 MSTORE POP PUSH1 0x2 PUSH1 0x0 PUSH1 0x3 SLOAD DUP2 MSTORE PUSH1 0x20 ADD SWAP1 DUP2 MSTORE PUSH1 0x20 ADD PUSH1 0x0 KECCAK256 PUSH1 0x0 DUP3 ADD MLOAD DUP2 PUSH1 0x0 ADD SWAP1 DUP2 PUSH2 0x2C4 SWAP2 SWAP1 PUSH2 0x1325 JUMP JUMPDEST POP PUSH1 0x20 DUP3 ADD MLOAD DUP2 PUSH1 0x1 ADD PUSH1 0x0 PUSH2 0x100 EXP DUP2 SLOAD DUP2 PUSH1 0xFF MUL NOT AND SWAP1 DUP4 PUSH1 0xFF AND MUL OR SWAP1 SSTORE POP PUSH1 0x40 DUP3 ADD MLOAD DUP2 PUSH1 0x2 ADD SWAP1 DUP2 PUSH2 0x2FB SWAP2 SWAP1 PUSH2 0x1325 JUMP JUMPDEST POP SWAP1 POP POP POP POP POP JUMP JUMPDEST PUSH1 0x0 DUP1 PUSH1 0x60 PUSH1 0x0 PUSH1 0x2 PUSH1 0x0 DUP7 DUP2 MSTORE PUSH1 0x20 ADD SWAP1 DUP2 MSTORE PUSH1 0x20 ADD PUSH1 0x0 KECCAK256 SWAP1 POP DUP5 DUP2 PUSH1 0x1 ADD PUSH1 0x0 SWAP1 SLOAD SWAP1 PUSH2 0x100 EXP SWAP1 DIV PUSH1 0xFF AND DUP3 PUSH1 0x0 ADD DUP1 DUP1 SLOAD PUSH2 0x343 SWAP1 PUSH2 0x1148 JUMP JUMPDEST DUP1 PUSH1 0x1F ADD PUSH1 0x20 DUP1 SWAP2 DIV MUL PUSH1 0x20 ADD PUSH1 0x40 MLOAD SWAP1 DUP2 ADD PUSH1 0x40 MSTORE DUP1 SWAP3 SWAP2 SWAP1 DUP2 DUP2 MSTORE PUSH1 0x20 ADD DUP3 DUP1 SLOAD PUSH2 0x36F SWAP1 PUSH2 0x1148 JUMP JUMPDEST DUP1 ISZERO PUSH2 0x3BC JUMPI DUP1 PUSH1 0x1F LT PUSH2 0x391 JUMPI PUSH2 0x100 DUP1 DUP4 SLOAD DIV MUL DUP4 MSTORE SWAP2 PUSH1 0x20 ADD SWAP2 PUSH2 0x3BC JUMP JUMPDEST DUP3 ADD SWAP2 SWAP1 PUSH1 0x0 MSTORE PUSH1 0x20 PUSH1 0x0 KECCAK256 SWAP1 JUMPDEST DUP2 SLOAD DUP2 MSTORE SWAP1 PUSH1 0x1 ADD SWAP1 PUSH1 0x20 ADD DUP1 DUP4 GT PUSH2 0x39F JUMPI DUP3 SWAP1 SUB PUSH1 0x1F AND DUP3 ADD SWAP2 JUMPDEST POP POP POP POP POP SWAP1 POP SWAP4 POP SWAP4 POP SWAP4 POP POP SWAP2 SWAP4 SWAP1 SWAP3 POP JUMP JUMPDEST PUSH1 0x1 SLOAD DUP2 JUMP JUMPDEST PUSH1 0x1 PUSH1 0x0 DUP2 SLOAD DUP1 SWAP3 SWAP2 SWAP1 PUSH2 0x3EA SWAP1 PUSH2 0x10D1 JUMP JUMPDEST SWAP2 SWAP1 POP SSTORE POP PUSH1 0x40 MLOAD DUP1 PUSH1 0x60 ADD PUSH1 0x40 MSTORE DUP1 DUP5 DUP2 MSTORE PUSH1 0x20 ADD DUP4 DUP2 MSTORE PUSH1 0x20 ADD DUP3 DUP2 MSTORE POP PUSH1 0x0 DUP1 PUSH1 0x1 SLOAD DUP2 MSTORE PUSH1 0x20 ADD SWAP1 DUP2 MSTORE PUSH1 0x20 ADD PUSH1 0x0 KECCAK256 PUSH1 0x0 DUP3 ADD MLOAD DUP2 PUSH1 0x0 ADD SWAP1 DUP2 PUSH2 0x433 SWAP2 SWAP1 PUSH2 0x1325 JUMP JUMPDEST POP PUSH1 0x20 DUP3 ADD MLOAD DUP2 PUSH1 0x1 ADD SWAP1 DUP2 PUSH2 0x449 SWAP2 SWAP1 PUSH2 0x1325 JUMP JUMPDEST POP PUSH1 0x40 DUP3 ADD MLOAD DUP2 PUSH1 0x2 ADD SWAP1 DUP2 PUSH2 0x45F SWAP2 SWAP1 PUSH2 0x1325 JUMP JUMPDEST POP SWAP1 POP POP POP POP POP JUMP JUMPDEST PUSH1 0x40 MLOAD DUP1 PUSH1 0x80 ADD PUSH1 0x40 MSTORE DUP1 DUP6 DUP2 MSTORE PUSH1 0x20 ADD DUP5 DUP2 MSTORE PUSH1 0x20 ADD DUP4 DUP2 MSTORE PUSH1 0x20 ADD DUP3 DUP2 MSTORE POP PUSH1 0x4 PUSH1 0x0 DUP8 DUP2 MSTORE PUSH1 0x20 ADD SWAP1 DUP2 MSTORE PUSH1 0x20 ADD PUSH1 0x0 KECCAK256 PUSH1 0x0 DUP3 ADD MLOAD DUP2 PUSH1 0x0 ADD SWAP1 DUP2 PUSH2 0x4B1 SWAP2 SWAP1 PUSH2 0x1325 JUMP JUMPDEST POP PUSH1 0x20 DUP3 ADD MLOAD DUP2 PUSH1 0x1 ADD SWAP1 DUP2 PUSH2 0x4C7 SWAP2 SWAP1 PUSH2 0x1325 JUMP JUMPDEST POP PUSH1 0x40 DUP3 ADD MLOAD DUP2 PUSH1 0x2 ADD SWAP1 DUP2 PUSH2 0x4DD SWAP2 SWAP1 PUSH2 0x1325 JUMP JUMPDEST POP PUSH1 0x60 DUP3 ADD MLOAD DUP2 PUSH1 0x3 ADD SSTORE SWAP1 POP POP POP POP POP POP POP JUMP JUMPDEST PUSH1 0x60 DUP1 PUSH1 0x60 PUSH1 0x0 DUP1 PUSH1 0x0 DUP7 DUP2 MSTORE PUSH1 0x20 ADD SWAP1 DUP2 MSTORE PUSH1 0x20 ADD PUSH1 0x0 KECCAK256 SWAP1 POP DUP1 PUSH1 0x0 ADD DUP2 PUSH1 0x1 ADD DUP3 PUSH1 0x2 ADD DUP3 DUP1 SLOAD PUSH2 0x525 SWAP1 PUSH2 0x1148 JUMP JUMPDEST DUP1 PUSH1 0x1F ADD PUSH1 0x20 DUP1 SWAP2 DIV MUL PUSH1 0x20 ADD PUSH1 0x40 MLOAD SWAP1 DUP2 ADD PUSH1 0x40 MSTORE DUP1 SWAP3 SWAP2 SWAP1 DUP2 DUP2 MSTORE PUSH1 0x20 ADD DUP3 DUP1 SLOAD PUSH2 0x551 SWAP1 PUSH2 0x1148 JUMP JUMPDEST DUP1 ISZERO PUSH2 0x59E JUMPI DUP1 PUSH1 0x1F LT PUSH2 0x573 JUMPI PUSH2 0x100 DUP1 DUP4 SLOAD DIV MUL DUP4 MSTORE SWAP2 PUSH1 0x20 ADD SWAP2 PUSH2 0x59E JUMP JUMPDEST DUP3 ADD SWAP2 SWAP1 PUSH1 0x0 MSTORE PUSH1 0x20 PUSH1 0x0 KECCAK256 SWAP1 JUMPDEST DUP2 SLOAD DUP2 MSTORE SWAP1 PUSH1 0x1 ADD SWAP1 PUSH1 0x20 ADD DUP1 DUP4 GT PUSH2 0x581 JUMPI DUP3 SWAP1 SUB PUSH1 0x1F AND DUP3 ADD SWAP2 JUMPDEST POP POP POP POP POP SWAP3 POP DUP2 DUP1 SLOAD PUSH2 0x5B1 SWAP1 PUSH2 0x1148 JUMP JUMPDEST DUP1 PUSH1 0x1F ADD PUSH1 0x20 DUP1 SWAP2 DIV MUL PUSH1 0x20 ADD PUSH1 0x40 MLOAD SWAP1 DUP2 ADD PUSH1 0x40 MSTORE DUP1 SWAP3 SWAP2 SWAP1 DUP2 DUP2 MSTORE PUSH1 0x20 ADD DUP3 DUP1 SLOAD PUSH2 0x5DD SWAP1 PUSH2 0x1148 JUMP JUMPDEST DUP1 ISZERO PUSH2 0x62A JUMPI DUP1 PUSH1 0x1F LT PUSH2 0x5FF JUMPI PUSH2 0x100 DUP1 DUP4 SLOAD DIV MUL DUP4 MSTORE SWAP2 PUSH1 0x20 ADD SWAP2 PUSH2 0x62A JUMP JUMPDEST DUP3 ADD SWAP2 SWAP1 PUSH1 0x0 MSTORE PUSH1 0x20 PUSH1 0x0 KECCAK256 SWAP1 JUMPDEST DUP2 SLOAD DUP2 MSTORE SWAP1 PUSH1 0x1 ADD SWAP1 PUSH1 0x20 ADD DUP1 DUP4 GT PUSH2 0x60D JUMPI DUP3 SWAP1 SUB PUSH1 0x1F AND DUP3 ADD SWAP2 JUMPDEST POP POP POP POP POP SWAP2 POP DUP1 DUP1 SLOAD PUSH2 0x63D SWAP1 PUSH2 0x1148 JUMP JUMPDEST DUP1 PUSH1 0x1F ADD PUSH1 0x20 DUP1 SWAP2 DIV MUL PUSH1 0x20 ADD PUSH1 0x40 MLOAD SWAP1 DUP2 ADD PUSH1 0x40 MSTORE DUP1 SWAP3 SWAP2 SWAP1 DUP2 DUP2 MSTORE PUSH1 0x20 ADD DUP3 DUP1 SLOAD PUSH2 0x669 SWAP1 PUSH2 0x1148 JUMP JUMPDEST DUP1 ISZERO PUSH2 0x6B6 JUMPI DUP1 PUSH1 0x1F LT PUSH2 0x68B JUMPI PUSH2 0x100 DUP1 DUP4 SLOAD DIV MUL DUP4 MSTORE SWAP2 PUSH1 0x20 ADD SWAP2 PUSH2 0x6B6 JUMP JUMPDEST DUP3 ADD SWAP2 SWAP1 PUSH1 0x0 MSTORE PUSH1 0x20 PUSH1 0x0 KECCAK256 SWAP1 JUMPDEST DUP2 SLOAD DUP2 MSTORE SWAP1 PUSH1 0x1 ADD SWAP1 PUSH1 0x20 ADD DUP1 DUP4 GT PUSH2 0x699 JUMPI DUP3 SWAP1 SUB PUSH1 0x1F AND DUP3 ADD SWAP2 JUMPDEST POP POP POP POP POP SWAP1 POP SWAP4 POP SWAP4 POP SWAP4 POP POP SWAP2 SWAP4 SWAP1 SWAP3 POP JUMP JUMPDEST PUSH1 0x0 PUSH1 0x2 PUSH1 0x0 DUP5 DUP2 MSTORE PUSH1 0x20 ADD SWAP1 DUP2 MSTORE PUSH1 0x20 ADD PUSH1 0x0 KECCAK256 SWAP1 POP DUP2 DUP2 PUSH1 0x1 ADD PUSH1 0x0 PUSH2 0x100 EXP DUP2 SLOAD DUP2 PUSH1 0xFF MUL NOT AND SWAP1 DUP4 PUSH1 0xFF AND MUL OR SWAP1 SSTORE POP POP POP POP JUMP JUMPDEST DUP2 PUSH1 0x7 PUSH1 0x0 DUP4 PUSH20 0xFFFFFFFFFFFFFFFFFFFFFFFFFFFFFFFFFFFFFFFF AND PUSH20 0xFFFFFFFFFFFFFFFFFFFFFFFFFFFFFFFFFFFFFFFF AND DUP2 MSTORE PUSH1 0x20 ADD SWAP1 DUP2 MSTORE PUSH1 0x20 ADD PUSH1 0x0 KECCAK256 DUP2 SWAP1 SSTORE POP POP POP JUMP JUMPDEST PUSH1 0x6 PUSH1 0x0 DUP2 SLOAD DUP1 SWAP3 SWAP2 SWAP1 PUSH2 0x75F SWAP1 PUSH2 0x10D1 JUMP JUMPDEST SWAP2 SWAP1 POP SSTORE POP DUP1 PUSH1 0x5 PUSH1 0x0 PUSH1 0x6 SLOAD DUP2 MSTORE PUSH1 0x20 ADD SWAP1 DUP2 MSTORE PUSH1 0x20 ADD PUSH1 0x0 KECCAK256 SWAP1 DUP2 PUSH2 0x786 SWAP2 SWAP1 PUSH2 0x1325 JUMP JUMPDEST POP POP JUMP JUMPDEST PUSH1 0x60 DUP1 PUSH1 0x60 PUSH1 0x0 DUP1 PUSH1 0x4 PUSH1 0x0 DUP8 DUP2 MSTORE PUSH1 0x20 ADD SWAP1 DUP2 MSTORE PUSH1 0x20 ADD PUSH1 0x0 KECCAK256 SWAP1 POP DUP1 PUSH1 0x0 ADD DUP2 PUSH1 0x1 ADD DUP3 PUSH1 0x2 ADD DUP4 PUSH1 0x3 ADD SLOAD DUP4 DUP1 SLOAD PUSH2 0x7C4 SWAP1 PUSH2 0x1148 JUMP JUMPDEST DUP1 PUSH1 0x1F ADD PUSH1 0x20 DUP1 SWAP2 DIV MUL PUSH1 0x20 ADD PUSH1 0x40 MLOAD SWAP1 DUP2 ADD PUSH1 0x40 MSTORE DUP1 SWAP3 SWAP2 SWAP1 DUP2 DUP2 MSTORE PUSH1 0x20 ADD DUP3 DUP1 SLOAD PUSH2 0x7F0 SWAP1 PUSH2 0x1148 JUMP JUMPDEST DUP1 ISZERO PUSH2 0x83D JUMPI DUP1 PUSH1 0x1F LT PUSH2 0x812 JUMPI PUSH2 0x100 DUP1 DUP4 SLOAD DIV MUL DUP4 MSTORE SWAP2 PUSH1 0x20 ADD SWAP2 PUSH2 0x83D JUMP JUMPDEST DUP3 ADD SWAP2 SWAP1 PUSH1 0x0 MSTORE PUSH1 0x20 PUSH1 0x0 KECCAK256 SWAP1 JUMPDEST DUP2 SLOAD DUP2 MSTORE SWAP1 PUSH1 0x1 ADD SWAP1 PUSH1 0x20 ADD DUP1 DUP4 GT PUSH2 0x820 JUMPI DUP3 SWAP1 SUB PUSH1 0x1F AND DUP3 ADD SWAP2 JUMPDEST POP POP POP POP POP SWAP4 POP DUP3 DUP1 SLOAD PUSH2 0x850 SWAP1 PUSH2 0x1148 JUMP JUMPDEST DUP1 PUSH1 0x1F ADD PUSH1 0x20 DUP1 SWAP2 DIV MUL PUSH1 0x20 ADD PUSH1 0x40 MLOAD SWAP1 DUP2 ADD PUSH1 0x40 MSTORE DUP1 SWAP3 SWAP2 SWAP1 DUP2 DUP2 MSTORE PUSH1 0x20 ADD DUP3 DUP1 SLOAD PUSH2 0x87C SWAP1 PUSH2 0x1148 JUMP JUMPDEST DUP1 ISZERO PUSH2 0x8C9 JUMPI DUP1 PUSH1 0x1F LT PUSH2 0x89E JUMPI PUSH2 0x100 DUP1 DUP4 SLOAD DIV MUL DUP4 MSTORE SWAP2 PUSH1 0x20 ADD SWAP2 PUSH2 0x8C9 JUMP JUMPDEST DUP3 ADD SWAP2 SWAP1 PUSH1 0x0 MSTORE PUSH1 0x20 PUSH1 0x0 KECCAK256 SWAP1 JUMPDEST DUP2 SLOAD DUP2 MSTORE SWAP1 PUSH1 0x1 ADD SWAP1 PUSH1 0x20 ADD DUP1 DUP4 GT PUSH2 0x8AC JUMPI DUP3 SWAP1 SUB PUSH1 0x1F AND DUP3 ADD SWAP2 JUMPDEST POP POP POP POP POP SWAP3 POP DUP2 DUP1 SLOAD PUSH2 0x8DC SWAP1 PUSH2 0x1148 JUMP JUMPDEST DUP1 PUSH1 0x1F ADD PUSH1 0x20 DUP1 SWAP2 DIV MUL PUSH1 0x20 ADD PUSH1 0x40 MLOAD SWAP1 DUP2 ADD PUSH1 0x40 MSTORE DUP1 SWAP3 SWAP2 SWAP1 DUP2 DUP2 MSTORE PUSH1 0x20 ADD DUP3 DUP1 SLOAD PUSH2 0x908 SWAP1 PUSH2 0x1148 JUMP JUMPDEST DUP1 ISZERO PUSH2 0x955 JUMPI DUP1 PUSH1 0x1F LT PUSH2 0x92A JUMPI PUSH2 0x100 DUP1 DUP4 SLOAD DIV MUL DUP4 MSTORE SWAP2 PUSH1 0x20 ADD SWAP2 PUSH2 0x955 JUMP JUMPDEST DUP3 ADD SWAP2 SWAP1 PUSH1 0x0 MSTORE PUSH1 0x20 PUSH1 0x0 KECCAK256 SWAP1 JUMPDEST DUP2 SLOAD DUP2 MSTORE SWAP1 PUSH1 0x1 ADD SWAP1 PUSH1 0x20 ADD DUP1 DUP4 GT PUSH2 0x938 JUMPI DUP3 SWAP1 SUB PUSH1 0x1F AND DUP3 ADD SWAP2 JUMPDEST POP POP POP POP POP SWAP2 POP SWAP5 POP SWAP5 POP SWAP5 POP SWAP5 POP POP SWAP2 SWAP4 POP SWAP2 SWAP4 JUMP JUMPDEST PUSH1 0x0 PUSH1 0x7 PUSH1 0x0 DUP4 PUSH20 0xFFFFFFFFFFFFFFFFFFFFFFFFFFFFFFFFFFFFFFFF AND PUSH20 0xFFFFFFFFFFFFFFFFFFFFFFFFFFFFFFFFFFFFFFFF AND DUP2 MSTORE PUSH1 0x20 ADD SWAP1 DUP2 MSTORE PUSH1 0x20 ADD PUSH1 0x0 KECCAK256 SLOAD SWAP1 POP SWAP2 SWAP1 POP JUMP JUMPDEST PUSH1 0x3 SLOAD DUP2 JUMP JUMPDEST PUSH1 0x0 PUSH1 0x40 MLOAD SWAP1 POP SWAP1 JUMP JUMPDEST PUSH1 0x0 DUP1 REVERT JUMPDEST PUSH1 0x0 DUP1 REVERT JUMPDEST PUSH1 0x0 DUP1 REVERT JUMPDEST PUSH1 0x0 DUP1 REVERT JUMPDEST PUSH1 0x0 PUSH1 0x1F NOT PUSH1 0x1F DUP4 ADD AND SWAP1 POP SWAP2 SWAP1 POP JUMP JUMPDEST PUSH32 0x4E487B7100000000000000000000000000000000000000000000000000000000 PUSH1 0x0 MSTORE PUSH1 0x41 PUSH1 0x4 MSTORE PUSH1 0x24 PUSH1 0x0 REVERT JUMPDEST PUSH2 0xA22 DUP3 PUSH2 0x9D9 JUMP JUMPDEST DUP2 ADD DUP2 DUP2 LT PUSH8 0xFFFFFFFFFFFFFFFF DUP3 GT OR ISZERO PUSH2 0xA41 JUMPI PUSH2 0xA40 PUSH2 0x9EA JUMP JUMPDEST JUMPDEST DUP1 PUSH1 0x40 MSTORE POP POP POP JUMP JUMPDEST PUSH1 0x0 PUSH2 0xA54 PUSH2 0x9BB JUMP JUMPDEST SWAP1 POP PUSH2 0xA60 DUP3 DUP3 PUSH2 0xA19 JUMP JUMPDEST SWAP2 SWAP1 POP JUMP JUMPDEST PUSH1 0x0 PUSH8 0xFFFFFFFFFFFFFFFF DUP3 GT ISZERO PUSH2 0xA80 JUMPI PUSH2 0xA7F PUSH2 0x9EA JUMP JUMPDEST JUMPDEST PUSH2 0xA89 DUP3 PUSH2 0x9D9 JUMP JUMPDEST SWAP1 POP PUSH1 0x20 DUP2 ADD SWAP1 POP SWAP2 SWAP1 POP JUMP JUMPDEST DUP3 DUP2 DUP4 CALLDATACOPY PUSH1 0x0 DUP4 DUP4 ADD MSTORE POP POP POP JUMP JUMPDEST PUSH1 0x0 PUSH2 0xAB8 PUSH2 0xAB3 DUP5 PUSH2 0xA65 JUMP JUMPDEST PUSH2 0xA4A JUMP JUMPDEST SWAP1 POP DUP3 DUP2 MSTORE PUSH1 0x20 DUP2 ADD DUP5 DUP5 DUP5 ADD GT ISZERO PUSH2 0xAD4 JUMPI PUSH2 0xAD3 PUSH2 0x9D4 JUMP JUMPDEST JUMPDEST PUSH2 0xADF DUP5 DUP3 DUP6 PUSH2 0xA96 JUMP JUMPDEST POP SWAP4 SWAP3 POP POP POP JUMP JUMPDEST PUSH1 0x0 DUP3 PUSH1 0x1F DUP4 ADD SLT PUSH2 0xAFC JUMPI PUSH2 0xAFB PUSH2 0x9CF JUMP JUMPDEST JUMPDEST DUP2 CALLDATALOAD PUSH2 0xB0C DUP5 DUP3 PUSH1 0x20 DUP7 ADD PUSH2 0xAA5 JUMP JUMPDEST SWAP2 POP POP SWAP3 SWAP2 POP POP JUMP JUMPDEST PUSH1 0x0 PUSH1 0xFF DUP3 AND SWAP1 POP SWAP2 SWAP1 POP JUMP JUMPDEST PUSH2 0xB2B DUP2 PUSH2 0xB15 JUMP JUMPDEST DUP2 EQ PUSH2 0xB36 JUMPI PUSH1 0x0 DUP1 REVERT JUMPDEST POP JUMP JUMPDEST PUSH1 0x0 DUP2 CALLDATALOAD SWAP1 POP PUSH2 0xB48 DUP2 PUSH2 0xB22 JUMP JUMPDEST SWAP3 SWAP2 POP POP JUMP JUMPDEST PUSH1 0x0 DUP1 PUSH1 0x0 PUSH1 0x60 DUP5 DUP7 SUB SLT ISZERO PUSH2 0xB67 JUMPI PUSH2 0xB66 PUSH2 0x9C5 JUMP JUMPDEST JUMPDEST PUSH1 0x0 DUP5 ADD CALLDATALOAD PUSH8 0xFFFFFFFFFFFFFFFF DUP2 GT ISZERO PUSH2 0xB85 JUMPI PUSH2 0xB84 PUSH2 0x9CA JUMP JUMPDEST JUMPDEST PUSH2 0xB91 DUP7 DUP3 DUP8 ADD PUSH2 0xAE7 JUMP JUMPDEST SWAP4 POP POP PUSH1 0x20 PUSH2 0xBA2 DUP7 DUP3 DUP8 ADD PUSH2 0xB39 JUMP JUMPDEST SWAP3 POP POP PUSH1 0x40 DUP5 ADD CALLDATALOAD PUSH8 0xFFFFFFFFFFFFFFFF DUP2 GT ISZERO PUSH2 0xBC3 JUMPI PUSH2 0xBC2 PUSH2 0x9CA JUMP JUMPDEST JUMPDEST PUSH2 0xBCF DUP7 DUP3 DUP8 ADD PUSH2 0xAE7 JUMP JUMPDEST SWAP2 POP POP SWAP3 POP SWAP3 POP SWAP3 JUMP JUMPDEST PUSH1 0x0 DUP2 SWAP1 POP SWAP2 SWAP1 POP JUMP JUMPDEST PUSH2 0xBEC DUP2 PUSH2 0xBD9 JUMP JUMPDEST DUP2 EQ PUSH2 0xBF7 JUMPI PUSH1 0x0 DUP1 REVERT JUMPDEST POP JUMP JUMPDEST PUSH1 0x0 DUP2 CALLDATALOAD SWAP1 POP PUSH2 0xC09 DUP2 PUSH2 0xBE3 JUMP JUMPDEST SWAP3 SWAP2 POP POP JUMP JUMPDEST PUSH1 0x0 PUSH1 0x20 DUP3 DUP5 SUB SLT ISZERO PUSH2 0xC25 JUMPI PUSH2 0xC24 PUSH2 0x9C5 JUMP JUMPDEST JUMPDEST PUSH1 0x0 PUSH2 0xC33 DUP5 DUP3 DUP6 ADD PUSH2 0xBFA JUMP JUMPDEST SWAP2 POP POP SWAP3 SWAP2 POP POP JUMP JUMPDEST PUSH2 0xC45 DUP2 PUSH2 0xBD9 JUMP JUMPDEST DUP3 MSTORE POP POP JUMP JUMPDEST PUSH2 0xC54 DUP2 PUSH2 0xB15 JUMP JUMPDEST DUP3 MSTORE POP POP JUMP JUMPDEST PUSH1 0x0 DUP2 MLOAD SWAP1 POP SWAP2 SWAP1 POP JUMP JUMPDEST PUSH1 0x0 DUP3 DUP3 MSTORE PUSH1 0x20 DUP3 ADD SWAP1 POP SWAP3 SWAP2 POP POP JUMP JUMPDEST PUSH1 0x0 JUMPDEST DUP4 DUP2 LT ISZERO PUSH2 0xC94 JUMPI DUP1 DUP3 ADD MLOAD DUP2 DUP5 ADD MSTORE PUSH1 0x20 DUP2 ADD SWAP1 POP PUSH2 0xC79 JUMP JUMPDEST PUSH1 0x0 DUP5 DUP5 ADD MSTORE POP POP POP POP JUMP JUMPDEST PUSH1 0x0 PUSH2 0xCAB DUP3 PUSH2 0xC5A JUMP JUMPDEST PUSH2 0xCB5 DUP2 DUP6 PUSH2 0xC65 JUMP JUMPDEST SWAP4 POP PUSH2 0xCC5 DUP2 DUP6 PUSH1 0x20 DUP7 ADD PUSH2 0xC76 JUMP JUMPDEST PUSH2 0xCCE DUP2 PUSH2 0x9D9 JUMP JUMPDEST DUP5 ADD SWAP2 POP POP SWAP3 SWAP2 POP POP JUMP JUMPDEST PUSH1 0x0 PUSH1 0x60 DUP3 ADD SWAP1 POP PUSH2 0xCEE PUSH1 0x0 DUP4 ADD DUP7 PUSH2 0xC3C JUMP JUMPDEST PUSH2 0xCFB PUSH1 0x20 DUP4 ADD DUP6 PUSH2 0xC4B JUMP JUMPDEST DUP2 DUP2 SUB PUSH1 0x40 DUP4 ADD MSTORE PUSH2 0xD0D DUP2 DUP5 PUSH2 0xCA0 JUMP JUMPDEST SWAP1 POP SWAP5 SWAP4 POP POP POP POP JUMP JUMPDEST PUSH1 0x0 PUSH1 0x20 DUP3 ADD SWAP1 POP PUSH2 0xD2C PUSH1 0x0 DUP4 ADD DUP5 PUSH2 0xC3C JUMP JUMPDEST SWAP3 SWAP2 POP POP JUMP JUMPDEST PUSH1 0x0 DUP1 PUSH1 0x0 PUSH1 0x60 DUP5 DUP7 SUB SLT ISZERO PUSH2 0xD4B JUMPI PUSH2 0xD4A PUSH2 0x9C5 JUMP JUMPDEST JUMPDEST PUSH1 0x0 DUP5 ADD CALLDATALOAD PUSH8 0xFFFFFFFFFFFFFFFF DUP2 GT ISZERO PUSH2 0xD69 JUMPI PUSH2 0xD68 PUSH2 0x9CA JUMP JUMPDEST JUMPDEST PUSH2 0xD75 DUP7 DUP3 DUP8 ADD PUSH2 0xAE7 JUMP JUMPDEST SWAP4 POP POP PUSH1 0x20 DUP5 ADD CALLDATALOAD PUSH8 0xFFFFFFFFFFFFFFFF DUP2 GT ISZERO PUSH2 0xD96 JUMPI PUSH2 0xD95 PUSH2 0x9CA JUMP JUMPDEST JUMPDEST PUSH2 0xDA2 DUP7 DUP3 DUP8 ADD PUSH2 0xAE7 JUMP JUMPDEST SWAP3 POP POP PUSH1 0x40 DUP5 ADD CALLDATALOAD PUSH8 0xFFFFFFFFFFFFFFFF DUP2 GT ISZERO PUSH2 0xDC3 JUMPI PUSH2 0xDC2 PUSH2 0x9CA JUMP JUMPDEST JUMPDEST PUSH2 0xDCF DUP7 DUP3 DUP8 ADD PUSH2 0xAE7 JUMP JUMPDEST SWAP2 POP POP SWAP3 POP SWAP3 POP SWAP3 JUMP JUMPDEST PUSH1 0x0 DUP1 PUSH1 0x0 DUP1 PUSH1 0x0 PUSH1 0xA0 DUP7 DUP9 SUB SLT ISZERO PUSH2 0xDF5 JUMPI PUSH2 0xDF4 PUSH2 0x9C5 JUMP JUMPDEST JUMPDEST PUSH1 0x0 PUSH2 0xE03 DUP9 DUP3 DUP10 ADD PUSH2 0xBFA JUMP JUMPDEST SWAP6 POP POP PUSH1 0x20 DUP7 ADD CALLDATALOAD PUSH8 0xFFFFFFFFFFFFFFFF DUP2 GT ISZERO PUSH2 0xE24 JUMPI PUSH2 0xE23 PUSH2 0x9CA JUMP JUMPDEST JUMPDEST PUSH2 0xE30 DUP9 DUP3 DUP10 ADD PUSH2 0xAE7 JUMP JUMPDEST SWAP5 POP POP PUSH1 0x40 DUP7 ADD CALLDATALOAD PUSH8 0xFFFFFFFFFFFFFFFF DUP2 GT ISZERO PUSH2 0xE51 JUMPI PUSH2 0xE50 PUSH2 0x9CA JUMP JUMPDEST JUMPDEST PUSH2 0xE5D DUP9 DUP3 DUP10 ADD PUSH2 0xAE7 JUMP JUMPDEST SWAP4 POP POP PUSH1 0x60 DUP7 ADD CALLDATALOAD PUSH8 0xFFFFFFFFFFFFFFFF DUP2 GT ISZERO PUSH2 0xE7E JUMPI PUSH2 0xE7D PUSH2 0x9CA JUMP JUMPDEST JUMPDEST PUSH2 0xE8A DUP9 DUP3 DUP10 ADD PUSH2 0xAE7 JUMP JUMPDEST SWAP3 POP POP PUSH1 0x80 PUSH2 0xE9B DUP9 DUP3 DUP10 ADD PUSH2 0xBFA JUMP JUMPDEST SWAP2 POP POP SWAP3 SWAP6 POP SWAP3 SWAP6 SWAP1 SWAP4 POP JUMP JUMPDEST PUSH1 0x0 PUSH1 0x60 DUP3 ADD SWAP1 POP DUP2 DUP2 SUB PUSH1 0x0 DUP4 ADD MSTORE PUSH2 0xEC2 DUP2 DUP7 PUSH2 0xCA0 JUMP JUMPDEST SWAP1 POP DUP2 DUP2 SUB PUSH1 0x20 DUP4 ADD MSTORE PUSH2 0xED6 DUP2 DUP6 PUSH2 0xCA0 JUMP JUMPDEST SWAP1 POP DUP2 DUP2 SUB PUSH1 0x40 DUP4 ADD MSTORE PUSH2 0xEEA DUP2 DUP5 PUSH2 0xCA0 JUMP JUMPDEST SWAP1 POP SWAP5 SWAP4 POP POP POP POP JUMP JUMPDEST PUSH1 0x0 DUP1 PUSH1 0x40 DUP4 DUP6 SUB SLT ISZERO PUSH2 0xF0B JUMPI PUSH2 0xF0A PUSH2 0x9C5 JUMP JUMPDEST JUMPDEST PUSH1 0x0 PUSH2 0xF19 DUP6 DUP3 DUP7 ADD PUSH2 0xBFA JUMP JUMPDEST SWAP3 POP POP PUSH1 0x20 PUSH2 0xF2A DUP6 DUP3 DUP7 ADD PUSH2 0xB39 JUMP JUMPDEST SWAP2 POP POP SWAP3 POP SWAP3 SWAP1 POP JUMP JUMPDEST PUSH1 0x0 PUSH20 0xFFFFFFFFFFFFFFFFFFFFFFFFFFFFFFFFFFFFFFFF DUP3 AND SWAP1 POP SWAP2 SWAP1 POP JUMP JUMPDEST PUSH1 0x0 PUSH2 0xF5F DUP3 PUSH2 0xF34 JUMP JUMPDEST SWAP1 POP SWAP2 SWAP1 POP JUMP JUMPDEST PUSH2 0xF6F DUP2 PUSH2 0xF54 JUMP JUMPDEST DUP2 EQ PUSH2 0xF7A JUMPI PUSH1 0x0 DUP1 REVERT JUMPDEST POP JUMP JUMPDEST PUSH1 0x0 DUP2 CALLDATALOAD SWAP1 POP PUSH2 0xF8C DUP2 PUSH2 0xF66 JUMP JUMPDEST SWAP3 SWAP2 POP POP JUMP JUMPDEST PUSH1 0x0 DUP1 PUSH1 0x40 DUP4 DUP6 SUB SLT ISZERO PUSH2 0xFA9 JUMPI PUSH2 0xFA8 PUSH2 0x9C5 JUMP JUMPDEST JUMPDEST PUSH1 0x0 PUSH2 0xFB7 DUP6 DUP3 DUP7 ADD PUSH2 0xBFA JUMP JUMPDEST SWAP3 POP POP PUSH1 0x20 PUSH2 0xFC8 DUP6 DUP3 DUP7 ADD PUSH2 0xF7D JUMP JUMPDEST SWAP2 POP POP SWAP3 POP SWAP3 SWAP1 POP JUMP JUMPDEST PUSH1 0x0 PUSH1 0x20 DUP3 DUP5 SUB SLT ISZERO PUSH2 0xFE8 JUMPI PUSH2 0xFE7 PUSH2 0x9C5 JUMP JUMPDEST JUMPDEST PUSH1 0x0 DUP3 ADD CALLDATALOAD PUSH8 0xFFFFFFFFFFFFFFFF DUP2 GT ISZERO PUSH2 0x1006 JUMPI PUSH2 0x1005 PUSH2 0x9CA JUMP JUMPDEST JUMPDEST PUSH2 0x1012 DUP5 DUP3 DUP6 ADD PUSH2 0xAE7 JUMP JUMPDEST SWAP2 POP POP SWAP3 SWAP2 POP POP JUMP JUMPDEST PUSH1 0x0 PUSH1 0x80 DUP3 ADD SWAP1 POP DUP2 DUP2 SUB PUSH1 0x0 DUP4 ADD MSTORE PUSH2 0x1035 DUP2 DUP8 PUSH2 0xCA0 JUMP JUMPDEST SWAP1 POP DUP2 DUP2 SUB PUSH1 0x20 DUP4 ADD MSTORE PUSH2 0x1049 DUP2 DUP7 PUSH2 0xCA0 JUMP JUMPDEST SWAP1 POP DUP2 DUP2 SUB PUSH1 0x40 DUP4 ADD MSTORE PUSH2 0x105D DUP2 DUP6 PUSH2 0xCA0 JUMP JUMPDEST SWAP1 POP PUSH2 0x106C PUSH1 0x60 DUP4 ADD DUP5 PUSH2 0xC3C JUMP JUMPDEST SWAP6 SWAP5 POP POP POP POP POP JUMP JUMPDEST PUSH1 0x0 PUSH1 0x20 DUP3 DUP5 SUB SLT ISZERO PUSH2 0x108B JUMPI PUSH2 0x108A PUSH2 0x9C5 JUMP JUMPDEST JUMPDEST PUSH1 0x0 PUSH2 0x1099 DUP5 DUP3 DUP6 ADD PUSH2 0xF7D JUMP JUMPDEST SWAP2 POP POP SWAP3 SWAP2 POP POP JUMP JUMPDEST PUSH32 0x4E487B7100000000000000000000000000000000000000000000000000000000 PUSH1 0x0 MSTORE PUSH1 0x11 PUSH1 0x4 MSTORE PUSH1 0x24 PUSH1 0x0 REVERT JUMPDEST PUSH1 0x0 PUSH2 0x10DC DUP3 PUSH2 0xBD9 JUMP JUMPDEST SWAP2 POP PUSH32 0xFFFFFFFFFFFFFFFFFFFFFFFFFFFFFFFFFFFFFFFFFFFFFFFFFFFFFFFFFFFFFFFF DUP3 SUB PUSH2 0x110E JUMPI PUSH2 0x110D PUSH2 0x10A2 JUMP JUMPDEST JUMPDEST PUSH1 0x1 DUP3 ADD SWAP1 POP SWAP2 SWAP1 POP JUMP JUMPDEST PUSH32 0x4E487B7100000000000000000000000000000000000000000000000000000000 PUSH1 0x0 MSTORE PUSH1 0x22 PUSH1 0x4 MSTORE PUSH1 0x24 PUSH1 0x0 REVERT JUMPDEST PUSH1 0x0 PUSH1 0x2 DUP3 DIV SWAP1 POP PUSH1 0x1 DUP3 AND DUP1 PUSH2 0x1160 JUMPI PUSH1 0x7F DUP3 AND SWAP2 POP JUMPDEST PUSH1 0x20 DUP3 LT DUP2 SUB PUSH2 0x1173 JUMPI PUSH2 0x1172 PUSH2 0x1119 JUMP JUMPDEST JUMPDEST POP SWAP2 SWAP1 POP JUMP JUMPDEST PUSH1 0x0 DUP2 SWAP1 POP DUP2 PUSH1 0x0 MSTORE PUSH1 0x20 PUSH1 0x0 KECCAK256 SWAP1 POP SWAP2 SWAP1 POP JUMP JUMPDEST PUSH1 0x0 PUSH1 0x20 PUSH1 0x1F DUP4 ADD DIV SWAP1 POP SWAP2 SWAP1 POP JUMP JUMPDEST PUSH1 0x0 DUP3 DUP3 SHL SWAP1 POP SWAP3 SWAP2 POP POP JUMP JUMPDEST PUSH1 0x0 PUSH1 0x8 DUP4 MUL PUSH2 0x11DB PUSH32 0xFFFFFFFFFFFFFFFFFFFFFFFFFFFFFFFFFFFFFFFFFFFFFFFFFFFFFFFFFFFFFFFF DUP3 PUSH2 0x119E JUMP JUMPDEST PUSH2 0x11E5 DUP7 DUP4 PUSH2 0x119E JUMP JUMPDEST SWAP6 POP DUP1 NOT DUP5 AND SWAP4 POP DUP1 DUP7 AND DUP5 OR SWAP3 POP POP POP SWAP4 SWAP3 POP POP POP JUMP JUMPDEST PUSH1 0x0 DUP2 SWAP1 POP SWAP2 SWAP1 POP JUMP JUMPDEST PUSH1 0x0 PUSH2 0x1222 PUSH2 0x121D PUSH2 0x1218 DUP5 PUSH2 0xBD9 JUMP JUMPDEST PUSH2 0x11FD JUMP JUMPDEST PUSH2 0xBD9 JUMP JUMPDEST SWAP1 POP SWAP2 SWAP1 POP JUMP JUMPDEST PUSH1 0x0 DUP2 SWAP1 POP SWAP2 SWAP1 POP JUMP JUMPDEST PUSH2 0x123C DUP4 PUSH2 0x1207 JUMP JUMPDEST PUSH2 0x1250 PUSH2 0x1248 DUP3 PUSH2 0x1229 JUMP JUMPDEST DUP5 DUP5 SLOAD PUSH2 0x11AB JUMP JUMPDEST DUP3 SSTORE POP POP POP POP JUMP JUMPDEST PUSH1 0x0 SWAP1 JUMP JUMPDEST PUSH2 0x1265 PUSH2 0x1258 JUMP JUMPDEST PUSH2 0x1270 DUP2 DUP5 DUP5 PUSH2 0x1233 JUMP JUMPDEST POP POP POP JUMP JUMPDEST JUMPDEST DUP2 DUP2 LT ISZERO PUSH2 0x1294 JUMPI PUSH2 0x1289 PUSH1 0x0 DUP3 PUSH2 0x125D JUMP JUMPDEST PUSH1 0x1 DUP2 ADD SWAP1 POP PUSH2 0x1276 JUMP JUMPDEST POP POP JUMP JUMPDEST PUSH1 0x1F DUP3 GT ISZERO PUSH2 0x12D9 JUMPI PUSH2 0x12AA DUP2 PUSH2 0x1179 JUMP JUMPDEST PUSH2 0x12B3 DUP5 PUSH2 0x118E JUMP JUMPDEST DUP2 ADD PUSH1 0x20 DUP6 LT ISZERO PUSH2 0x12C2 JUMPI DUP2 SWAP1 POP JUMPDEST PUSH2 0x12D6 PUSH2 0x12CE DUP6 PUSH2 0x118E JUMP JUMPDEST DUP4 ADD DUP3 PUSH2 0x1275 JUMP JUMPDEST POP POP JUMPDEST POP POP POP JUMP JUMPDEST PUSH1 0x0 DUP3 DUP3 SHR SWAP1 POP SWAP3 SWAP2 POP POP JUMP JUMPDEST PUSH1 0x0 PUSH2 0x12FC PUSH1 0x0 NOT DUP5 PUSH1 0x8 MUL PUSH2 0x12DE JUMP JUMPDEST NOT DUP1 DUP4 AND SWAP2 POP POP SWAP3 SWAP2 POP POP JUMP JUMPDEST PUSH1 0x0 PUSH2 0x1315 DUP4 DUP4 PUSH2 0x12EB JUMP JUMPDEST SWAP2 POP DUP3 PUSH1 0x2 MUL DUP3 OR SWAP1 POP SWAP3 SWAP2 POP POP JUMP JUMPDEST PUSH2 0x132E DUP3 PUSH2 0xC5A JUMP JUMPDEST PUSH8 0xFFFFFFFFFFFFFFFF DUP2 GT ISZERO PUSH2 0x1347 JUMPI PUSH2 0x1346 PUSH2 0x9EA JUMP JUMPDEST JUMPDEST PUSH2 0x1351 DUP3 SLOAD PUSH2 0x1148 JUMP JUMPDEST PUSH2 0x135C DUP3 DUP3 DUP6 PUSH2 0x1298 JUMP JUMPDEST PUSH1 0x0 PUSH1 0x20 SWAP1 POP PUSH1 0x1F DUP4 GT PUSH1 0x1 DUP2 EQ PUSH2 0x138F JUMPI PUSH1 0x0 DUP5 ISZERO PUSH2 0x137D JUMPI DUP3 DUP8 ADD MLOAD SWAP1 POP JUMPDEST PUSH2 0x1387 DUP6 DUP3 PUSH2 0x1309 JUMP JUMPDEST DUP7 SSTORE POP PUSH2 0x13EF JUMP JUMPDEST PUSH1 0x1F NOT DUP5 AND PUSH2 0x139D DUP7 PUSH2 0x1179 JUMP JUMPDEST PUSH1 0x0 JUMPDEST DUP3 DUP2 LT ISZERO PUSH2 0x13C5 JUMPI DUP5 DUP10 ADD MLOAD DUP3 SSTORE PUSH1 0x1 DUP3 ADD SWAP2 POP PUSH1 0x20 DUP6 ADD SWAP5 POP PUSH1 0x20 DUP2 ADD SWAP1 POP PUSH2 0x13A0 JUMP JUMPDEST DUP7 DUP4 LT ISZERO PUSH2 0x13E2 JUMPI DUP5 DUP10 ADD MLOAD PUSH2 0x13DE PUSH1 0x1F DUP10 AND DUP3 PUSH2 0x12EB JUMP JUMPDEST DUP4 SSTORE POP JUMPDEST PUSH1 0x1 PUSH1 0x2 DUP9 MUL ADD DUP9 SSTORE POP POP POP JUMPDEST POP POP POP POP POP POP JUMP INVALID LOG2 PUSH5 0x6970667358 0x22 SLT KECCAK256 DUP6 MLOAD 0xC4 PUSH2 0xD78 DUP3 MLOAD SWAP8 0xBA PUSH29 0x691A887F4B9C6885242C4AE8DD521DD5612BFD48C464736F6C63430008 SLT STOP CALLER "
				},
				"gasEstimates": {
					"creation": {
						"codeDepositCost": "1033000",
						"executionCost": "1074",
						"totalCost": "1034074"
					},
					"external": {
						"addMedicine(uint256,string,string,string,uint256)": "infinite",
						"addNewDisease(string)": "infinite",
						"doctorID()": "2474",
						"patientID()": "2539",
						"prescribeMedicine(uint256,address)": "22854",
						"registerDoctor(string,string,string)": "infinite",
						"registerPatient(string,uint8,string)": "infinite",
						"updateAge(uint256,uint8)": "24949",
						"viewDoctorByID(uint256)": "infinite",
						"viewMedicine(uint256)": "infinite",
						"viewPatientByDoctor(uint256)": "infinite",
						"viewPrescribedMedicine(address)": "2929"
					}
				},
				"methodIdentifiers": {
					"addMedicine(uint256,string,string,string,uint256)": "75f49529",
					"addNewDisease(string)": "ddd865e8",
					"doctorID()": "46f9c5bb",
					"patientID()": "f680a7bd",
					"prescribeMedicine(uint256,address)": "dcd0c2b2",
					"registerDoctor(string,string,string)": "50c7a912",
					"registerPatient(string,uint8,string)": "1c297205",
					"updateAge(uint256,uint8)": "a677104c",
					"viewDoctorByID(uint256)": "91e0e428",
					"viewMedicine(uint256)": "ddfe2e87",
					"viewPatientByDoctor(uint256)": "3f2feb21",
					"viewPrescribedMedicine(address)": "eda9b632"
				}
			},
			"storageLayout": {
				"storage": [
					{
						"astId": 13,
						"contract": "contracts/Main.sol:Main",
						"label": "doctorMapping",
						"offset": 0,
						"slot": "0",
						"type": "t_mapping(t_uint256,t_struct(doctorStruct)8_storage)"
					},
					{
						"astId": 15,
						"contract": "contracts/Main.sol:Main",
						"label": "doctorID",
						"offset": 0,
						"slot": "1",
						"type": "t_uint256"
					},
					{
						"astId": 27,
						"contract": "contracts/Main.sol:Main",
						"label": "patientMapping",
						"offset": 0,
						"slot": "2",
						"type": "t_mapping(t_uint256,t_struct(patientStruct)22_storage)"
					},
					{
						"astId": 29,
						"contract": "contracts/Main.sol:Main",
						"label": "patientID",
						"offset": 0,
						"slot": "3",
						"type": "t_uint256"
					},
					{
						"astId": 43,
						"contract": "contracts/Main.sol:Main",
						"label": "medicineMapping",
						"offset": 0,
						"slot": "4",
						"type": "t_mapping(t_uint256,t_struct(medicineStruct)38_storage)"
					},
					{
						"astId": 47,
						"contract": "contracts/Main.sol:Main",
						"label": "diseases",
						"offset": 0,
						"slot": "5",
						"type": "t_mapping(t_uint256,t_string_storage)"
					},
					{
						"astId": 49,
						"contract": "contracts/Main.sol:Main",
						"label": "diseaseID",
						"offset": 0,
						"slot": "6",
						"type": "t_uint256"
					},
					{
						"astId": 53,
						"contract": "contracts/Main.sol:Main",
						"label": "prescribeMedicineMapping",
						"offset": 0,
						"slot": "7",
						"type": "t_mapping(t_address,t_uint256)"
					}
				],
				"types": {
					"t_address": {
						"encoding": "inplace",
						"label": "address",
						"numberOfBytes": "20"
					},
					"t_mapping(t_address,t_uint256)": {
						"encoding": "mapping",
						"key": "t_address",
						"label": "mapping(address => uint256)",
						"numberOfBytes": "32",
						"value": "t_uint256"
					},
					"t_mapping(t_uint256,t_string_storage)": {
						"encoding": "mapping",
						"key": "t_uint256",
						"label": "mapping(uint256 => string)",
						"numberOfBytes": "32",
						"value": "t_string_storage"
					},
					"t_mapping(t_uint256,t_struct(doctorStruct)8_storage)": {
						"encoding": "mapping",
						"key": "t_uint256",
						"label": "mapping(uint256 => struct Main.doctorStruct)",
						"numberOfBytes": "32",
						"value": "t_struct(doctorStruct)8_storage"
					},
					"t_mapping(t_uint256,t_struct(medicineStruct)38_storage)": {
						"encoding": "mapping",
						"key": "t_uint256",
						"label": "mapping(uint256 => struct Main.medicineStruct)",
						"numberOfBytes": "32",
						"value": "t_struct(medicineStruct)38_storage"
					},
					"t_mapping(t_uint256,t_struct(patientStruct)22_storage)": {
						"encoding": "mapping",
						"key": "t_uint256",
						"label": "mapping(uint256 => struct Main.patientStruct)",
						"numberOfBytes": "32",
						"value": "t_struct(patientStruct)22_storage"
					},
					"t_string_storage": {
						"encoding": "bytes",
						"label": "string",
						"numberOfBytes": "32"
					},
					"t_struct(doctorStruct)8_storage": {
						"encoding": "inplace",
						"label": "struct Main.doctorStruct",
						"members": [
							{
								"astId": 3,
								"contract": "contracts/Main.sol:Main",
								"label": "name",
								"offset": 0,
								"slot": "0",
								"type": "t_string_storage"
							},
							{
								"astId": 5,
								"contract": "contracts/Main.sol:Main",
								"label": "qualification",
								"offset": 0,
								"slot": "1",
								"type": "t_string_storage"
							},
							{
								"astId": 7,
								"contract": "contracts/Main.sol:Main",
								"label": "workPlace",
								"offset": 0,
								"slot": "2",
								"type": "t_string_storage"
							}
						],
						"numberOfBytes": "96"
					},
					"t_struct(medicineStruct)38_storage": {
						"encoding": "inplace",
						"label": "struct Main.medicineStruct",
						"members": [
							{
								"astId": 31,
								"contract": "contracts/Main.sol:Main",
								"label": "name",
								"offset": 0,
								"slot": "0",
								"type": "t_string_storage"
							},
							{
								"astId": 33,
								"contract": "contracts/Main.sol:Main",
								"label": "expiryDate",
								"offset": 0,
								"slot": "1",
								"type": "t_string_storage"
							},
							{
								"astId": 35,
								"contract": "contracts/Main.sol:Main",
								"label": "dose",
								"offset": 0,
								"slot": "2",
								"type": "t_string_storage"
							},
							{
								"astId": 37,
								"contract": "contracts/Main.sol:Main",
								"label": "price",
								"offset": 0,
								"slot": "3",
								"type": "t_uint256"
							}
						],
						"numberOfBytes": "128"
					},
					"t_struct(patientStruct)22_storage": {
						"encoding": "inplace",
						"label": "struct Main.patientStruct",
						"members": [
							{
								"astId": 17,
								"contract": "contracts/Main.sol:Main",
								"label": "name",
								"offset": 0,
								"slot": "0",
								"type": "t_string_storage"
							},
							{
								"astId": 19,
								"contract": "contracts/Main.sol:Main",
								"label": "age",
								"offset": 0,
								"slot": "1",
								"type": "t_uint8"
							},
							{
								"astId": 21,
								"contract": "contracts/Main.sol:Main",
								"label": "disease",
								"offset": 0,
								"slot": "2",
								"type": "t_string_storage"
							}
						],
						"numberOfBytes": "96"
					},
					"t_uint256": {
						"encoding": "inplace",
						"label": "uint256",
						"numberOfBytes": "32"
					},
					"t_uint8": {
						"encoding": "inplace",
						"label": "uint8",
						"numberOfBytes": "1"
					}
				}
			},
			"userdoc": {
				"kind": "user",
				"methods": {},
				"version": 1
			}
		}
	}
}