{
	"contracts/Doctor.sol": {
		"Doctor": {
			"abi": [
				{
					"inputs": [],
					"name": "doctorID",
					"outputs": [
						{
							"internalType": "uint256",
							"name": "",
							"type": "uint256"
						}
					],
					"stateMutability": "view",
					"type": "function"
				},
				{
					"inputs": [
						{
							"internalType": "string",
							"name": "_name",
							"type": "string"
						},
						{
							"internalType": "string",
							"name": "_qualification",
							"type": "string"
						},
						{
							"internalType": "string",
							"name": "_workPlace",
							"type": "string"
						}
					],
					"name": "registerDoctor",
					"outputs": [],
					"stateMutability": "nonpayable",
					"type": "function"
				},
				{
					"inputs": [
						{
							"internalType": "uint256",
							"name": "_doctorID",
							"type": "uint256"
						}
					],
					"name": "viewDoctorByID",
					"outputs": [
						{
							"internalType": "string",
							"name": "",
							"type": "string"
						},
						{
							"internalType": "string",
							"name": "",
							"type": "string"
						},
						{
							"internalType": "string",
							"name": "",
							"type": "string"
						}
					],
					"stateMutability": "view",
					"type": "function"
				}
			],
			"devdoc": {
				"kind": "dev",
				"methods": {},
				"version": 1
			},
			"evm": {
				"assembly": "    /* \"contracts/Doctor.sol\":59:771  contract Doctor {... */\n  mstore(0x40, 0x80)\n  callvalue\n  dup1\n  iszero\n  tag_1\n  jumpi\n  0x00\n  dup1\n  revert\ntag_1:\n  pop\n  dataSize(sub_0)\n  dup1\n  dataOffset(sub_0)\n  0x00\n  codecopy\n  0x00\n  return\nstop\n\nsub_0: assembly {\n        /* \"contracts/Doctor.sol\":59:771  contract Doctor {... */\n      mstore(0x40, 0x80)\n      callvalue\n      dup1\n      iszero\n      tag_1\n      jumpi\n      0x00\n      dup1\n      revert\n    tag_1:\n      pop\n      jumpi(tag_2, lt(calldatasize, 0x04))\n      shr(0xe0, calldataload(0x00))\n      dup1\n      0x46f9c5bb\n      eq\n      tag_3\n      jumpi\n      dup1\n      0x50c7a912\n      eq\n      tag_4\n      jumpi\n      dup1\n      0x91e0e428\n      eq\n      tag_5\n      jumpi\n    tag_2:\n      0x00\n      dup1\n      revert\n        /* \"contracts/Doctor.sol\":255:275  uint public doctorID */\n    tag_3:\n      tag_6\n      tag_7\n      jump\t// in\n    tag_6:\n      mload(0x40)\n      tag_8\n      swap2\n      swap1\n      tag_9\n      jump\t// in\n    tag_8:\n      mload(0x40)\n      dup1\n      swap2\n      sub\n      swap1\n      return\n        /* \"contracts/Doctor.sol\":284:507  function registerDoctor(string memory _name, string memory _qualification, string memory _workPlace) public {... */\n    tag_4:\n      tag_10\n      0x04\n      dup1\n      calldatasize\n      sub\n      dup2\n      add\n      swap1\n      tag_11\n      swap2\n      swap1\n      tag_12\n      jump\t// in\n    tag_11:\n      tag_13\n      jump\t// in\n    tag_10:\n      stop\n        /* \"contracts/Doctor.sol\":515:764  function viewDoctorByID(uint _doctorID) view public returns(string memory, string memory, string memory) {... */\n    tag_5:\n      tag_14\n      0x04\n      dup1\n      calldatasize\n      sub\n      dup2\n      add\n      swap1\n      tag_15\n      swap2\n      swap1\n      tag_16\n      jump\t// in\n    tag_15:\n      tag_17\n      jump\t// in\n    tag_14:\n      mload(0x40)\n      tag_18\n      swap4\n      swap3\n      swap2\n      swap1\n      tag_19\n      jump\t// in\n    tag_18:\n      mload(0x40)\n      dup1\n      swap2\n      sub\n      swap1\n      return\n        /* \"contracts/Doctor.sol\":255:275  uint public doctorID */\n    tag_7:\n      sload(0x01)\n      dup2\n      jump\t// out\n        /* \"contracts/Doctor.sol\":284:507  function registerDoctor(string memory _name, string memory _qualification, string memory _workPlace) public {... */\n    tag_13:\n        /* \"contracts/Doctor.sol\":403:411  doctorID */\n      0x01\n      0x00\n        /* \"contracts/Doctor.sol\":403:414  doctorID ++ */\n      dup2\n      sload\n      dup1\n      swap3\n      swap2\n      swap1\n      tag_21\n      swap1\n      tag_22\n      jump\t// in\n    tag_21:\n      swap2\n      swap1\n      pop\n      sstore\n      pop\n        /* \"contracts/Doctor.sol\":451:499  doctorStruct( _name, _qualification, _workPlace) */\n      mload(0x40)\n      dup1\n      0x60\n      add\n      0x40\n      mstore\n      dup1\n        /* \"contracts/Doctor.sol\":465:470  _name */\n      dup5\n        /* \"contracts/Doctor.sol\":451:499  doctorStruct( _name, _qualification, _workPlace) */\n      dup2\n      mstore\n      0x20\n      add\n        /* \"contracts/Doctor.sol\":472:486  _qualification */\n      dup4\n        /* \"contracts/Doctor.sol\":451:499  doctorStruct( _name, _qualification, _workPlace) */\n      dup2\n      mstore\n      0x20\n      add\n        /* \"contracts/Doctor.sol\":488:498  _workPlace */\n      dup3\n        /* \"contracts/Doctor.sol\":451:499  doctorStruct( _name, _qualification, _workPlace) */\n      dup2\n      mstore\n      pop\n        /* \"contracts/Doctor.sol\":425:438  doctorMapping */\n      0x00\n        /* \"contracts/Doctor.sol\":425:448  doctorMapping[doctorID] */\n      dup1\n        /* \"contracts/Doctor.sol\":439:447  doctorID */\n      sload(0x01)\n        /* \"contracts/Doctor.sol\":425:448  doctorMapping[doctorID] */\n      dup2\n      mstore\n      0x20\n      add\n      swap1\n      dup2\n      mstore\n      0x20\n      add\n      0x00\n      keccak256\n        /* \"contracts/Doctor.sol\":425:499  doctorMapping[doctorID] = doctorStruct( _name, _qualification, _workPlace) */\n      0x00\n      dup3\n      add\n      mload\n      dup2\n      0x00\n      add\n      swap1\n      dup2\n      tag_23\n      swap2\n      swap1\n      tag_24\n      jump\t// in\n    tag_23:\n      pop\n      0x20\n      dup3\n      add\n      mload\n      dup2\n      0x01\n      add\n      swap1\n      dup2\n      tag_25\n      swap2\n      swap1\n      tag_24\n      jump\t// in\n    tag_25:\n      pop\n      0x40\n      dup3\n      add\n      mload\n      dup2\n      0x02\n      add\n      swap1\n      dup2\n      tag_26\n      swap2\n      swap1\n      tag_24\n      jump\t// in\n    tag_26:\n      pop\n      swap1\n      pop\n      pop\n        /* \"contracts/Doctor.sol\":284:507  function registerDoctor(string memory _name, string memory _qualification, string memory _workPlace) public {... */\n      pop\n      pop\n      pop\n      jump\t// out\n        /* \"contracts/Doctor.sol\":515:764  function viewDoctorByID(uint _doctorID) view public returns(string memory, string memory, string memory) {... */\n    tag_17:\n        /* \"contracts/Doctor.sol\":575:588  string memory */\n      0x60\n        /* \"contracts/Doctor.sol\":590:603  string memory */\n      dup1\n        /* \"contracts/Doctor.sol\":605:618  string memory */\n      0x60\n        /* \"contracts/Doctor.sol\":631:658  doctorStruct storage doctor */\n      0x00\n        /* \"contracts/Doctor.sol\":661:674  doctorMapping */\n      dup1\n        /* \"contracts/Doctor.sol\":661:685  doctorMapping[_doctorID] */\n      0x00\n        /* \"contracts/Doctor.sol\":675:684  _doctorID */\n      dup7\n        /* \"contracts/Doctor.sol\":661:685  doctorMapping[_doctorID] */\n      dup2\n      mstore\n      0x20\n      add\n      swap1\n      dup2\n      mstore\n      0x20\n      add\n      0x00\n      keccak256\n        /* \"contracts/Doctor.sol\":631:685  doctorStruct storage doctor = doctorMapping[_doctorID] */\n      swap1\n      pop\n        /* \"contracts/Doctor.sol\":704:710  doctor */\n      dup1\n        /* \"contracts/Doctor.sol\":704:715  doctor.name */\n      0x00\n      add\n        /* \"contracts/Doctor.sol\":717:723  doctor */\n      dup2\n        /* \"contracts/Doctor.sol\":717:737  doctor.qualification */\n      0x01\n      add\n        /* \"contracts/Doctor.sol\":739:745  doctor */\n      dup3\n        /* \"contracts/Doctor.sol\":739:755  doctor.workPlace */\n      0x02\n      add\n        /* \"contracts/Doctor.sol\":696:756  return (doctor.name, doctor.qualification, doctor.workPlace) */\n      dup3\n      dup1\n      sload\n      tag_28\n      swap1\n      tag_29\n      jump\t// in\n    tag_28:\n      dup1\n      0x1f\n      add\n      0x20\n      dup1\n      swap2\n      div\n      mul\n      0x20\n      add\n      mload(0x40)\n      swap1\n      dup2\n      add\n      0x40\n      mstore\n      dup1\n      swap3\n      swap2\n      swap1\n      dup2\n      dup2\n      mstore\n      0x20\n      add\n      dup3\n      dup1\n      sload\n      tag_30\n      swap1\n      tag_29\n      jump\t// in\n    tag_30:\n      dup1\n      iszero\n      tag_31\n      jumpi\n      dup1\n      0x1f\n      lt\n      tag_32\n      jumpi\n      0x0100\n      dup1\n      dup4\n      sload\n      div\n      mul\n      dup4\n      mstore\n      swap2\n      0x20\n      add\n      swap2\n      jump(tag_31)\n    tag_32:\n      dup3\n      add\n      swap2\n      swap1\n      0x00\n      mstore\n      keccak256(0x00, 0x20)\n      swap1\n    tag_33:\n      dup2\n      sload\n      dup2\n      mstore\n      swap1\n      0x01\n      add\n      swap1\n      0x20\n      add\n      dup1\n      dup4\n      gt\n      tag_33\n      jumpi\n      dup3\n      swap1\n      sub\n      0x1f\n      and\n      dup3\n      add\n      swap2\n    tag_31:\n      pop\n      pop\n      pop\n      pop\n      pop\n      swap3\n      pop\n      dup2\n      dup1\n      sload\n      tag_34\n      swap1\n      tag_29\n      jump\t// in\n    tag_34:\n      dup1\n      0x1f\n      add\n      0x20\n      dup1\n      swap2\n      div\n      mul\n      0x20\n      add\n      mload(0x40)\n      swap1\n      dup2\n      add\n      0x40\n      mstore\n      dup1\n      swap3\n      swap2\n      swap1\n      dup2\n      dup2\n      mstore\n      0x20\n      add\n      dup3\n      dup1\n      sload\n      tag_35\n      swap1\n      tag_29\n      jump\t// in\n    tag_35:\n      dup1\n      iszero\n      tag_36\n      jumpi\n      dup1\n      0x1f\n      lt\n      tag_37\n      jumpi\n      0x0100\n      dup1\n      dup4\n      sload\n      div\n      mul\n      dup4\n      mstore\n      swap2\n      0x20\n      add\n      swap2\n      jump(tag_36)\n    tag_37:\n      dup3\n      add\n      swap2\n      swap1\n      0x00\n      mstore\n      keccak256(0x00, 0x20)\n      swap1\n    tag_38:\n      dup2\n      sload\n      dup2\n      mstore\n      swap1\n      0x01\n      add\n      swap1\n      0x20\n      add\n      dup1\n      dup4\n      gt\n      tag_38\n      jumpi\n      dup3\n      swap1\n      sub\n      0x1f\n      and\n      dup3\n      add\n      swap2\n    tag_36:\n      pop\n      pop\n      pop\n      pop\n      pop\n      swap2\n      pop\n      dup1\n      dup1\n      sload\n      tag_39\n      swap1\n      tag_29\n      jump\t// in\n    tag_39:\n      dup1\n      0x1f\n      add\n      0x20\n      dup1\n      swap2\n      div\n      mul\n      0x20\n      add\n      mload(0x40)\n      swap1\n      dup2\n      add\n      0x40\n      mstore\n      dup1\n      swap3\n      swap2\n      swap1\n      dup2\n      dup2\n      mstore\n      0x20\n      add\n      dup3\n      dup1\n      sload\n      tag_40\n      swap1\n      tag_29\n      jump\t// in\n    tag_40:\n      dup1\n      iszero\n      tag_41\n      jumpi\n      dup1\n      0x1f\n      lt\n      tag_42\n      jumpi\n      0x0100\n      dup1\n      dup4\n      sload\n      div\n      mul\n      dup4\n      mstore\n      swap2\n      0x20\n      add\n      swap2\n      jump(tag_41)\n    tag_42:\n      dup3\n      add\n      swap2\n      swap1\n      0x00\n      mstore\n      keccak256(0x00, 0x20)\n      swap1\n    tag_43:\n      dup2\n      sload\n      dup2\n      mstore\n      swap1\n      0x01\n      add\n      swap1\n      0x20\n      add\n      dup1\n      dup4\n      gt\n      tag_43\n      jumpi\n      dup3\n      swap1\n      sub\n      0x1f\n      and\n      dup3\n      add\n      swap2\n    tag_41:\n      pop\n      pop\n      pop\n      pop\n      pop\n      swap1\n      pop\n      swap4\n      pop\n      swap4\n      pop\n      swap4\n      pop\n      pop\n        /* \"contracts/Doctor.sol\":515:764  function viewDoctorByID(uint _doctorID) view public returns(string memory, string memory, string memory) {... */\n      swap2\n      swap4\n      swap1\n      swap3\n      pop\n      jump\t// out\n        /* \"#utility.yul\":7:84   */\n    tag_44:\n        /* \"#utility.yul\":44:51   */\n      0x00\n        /* \"#utility.yul\":73:78   */\n      dup2\n        /* \"#utility.yul\":62:78   */\n      swap1\n      pop\n        /* \"#utility.yul\":7:84   */\n      swap2\n      swap1\n      pop\n      jump\t// out\n        /* \"#utility.yul\":90:208   */\n    tag_45:\n        /* \"#utility.yul\":177:201   */\n      tag_85\n        /* \"#utility.yul\":195:200   */\n      dup2\n        /* \"#utility.yul\":177:201   */\n      tag_44\n      jump\t// in\n    tag_85:\n        /* \"#utility.yul\":172:175   */\n      dup3\n        /* \"#utility.yul\":165:202   */\n      mstore\n        /* \"#utility.yul\":90:208   */\n      pop\n      pop\n      jump\t// out\n        /* \"#utility.yul\":214:436   */\n    tag_9:\n        /* \"#utility.yul\":307:311   */\n      0x00\n        /* \"#utility.yul\":345:347   */\n      0x20\n        /* \"#utility.yul\":334:343   */\n      dup3\n        /* \"#utility.yul\":330:348   */\n      add\n        /* \"#utility.yul\":322:348   */\n      swap1\n      pop\n        /* \"#utility.yul\":358:429   */\n      tag_87\n        /* \"#utility.yul\":426:427   */\n      0x00\n        /* \"#utility.yul\":415:424   */\n      dup4\n        /* \"#utility.yul\":411:428   */\n      add\n        /* \"#utility.yul\":402:408   */\n      dup5\n        /* \"#utility.yul\":358:429   */\n      tag_45\n      jump\t// in\n    tag_87:\n        /* \"#utility.yul\":214:436   */\n      swap3\n      swap2\n      pop\n      pop\n      jump\t// out\n        /* \"#utility.yul\":442:517   */\n    tag_46:\n        /* \"#utility.yul\":475:481   */\n      0x00\n        /* \"#utility.yul\":508:510   */\n      0x40\n        /* \"#utility.yul\":502:511   */\n      mload\n        /* \"#utility.yul\":492:511   */\n      swap1\n      pop\n        /* \"#utility.yul\":442:517   */\n      swap1\n      jump\t// out\n        /* \"#utility.yul\":523:640   */\n    tag_47:\n        /* \"#utility.yul\":632:633   */\n      0x00\n        /* \"#utility.yul\":629:630   */\n      dup1\n        /* \"#utility.yul\":622:634   */\n      revert\n        /* \"#utility.yul\":646:763   */\n    tag_48:\n        /* \"#utility.yul\":755:756   */\n      0x00\n        /* \"#utility.yul\":752:753   */\n      dup1\n        /* \"#utility.yul\":745:757   */\n      revert\n        /* \"#utility.yul\":769:886   */\n    tag_49:\n        /* \"#utility.yul\":878:879   */\n      0x00\n        /* \"#utility.yul\":875:876   */\n      dup1\n        /* \"#utility.yul\":868:880   */\n      revert\n        /* \"#utility.yul\":892:1009   */\n    tag_50:\n        /* \"#utility.yul\":1001:1002   */\n      0x00\n        /* \"#utility.yul\":998:999   */\n      dup1\n        /* \"#utility.yul\":991:1003   */\n      revert\n        /* \"#utility.yul\":1015:1117   */\n    tag_51:\n        /* \"#utility.yul\":1056:1062   */\n      0x00\n        /* \"#utility.yul\":1107:1109   */\n      0x1f\n        /* \"#utility.yul\":1103:1110   */\n      not\n        /* \"#utility.yul\":1098:1100   */\n      0x1f\n        /* \"#utility.yul\":1091:1096   */\n      dup4\n        /* \"#utility.yul\":1087:1101   */\n      add\n        /* \"#utility.yul\":1083:1111   */\n      and\n        /* \"#utility.yul\":1073:1111   */\n      swap1\n      pop\n        /* \"#utility.yul\":1015:1117   */\n      swap2\n      swap1\n      pop\n      jump\t// out\n        /* \"#utility.yul\":1123:1303   */\n    tag_52:\n        /* \"#utility.yul\":1171:1248   */\n      0x4e487b7100000000000000000000000000000000000000000000000000000000\n        /* \"#utility.yul\":1168:1169   */\n      0x00\n        /* \"#utility.yul\":1161:1249   */\n      mstore\n        /* \"#utility.yul\":1268:1272   */\n      0x41\n        /* \"#utility.yul\":1265:1266   */\n      0x04\n        /* \"#utility.yul\":1258:1273   */\n      mstore\n        /* \"#utility.yul\":1292:1296   */\n      0x24\n        /* \"#utility.yul\":1289:1290   */\n      0x00\n        /* \"#utility.yul\":1282:1297   */\n      revert\n        /* \"#utility.yul\":1309:1590   */\n    tag_53:\n        /* \"#utility.yul\":1392:1419   */\n      tag_96\n        /* \"#utility.yul\":1414:1418   */\n      dup3\n        /* \"#utility.yul\":1392:1419   */\n      tag_51\n      jump\t// in\n    tag_96:\n        /* \"#utility.yul\":1384:1390   */\n      dup2\n        /* \"#utility.yul\":1380:1420   */\n      add\n        /* \"#utility.yul\":1522:1528   */\n      dup2\n        /* \"#utility.yul\":1510:1520   */\n      dup2\n        /* \"#utility.yul\":1507:1529   */\n      lt\n        /* \"#utility.yul\":1486:1504   */\n      0xffffffffffffffff\n        /* \"#utility.yul\":1474:1484   */\n      dup3\n        /* \"#utility.yul\":1471:1505   */\n      gt\n        /* \"#utility.yul\":1468:1530   */\n      or\n        /* \"#utility.yul\":1465:1553   */\n      iszero\n      tag_97\n      jumpi\n        /* \"#utility.yul\":1533:1551   */\n      tag_98\n      tag_52\n      jump\t// in\n    tag_98:\n        /* \"#utility.yul\":1465:1553   */\n    tag_97:\n        /* \"#utility.yul\":1573:1583   */\n      dup1\n        /* \"#utility.yul\":1569:1571   */\n      0x40\n        /* \"#utility.yul\":1562:1584   */\n      mstore\n        /* \"#utility.yul\":1352:1590   */\n      pop\n        /* \"#utility.yul\":1309:1590   */\n      pop\n      pop\n      jump\t// out\n        /* \"#utility.yul\":1596:1725   */\n    tag_54:\n        /* \"#utility.yul\":1630:1636   */\n      0x00\n        /* \"#utility.yul\":1657:1677   */\n      tag_100\n      tag_46\n      jump\t// in\n    tag_100:\n        /* \"#utility.yul\":1647:1677   */\n      swap1\n      pop\n        /* \"#utility.yul\":1686:1719   */\n      tag_101\n        /* \"#utility.yul\":1714:1718   */\n      dup3\n        /* \"#utility.yul\":1706:1712   */\n      dup3\n        /* \"#utility.yul\":1686:1719   */\n      tag_53\n      jump\t// in\n    tag_101:\n        /* \"#utility.yul\":1596:1725   */\n      swap2\n      swap1\n      pop\n      jump\t// out\n        /* \"#utility.yul\":1731:2039   */\n    tag_55:\n        /* \"#utility.yul\":1793:1797   */\n      0x00\n        /* \"#utility.yul\":1883:1901   */\n      0xffffffffffffffff\n        /* \"#utility.yul\":1875:1881   */\n      dup3\n        /* \"#utility.yul\":1872:1902   */\n      gt\n        /* \"#utility.yul\":1869:1925   */\n      iszero\n      tag_103\n      jumpi\n        /* \"#utility.yul\":1905:1923   */\n      tag_104\n      tag_52\n      jump\t// in\n    tag_104:\n        /* \"#utility.yul\":1869:1925   */\n    tag_103:\n        /* \"#utility.yul\":1943:1972   */\n      tag_105\n        /* \"#utility.yul\":1965:1971   */\n      dup3\n        /* \"#utility.yul\":1943:1972   */\n      tag_51\n      jump\t// in\n    tag_105:\n        /* \"#utility.yul\":1935:1972   */\n      swap1\n      pop\n        /* \"#utility.yul\":2027:2031   */\n      0x20\n        /* \"#utility.yul\":2021:2025   */\n      dup2\n        /* \"#utility.yul\":2017:2032   */\n      add\n        /* \"#utility.yul\":2009:2032   */\n      swap1\n      pop\n        /* \"#utility.yul\":1731:2039   */\n      swap2\n      swap1\n      pop\n      jump\t// out\n        /* \"#utility.yul\":2045:2191   */\n    tag_56:\n        /* \"#utility.yul\":2142:2148   */\n      dup3\n        /* \"#utility.yul\":2137:2140   */\n      dup2\n        /* \"#utility.yul\":2132:2135   */\n      dup4\n        /* \"#utility.yul\":2119:2149   */\n      calldatacopy\n        /* \"#utility.yul\":2183:2184   */\n      0x00\n        /* \"#utility.yul\":2174:2180   */\n      dup4\n        /* \"#utility.yul\":2169:2172   */\n      dup4\n        /* \"#utility.yul\":2165:2181   */\n      add\n        /* \"#utility.yul\":2158:2185   */\n      mstore\n        /* \"#utility.yul\":2045:2191   */\n      pop\n      pop\n      pop\n      jump\t// out\n        /* \"#utility.yul\":2197:2622   */\n    tag_57:\n        /* \"#utility.yul\":2275:2280   */\n      0x00\n        /* \"#utility.yul\":2300:2366   */\n      tag_108\n        /* \"#utility.yul\":2316:2365   */\n      tag_109\n        /* \"#utility.yul\":2358:2364   */\n      dup5\n        /* \"#utility.yul\":2316:2365   */\n      tag_55\n      jump\t// in\n    tag_109:\n        /* \"#utility.yul\":2300:2366   */\n      tag_54\n      jump\t// in\n    tag_108:\n        /* \"#utility.yul\":2291:2366   */\n      swap1\n      pop\n        /* \"#utility.yul\":2389:2395   */\n      dup3\n        /* \"#utility.yul\":2382:2387   */\n      dup2\n        /* \"#utility.yul\":2375:2396   */\n      mstore\n        /* \"#utility.yul\":2427:2431   */\n      0x20\n        /* \"#utility.yul\":2420:2425   */\n      dup2\n        /* \"#utility.yul\":2416:2432   */\n      add\n        /* \"#utility.yul\":2465:2468   */\n      dup5\n        /* \"#utility.yul\":2456:2462   */\n      dup5\n        /* \"#utility.yul\":2451:2454   */\n      dup5\n        /* \"#utility.yul\":2447:2463   */\n      add\n        /* \"#utility.yul\":2444:2469   */\n      gt\n        /* \"#utility.yul\":2441:2553   */\n      iszero\n      tag_110\n      jumpi\n        /* \"#utility.yul\":2472:2551   */\n      tag_111\n      tag_50\n      jump\t// in\n    tag_111:\n        /* \"#utility.yul\":2441:2553   */\n    tag_110:\n        /* \"#utility.yul\":2562:2616   */\n      tag_112\n        /* \"#utility.yul\":2609:2615   */\n      dup5\n        /* \"#utility.yul\":2604:2607   */\n      dup3\n        /* \"#utility.yul\":2599:2602   */\n      dup6\n        /* \"#utility.yul\":2562:2616   */\n      tag_56\n      jump\t// in\n    tag_112:\n        /* \"#utility.yul\":2281:2622   */\n      pop\n        /* \"#utility.yul\":2197:2622   */\n      swap4\n      swap3\n      pop\n      pop\n      pop\n      jump\t// out\n        /* \"#utility.yul\":2642:2982   */\n    tag_58:\n        /* \"#utility.yul\":2698:2703   */\n      0x00\n        /* \"#utility.yul\":2747:2750   */\n      dup3\n        /* \"#utility.yul\":2740:2744   */\n      0x1f\n        /* \"#utility.yul\":2732:2738   */\n      dup4\n        /* \"#utility.yul\":2728:2745   */\n      add\n        /* \"#utility.yul\":2724:2751   */\n      slt\n        /* \"#utility.yul\":2714:2836   */\n      tag_114\n      jumpi\n        /* \"#utility.yul\":2755:2834   */\n      tag_115\n      tag_49\n      jump\t// in\n    tag_115:\n        /* \"#utility.yul\":2714:2836   */\n    tag_114:\n        /* \"#utility.yul\":2872:2878   */\n      dup2\n        /* \"#utility.yul\":2859:2879   */\n      calldataload\n        /* \"#utility.yul\":2897:2976   */\n      tag_116\n        /* \"#utility.yul\":2972:2975   */\n      dup5\n        /* \"#utility.yul\":2964:2970   */\n      dup3\n        /* \"#utility.yul\":2957:2961   */\n      0x20\n        /* \"#utility.yul\":2949:2955   */\n      dup7\n        /* \"#utility.yul\":2945:2962   */\n      add\n        /* \"#utility.yul\":2897:2976   */\n      tag_57\n      jump\t// in\n    tag_116:\n        /* \"#utility.yul\":2888:2976   */\n      swap2\n      pop\n        /* \"#utility.yul\":2704:2982   */\n      pop\n        /* \"#utility.yul\":2642:2982   */\n      swap3\n      swap2\n      pop\n      pop\n      jump\t// out\n        /* \"#utility.yul\":2988:4147   */\n    tag_12:\n        /* \"#utility.yul\":3095:3101   */\n      0x00\n        /* \"#utility.yul\":3103:3109   */\n      dup1\n        /* \"#utility.yul\":3111:3117   */\n      0x00\n        /* \"#utility.yul\":3160:3162   */\n      0x60\n        /* \"#utility.yul\":3148:3157   */\n      dup5\n        /* \"#utility.yul\":3139:3146   */\n      dup7\n        /* \"#utility.yul\":3135:3158   */\n      sub\n        /* \"#utility.yul\":3131:3163   */\n      slt\n        /* \"#utility.yul\":3128:3247   */\n      iszero\n      tag_118\n      jumpi\n        /* \"#utility.yul\":3166:3245   */\n      tag_119\n      tag_47\n      jump\t// in\n    tag_119:\n        /* \"#utility.yul\":3128:3247   */\n    tag_118:\n        /* \"#utility.yul\":3314:3315   */\n      0x00\n        /* \"#utility.yul\":3303:3312   */\n      dup5\n        /* \"#utility.yul\":3299:3316   */\n      add\n        /* \"#utility.yul\":3286:3317   */\n      calldataload\n        /* \"#utility.yul\":3344:3362   */\n      0xffffffffffffffff\n        /* \"#utility.yul\":3336:3342   */\n      dup2\n        /* \"#utility.yul\":3333:3363   */\n      gt\n        /* \"#utility.yul\":3330:3447   */\n      iszero\n      tag_120\n      jumpi\n        /* \"#utility.yul\":3366:3445   */\n      tag_121\n      tag_48\n      jump\t// in\n    tag_121:\n        /* \"#utility.yul\":3330:3447   */\n    tag_120:\n        /* \"#utility.yul\":3471:3534   */\n      tag_122\n        /* \"#utility.yul\":3526:3533   */\n      dup7\n        /* \"#utility.yul\":3517:3523   */\n      dup3\n        /* \"#utility.yul\":3506:3515   */\n      dup8\n        /* \"#utility.yul\":3502:3524   */\n      add\n        /* \"#utility.yul\":3471:3534   */\n      tag_58\n      jump\t// in\n    tag_122:\n        /* \"#utility.yul\":3461:3534   */\n      swap4\n      pop\n        /* \"#utility.yul\":3257:3544   */\n      pop\n        /* \"#utility.yul\":3611:3613   */\n      0x20\n        /* \"#utility.yul\":3600:3609   */\n      dup5\n        /* \"#utility.yul\":3596:3614   */\n      add\n        /* \"#utility.yul\":3583:3615   */\n      calldataload\n        /* \"#utility.yul\":3642:3660   */\n      0xffffffffffffffff\n        /* \"#utility.yul\":3634:3640   */\n      dup2\n        /* \"#utility.yul\":3631:3661   */\n      gt\n        /* \"#utility.yul\":3628:3745   */\n      iszero\n      tag_123\n      jumpi\n        /* \"#utility.yul\":3664:3743   */\n      tag_124\n      tag_48\n      jump\t// in\n    tag_124:\n        /* \"#utility.yul\":3628:3745   */\n    tag_123:\n        /* \"#utility.yul\":3769:3832   */\n      tag_125\n        /* \"#utility.yul\":3824:3831   */\n      dup7\n        /* \"#utility.yul\":3815:3821   */\n      dup3\n        /* \"#utility.yul\":3804:3813   */\n      dup8\n        /* \"#utility.yul\":3800:3822   */\n      add\n        /* \"#utility.yul\":3769:3832   */\n      tag_58\n      jump\t// in\n    tag_125:\n        /* \"#utility.yul\":3759:3832   */\n      swap3\n      pop\n        /* \"#utility.yul\":3554:3842   */\n      pop\n        /* \"#utility.yul\":3909:3911   */\n      0x40\n        /* \"#utility.yul\":3898:3907   */\n      dup5\n        /* \"#utility.yul\":3894:3912   */\n      add\n        /* \"#utility.yul\":3881:3913   */\n      calldataload\n        /* \"#utility.yul\":3940:3958   */\n      0xffffffffffffffff\n        /* \"#utility.yul\":3932:3938   */\n      dup2\n        /* \"#utility.yul\":3929:3959   */\n      gt\n        /* \"#utility.yul\":3926:4043   */\n      iszero\n      tag_126\n      jumpi\n        /* \"#utility.yul\":3962:4041   */\n      tag_127\n      tag_48\n      jump\t// in\n    tag_127:\n        /* \"#utility.yul\":3926:4043   */\n    tag_126:\n        /* \"#utility.yul\":4067:4130   */\n      tag_128\n        /* \"#utility.yul\":4122:4129   */\n      dup7\n        /* \"#utility.yul\":4113:4119   */\n      dup3\n        /* \"#utility.yul\":4102:4111   */\n      dup8\n        /* \"#utility.yul\":4098:4120   */\n      add\n        /* \"#utility.yul\":4067:4130   */\n      tag_58\n      jump\t// in\n    tag_128:\n        /* \"#utility.yul\":4057:4130   */\n      swap2\n      pop\n        /* \"#utility.yul\":3852:4140   */\n      pop\n        /* \"#utility.yul\":2988:4147   */\n      swap3\n      pop\n      swap3\n      pop\n      swap3\n      jump\t// out\n        /* \"#utility.yul\":4153:4275   */\n    tag_59:\n        /* \"#utility.yul\":4226:4250   */\n      tag_130\n        /* \"#utility.yul\":4244:4249   */\n      dup2\n        /* \"#utility.yul\":4226:4250   */\n      tag_44\n      jump\t// in\n    tag_130:\n        /* \"#utility.yul\":4219:4224   */\n      dup2\n        /* \"#utility.yul\":4216:4251   */\n      eq\n        /* \"#utility.yul\":4206:4269   */\n      tag_131\n      jumpi\n        /* \"#utility.yul\":4265:4266   */\n      0x00\n        /* \"#utility.yul\":4262:4263   */\n      dup1\n        /* \"#utility.yul\":4255:4267   */\n      revert\n        /* \"#utility.yul\":4206:4269   */\n    tag_131:\n        /* \"#utility.yul\":4153:4275   */\n      pop\n      jump\t// out\n        /* \"#utility.yul\":4281:4420   */\n    tag_60:\n        /* \"#utility.yul\":4327:4332   */\n      0x00\n        /* \"#utility.yul\":4365:4371   */\n      dup2\n        /* \"#utility.yul\":4352:4372   */\n      calldataload\n        /* \"#utility.yul\":4343:4372   */\n      swap1\n      pop\n        /* \"#utility.yul\":4381:4414   */\n      tag_133\n        /* \"#utility.yul\":4408:4413   */\n      dup2\n        /* \"#utility.yul\":4381:4414   */\n      tag_59\n      jump\t// in\n    tag_133:\n        /* \"#utility.yul\":4281:4420   */\n      swap3\n      swap2\n      pop\n      pop\n      jump\t// out\n        /* \"#utility.yul\":4426:4755   */\n    tag_16:\n        /* \"#utility.yul\":4485:4491   */\n      0x00\n        /* \"#utility.yul\":4534:4536   */\n      0x20\n        /* \"#utility.yul\":4522:4531   */\n      dup3\n        /* \"#utility.yul\":4513:4520   */\n      dup5\n        /* \"#utility.yul\":4509:4532   */\n      sub\n        /* \"#utility.yul\":4505:4537   */\n      slt\n        /* \"#utility.yul\":4502:4621   */\n      iszero\n      tag_135\n      jumpi\n        /* \"#utility.yul\":4540:4619   */\n      tag_136\n      tag_47\n      jump\t// in\n    tag_136:\n        /* \"#utility.yul\":4502:4621   */\n    tag_135:\n        /* \"#utility.yul\":4660:4661   */\n      0x00\n        /* \"#utility.yul\":4685:4738   */\n      tag_137\n        /* \"#utility.yul\":4730:4737   */\n      dup5\n        /* \"#utility.yul\":4721:4727   */\n      dup3\n        /* \"#utility.yul\":4710:4719   */\n      dup6\n        /* \"#utility.yul\":4706:4728   */\n      add\n        /* \"#utility.yul\":4685:4738   */\n      tag_60\n      jump\t// in\n    tag_137:\n        /* \"#utility.yul\":4675:4738   */\n      swap2\n      pop\n        /* \"#utility.yul\":4631:4748   */\n      pop\n        /* \"#utility.yul\":4426:4755   */\n      swap3\n      swap2\n      pop\n      pop\n      jump\t// out\n        /* \"#utility.yul\":4761:4860   */\n    tag_61:\n        /* \"#utility.yul\":4813:4819   */\n      0x00\n        /* \"#utility.yul\":4847:4852   */\n      dup2\n        /* \"#utility.yul\":4841:4853   */\n      mload\n        /* \"#utility.yul\":4831:4853   */\n      swap1\n      pop\n        /* \"#utility.yul\":4761:4860   */\n      swap2\n      swap1\n      pop\n      jump\t// out\n        /* \"#utility.yul\":4866:5035   */\n    tag_62:\n        /* \"#utility.yul\":4950:4961   */\n      0x00\n        /* \"#utility.yul\":4984:4990   */\n      dup3\n        /* \"#utility.yul\":4979:4982   */\n      dup3\n        /* \"#utility.yul\":4972:4991   */\n      mstore\n        /* \"#utility.yul\":5024:5028   */\n      0x20\n        /* \"#utility.yul\":5019:5022   */\n      dup3\n        /* \"#utility.yul\":5015:5029   */\n      add\n        /* \"#utility.yul\":5000:5029   */\n      swap1\n      pop\n        /* \"#utility.yul\":4866:5035   */\n      swap3\n      swap2\n      pop\n      pop\n      jump\t// out\n        /* \"#utility.yul\":5041:5287   */\n    tag_63:\n        /* \"#utility.yul\":5122:5123   */\n      0x00\n        /* \"#utility.yul\":5132:5245   */\n    tag_141:\n        /* \"#utility.yul\":5146:5152   */\n      dup4\n        /* \"#utility.yul\":5143:5144   */\n      dup2\n        /* \"#utility.yul\":5140:5153   */\n      lt\n        /* \"#utility.yul\":5132:5245   */\n      iszero\n      tag_143\n      jumpi\n        /* \"#utility.yul\":5231:5232   */\n      dup1\n        /* \"#utility.yul\":5226:5229   */\n      dup3\n        /* \"#utility.yul\":5222:5233   */\n      add\n        /* \"#utility.yul\":5216:5234   */\n      mload\n        /* \"#utility.yul\":5212:5213   */\n      dup2\n        /* \"#utility.yul\":5207:5210   */\n      dup5\n        /* \"#utility.yul\":5203:5214   */\n      add\n        /* \"#utility.yul\":5196:5235   */\n      mstore\n        /* \"#utility.yul\":5168:5170   */\n      0x20\n        /* \"#utility.yul\":5165:5166   */\n      dup2\n        /* \"#utility.yul\":5161:5171   */\n      add\n        /* \"#utility.yul\":5156:5171   */\n      swap1\n      pop\n        /* \"#utility.yul\":5132:5245   */\n      jump(tag_141)\n    tag_143:\n        /* \"#utility.yul\":5279:5280   */\n      0x00\n        /* \"#utility.yul\":5270:5276   */\n      dup5\n        /* \"#utility.yul\":5265:5268   */\n      dup5\n        /* \"#utility.yul\":5261:5277   */\n      add\n        /* \"#utility.yul\":5254:5281   */\n      mstore\n        /* \"#utility.yul\":5103:5287   */\n      pop\n        /* \"#utility.yul\":5041:5287   */\n      pop\n      pop\n      pop\n      jump\t// out\n        /* \"#utility.yul\":5293:5670   */\n    tag_64:\n        /* \"#utility.yul\":5381:5384   */\n      0x00\n        /* \"#utility.yul\":5409:5448   */\n      tag_145\n        /* \"#utility.yul\":5442:5447   */\n      dup3\n        /* \"#utility.yul\":5409:5448   */\n      tag_61\n      jump\t// in\n    tag_145:\n        /* \"#utility.yul\":5464:5535   */\n      tag_146\n        /* \"#utility.yul\":5528:5534   */\n      dup2\n        /* \"#utility.yul\":5523:5526   */\n      dup6\n        /* \"#utility.yul\":5464:5535   */\n      tag_62\n      jump\t// in\n    tag_146:\n        /* \"#utility.yul\":5457:5535   */\n      swap4\n      pop\n        /* \"#utility.yul\":5544:5609   */\n      tag_147\n        /* \"#utility.yul\":5602:5608   */\n      dup2\n        /* \"#utility.yul\":5597:5600   */\n      dup6\n        /* \"#utility.yul\":5590:5594   */\n      0x20\n        /* \"#utility.yul\":5583:5588   */\n      dup7\n        /* \"#utility.yul\":5579:5595   */\n      add\n        /* \"#utility.yul\":5544:5609   */\n      tag_63\n      jump\t// in\n    tag_147:\n        /* \"#utility.yul\":5634:5663   */\n      tag_148\n        /* \"#utility.yul\":5656:5662   */\n      dup2\n        /* \"#utility.yul\":5634:5663   */\n      tag_51\n      jump\t// in\n    tag_148:\n        /* \"#utility.yul\":5629:5632   */\n      dup5\n        /* \"#utility.yul\":5625:5664   */\n      add\n        /* \"#utility.yul\":5618:5664   */\n      swap2\n      pop\n        /* \"#utility.yul\":5385:5670   */\n      pop\n        /* \"#utility.yul\":5293:5670   */\n      swap3\n      swap2\n      pop\n      pop\n      jump\t// out\n        /* \"#utility.yul\":5676:6391   */\n    tag_19:\n        /* \"#utility.yul\":5885:5889   */\n      0x00\n        /* \"#utility.yul\":5923:5925   */\n      0x60\n        /* \"#utility.yul\":5912:5921   */\n      dup3\n        /* \"#utility.yul\":5908:5926   */\n      add\n        /* \"#utility.yul\":5900:5926   */\n      swap1\n      pop\n        /* \"#utility.yul\":5972:5981   */\n      dup2\n        /* \"#utility.yul\":5966:5970   */\n      dup2\n        /* \"#utility.yul\":5962:5982   */\n      sub\n        /* \"#utility.yul\":5958:5959   */\n      0x00\n        /* \"#utility.yul\":5947:5956   */\n      dup4\n        /* \"#utility.yul\":5943:5960   */\n      add\n        /* \"#utility.yul\":5936:5983   */\n      mstore\n        /* \"#utility.yul\":6000:6078   */\n      tag_150\n        /* \"#utility.yul\":6073:6077   */\n      dup2\n        /* \"#utility.yul\":6064:6070   */\n      dup7\n        /* \"#utility.yul\":6000:6078   */\n      tag_64\n      jump\t// in\n    tag_150:\n        /* \"#utility.yul\":5992:6078   */\n      swap1\n      pop\n        /* \"#utility.yul\":6125:6134   */\n      dup2\n        /* \"#utility.yul\":6119:6123   */\n      dup2\n        /* \"#utility.yul\":6115:6135   */\n      sub\n        /* \"#utility.yul\":6110:6112   */\n      0x20\n        /* \"#utility.yul\":6099:6108   */\n      dup4\n        /* \"#utility.yul\":6095:6113   */\n      add\n        /* \"#utility.yul\":6088:6136   */\n      mstore\n        /* \"#utility.yul\":6153:6231   */\n      tag_151\n        /* \"#utility.yul\":6226:6230   */\n      dup2\n        /* \"#utility.yul\":6217:6223   */\n      dup6\n        /* \"#utility.yul\":6153:6231   */\n      tag_64\n      jump\t// in\n    tag_151:\n        /* \"#utility.yul\":6145:6231   */\n      swap1\n      pop\n        /* \"#utility.yul\":6278:6287   */\n      dup2\n        /* \"#utility.yul\":6272:6276   */\n      dup2\n        /* \"#utility.yul\":6268:6288   */\n      sub\n        /* \"#utility.yul\":6263:6265   */\n      0x40\n        /* \"#utility.yul\":6252:6261   */\n      dup4\n        /* \"#utility.yul\":6248:6266   */\n      add\n        /* \"#utility.yul\":6241:6289   */\n      mstore\n        /* \"#utility.yul\":6306:6384   */\n      tag_152\n        /* \"#utility.yul\":6379:6383   */\n      dup2\n        /* \"#utility.yul\":6370:6376   */\n      dup5\n        /* \"#utility.yul\":6306:6384   */\n      tag_64\n      jump\t// in\n    tag_152:\n        /* \"#utility.yul\":6298:6384   */\n      swap1\n      pop\n        /* \"#utility.yul\":5676:6391   */\n      swap5\n      swap4\n      pop\n      pop\n      pop\n      pop\n      jump\t// out\n        /* \"#utility.yul\":6397:6577   */\n    tag_65:\n        /* \"#utility.yul\":6445:6522   */\n      0x4e487b7100000000000000000000000000000000000000000000000000000000\n        /* \"#utility.yul\":6442:6443   */\n      0x00\n        /* \"#utility.yul\":6435:6523   */\n      mstore\n        /* \"#utility.yul\":6542:6546   */\n      0x11\n        /* \"#utility.yul\":6539:6540   */\n      0x04\n        /* \"#utility.yul\":6532:6547   */\n      mstore\n        /* \"#utility.yul\":6566:6570   */\n      0x24\n        /* \"#utility.yul\":6563:6564   */\n      0x00\n        /* \"#utility.yul\":6556:6571   */\n      revert\n        /* \"#utility.yul\":6583:6816   */\n    tag_22:\n        /* \"#utility.yul\":6622:6625   */\n      0x00\n        /* \"#utility.yul\":6645:6669   */\n      tag_155\n        /* \"#utility.yul\":6663:6668   */\n      dup3\n        /* \"#utility.yul\":6645:6669   */\n      tag_44\n      jump\t// in\n    tag_155:\n        /* \"#utility.yul\":6636:6669   */\n      swap2\n      pop\n        /* \"#utility.yul\":6691:6757   */\n      0xffffffffffffffffffffffffffffffffffffffffffffffffffffffffffffffff\n        /* \"#utility.yul\":6684:6689   */\n      dup3\n        /* \"#utility.yul\":6681:6758   */\n      sub\n        /* \"#utility.yul\":6678:6781   */\n      tag_156\n      jumpi\n        /* \"#utility.yul\":6761:6779   */\n      tag_157\n      tag_65\n      jump\t// in\n    tag_157:\n        /* \"#utility.yul\":6678:6781   */\n    tag_156:\n        /* \"#utility.yul\":6808:6809   */\n      0x01\n        /* \"#utility.yul\":6801:6806   */\n      dup3\n        /* \"#utility.yul\":6797:6810   */\n      add\n        /* \"#utility.yul\":6790:6810   */\n      swap1\n      pop\n        /* \"#utility.yul\":6583:6816   */\n      swap2\n      swap1\n      pop\n      jump\t// out\n        /* \"#utility.yul\":6822:7002   */\n    tag_66:\n        /* \"#utility.yul\":6870:6947   */\n      0x4e487b7100000000000000000000000000000000000000000000000000000000\n        /* \"#utility.yul\":6867:6868   */\n      0x00\n        /* \"#utility.yul\":6860:6948   */\n      mstore\n        /* \"#utility.yul\":6967:6971   */\n      0x22\n        /* \"#utility.yul\":6964:6965   */\n      0x04\n        /* \"#utility.yul\":6957:6972   */\n      mstore\n        /* \"#utility.yul\":6991:6995   */\n      0x24\n        /* \"#utility.yul\":6988:6989   */\n      0x00\n        /* \"#utility.yul\":6981:6996   */\n      revert\n        /* \"#utility.yul\":7008:7328   */\n    tag_29:\n        /* \"#utility.yul\":7052:7058   */\n      0x00\n        /* \"#utility.yul\":7089:7090   */\n      0x02\n        /* \"#utility.yul\":7083:7087   */\n      dup3\n        /* \"#utility.yul\":7079:7091   */\n      div\n        /* \"#utility.yul\":7069:7091   */\n      swap1\n      pop\n        /* \"#utility.yul\":7136:7137   */\n      0x01\n        /* \"#utility.yul\":7130:7134   */\n      dup3\n        /* \"#utility.yul\":7126:7138   */\n      and\n        /* \"#utility.yul\":7157:7175   */\n      dup1\n        /* \"#utility.yul\":7147:7228   */\n      tag_160\n      jumpi\n        /* \"#utility.yul\":7213:7217   */\n      0x7f\n        /* \"#utility.yul\":7205:7211   */\n      dup3\n        /* \"#utility.yul\":7201:7218   */\n      and\n        /* \"#utility.yul\":7191:7218   */\n      swap2\n      pop\n        /* \"#utility.yul\":7147:7228   */\n    tag_160:\n        /* \"#utility.yul\":7275:7277   */\n      0x20\n        /* \"#utility.yul\":7267:7273   */\n      dup3\n        /* \"#utility.yul\":7264:7278   */\n      lt\n        /* \"#utility.yul\":7244:7262   */\n      dup2\n        /* \"#utility.yul\":7241:7279   */\n      sub\n        /* \"#utility.yul\":7238:7322   */\n      tag_161\n      jumpi\n        /* \"#utility.yul\":7294:7312   */\n      tag_162\n      tag_66\n      jump\t// in\n    tag_162:\n        /* \"#utility.yul\":7238:7322   */\n    tag_161:\n        /* \"#utility.yul\":7059:7328   */\n      pop\n        /* \"#utility.yul\":7008:7328   */\n      swap2\n      swap1\n      pop\n      jump\t// out\n        /* \"#utility.yul\":7334:7475   */\n    tag_67:\n        /* \"#utility.yul\":7383:7387   */\n      0x00\n        /* \"#utility.yul\":7406:7409   */\n      dup2\n        /* \"#utility.yul\":7398:7409   */\n      swap1\n      pop\n        /* \"#utility.yul\":7429:7432   */\n      dup2\n        /* \"#utility.yul\":7426:7427   */\n      0x00\n        /* \"#utility.yul\":7419:7433   */\n      mstore\n        /* \"#utility.yul\":7463:7467   */\n      0x20\n        /* \"#utility.yul\":7460:7461   */\n      0x00\n        /* \"#utility.yul\":7450:7468   */\n      keccak256\n        /* \"#utility.yul\":7442:7468   */\n      swap1\n      pop\n        /* \"#utility.yul\":7334:7475   */\n      swap2\n      swap1\n      pop\n      jump\t// out\n        /* \"#utility.yul\":7481:7574   */\n    tag_68:\n        /* \"#utility.yul\":7518:7524   */\n      0x00\n        /* \"#utility.yul\":7565:7567   */\n      0x20\n        /* \"#utility.yul\":7560:7562   */\n      0x1f\n        /* \"#utility.yul\":7553:7558   */\n      dup4\n        /* \"#utility.yul\":7549:7563   */\n      add\n        /* \"#utility.yul\":7545:7568   */\n      div\n        /* \"#utility.yul\":7535:7568   */\n      swap1\n      pop\n        /* \"#utility.yul\":7481:7574   */\n      swap2\n      swap1\n      pop\n      jump\t// out\n        /* \"#utility.yul\":7580:7687   */\n    tag_69:\n        /* \"#utility.yul\":7624:7632   */\n      0x00\n        /* \"#utility.yul\":7674:7679   */\n      dup3\n        /* \"#utility.yul\":7668:7672   */\n      dup3\n        /* \"#utility.yul\":7664:7680   */\n      shl\n        /* \"#utility.yul\":7643:7680   */\n      swap1\n      pop\n        /* \"#utility.yul\":7580:7687   */\n      swap3\n      swap2\n      pop\n      pop\n      jump\t// out\n        /* \"#utility.yul\":7693:8086   */\n    tag_70:\n        /* \"#utility.yul\":7762:7768   */\n      0x00\n        /* \"#utility.yul\":7812:7813   */\n      0x08\n        /* \"#utility.yul\":7800:7810   */\n      dup4\n        /* \"#utility.yul\":7796:7814   */\n      mul\n        /* \"#utility.yul\":7835:7932   */\n      tag_167\n        /* \"#utility.yul\":7865:7931   */\n      0xffffffffffffffffffffffffffffffffffffffffffffffffffffffffffffffff\n        /* \"#utility.yul\":7854:7863   */\n      dup3\n        /* \"#utility.yul\":7835:7932   */\n      tag_69\n      jump\t// in\n    tag_167:\n        /* \"#utility.yul\":7953:7992   */\n      tag_168\n        /* \"#utility.yul\":7983:7991   */\n      dup7\n        /* \"#utility.yul\":7972:7981   */\n      dup4\n        /* \"#utility.yul\":7953:7992   */\n      tag_69\n      jump\t// in\n    tag_168:\n        /* \"#utility.yul\":7941:7992   */\n      swap6\n      pop\n        /* \"#utility.yul\":8025:8029   */\n      dup1\n        /* \"#utility.yul\":8021:8030   */\n      not\n        /* \"#utility.yul\":8014:8019   */\n      dup5\n        /* \"#utility.yul\":8010:8031   */\n      and\n        /* \"#utility.yul\":8001:8031   */\n      swap4\n      pop\n        /* \"#utility.yul\":8074:8078   */\n      dup1\n        /* \"#utility.yul\":8064:8072   */\n      dup7\n        /* \"#utility.yul\":8060:8079   */\n      and\n        /* \"#utility.yul\":8053:8058   */\n      dup5\n        /* \"#utility.yul\":8050:8080   */\n      or\n        /* \"#utility.yul\":8040:8080   */\n      swap3\n      pop\n        /* \"#utility.yul\":7769:8086   */\n      pop\n      pop\n        /* \"#utility.yul\":7693:8086   */\n      swap4\n      swap3\n      pop\n      pop\n      pop\n      jump\t// out\n        /* \"#utility.yul\":8092:8152   */\n    tag_71:\n        /* \"#utility.yul\":8120:8123   */\n      0x00\n        /* \"#utility.yul\":8141:8146   */\n      dup2\n        /* \"#utility.yul\":8134:8146   */\n      swap1\n      pop\n        /* \"#utility.yul\":8092:8152   */\n      swap2\n      swap1\n      pop\n      jump\t// out\n        /* \"#utility.yul\":8158:8300   */\n    tag_72:\n        /* \"#utility.yul\":8208:8217   */\n      0x00\n        /* \"#utility.yul\":8241:8294   */\n      tag_171\n        /* \"#utility.yul\":8259:8293   */\n      tag_172\n        /* \"#utility.yul\":8268:8292   */\n      tag_173\n        /* \"#utility.yul\":8286:8291   */\n      dup5\n        /* \"#utility.yul\":8268:8292   */\n      tag_44\n      jump\t// in\n    tag_173:\n        /* \"#utility.yul\":8259:8293   */\n      tag_71\n      jump\t// in\n    tag_172:\n        /* \"#utility.yul\":8241:8294   */\n      tag_44\n      jump\t// in\n    tag_171:\n        /* \"#utility.yul\":8228:8294   */\n      swap1\n      pop\n        /* \"#utility.yul\":8158:8300   */\n      swap2\n      swap1\n      pop\n      jump\t// out\n        /* \"#utility.yul\":8306:8381   */\n    tag_73:\n        /* \"#utility.yul\":8349:8352   */\n      0x00\n        /* \"#utility.yul\":8370:8375   */\n      dup2\n        /* \"#utility.yul\":8363:8375   */\n      swap1\n      pop\n        /* \"#utility.yul\":8306:8381   */\n      swap2\n      swap1\n      pop\n      jump\t// out\n        /* \"#utility.yul\":8387:8656   */\n    tag_74:\n        /* \"#utility.yul\":8497:8536   */\n      tag_176\n        /* \"#utility.yul\":8528:8535   */\n      dup4\n        /* \"#utility.yul\":8497:8536   */\n      tag_72\n      jump\t// in\n    tag_176:\n        /* \"#utility.yul\":8558:8649   */\n      tag_177\n        /* \"#utility.yul\":8607:8648   */\n      tag_178\n        /* \"#utility.yul\":8631:8647   */\n      dup3\n        /* \"#utility.yul\":8607:8648   */\n      tag_73\n      jump\t// in\n    tag_178:\n        /* \"#utility.yul\":8599:8605   */\n      dup5\n        /* \"#utility.yul\":8592:8596   */\n      dup5\n        /* \"#utility.yul\":8586:8597   */\n      sload\n        /* \"#utility.yul\":8558:8649   */\n      tag_70\n      jump\t// in\n    tag_177:\n        /* \"#utility.yul\":8552:8556   */\n      dup3\n        /* \"#utility.yul\":8545:8650   */\n      sstore\n        /* \"#utility.yul\":8463:8656   */\n      pop\n        /* \"#utility.yul\":8387:8656   */\n      pop\n      pop\n      pop\n      jump\t// out\n        /* \"#utility.yul\":8662:8735   */\n    tag_75:\n        /* \"#utility.yul\":8707:8710   */\n      0x00\n        /* \"#utility.yul\":8662:8735   */\n      swap1\n      jump\t// out\n        /* \"#utility.yul\":8741:8930   */\n    tag_76:\n        /* \"#utility.yul\":8818:8850   */\n      tag_181\n      tag_75\n      jump\t// in\n    tag_181:\n        /* \"#utility.yul\":8859:8924   */\n      tag_182\n        /* \"#utility.yul\":8917:8923   */\n      dup2\n        /* \"#utility.yul\":8909:8915   */\n      dup5\n        /* \"#utility.yul\":8903:8907   */\n      dup5\n        /* \"#utility.yul\":8859:8924   */\n      tag_74\n      jump\t// in\n    tag_182:\n        /* \"#utility.yul\":8794:8930   */\n      pop\n        /* \"#utility.yul\":8741:8930   */\n      pop\n      pop\n      jump\t// out\n        /* \"#utility.yul\":8936:9122   */\n    tag_77:\n        /* \"#utility.yul\":8996:9116   */\n    tag_184:\n        /* \"#utility.yul\":9013:9016   */\n      dup2\n        /* \"#utility.yul\":9006:9011   */\n      dup2\n        /* \"#utility.yul\":9003:9017   */\n      lt\n        /* \"#utility.yul\":8996:9116   */\n      iszero\n      tag_186\n      jumpi\n        /* \"#utility.yul\":9067:9106   */\n      tag_187\n        /* \"#utility.yul\":9104:9105   */\n      0x00\n        /* \"#utility.yul\":9097:9102   */\n      dup3\n        /* \"#utility.yul\":9067:9106   */\n      tag_76\n      jump\t// in\n    tag_187:\n        /* \"#utility.yul\":9040:9041   */\n      0x01\n        /* \"#utility.yul\":9033:9038   */\n      dup2\n        /* \"#utility.yul\":9029:9042   */\n      add\n        /* \"#utility.yul\":9020:9042   */\n      swap1\n      pop\n        /* \"#utility.yul\":8996:9116   */\n      jump(tag_184)\n    tag_186:\n        /* \"#utility.yul\":8936:9122   */\n      pop\n      pop\n      jump\t// out\n        /* \"#utility.yul\":9128:9671   */\n    tag_78:\n        /* \"#utility.yul\":9229:9231   */\n      0x1f\n        /* \"#utility.yul\":9224:9227   */\n      dup3\n        /* \"#utility.yul\":9221:9232   */\n      gt\n        /* \"#utility.yul\":9218:9664   */\n      iszero\n      tag_189\n      jumpi\n        /* \"#utility.yul\":9263:9301   */\n      tag_190\n        /* \"#utility.yul\":9295:9300   */\n      dup2\n        /* \"#utility.yul\":9263:9301   */\n      tag_67\n      jump\t// in\n    tag_190:\n        /* \"#utility.yul\":9347:9376   */\n      tag_191\n        /* \"#utility.yul\":9365:9375   */\n      dup5\n        /* \"#utility.yul\":9347:9376   */\n      tag_68\n      jump\t// in\n    tag_191:\n        /* \"#utility.yul\":9337:9345   */\n      dup2\n        /* \"#utility.yul\":9333:9377   */\n      add\n        /* \"#utility.yul\":9530:9532   */\n      0x20\n        /* \"#utility.yul\":9518:9528   */\n      dup6\n        /* \"#utility.yul\":9515:9533   */\n      lt\n        /* \"#utility.yul\":9512:9561   */\n      iszero\n      tag_192\n      jumpi\n        /* \"#utility.yul\":9551:9559   */\n      dup2\n        /* \"#utility.yul\":9536:9559   */\n      swap1\n      pop\n        /* \"#utility.yul\":9512:9561   */\n    tag_192:\n        /* \"#utility.yul\":9574:9654   */\n      tag_193\n        /* \"#utility.yul\":9630:9652   */\n      tag_194\n        /* \"#utility.yul\":9648:9651   */\n      dup6\n        /* \"#utility.yul\":9630:9652   */\n      tag_68\n      jump\t// in\n    tag_194:\n        /* \"#utility.yul\":9620:9628   */\n      dup4\n        /* \"#utility.yul\":9616:9653   */\n      add\n        /* \"#utility.yul\":9603:9614   */\n      dup3\n        /* \"#utility.yul\":9574:9654   */\n      tag_77\n      jump\t// in\n    tag_193:\n        /* \"#utility.yul\":9233:9664   */\n      pop\n      pop\n        /* \"#utility.yul\":9218:9664   */\n    tag_189:\n        /* \"#utility.yul\":9128:9671   */\n      pop\n      pop\n      pop\n      jump\t// out\n        /* \"#utility.yul\":9677:9794   */\n    tag_79:\n        /* \"#utility.yul\":9731:9739   */\n      0x00\n        /* \"#utility.yul\":9781:9786   */\n      dup3\n        /* \"#utility.yul\":9775:9779   */\n      dup3\n        /* \"#utility.yul\":9771:9787   */\n      shr\n        /* \"#utility.yul\":9750:9787   */\n      swap1\n      pop\n        /* \"#utility.yul\":9677:9794   */\n      swap3\n      swap2\n      pop\n      pop\n      jump\t// out\n        /* \"#utility.yul\":9800:9969   */\n    tag_80:\n        /* \"#utility.yul\":9844:9850   */\n      0x00\n        /* \"#utility.yul\":9877:9928   */\n      tag_197\n        /* \"#utility.yul\":9925:9926   */\n      0x00\n        /* \"#utility.yul\":9921:9927   */\n      not\n        /* \"#utility.yul\":9913:9918   */\n      dup5\n        /* \"#utility.yul\":9910:9911   */\n      0x08\n        /* \"#utility.yul\":9906:9919   */\n      mul\n        /* \"#utility.yul\":9877:9928   */\n      tag_79\n      jump\t// in\n    tag_197:\n        /* \"#utility.yul\":9873:9929   */\n      not\n        /* \"#utility.yul\":9958:9962   */\n      dup1\n        /* \"#utility.yul\":9952:9956   */\n      dup4\n        /* \"#utility.yul\":9948:9963   */\n      and\n        /* \"#utility.yul\":9938:9963   */\n      swap2\n      pop\n        /* \"#utility.yul\":9851:9969   */\n      pop\n        /* \"#utility.yul\":9800:9969   */\n      swap3\n      swap2\n      pop\n      pop\n      jump\t// out\n        /* \"#utility.yul\":9974:10269   */\n    tag_81:\n        /* \"#utility.yul\":10050:10054   */\n      0x00\n        /* \"#utility.yul\":10196:10225   */\n      tag_199\n        /* \"#utility.yul\":10221:10224   */\n      dup4\n        /* \"#utility.yul\":10215:10219   */\n      dup4\n        /* \"#utility.yul\":10196:10225   */\n      tag_80\n      jump\t// in\n    tag_199:\n        /* \"#utility.yul\":10188:10225   */\n      swap2\n      pop\n        /* \"#utility.yul\":10258:10261   */\n      dup3\n        /* \"#utility.yul\":10255:10256   */\n      0x02\n        /* \"#utility.yul\":10251:10262   */\n      mul\n        /* \"#utility.yul\":10245:10249   */\n      dup3\n        /* \"#utility.yul\":10242:10263   */\n      or\n        /* \"#utility.yul\":10234:10263   */\n      swap1\n      pop\n        /* \"#utility.yul\":9974:10269   */\n      swap3\n      swap2\n      pop\n      pop\n      jump\t// out\n        /* \"#utility.yul\":10274:11669   */\n    tag_24:\n        /* \"#utility.yul\":10391:10428   */\n      tag_201\n        /* \"#utility.yul\":10424:10427   */\n      dup3\n        /* \"#utility.yul\":10391:10428   */\n      tag_61\n      jump\t// in\n    tag_201:\n        /* \"#utility.yul\":10493:10511   */\n      0xffffffffffffffff\n        /* \"#utility.yul\":10485:10491   */\n      dup2\n        /* \"#utility.yul\":10482:10512   */\n      gt\n        /* \"#utility.yul\":10479:10535   */\n      iszero\n      tag_202\n      jumpi\n        /* \"#utility.yul\":10515:10533   */\n      tag_203\n      tag_52\n      jump\t// in\n    tag_203:\n        /* \"#utility.yul\":10479:10535   */\n    tag_202:\n        /* \"#utility.yul\":10559:10597   */\n      tag_204\n        /* \"#utility.yul\":10591:10595   */\n      dup3\n        /* \"#utility.yul\":10585:10596   */\n      sload\n        /* \"#utility.yul\":10559:10597   */\n      tag_29\n      jump\t// in\n    tag_204:\n        /* \"#utility.yul\":10644:10711   */\n      tag_205\n        /* \"#utility.yul\":10704:10710   */\n      dup3\n        /* \"#utility.yul\":10696:10702   */\n      dup3\n        /* \"#utility.yul\":10690:10694   */\n      dup6\n        /* \"#utility.yul\":10644:10711   */\n      tag_78\n      jump\t// in\n    tag_205:\n        /* \"#utility.yul\":10738:10739   */\n      0x00\n        /* \"#utility.yul\":10762:10766   */\n      0x20\n        /* \"#utility.yul\":10749:10766   */\n      swap1\n      pop\n        /* \"#utility.yul\":10794:10796   */\n      0x1f\n        /* \"#utility.yul\":10786:10792   */\n      dup4\n        /* \"#utility.yul\":10783:10797   */\n      gt\n        /* \"#utility.yul\":10811:10812   */\n      0x01\n        /* \"#utility.yul\":10806:11424   */\n      dup2\n      eq\n      tag_207\n      jumpi\n        /* \"#utility.yul\":11468:11469   */\n      0x00\n        /* \"#utility.yul\":11485:11491   */\n      dup5\n        /* \"#utility.yul\":11482:11559   */\n      iszero\n      tag_208\n      jumpi\n        /* \"#utility.yul\":11534:11543   */\n      dup3\n        /* \"#utility.yul\":11529:11532   */\n      dup8\n        /* \"#utility.yul\":11525:11544   */\n      add\n        /* \"#utility.yul\":11519:11545   */\n      mload\n        /* \"#utility.yul\":11510:11545   */\n      swap1\n      pop\n        /* \"#utility.yul\":11482:11559   */\n    tag_208:\n        /* \"#utility.yul\":11585:11652   */\n      tag_209\n        /* \"#utility.yul\":11645:11651   */\n      dup6\n        /* \"#utility.yul\":11638:11643   */\n      dup3\n        /* \"#utility.yul\":11585:11652   */\n      tag_81\n      jump\t// in\n    tag_209:\n        /* \"#utility.yul\":11579:11583   */\n      dup7\n        /* \"#utility.yul\":11572:11653   */\n      sstore\n        /* \"#utility.yul\":11441:11663   */\n      pop\n        /* \"#utility.yul\":10776:11663   */\n      jump(tag_206)\n        /* \"#utility.yul\":10806:11424   */\n    tag_207:\n        /* \"#utility.yul\":10858:10862   */\n      0x1f\n        /* \"#utility.yul\":10854:10863   */\n      not\n        /* \"#utility.yul\":10846:10852   */\n      dup5\n        /* \"#utility.yul\":10842:10864   */\n      and\n        /* \"#utility.yul\":10892:10929   */\n      tag_210\n        /* \"#utility.yul\":10924:10928   */\n      dup7\n        /* \"#utility.yul\":10892:10929   */\n      tag_67\n      jump\t// in\n    tag_210:\n        /* \"#utility.yul\":10951:10952   */\n      0x00\n        /* \"#utility.yul\":10965:11173   */\n    tag_211:\n        /* \"#utility.yul\":10979:10986   */\n      dup3\n        /* \"#utility.yul\":10976:10977   */\n      dup2\n        /* \"#utility.yul\":10973:10987   */\n      lt\n        /* \"#utility.yul\":10965:11173   */\n      iszero\n      tag_213\n      jumpi\n        /* \"#utility.yul\":11058:11067   */\n      dup5\n        /* \"#utility.yul\":11053:11056   */\n      dup10\n        /* \"#utility.yul\":11049:11068   */\n      add\n        /* \"#utility.yul\":11043:11069   */\n      mload\n        /* \"#utility.yul\":11035:11041   */\n      dup3\n        /* \"#utility.yul\":11028:11070   */\n      sstore\n        /* \"#utility.yul\":11109:11110   */\n      0x01\n        /* \"#utility.yul\":11101:11107   */\n      dup3\n        /* \"#utility.yul\":11097:11111   */\n      add\n        /* \"#utility.yul\":11087:11111   */\n      swap2\n      pop\n        /* \"#utility.yul\":11156:11158   */\n      0x20\n        /* \"#utility.yul\":11145:11154   */\n      dup6\n        /* \"#utility.yul\":11141:11159   */\n      add\n        /* \"#utility.yul\":11128:11159   */\n      swap5\n      pop\n        /* \"#utility.yul\":11002:11006   */\n      0x20\n        /* \"#utility.yul\":10999:11000   */\n      dup2\n        /* \"#utility.yul\":10995:11007   */\n      add\n        /* \"#utility.yul\":10990:11007   */\n      swap1\n      pop\n        /* \"#utility.yul\":10965:11173   */\n      jump(tag_211)\n    tag_213:\n        /* \"#utility.yul\":11201:11207   */\n      dup7\n        /* \"#utility.yul\":11192:11199   */\n      dup4\n        /* \"#utility.yul\":11189:11208   */\n      lt\n        /* \"#utility.yul\":11186:11365   */\n      iszero\n      tag_214\n      jumpi\n        /* \"#utility.yul\":11259:11268   */\n      dup5\n        /* \"#utility.yul\":11254:11257   */\n      dup10\n        /* \"#utility.yul\":11250:11269   */\n      add\n        /* \"#utility.yul\":11244:11270   */\n      mload\n        /* \"#utility.yul\":11302:11350   */\n      tag_215\n        /* \"#utility.yul\":11344:11348   */\n      0x1f\n        /* \"#utility.yul\":11336:11342   */\n      dup10\n        /* \"#utility.yul\":11332:11349   */\n      and\n        /* \"#utility.yul\":11321:11330   */\n      dup3\n        /* \"#utility.yul\":11302:11350   */\n      tag_80\n      jump\t// in\n    tag_215:\n        /* \"#utility.yul\":11294:11300   */\n      dup4\n        /* \"#utility.yul\":11287:11351   */\n      sstore\n        /* \"#utility.yul\":11209:11365   */\n      pop\n        /* \"#utility.yul\":11186:11365   */\n    tag_214:\n        /* \"#utility.yul\":11411:11412   */\n      0x01\n        /* \"#utility.yul\":11407:11408   */\n      0x02\n        /* \"#utility.yul\":11399:11405   */\n      dup9\n        /* \"#utility.yul\":11395:11409   */\n      mul\n        /* \"#utility.yul\":11391:11413   */\n      add\n        /* \"#utility.yul\":11385:11389   */\n      dup9\n        /* \"#utility.yul\":11378:11414   */\n      sstore\n        /* \"#utility.yul\":10813:11424   */\n      pop\n      pop\n      pop\n        /* \"#utility.yul\":10776:11663   */\n    tag_206:\n      pop\n        /* \"#utility.yul\":10366:11669   */\n      pop\n      pop\n      pop\n        /* \"#utility.yul\":10274:11669   */\n      pop\n      pop\n      jump\t// out\n\n    auxdata: 0xa2646970667358221220543b99adc34660cb9687fa52bbdb8a9e7d8a199a9c00cc280e4645d194a2bc2764736f6c63430008120033\n}\n",
				"bytecode": {
					"linkReferences": {},
					"object": "608060405234801561001057600080fd5b50610a06806100206000396000f3fe608060405234801561001057600080fd5b50600436106100415760003560e01c806346f9c5bb1461004657806350c7a9121461006457806391e0e42814610080575b600080fd5b61004e6100b2565b60405161005b919061033b565b60405180910390f35b61007e600480360381019061007991906104b0565b6100b8565b005b61009a60048036038101906100959190610583565b610149565b6040516100a99392919061062f565b60405180910390f35b60015481565b600160008154809291906100cb906106aa565b91905055506040518060600160405280848152602001838152602001828152506000806001548152602001908152602001600020600082015181600001908161011491906108fe565b50602082015181600101908161012a91906108fe565b50604082015181600201908161014091906108fe565b50905050505050565b60608060606000806000868152602001908152602001600020905080600001816001018260020182805461017c90610721565b80601f01602080910402602001604051908101604052809291908181526020018280546101a890610721565b80156101f55780601f106101ca576101008083540402835291602001916101f5565b820191906000526020600020905b8154815290600101906020018083116101d857829003601f168201915b5050505050925081805461020890610721565b80601f016020809104026020016040519081016040528092919081815260200182805461023490610721565b80156102815780601f1061025657610100808354040283529160200191610281565b820191906000526020600020905b81548152906001019060200180831161026457829003601f168201915b5050505050915080805461029490610721565b80601f01602080910402602001604051908101604052809291908181526020018280546102c090610721565b801561030d5780601f106102e25761010080835404028352916020019161030d565b820191906000526020600020905b8154815290600101906020018083116102f057829003601f168201915b50505050509050935093509350509193909250565b6000819050919050565b61033581610322565b82525050565b6000602082019050610350600083018461032c565b92915050565b6000604051905090565b600080fd5b600080fd5b600080fd5b600080fd5b6000601f19601f8301169050919050565b7f4e487b7100000000000000000000000000000000000000000000000000000000600052604160045260246000fd5b6103bd82610374565b810181811067ffffffffffffffff821117156103dc576103db610385565b5b80604052505050565b60006103ef610356565b90506103fb82826103b4565b919050565b600067ffffffffffffffff82111561041b5761041a610385565b5b61042482610374565b9050602081019050919050565b82818337600083830152505050565b600061045361044e84610400565b6103e5565b90508281526020810184848401111561046f5761046e61036f565b5b61047a848285610431565b509392505050565b600082601f8301126104975761049661036a565b5b81356104a7848260208601610440565b91505092915050565b6000806000606084860312156104c9576104c8610360565b5b600084013567ffffffffffffffff8111156104e7576104e6610365565b5b6104f386828701610482565b935050602084013567ffffffffffffffff81111561051457610513610365565b5b61052086828701610482565b925050604084013567ffffffffffffffff81111561054157610540610365565b5b61054d86828701610482565b9150509250925092565b61056081610322565b811461056b57600080fd5b50565b60008135905061057d81610557565b92915050565b60006020828403121561059957610598610360565b5b60006105a78482850161056e565b91505092915050565b600081519050919050565b600082825260208201905092915050565b60005b838110156105ea5780820151818401526020810190506105cf565b60008484015250505050565b6000610601826105b0565b61060b81856105bb565b935061061b8185602086016105cc565b61062481610374565b840191505092915050565b6000606082019050818103600083015261064981866105f6565b9050818103602083015261065d81856105f6565b9050818103604083015261067181846105f6565b9050949350505050565b7f4e487b7100000000000000000000000000000000000000000000000000000000600052601160045260246000fd5b60006106b582610322565b91507fffffffffffffffffffffffffffffffffffffffffffffffffffffffffffffffff82036106e7576106e661067b565b5b600182019050919050565b7f4e487b7100000000000000000000000000000000000000000000000000000000600052602260045260246000fd5b6000600282049050600182168061073957607f821691505b60208210810361074c5761074b6106f2565b5b50919050565b60008190508160005260206000209050919050565b60006020601f8301049050919050565b600082821b905092915050565b6000600883026107b47fffffffffffffffffffffffffffffffffffffffffffffffffffffffffffffffff82610777565b6107be8683610777565b95508019841693508086168417925050509392505050565b6000819050919050565b60006107fb6107f66107f184610322565b6107d6565b610322565b9050919050565b6000819050919050565b610815836107e0565b61082961082182610802565b848454610784565b825550505050565b600090565b61083e610831565b61084981848461080c565b505050565b5b8181101561086d57610862600082610836565b60018101905061084f565b5050565b601f8211156108b25761088381610752565b61088c84610767565b8101602085101561089b578190505b6108af6108a785610767565b83018261084e565b50505b505050565b600082821c905092915050565b60006108d5600019846008026108b7565b1980831691505092915050565b60006108ee83836108c4565b9150826002028217905092915050565b610907826105b0565b67ffffffffffffffff8111156109205761091f610385565b5b61092a8254610721565b610935828285610871565b600060209050601f8311600181146109685760008415610956578287015190505b61096085826108e2565b8655506109c8565b601f19841661097686610752565b60005b8281101561099e57848901518255600182019150602085019450602081019050610979565b868310156109bb57848901516109b7601f8916826108c4565b8355505b6001600288020188555050505b50505050505056fea2646970667358221220543b99adc34660cb9687fa52bbdb8a9e7d8a199a9c00cc280e4645d194a2bc2764736f6c63430008120033",
					"opcodes": "PUSH1 0x80 PUSH1 0x40 MSTORE CALLVALUE DUP1 ISZERO PUSH2 0x10 JUMPI PUSH1 0x0 DUP1 REVERT JUMPDEST POP PUSH2 0xA06 DUP1 PUSH2 0x20 PUSH1 0x0 CODECOPY PUSH1 0x0 RETURN INVALID PUSH1 0x80 PUSH1 0x40 MSTORE CALLVALUE DUP1 ISZERO PUSH2 0x10 JUMPI PUSH1 0x0 DUP1 REVERT JUMPDEST POP PUSH1 0x4 CALLDATASIZE LT PUSH2 0x41 JUMPI PUSH1 0x0 CALLDATALOAD PUSH1 0xE0 SHR DUP1 PUSH4 0x46F9C5BB EQ PUSH2 0x46 JUMPI DUP1 PUSH4 0x50C7A912 EQ PUSH2 0x64 JUMPI DUP1 PUSH4 0x91E0E428 EQ PUSH2 0x80 JUMPI JUMPDEST PUSH1 0x0 DUP1 REVERT JUMPDEST PUSH2 0x4E PUSH2 0xB2 JUMP JUMPDEST PUSH1 0x40 MLOAD PUSH2 0x5B SWAP2 SWAP1 PUSH2 0x33B JUMP JUMPDEST PUSH1 0x40 MLOAD DUP1 SWAP2 SUB SWAP1 RETURN JUMPDEST PUSH2 0x7E PUSH1 0x4 DUP1 CALLDATASIZE SUB DUP2 ADD SWAP1 PUSH2 0x79 SWAP2 SWAP1 PUSH2 0x4B0 JUMP JUMPDEST PUSH2 0xB8 JUMP JUMPDEST STOP JUMPDEST PUSH2 0x9A PUSH1 0x4 DUP1 CALLDATASIZE SUB DUP2 ADD SWAP1 PUSH2 0x95 SWAP2 SWAP1 PUSH2 0x583 JUMP JUMPDEST PUSH2 0x149 JUMP JUMPDEST PUSH1 0x40 MLOAD PUSH2 0xA9 SWAP4 SWAP3 SWAP2 SWAP1 PUSH2 0x62F JUMP JUMPDEST PUSH1 0x40 MLOAD DUP1 SWAP2 SUB SWAP1 RETURN JUMPDEST PUSH1 0x1 SLOAD DUP2 JUMP JUMPDEST PUSH1 0x1 PUSH1 0x0 DUP2 SLOAD DUP1 SWAP3 SWAP2 SWAP1 PUSH2 0xCB SWAP1 PUSH2 0x6AA JUMP JUMPDEST SWAP2 SWAP1 POP SSTORE POP PUSH1 0x40 MLOAD DUP1 PUSH1 0x60 ADD PUSH1 0x40 MSTORE DUP1 DUP5 DUP2 MSTORE PUSH1 0x20 ADD DUP4 DUP2 MSTORE PUSH1 0x20 ADD DUP3 DUP2 MSTORE POP PUSH1 0x0 DUP1 PUSH1 0x1 SLOAD DUP2 MSTORE PUSH1 0x20 ADD SWAP1 DUP2 MSTORE PUSH1 0x20 ADD PUSH1 0x0 KECCAK256 PUSH1 0x0 DUP3 ADD MLOAD DUP2 PUSH1 0x0 ADD SWAP1 DUP2 PUSH2 0x114 SWAP2 SWAP1 PUSH2 0x8FE JUMP JUMPDEST POP PUSH1 0x20 DUP3 ADD MLOAD DUP2 PUSH1 0x1 ADD SWAP1 DUP2 PUSH2 0x12A SWAP2 SWAP1 PUSH2 0x8FE JUMP JUMPDEST POP PUSH1 0x40 DUP3 ADD MLOAD DUP2 PUSH1 0x2 ADD SWAP1 DUP2 PUSH2 0x140 SWAP2 SWAP1 PUSH2 0x8FE JUMP JUMPDEST POP SWAP1 POP POP POP POP POP JUMP JUMPDEST PUSH1 0x60 DUP1 PUSH1 0x60 PUSH1 0x0 DUP1 PUSH1 0x0 DUP7 DUP2 MSTORE PUSH1 0x20 ADD SWAP1 DUP2 MSTORE PUSH1 0x20 ADD PUSH1 0x0 KECCAK256 SWAP1 POP DUP1 PUSH1 0x0 ADD DUP2 PUSH1 0x1 ADD DUP3 PUSH1 0x2 ADD DUP3 DUP1 SLOAD PUSH2 0x17C SWAP1 PUSH2 0x721 JUMP JUMPDEST DUP1 PUSH1 0x1F ADD PUSH1 0x20 DUP1 SWAP2 DIV MUL PUSH1 0x20 ADD PUSH1 0x40 MLOAD SWAP1 DUP2 ADD PUSH1 0x40 MSTORE DUP1 SWAP3 SWAP2 SWAP1 DUP2 DUP2 MSTORE PUSH1 0x20 ADD DUP3 DUP1 SLOAD PUSH2 0x1A8 SWAP1 PUSH2 0x721 JUMP JUMPDEST DUP1 ISZERO PUSH2 0x1F5 JUMPI DUP1 PUSH1 0x1F LT PUSH2 0x1CA JUMPI PUSH2 0x100 DUP1 DUP4 SLOAD DIV MUL DUP4 MSTORE SWAP2 PUSH1 0x20 ADD SWAP2 PUSH2 0x1F5 JUMP JUMPDEST DUP3 ADD SWAP2 SWAP1 PUSH1 0x0 MSTORE PUSH1 0x20 PUSH1 0x0 KECCAK256 SWAP1 JUMPDEST DUP2 SLOAD DUP2 MSTORE SWAP1 PUSH1 0x1 ADD SWAP1 PUSH1 0x20 ADD DUP1 DUP4 GT PUSH2 0x1D8 JUMPI DUP3 SWAP1 SUB PUSH1 0x1F AND DUP3 ADD SWAP2 JUMPDEST POP POP POP POP POP SWAP3 POP DUP2 DUP1 SLOAD PUSH2 0x208 SWAP1 PUSH2 0x721 JUMP JUMPDEST DUP1 PUSH1 0x1F ADD PUSH1 0x20 DUP1 SWAP2 DIV MUL PUSH1 0x20 ADD PUSH1 0x40 MLOAD SWAP1 DUP2 ADD PUSH1 0x40 MSTORE DUP1 SWAP3 SWAP2 SWAP1 DUP2 DUP2 MSTORE PUSH1 0x20 ADD DUP3 DUP1 SLOAD PUSH2 0x234 SWAP1 PUSH2 0x721 JUMP JUMPDEST DUP1 ISZERO PUSH2 0x281 JUMPI DUP1 PUSH1 0x1F LT PUSH2 0x256 JUMPI PUSH2 0x100 DUP1 DUP4 SLOAD DIV MUL DUP4 MSTORE SWAP2 PUSH1 0x20 ADD SWAP2 PUSH2 0x281 JUMP JUMPDEST DUP3 ADD SWAP2 SWAP1 PUSH1 0x0 MSTORE PUSH1 0x20 PUSH1 0x0 KECCAK256 SWAP1 JUMPDEST DUP2 SLOAD DUP2 MSTORE SWAP1 PUSH1 0x1 ADD SWAP1 PUSH1 0x20 ADD DUP1 DUP4 GT PUSH2 0x264 JUMPI DUP3 SWAP1 SUB PUSH1 0x1F AND DUP3 ADD SWAP2 JUMPDEST POP POP POP POP POP SWAP2 POP DUP1 DUP1 SLOAD PUSH2 0x294 SWAP1 PUSH2 0x721 JUMP JUMPDEST DUP1 PUSH1 0x1F ADD PUSH1 0x20 DUP1 SWAP2 DIV MUL PUSH1 0x20 ADD PUSH1 0x40 MLOAD SWAP1 DUP2 ADD PUSH1 0x40 MSTORE DUP1 SWAP3 SWAP2 SWAP1 DUP2 DUP2 MSTORE PUSH1 0x20 ADD DUP3 DUP1 SLOAD PUSH2 0x2C0 SWAP1 PUSH2 0x721 JUMP JUMPDEST DUP1 ISZERO PUSH2 0x30D JUMPI DUP1 PUSH1 0x1F LT PUSH2 0x2E2 JUMPI PUSH2 0x100 DUP1 DUP4 SLOAD DIV MUL DUP4 MSTORE SWAP2 PUSH1 0x20 ADD SWAP2 PUSH2 0x30D JUMP JUMPDEST DUP3 ADD SWAP2 SWAP1 PUSH1 0x0 MSTORE PUSH1 0x20 PUSH1 0x0 KECCAK256 SWAP1 JUMPDEST DUP2 SLOAD DUP2 MSTORE SWAP1 PUSH1 0x1 ADD SWAP1 PUSH1 0x20 ADD DUP1 DUP4 GT PUSH2 0x2F0 JUMPI DUP3 SWAP1 SUB PUSH1 0x1F AND DUP3 ADD SWAP2 JUMPDEST POP POP POP POP POP SWAP1 POP SWAP4 POP SWAP4 POP SWAP4 POP POP SWAP2 SWAP4 SWAP1 SWAP3 POP JUMP JUMPDEST PUSH1 0x0 DUP2 SWAP1 POP SWAP2 SWAP1 POP JUMP JUMPDEST PUSH2 0x335 DUP2 PUSH2 0x322 JUMP JUMPDEST DUP3 MSTORE POP POP JUMP JUMPDEST PUSH1 0x0 PUSH1 0x20 DUP3 ADD SWAP1 POP PUSH2 0x350 PUSH1 0x0 DUP4 ADD DUP5 PUSH2 0x32C JUMP JUMPDEST SWAP3 SWAP2 POP POP JUMP JUMPDEST PUSH1 0x0 PUSH1 0x40 MLOAD SWAP1 POP SWAP1 JUMP JUMPDEST PUSH1 0x0 DUP1 REVERT JUMPDEST PUSH1 0x0 DUP1 REVERT JUMPDEST PUSH1 0x0 DUP1 REVERT JUMPDEST PUSH1 0x0 DUP1 REVERT JUMPDEST PUSH1 0x0 PUSH1 0x1F NOT PUSH1 0x1F DUP4 ADD AND SWAP1 POP SWAP2 SWAP1 POP JUMP JUMPDEST PUSH32 0x4E487B7100000000000000000000000000000000000000000000000000000000 PUSH1 0x0 MSTORE PUSH1 0x41 PUSH1 0x4 MSTORE PUSH1 0x24 PUSH1 0x0 REVERT JUMPDEST PUSH2 0x3BD DUP3 PUSH2 0x374 JUMP JUMPDEST DUP2 ADD DUP2 DUP2 LT PUSH8 0xFFFFFFFFFFFFFFFF DUP3 GT OR ISZERO PUSH2 0x3DC JUMPI PUSH2 0x3DB PUSH2 0x385 JUMP JUMPDEST JUMPDEST DUP1 PUSH1 0x40 MSTORE POP POP POP JUMP JUMPDEST PUSH1 0x0 PUSH2 0x3EF PUSH2 0x356 JUMP JUMPDEST SWAP1 POP PUSH2 0x3FB DUP3 DUP3 PUSH2 0x3B4 JUMP JUMPDEST SWAP2 SWAP1 POP JUMP JUMPDEST PUSH1 0x0 PUSH8 0xFFFFFFFFFFFFFFFF DUP3 GT ISZERO PUSH2 0x41B JUMPI PUSH2 0x41A PUSH2 0x385 JUMP JUMPDEST JUMPDEST PUSH2 0x424 DUP3 PUSH2 0x374 JUMP JUMPDEST SWAP1 POP PUSH1 0x20 DUP2 ADD SWAP1 POP SWAP2 SWAP1 POP JUMP JUMPDEST DUP3 DUP2 DUP4 CALLDATACOPY PUSH1 0x0 DUP4 DUP4 ADD MSTORE POP POP POP JUMP JUMPDEST PUSH1 0x0 PUSH2 0x453 PUSH2 0x44E DUP5 PUSH2 0x400 JUMP JUMPDEST PUSH2 0x3E5 JUMP JUMPDEST SWAP1 POP DUP3 DUP2 MSTORE PUSH1 0x20 DUP2 ADD DUP5 DUP5 DUP5 ADD GT ISZERO PUSH2 0x46F JUMPI PUSH2 0x46E PUSH2 0x36F JUMP JUMPDEST JUMPDEST PUSH2 0x47A DUP5 DUP3 DUP6 PUSH2 0x431 JUMP JUMPDEST POP SWAP4 SWAP3 POP POP POP JUMP JUMPDEST PUSH1 0x0 DUP3 PUSH1 0x1F DUP4 ADD SLT PUSH2 0x497 JUMPI PUSH2 0x496 PUSH2 0x36A JUMP JUMPDEST JUMPDEST DUP2 CALLDATALOAD PUSH2 0x4A7 DUP5 DUP3 PUSH1 0x20 DUP7 ADD PUSH2 0x440 JUMP JUMPDEST SWAP2 POP POP SWAP3 SWAP2 POP POP JUMP JUMPDEST PUSH1 0x0 DUP1 PUSH1 0x0 PUSH1 0x60 DUP5 DUP7 SUB SLT ISZERO PUSH2 0x4C9 JUMPI PUSH2 0x4C8 PUSH2 0x360 JUMP JUMPDEST JUMPDEST PUSH1 0x0 DUP5 ADD CALLDATALOAD PUSH8 0xFFFFFFFFFFFFFFFF DUP2 GT ISZERO PUSH2 0x4E7 JUMPI PUSH2 0x4E6 PUSH2 0x365 JUMP JUMPDEST JUMPDEST PUSH2 0x4F3 DUP7 DUP3 DUP8 ADD PUSH2 0x482 JUMP JUMPDEST SWAP4 POP POP PUSH1 0x20 DUP5 ADD CALLDATALOAD PUSH8 0xFFFFFFFFFFFFFFFF DUP2 GT ISZERO PUSH2 0x514 JUMPI PUSH2 0x513 PUSH2 0x365 JUMP JUMPDEST JUMPDEST PUSH2 0x520 DUP7 DUP3 DUP8 ADD PUSH2 0x482 JUMP JUMPDEST SWAP3 POP POP PUSH1 0x40 DUP5 ADD CALLDATALOAD PUSH8 0xFFFFFFFFFFFFFFFF DUP2 GT ISZERO PUSH2 0x541 JUMPI PUSH2 0x540 PUSH2 0x365 JUMP JUMPDEST JUMPDEST PUSH2 0x54D DUP7 DUP3 DUP8 ADD PUSH2 0x482 JUMP JUMPDEST SWAP2 POP POP SWAP3 POP SWAP3 POP SWAP3 JUMP JUMPDEST PUSH2 0x560 DUP2 PUSH2 0x322 JUMP JUMPDEST DUP2 EQ PUSH2 0x56B JUMPI PUSH1 0x0 DUP1 REVERT JUMPDEST POP JUMP JUMPDEST PUSH1 0x0 DUP2 CALLDATALOAD SWAP1 POP PUSH2 0x57D DUP2 PUSH2 0x557 JUMP JUMPDEST SWAP3 SWAP2 POP POP JUMP JUMPDEST PUSH1 0x0 PUSH1 0x20 DUP3 DUP5 SUB SLT ISZERO PUSH2 0x599 JUMPI PUSH2 0x598 PUSH2 0x360 JUMP JUMPDEST JUMPDEST PUSH1 0x0 PUSH2 0x5A7 DUP5 DUP3 DUP6 ADD PUSH2 0x56E JUMP JUMPDEST SWAP2 POP POP SWAP3 SWAP2 POP POP JUMP JUMPDEST PUSH1 0x0 DUP2 MLOAD SWAP1 POP SWAP2 SWAP1 POP JUMP JUMPDEST PUSH1 0x0 DUP3 DUP3 MSTORE PUSH1 0x20 DUP3 ADD SWAP1 POP SWAP3 SWAP2 POP POP JUMP JUMPDEST PUSH1 0x0 JUMPDEST DUP4 DUP2 LT ISZERO PUSH2 0x5EA JUMPI DUP1 DUP3 ADD MLOAD DUP2 DUP5 ADD MSTORE PUSH1 0x20 DUP2 ADD SWAP1 POP PUSH2 0x5CF JUMP JUMPDEST PUSH1 0x0 DUP5 DUP5 ADD MSTORE POP POP POP POP JUMP JUMPDEST PUSH1 0x0 PUSH2 0x601 DUP3 PUSH2 0x5B0 JUMP JUMPDEST PUSH2 0x60B DUP2 DUP6 PUSH2 0x5BB JUMP JUMPDEST SWAP4 POP PUSH2 0x61B DUP2 DUP6 PUSH1 0x20 DUP7 ADD PUSH2 0x5CC JUMP JUMPDEST PUSH2 0x624 DUP2 PUSH2 0x374 JUMP JUMPDEST DUP5 ADD SWAP2 POP POP SWAP3 SWAP2 POP POP JUMP JUMPDEST PUSH1 0x0 PUSH1 0x60 DUP3 ADD SWAP1 POP DUP2 DUP2 SUB PUSH1 0x0 DUP4 ADD MSTORE PUSH2 0x649 DUP2 DUP7 PUSH2 0x5F6 JUMP JUMPDEST SWAP1 POP DUP2 DUP2 SUB PUSH1 0x20 DUP4 ADD MSTORE PUSH2 0x65D DUP2 DUP6 PUSH2 0x5F6 JUMP JUMPDEST SWAP1 POP DUP2 DUP2 SUB PUSH1 0x40 DUP4 ADD MSTORE PUSH2 0x671 DUP2 DUP5 PUSH2 0x5F6 JUMP JUMPDEST SWAP1 POP SWAP5 SWAP4 POP POP POP POP JUMP JUMPDEST PUSH32 0x4E487B7100000000000000000000000000000000000000000000000000000000 PUSH1 0x0 MSTORE PUSH1 0x11 PUSH1 0x4 MSTORE PUSH1 0x24 PUSH1 0x0 REVERT JUMPDEST PUSH1 0x0 PUSH2 0x6B5 DUP3 PUSH2 0x322 JUMP JUMPDEST SWAP2 POP PUSH32 0xFFFFFFFFFFFFFFFFFFFFFFFFFFFFFFFFFFFFFFFFFFFFFFFFFFFFFFFFFFFFFFFF DUP3 SUB PUSH2 0x6E7 JUMPI PUSH2 0x6E6 PUSH2 0x67B JUMP JUMPDEST JUMPDEST PUSH1 0x1 DUP3 ADD SWAP1 POP SWAP2 SWAP1 POP JUMP JUMPDEST PUSH32 0x4E487B7100000000000000000000000000000000000000000000000000000000 PUSH1 0x0 MSTORE PUSH1 0x22 PUSH1 0x4 MSTORE PUSH1 0x24 PUSH1 0x0 REVERT JUMPDEST PUSH1 0x0 PUSH1 0x2 DUP3 DIV SWAP1 POP PUSH1 0x1 DUP3 AND DUP1 PUSH2 0x739 JUMPI PUSH1 0x7F DUP3 AND SWAP2 POP JUMPDEST PUSH1 0x20 DUP3 LT DUP2 SUB PUSH2 0x74C JUMPI PUSH2 0x74B PUSH2 0x6F2 JUMP JUMPDEST JUMPDEST POP SWAP2 SWAP1 POP JUMP JUMPDEST PUSH1 0x0 DUP2 SWAP1 POP DUP2 PUSH1 0x0 MSTORE PUSH1 0x20 PUSH1 0x0 KECCAK256 SWAP1 POP SWAP2 SWAP1 POP JUMP JUMPDEST PUSH1 0x0 PUSH1 0x20 PUSH1 0x1F DUP4 ADD DIV SWAP1 POP SWAP2 SWAP1 POP JUMP JUMPDEST PUSH1 0x0 DUP3 DUP3 SHL SWAP1 POP SWAP3 SWAP2 POP POP JUMP JUMPDEST PUSH1 0x0 PUSH1 0x8 DUP4 MUL PUSH2 0x7B4 PUSH32 0xFFFFFFFFFFFFFFFFFFFFFFFFFFFFFFFFFFFFFFFFFFFFFFFFFFFFFFFFFFFFFFFF DUP3 PUSH2 0x777 JUMP JUMPDEST PUSH2 0x7BE DUP7 DUP4 PUSH2 0x777 JUMP JUMPDEST SWAP6 POP DUP1 NOT DUP5 AND SWAP4 POP DUP1 DUP7 AND DUP5 OR SWAP3 POP POP POP SWAP4 SWAP3 POP POP POP JUMP JUMPDEST PUSH1 0x0 DUP2 SWAP1 POP SWAP2 SWAP1 POP JUMP JUMPDEST PUSH1 0x0 PUSH2 0x7FB PUSH2 0x7F6 PUSH2 0x7F1 DUP5 PUSH2 0x322 JUMP JUMPDEST PUSH2 0x7D6 JUMP JUMPDEST PUSH2 0x322 JUMP JUMPDEST SWAP1 POP SWAP2 SWAP1 POP JUMP JUMPDEST PUSH1 0x0 DUP2 SWAP1 POP SWAP2 SWAP1 POP JUMP JUMPDEST PUSH2 0x815 DUP4 PUSH2 0x7E0 JUMP JUMPDEST PUSH2 0x829 PUSH2 0x821 DUP3 PUSH2 0x802 JUMP JUMPDEST DUP5 DUP5 SLOAD PUSH2 0x784 JUMP JUMPDEST DUP3 SSTORE POP POP POP POP JUMP JUMPDEST PUSH1 0x0 SWAP1 JUMP JUMPDEST PUSH2 0x83E PUSH2 0x831 JUMP JUMPDEST PUSH2 0x849 DUP2 DUP5 DUP5 PUSH2 0x80C JUMP JUMPDEST POP POP POP JUMP JUMPDEST JUMPDEST DUP2 DUP2 LT ISZERO PUSH2 0x86D JUMPI PUSH2 0x862 PUSH1 0x0 DUP3 PUSH2 0x836 JUMP JUMPDEST PUSH1 0x1 DUP2 ADD SWAP1 POP PUSH2 0x84F JUMP JUMPDEST POP POP JUMP JUMPDEST PUSH1 0x1F DUP3 GT ISZERO PUSH2 0x8B2 JUMPI PUSH2 0x883 DUP2 PUSH2 0x752 JUMP JUMPDEST PUSH2 0x88C DUP5 PUSH2 0x767 JUMP JUMPDEST DUP2 ADD PUSH1 0x20 DUP6 LT ISZERO PUSH2 0x89B JUMPI DUP2 SWAP1 POP JUMPDEST PUSH2 0x8AF PUSH2 0x8A7 DUP6 PUSH2 0x767 JUMP JUMPDEST DUP4 ADD DUP3 PUSH2 0x84E JUMP JUMPDEST POP POP JUMPDEST POP POP POP JUMP JUMPDEST PUSH1 0x0 DUP3 DUP3 SHR SWAP1 POP SWAP3 SWAP2 POP POP JUMP JUMPDEST PUSH1 0x0 PUSH2 0x8D5 PUSH1 0x0 NOT DUP5 PUSH1 0x8 MUL PUSH2 0x8B7 JUMP JUMPDEST NOT DUP1 DUP4 AND SWAP2 POP POP SWAP3 SWAP2 POP POP JUMP JUMPDEST PUSH1 0x0 PUSH2 0x8EE DUP4 DUP4 PUSH2 0x8C4 JUMP JUMPDEST SWAP2 POP DUP3 PUSH1 0x2 MUL DUP3 OR SWAP1 POP SWAP3 SWAP2 POP POP JUMP JUMPDEST PUSH2 0x907 DUP3 PUSH2 0x5B0 JUMP JUMPDEST PUSH8 0xFFFFFFFFFFFFFFFF DUP2 GT ISZERO PUSH2 0x920 JUMPI PUSH2 0x91F PUSH2 0x385 JUMP JUMPDEST JUMPDEST PUSH2 0x92A DUP3 SLOAD PUSH2 0x721 JUMP JUMPDEST PUSH2 0x935 DUP3 DUP3 DUP6 PUSH2 0x871 JUMP JUMPDEST PUSH1 0x0 PUSH1 0x20 SWAP1 POP PUSH1 0x1F DUP4 GT PUSH1 0x1 DUP2 EQ PUSH2 0x968 JUMPI PUSH1 0x0 DUP5 ISZERO PUSH2 0x956 JUMPI DUP3 DUP8 ADD MLOAD SWAP1 POP JUMPDEST PUSH2 0x960 DUP6 DUP3 PUSH2 0x8E2 JUMP JUMPDEST DUP7 SSTORE POP PUSH2 0x9C8 JUMP JUMPDEST PUSH1 0x1F NOT DUP5 AND PUSH2 0x976 DUP7 PUSH2 0x752 JUMP JUMPDEST PUSH1 0x0 JUMPDEST DUP3 DUP2 LT ISZERO PUSH2 0x99E JUMPI DUP5 DUP10 ADD MLOAD DUP3 SSTORE PUSH1 0x1 DUP3 ADD SWAP2 POP PUSH1 0x20 DUP6 ADD SWAP5 POP PUSH1 0x20 DUP2 ADD SWAP1 POP PUSH2 0x979 JUMP JUMPDEST DUP7 DUP4 LT ISZERO PUSH2 0x9BB JUMPI DUP5 DUP10 ADD MLOAD PUSH2 0x9B7 PUSH1 0x1F DUP10 AND DUP3 PUSH2 0x8C4 JUMP JUMPDEST DUP4 SSTORE POP JUMPDEST PUSH1 0x1 PUSH1 0x2 DUP9 MUL ADD DUP9 SSTORE POP POP POP JUMPDEST POP POP POP POP POP POP JUMP INVALID LOG2 PUSH5 0x6970667358 0x22 SLT KECCAK256 SLOAD EXTCODESIZE SWAP10 0xAD 0xC3 CHAINID PUSH1 0xCB SWAP7 DUP8 STATICCALL MSTORE 0xBB 0xDB DUP11 SWAP15 PUSH30 0x8A199A9C00CC280E4645D194A2BC2764736F6C6343000812003300000000 "
				},
				"gasEstimates": {
					"creation": {
						"codeDepositCost": "513200",
						"executionCost": "549",
						"totalCost": "513749"
					},
					"external": {
						"doctorID()": "2407",
						"registerDoctor(string,string,string)": "infinite",
						"viewDoctorByID(uint256)": "infinite"
					}
				},
				"methodIdentifiers": {
					"doctorID()": "46f9c5bb",
					"registerDoctor(string,string,string)": "50c7a912",
					"viewDoctorByID(uint256)": "91e0e428"
				}
			},
			"storageLayout": {
				"storage": [
					{
						"astId": 13,
						"contract": "contracts/Doctor.sol:Doctor",
						"label": "doctorMapping",
						"offset": 0,
						"slot": "0",
						"type": "t_mapping(t_uint256,t_struct(doctorStruct)8_storage)"
					},
					{
						"astId": 15,
						"contract": "contracts/Doctor.sol:Doctor",
						"label": "doctorID",
						"offset": 0,
						"slot": "1",
						"type": "t_uint256"
					}
				],
				"types": {
					"t_mapping(t_uint256,t_struct(doctorStruct)8_storage)": {
						"encoding": "mapping",
						"key": "t_uint256",
						"label": "mapping(uint256 => struct Doctor.doctorStruct)",
						"numberOfBytes": "32",
						"value": "t_struct(doctorStruct)8_storage"
					},
					"t_string_storage": {
						"encoding": "bytes",
						"label": "string",
						"numberOfBytes": "32"
					},
					"t_struct(doctorStruct)8_storage": {
						"encoding": "inplace",
						"label": "struct Doctor.doctorStruct",
						"members": [
							{
								"astId": 3,
								"contract": "contracts/Doctor.sol:Doctor",
								"label": "name",
								"offset": 0,
								"slot": "0",
								"type": "t_string_storage"
							},
							{
								"astId": 5,
								"contract": "contracts/Doctor.sol:Doctor",
								"label": "qualification",
								"offset": 0,
								"slot": "1",
								"type": "t_string_storage"
							},
							{
								"astId": 7,
								"contract": "contracts/Doctor.sol:Doctor",
								"label": "workPlace",
								"offset": 0,
								"slot": "2",
								"type": "t_string_storage"
							}
						],
						"numberOfBytes": "96"
					},
					"t_uint256": {
						"encoding": "inplace",
						"label": "uint256",
						"numberOfBytes": "32"
					}
				}
			},
			"userdoc": {
				"kind": "user",
				"methods": {},
				"version": 1
			}
		}
	}
}