{
	"data": {
		"bytecode": {
			"linkReferences": {},
			"object": "608060405234801561001057600080fd5b5061097b806100206000396000f3fe608060405234801561001057600080fd5b506004361061004c5760003560e01c80632e28200c146100515780637d3a67961461006d578063a677104c1461009f578063f680a7bd146100bb575b600080fd5b61006b600480360381019061006691906103fb565b6100d9565b005b6100876004803603810190610082919061048d565b61015a565b60405161009693929190610557565b60405180910390f35b6100b960048036038101906100b49190610595565b610229565b005b6100c3610262565b6040516100d091906105d5565b60405180910390f35b6000808154809291906100eb9061061f565b919050555060405180604001604052808381526020018260ff16815250600160008054815260200190815260200160002060008201518160000190816101319190610873565b5060208201518160010160006101000a81548160ff021916908360ff1602179055509050505050565b60006060600080600160008681526020019081526020016000209050600054816000018260010160009054906101000a900460ff1681805461019b90610696565b80601f01602080910402602001604051908101604052809291908181526020018280546101c790610696565b80156102145780601f106101e957610100808354040283529160200191610214565b820191906000526020600020905b8154815290600101906020018083116101f757829003601f168201915b50505050509150935093509350509193909250565b6000600160008481526020019081526020016000209050818160010160006101000a81548160ff021916908360ff160217905550505050565b60005481565b6000604051905090565b600080fd5b600080fd5b600080fd5b600080fd5b6000601f19601f8301169050919050565b7f4e487b7100000000000000000000000000000000000000000000000000000000600052604160045260246000fd5b6102cf82610286565b810181811067ffffffffffffffff821117156102ee576102ed610297565b5b80604052505050565b6000610301610268565b905061030d82826102c6565b919050565b600067ffffffffffffffff82111561032d5761032c610297565b5b61033682610286565b9050602081019050919050565b82818337600083830152505050565b600061036561036084610312565b6102f7565b90508281526020810184848401111561038157610380610281565b5b61038c848285610343565b509392505050565b600082601f8301126103a9576103a861027c565b5b81356103b9848260208601610352565b91505092915050565b600060ff82169050919050565b6103d8816103c2565b81146103e357600080fd5b50565b6000813590506103f5816103cf565b92915050565b6000806040838503121561041257610411610272565b5b600083013567ffffffffffffffff8111156104305761042f610277565b5b61043c85828601610394565b925050602061044d858286016103e6565b9150509250929050565b6000819050919050565b61046a81610457565b811461047557600080fd5b50565b60008135905061048781610461565b92915050565b6000602082840312156104a3576104a2610272565b5b60006104b184828501610478565b91505092915050565b6104c381610457565b82525050565b600081519050919050565b600082825260208201905092915050565b60005b838110156105035780820151818401526020810190506104e8565b60008484015250505050565b600061051a826104c9565b61052481856104d4565b93506105348185602086016104e5565b61053d81610286565b840191505092915050565b610551816103c2565b82525050565b600060608201905061056c60008301866104ba565b818103602083015261057e818561050f565b905061058d6040830184610548565b949350505050565b600080604083850312156105ac576105ab610272565b5b60006105ba85828601610478565b92505060206105cb858286016103e6565b9150509250929050565b60006020820190506105ea60008301846104ba565b92915050565b7f4e487b7100000000000000000000000000000000000000000000000000000000600052601160045260246000fd5b600061062a82610457565b91507fffffffffffffffffffffffffffffffffffffffffffffffffffffffffffffffff820361065c5761065b6105f0565b5b600182019050919050565b7f4e487b7100000000000000000000000000000000000000000000000000000000600052602260045260246000fd5b600060028204905060018216806106ae57607f821691505b6020821081036106c1576106c0610667565b5b50919050565b60008190508160005260206000209050919050565b60006020601f8301049050919050565b600082821b905092915050565b6000600883026107297fffffffffffffffffffffffffffffffffffffffffffffffffffffffffffffffff826106ec565b61073386836106ec565b95508019841693508086168417925050509392505050565b6000819050919050565b600061077061076b61076684610457565b61074b565b610457565b9050919050565b6000819050919050565b61078a83610755565b61079e61079682610777565b8484546106f9565b825550505050565b600090565b6107b36107a6565b6107be818484610781565b505050565b5b818110156107e2576107d76000826107ab565b6001810190506107c4565b5050565b601f821115610827576107f8816106c7565b610801846106dc565b81016020851015610810578190505b61082461081c856106dc565b8301826107c3565b50505b505050565b600082821c905092915050565b600061084a6000198460080261082c565b1980831691505092915050565b60006108638383610839565b9150826002028217905092915050565b61087c826104c9565b67ffffffffffffffff81111561089557610894610297565b5b61089f8254610696565b6108aa8282856107e6565b600060209050601f8311600181146108dd57600084156108cb578287015190505b6108d58582610857565b86555061093d565b601f1984166108eb866106c7565b60005b82811015610913578489015182556001820191506020850194506020810190506108ee565b86831015610930578489015161092c601f891682610839565b8355505b6001600288020188555050505b50505050505056fea26469706673582212209a073891e076c19a5c9bb5a4daa00e9615484a2a0364ec03b3f240ada061b72b64736f6c63430008120033",
			"opcodes": "PUSH1 0x80 PUSH1 0x40 MSTORE CALLVALUE DUP1 ISZERO PUSH2 0x10 JUMPI PUSH1 0x0 DUP1 REVERT JUMPDEST POP PUSH2 0x97B DUP1 PUSH2 0x20 PUSH1 0x0 CODECOPY PUSH1 0x0 RETURN INVALID PUSH1 0x80 PUSH1 0x40 MSTORE CALLVALUE DUP1 ISZERO PUSH2 0x10 JUMPI PUSH1 0x0 DUP1 REVERT JUMPDEST POP PUSH1 0x4 CALLDATASIZE LT PUSH2 0x4C JUMPI PUSH1 0x0 CALLDATALOAD PUSH1 0xE0 SHR DUP1 PUSH4 0x2E28200C EQ PUSH2 0x51 JUMPI DUP1 PUSH4 0x7D3A6796 EQ PUSH2 0x6D JUMPI DUP1 PUSH4 0xA677104C EQ PUSH2 0x9F JUMPI DUP1 PUSH4 0xF680A7BD EQ PUSH2 0xBB JUMPI JUMPDEST PUSH1 0x0 DUP1 REVERT JUMPDEST PUSH2 0x6B PUSH1 0x4 DUP1 CALLDATASIZE SUB DUP2 ADD SWAP1 PUSH2 0x66 SWAP2 SWAP1 PUSH2 0x3FB JUMP JUMPDEST PUSH2 0xD9 JUMP JUMPDEST STOP JUMPDEST PUSH2 0x87 PUSH1 0x4 DUP1 CALLDATASIZE SUB DUP2 ADD SWAP1 PUSH2 0x82 SWAP2 SWAP1 PUSH2 0x48D JUMP JUMPDEST PUSH2 0x15A JUMP JUMPDEST PUSH1 0x40 MLOAD PUSH2 0x96 SWAP4 SWAP3 SWAP2 SWAP1 PUSH2 0x557 JUMP JUMPDEST PUSH1 0x40 MLOAD DUP1 SWAP2 SUB SWAP1 RETURN JUMPDEST PUSH2 0xB9 PUSH1 0x4 DUP1 CALLDATASIZE SUB DUP2 ADD SWAP1 PUSH2 0xB4 SWAP2 SWAP1 PUSH2 0x595 JUMP JUMPDEST PUSH2 0x229 JUMP JUMPDEST STOP JUMPDEST PUSH2 0xC3 PUSH2 0x262 JUMP JUMPDEST PUSH1 0x40 MLOAD PUSH2 0xD0 SWAP2 SWAP1 PUSH2 0x5D5 JUMP JUMPDEST PUSH1 0x40 MLOAD DUP1 SWAP2 SUB SWAP1 RETURN JUMPDEST PUSH1 0x0 DUP1 DUP2 SLOAD DUP1 SWAP3 SWAP2 SWAP1 PUSH2 0xEB SWAP1 PUSH2 0x61F JUMP JUMPDEST SWAP2 SWAP1 POP SSTORE POP PUSH1 0x40 MLOAD DUP1 PUSH1 0x40 ADD PUSH1 0x40 MSTORE DUP1 DUP4 DUP2 MSTORE PUSH1 0x20 ADD DUP3 PUSH1 0xFF AND DUP2 MSTORE POP PUSH1 0x1 PUSH1 0x0 DUP1 SLOAD DUP2 MSTORE PUSH1 0x20 ADD SWAP1 DUP2 MSTORE PUSH1 0x20 ADD PUSH1 0x0 KECCAK256 PUSH1 0x0 DUP3 ADD MLOAD DUP2 PUSH1 0x0 ADD SWAP1 DUP2 PUSH2 0x131 SWAP2 SWAP1 PUSH2 0x873 JUMP JUMPDEST POP PUSH1 0x20 DUP3 ADD MLOAD DUP2 PUSH1 0x1 ADD PUSH1 0x0 PUSH2 0x100 EXP DUP2 SLOAD DUP2 PUSH1 0xFF MUL NOT AND SWAP1 DUP4 PUSH1 0xFF AND MUL OR SWAP1 SSTORE POP SWAP1 POP POP POP POP JUMP JUMPDEST PUSH1 0x0 PUSH1 0x60 PUSH1 0x0 DUP1 PUSH1 0x1 PUSH1 0x0 DUP7 DUP2 MSTORE PUSH1 0x20 ADD SWAP1 DUP2 MSTORE PUSH1 0x20 ADD PUSH1 0x0 KECCAK256 SWAP1 POP PUSH1 0x0 SLOAD DUP2 PUSH1 0x0 ADD DUP3 PUSH1 0x1 ADD PUSH1 0x0 SWAP1 SLOAD SWAP1 PUSH2 0x100 EXP SWAP1 DIV PUSH1 0xFF AND DUP2 DUP1 SLOAD PUSH2 0x19B SWAP1 PUSH2 0x696 JUMP JUMPDEST DUP1 PUSH1 0x1F ADD PUSH1 0x20 DUP1 SWAP2 DIV MUL PUSH1 0x20 ADD PUSH1 0x40 MLOAD SWAP1 DUP2 ADD PUSH1 0x40 MSTORE DUP1 SWAP3 SWAP2 SWAP1 DUP2 DUP2 MSTORE PUSH1 0x20 ADD DUP3 DUP1 SLOAD PUSH2 0x1C7 SWAP1 PUSH2 0x696 JUMP JUMPDEST DUP1 ISZERO PUSH2 0x214 JUMPI DUP1 PUSH1 0x1F LT PUSH2 0x1E9 JUMPI PUSH2 0x100 DUP1 DUP4 SLOAD DIV MUL DUP4 MSTORE SWAP2 PUSH1 0x20 ADD SWAP2 PUSH2 0x214 JUMP JUMPDEST DUP3 ADD SWAP2 SWAP1 PUSH1 0x0 MSTORE PUSH1 0x20 PUSH1 0x0 KECCAK256 SWAP1 JUMPDEST DUP2 SLOAD DUP2 MSTORE SWAP1 PUSH1 0x1 ADD SWAP1 PUSH1 0x20 ADD DUP1 DUP4 GT PUSH2 0x1F7 JUMPI DUP3 SWAP1 SUB PUSH1 0x1F AND DUP3 ADD SWAP2 JUMPDEST POP POP POP POP POP SWAP2 POP SWAP4 POP SWAP4 POP SWAP4 POP POP SWAP2 SWAP4 SWAP1 SWAP3 POP JUMP JUMPDEST PUSH1 0x0 PUSH1 0x1 PUSH1 0x0 DUP5 DUP2 MSTORE PUSH1 0x20 ADD SWAP1 DUP2 MSTORE PUSH1 0x20 ADD PUSH1 0x0 KECCAK256 SWAP1 POP DUP2 DUP2 PUSH1 0x1 ADD PUSH1 0x0 PUSH2 0x100 EXP DUP2 SLOAD DUP2 PUSH1 0xFF MUL NOT AND SWAP1 DUP4 PUSH1 0xFF AND MUL OR SWAP1 SSTORE POP POP POP POP JUMP JUMPDEST PUSH1 0x0 SLOAD DUP2 JUMP JUMPDEST PUSH1 0x0 PUSH1 0x40 MLOAD SWAP1 POP SWAP1 JUMP JUMPDEST PUSH1 0x0 DUP1 REVERT JUMPDEST PUSH1 0x0 DUP1 REVERT JUMPDEST PUSH1 0x0 DUP1 REVERT JUMPDEST PUSH1 0x0 DUP1 REVERT JUMPDEST PUSH1 0x0 PUSH1 0x1F NOT PUSH1 0x1F DUP4 ADD AND SWAP1 POP SWAP2 SWAP1 POP JUMP JUMPDEST PUSH32 0x4E487B7100000000000000000000000000000000000000000000000000000000 PUSH1 0x0 MSTORE PUSH1 0x41 PUSH1 0x4 MSTORE PUSH1 0x24 PUSH1 0x0 REVERT JUMPDEST PUSH2 0x2CF DUP3 PUSH2 0x286 JUMP JUMPDEST DUP2 ADD DUP2 DUP2 LT PUSH8 0xFFFFFFFFFFFFFFFF DUP3 GT OR ISZERO PUSH2 0x2EE JUMPI PUSH2 0x2ED PUSH2 0x297 JUMP JUMPDEST JUMPDEST DUP1 PUSH1 0x40 MSTORE POP POP POP JUMP JUMPDEST PUSH1 0x0 PUSH2 0x301 PUSH2 0x268 JUMP JUMPDEST SWAP1 POP PUSH2 0x30D DUP3 DUP3 PUSH2 0x2C6 JUMP JUMPDEST SWAP2 SWAP1 POP JUMP JUMPDEST PUSH1 0x0 PUSH8 0xFFFFFFFFFFFFFFFF DUP3 GT ISZERO PUSH2 0x32D JUMPI PUSH2 0x32C PUSH2 0x297 JUMP JUMPDEST JUMPDEST PUSH2 0x336 DUP3 PUSH2 0x286 JUMP JUMPDEST SWAP1 POP PUSH1 0x20 DUP2 ADD SWAP1 POP SWAP2 SWAP1 POP JUMP JUMPDEST DUP3 DUP2 DUP4 CALLDATACOPY PUSH1 0x0 DUP4 DUP4 ADD MSTORE POP POP POP JUMP JUMPDEST PUSH1 0x0 PUSH2 0x365 PUSH2 0x360 DUP5 PUSH2 0x312 JUMP JUMPDEST PUSH2 0x2F7 JUMP JUMPDEST SWAP1 POP DUP3 DUP2 MSTORE PUSH1 0x20 DUP2 ADD DUP5 DUP5 DUP5 ADD GT ISZERO PUSH2 0x381 JUMPI PUSH2 0x380 PUSH2 0x281 JUMP JUMPDEST JUMPDEST PUSH2 0x38C DUP5 DUP3 DUP6 PUSH2 0x343 JUMP JUMPDEST POP SWAP4 SWAP3 POP POP POP JUMP JUMPDEST PUSH1 0x0 DUP3 PUSH1 0x1F DUP4 ADD SLT PUSH2 0x3A9 JUMPI PUSH2 0x3A8 PUSH2 0x27C JUMP JUMPDEST JUMPDEST DUP2 CALLDATALOAD PUSH2 0x3B9 DUP5 DUP3 PUSH1 0x20 DUP7 ADD PUSH2 0x352 JUMP JUMPDEST SWAP2 POP POP SWAP3 SWAP2 POP POP JUMP JUMPDEST PUSH1 0x0 PUSH1 0xFF DUP3 AND SWAP1 POP SWAP2 SWAP1 POP JUMP JUMPDEST PUSH2 0x3D8 DUP2 PUSH2 0x3C2 JUMP JUMPDEST DUP2 EQ PUSH2 0x3E3 JUMPI PUSH1 0x0 DUP1 REVERT JUMPDEST POP JUMP JUMPDEST PUSH1 0x0 DUP2 CALLDATALOAD SWAP1 POP PUSH2 0x3F5 DUP2 PUSH2 0x3CF JUMP JUMPDEST SWAP3 SWAP2 POP POP JUMP JUMPDEST PUSH1 0x0 DUP1 PUSH1 0x40 DUP4 DUP6 SUB SLT ISZERO PUSH2 0x412 JUMPI PUSH2 0x411 PUSH2 0x272 JUMP JUMPDEST JUMPDEST PUSH1 0x0 DUP4 ADD CALLDATALOAD PUSH8 0xFFFFFFFFFFFFFFFF DUP2 GT ISZERO PUSH2 0x430 JUMPI PUSH2 0x42F PUSH2 0x277 JUMP JUMPDEST JUMPDEST PUSH2 0x43C DUP6 DUP3 DUP7 ADD PUSH2 0x394 JUMP JUMPDEST SWAP3 POP POP PUSH1 0x20 PUSH2 0x44D DUP6 DUP3 DUP7 ADD PUSH2 0x3E6 JUMP JUMPDEST SWAP2 POP POP SWAP3 POP SWAP3 SWAP1 POP JUMP JUMPDEST PUSH1 0x0 DUP2 SWAP1 POP SWAP2 SWAP1 POP JUMP JUMPDEST PUSH2 0x46A DUP2 PUSH2 0x457 JUMP JUMPDEST DUP2 EQ PUSH2 0x475 JUMPI PUSH1 0x0 DUP1 REVERT JUMPDEST POP JUMP JUMPDEST PUSH1 0x0 DUP2 CALLDATALOAD SWAP1 POP PUSH2 0x487 DUP2 PUSH2 0x461 JUMP JUMPDEST SWAP3 SWAP2 POP POP JUMP JUMPDEST PUSH1 0x0 PUSH1 0x20 DUP3 DUP5 SUB SLT ISZERO PUSH2 0x4A3 JUMPI PUSH2 0x4A2 PUSH2 0x272 JUMP JUMPDEST JUMPDEST PUSH1 0x0 PUSH2 0x4B1 DUP5 DUP3 DUP6 ADD PUSH2 0x478 JUMP JUMPDEST SWAP2 POP POP SWAP3 SWAP2 POP POP JUMP JUMPDEST PUSH2 0x4C3 DUP2 PUSH2 0x457 JUMP JUMPDEST DUP3 MSTORE POP POP JUMP JUMPDEST PUSH1 0x0 DUP2 MLOAD SWAP1 POP SWAP2 SWAP1 POP JUMP JUMPDEST PUSH1 0x0 DUP3 DUP3 MSTORE PUSH1 0x20 DUP3 ADD SWAP1 POP SWAP3 SWAP2 POP POP JUMP JUMPDEST PUSH1 0x0 JUMPDEST DUP4 DUP2 LT ISZERO PUSH2 0x503 JUMPI DUP1 DUP3 ADD MLOAD DUP2 DUP5 ADD MSTORE PUSH1 0x20 DUP2 ADD SWAP1 POP PUSH2 0x4E8 JUMP JUMPDEST PUSH1 0x0 DUP5 DUP5 ADD MSTORE POP POP POP POP JUMP JUMPDEST PUSH1 0x0 PUSH2 0x51A DUP3 PUSH2 0x4C9 JUMP JUMPDEST PUSH2 0x524 DUP2 DUP6 PUSH2 0x4D4 JUMP JUMPDEST SWAP4 POP PUSH2 0x534 DUP2 DUP6 PUSH1 0x20 DUP7 ADD PUSH2 0x4E5 JUMP JUMPDEST PUSH2 0x53D DUP2 PUSH2 0x286 JUMP JUMPDEST DUP5 ADD SWAP2 POP POP SWAP3 SWAP2 POP POP JUMP JUMPDEST PUSH2 0x551 DUP2 PUSH2 0x3C2 JUMP JUMPDEST DUP3 MSTORE POP POP JUMP JUMPDEST PUSH1 0x0 PUSH1 0x60 DUP3 ADD SWAP1 POP PUSH2 0x56C PUSH1 0x0 DUP4 ADD DUP7 PUSH2 0x4BA JUMP JUMPDEST DUP2 DUP2 SUB PUSH1 0x20 DUP4 ADD MSTORE PUSH2 0x57E DUP2 DUP6 PUSH2 0x50F JUMP JUMPDEST SWAP1 POP PUSH2 0x58D PUSH1 0x40 DUP4 ADD DUP5 PUSH2 0x548 JUMP JUMPDEST SWAP5 SWAP4 POP POP POP POP JUMP JUMPDEST PUSH1 0x0 DUP1 PUSH1 0x40 DUP4 DUP6 SUB SLT ISZERO PUSH2 0x5AC JUMPI PUSH2 0x5AB PUSH2 0x272 JUMP JUMPDEST JUMPDEST PUSH1 0x0 PUSH2 0x5BA DUP6 DUP3 DUP7 ADD PUSH2 0x478 JUMP JUMPDEST SWAP3 POP POP PUSH1 0x20 PUSH2 0x5CB DUP6 DUP3 DUP7 ADD PUSH2 0x3E6 JUMP JUMPDEST SWAP2 POP POP SWAP3 POP SWAP3 SWAP1 POP JUMP JUMPDEST PUSH1 0x0 PUSH1 0x20 DUP3 ADD SWAP1 POP PUSH2 0x5EA PUSH1 0x0 DUP4 ADD DUP5 PUSH2 0x4BA JUMP JUMPDEST SWAP3 SWAP2 POP POP JUMP JUMPDEST PUSH32 0x4E487B7100000000000000000000000000000000000000000000000000000000 PUSH1 0x0 MSTORE PUSH1 0x11 PUSH1 0x4 MSTORE PUSH1 0x24 PUSH1 0x0 REVERT JUMPDEST PUSH1 0x0 PUSH2 0x62A DUP3 PUSH2 0x457 JUMP JUMPDEST SWAP2 POP PUSH32 0xFFFFFFFFFFFFFFFFFFFFFFFFFFFFFFFFFFFFFFFFFFFFFFFFFFFFFFFFFFFFFFFF DUP3 SUB PUSH2 0x65C JUMPI PUSH2 0x65B PUSH2 0x5F0 JUMP JUMPDEST JUMPDEST PUSH1 0x1 DUP3 ADD SWAP1 POP SWAP2 SWAP1 POP JUMP JUMPDEST PUSH32 0x4E487B7100000000000000000000000000000000000000000000000000000000 PUSH1 0x0 MSTORE PUSH1 0x22 PUSH1 0x4 MSTORE PUSH1 0x24 PUSH1 0x0 REVERT JUMPDEST PUSH1 0x0 PUSH1 0x2 DUP3 DIV SWAP1 POP PUSH1 0x1 DUP3 AND DUP1 PUSH2 0x6AE JUMPI PUSH1 0x7F DUP3 AND SWAP2 POP JUMPDEST PUSH1 0x20 DUP3 LT DUP2 SUB PUSH2 0x6C1 JUMPI PUSH2 0x6C0 PUSH2 0x667 JUMP JUMPDEST JUMPDEST POP SWAP2 SWAP1 POP JUMP JUMPDEST PUSH1 0x0 DUP2 SWAP1 POP DUP2 PUSH1 0x0 MSTORE PUSH1 0x20 PUSH1 0x0 KECCAK256 SWAP1 POP SWAP2 SWAP1 POP JUMP JUMPDEST PUSH1 0x0 PUSH1 0x20 PUSH1 0x1F DUP4 ADD DIV SWAP1 POP SWAP2 SWAP1 POP JUMP JUMPDEST PUSH1 0x0 DUP3 DUP3 SHL SWAP1 POP SWAP3 SWAP2 POP POP JUMP JUMPDEST PUSH1 0x0 PUSH1 0x8 DUP4 MUL PUSH2 0x729 PUSH32 0xFFFFFFFFFFFFFFFFFFFFFFFFFFFFFFFFFFFFFFFFFFFFFFFFFFFFFFFFFFFFFFFF DUP3 PUSH2 0x6EC JUMP JUMPDEST PUSH2 0x733 DUP7 DUP4 PUSH2 0x6EC JUMP JUMPDEST SWAP6 POP DUP1 NOT DUP5 AND SWAP4 POP DUP1 DUP7 AND DUP5 OR SWAP3 POP POP POP SWAP4 SWAP3 POP POP POP JUMP JUMPDEST PUSH1 0x0 DUP2 SWAP1 POP SWAP2 SWAP1 POP JUMP JUMPDEST PUSH1 0x0 PUSH2 0x770 PUSH2 0x76B PUSH2 0x766 DUP5 PUSH2 0x457 JUMP JUMPDEST PUSH2 0x74B JUMP JUMPDEST PUSH2 0x457 JUMP JUMPDEST SWAP1 POP SWAP2 SWAP1 POP JUMP JUMPDEST PUSH1 0x0 DUP2 SWAP1 POP SWAP2 SWAP1 POP JUMP JUMPDEST PUSH2 0x78A DUP4 PUSH2 0x755 JUMP JUMPDEST PUSH2 0x79E PUSH2 0x796 DUP3 PUSH2 0x777 JUMP JUMPDEST DUP5 DUP5 SLOAD PUSH2 0x6F9 JUMP JUMPDEST DUP3 SSTORE POP POP POP POP JUMP JUMPDEST PUSH1 0x0 SWAP1 JUMP JUMPDEST PUSH2 0x7B3 PUSH2 0x7A6 JUMP JUMPDEST PUSH2 0x7BE DUP2 DUP5 DUP5 PUSH2 0x781 JUMP JUMPDEST POP POP POP JUMP JUMPDEST JUMPDEST DUP2 DUP2 LT ISZERO PUSH2 0x7E2 JUMPI PUSH2 0x7D7 PUSH1 0x0 DUP3 PUSH2 0x7AB JUMP JUMPDEST PUSH1 0x1 DUP2 ADD SWAP1 POP PUSH2 0x7C4 JUMP JUMPDEST POP POP JUMP JUMPDEST PUSH1 0x1F DUP3 GT ISZERO PUSH2 0x827 JUMPI PUSH2 0x7F8 DUP2 PUSH2 0x6C7 JUMP JUMPDEST PUSH2 0x801 DUP5 PUSH2 0x6DC JUMP JUMPDEST DUP2 ADD PUSH1 0x20 DUP6 LT ISZERO PUSH2 0x810 JUMPI DUP2 SWAP1 POP JUMPDEST PUSH2 0x824 PUSH2 0x81C DUP6 PUSH2 0x6DC JUMP JUMPDEST DUP4 ADD DUP3 PUSH2 0x7C3 JUMP JUMPDEST POP POP JUMPDEST POP POP POP JUMP JUMPDEST PUSH1 0x0 DUP3 DUP3 SHR SWAP1 POP SWAP3 SWAP2 POP POP JUMP JUMPDEST PUSH1 0x0 PUSH2 0x84A PUSH1 0x0 NOT DUP5 PUSH1 0x8 MUL PUSH2 0x82C JUMP JUMPDEST NOT DUP1 DUP4 AND SWAP2 POP POP SWAP3 SWAP2 POP POP JUMP JUMPDEST PUSH1 0x0 PUSH2 0x863 DUP4 DUP4 PUSH2 0x839 JUMP JUMPDEST SWAP2 POP DUP3 PUSH1 0x2 MUL DUP3 OR SWAP1 POP SWAP3 SWAP2 POP POP JUMP JUMPDEST PUSH2 0x87C DUP3 PUSH2 0x4C9 JUMP JUMPDEST PUSH8 0xFFFFFFFFFFFFFFFF DUP2 GT ISZERO PUSH2 0x895 JUMPI PUSH2 0x894 PUSH2 0x297 JUMP JUMPDEST JUMPDEST PUSH2 0x89F DUP3 SLOAD PUSH2 0x696 JUMP JUMPDEST PUSH2 0x8AA DUP3 DUP3 DUP6 PUSH2 0x7E6 JUMP JUMPDEST PUSH1 0x0 PUSH1 0x20 SWAP1 POP PUSH1 0x1F DUP4 GT PUSH1 0x1 DUP2 EQ PUSH2 0x8DD JUMPI PUSH1 0x0 DUP5 ISZERO PUSH2 0x8CB JUMPI DUP3 DUP8 ADD MLOAD SWAP1 POP JUMPDEST PUSH2 0x8D5 DUP6 DUP3 PUSH2 0x857 JUMP JUMPDEST DUP7 SSTORE POP PUSH2 0x93D JUMP JUMPDEST PUSH1 0x1F NOT DUP5 AND PUSH2 0x8EB DUP7 PUSH2 0x6C7 JUMP JUMPDEST PUSH1 0x0 JUMPDEST DUP3 DUP2 LT ISZERO PUSH2 0x913 JUMPI DUP5 DUP10 ADD MLOAD DUP3 SSTORE PUSH1 0x1 DUP3 ADD SWAP2 POP PUSH1 0x20 DUP6 ADD SWAP5 POP PUSH1 0x20 DUP2 ADD SWAP1 POP PUSH2 0x8EE JUMP JUMPDEST DUP7 DUP4 LT ISZERO PUSH2 0x930 JUMPI DUP5 DUP10 ADD MLOAD PUSH2 0x92C PUSH1 0x1F DUP10 AND DUP3 PUSH2 0x839 JUMP JUMPDEST DUP4 SSTORE POP JUMPDEST PUSH1 0x1 PUSH1 0x2 DUP9 MUL ADD DUP9 SSTORE POP POP POP JUMPDEST POP POP POP POP POP POP JUMP INVALID LOG2 PUSH5 0x6970667358 0x22 SLT KECCAK256 SWAP11 SMOD CODESIZE SWAP2 0xE0 PUSH23 0xC19A5C9BB5A4DAA00E9615484A2A0364EC03B3F240ADA0 PUSH2 0xB72B PUSH5 0x736F6C6343 STOP ADDMOD SLT STOP CALLER "
		},
		"gasEstimates": {
			"creation": {
				"codeDepositCost": "485400",
				"executionCost": "518",
				"totalCost": "485918"
			},
			"external": {
				"getPatient(uint256)": "infinite",
				"patientID()": "2473",
				"registerPatient(string,uint8)": "infinite",
				"updateAge(uint256,uint8)": "24971"
			}
		},
		"methodIdentifiers": {
			"getPatient(uint256)": "7d3a6796",
			"patientID()": "f680a7bd",
			"registerPatient(string,uint8)": "2e28200c",
			"updateAge(uint256,uint8)": "a677104c"
		}
	},
	"abi": [
		{
			"inputs": [
				{
					"internalType": "uint256",
					"name": "_patientID",
					"type": "uint256"
				}
			],
			"name": "getPatient",
			"outputs": [
				{
					"internalType": "uint256",
					"name": "",
					"type": "uint256"
				},
				{
					"internalType": "string",
					"name": "",
					"type": "string"
				},
				{
					"internalType": "uint8",
					"name": "",
					"type": "uint8"
				}
			],
			"stateMutability": "view",
			"type": "function"
		},
		{
			"inputs": [],
			"name": "patientID",
			"outputs": [
				{
					"internalType": "uint256",
					"name": "",
					"type": "uint256"
				}
			],
			"stateMutability": "view",
			"type": "function"
		},
		{
			"inputs": [
				{
					"internalType": "string",
					"name": "_name",
					"type": "string"
				},
				{
					"internalType": "uint8",
					"name": "_age",
					"type": "uint8"
				}
			],
			"name": "registerPatient",
			"outputs": [],
			"stateMutability": "nonpayable",
			"type": "function"
		},
		{
			"inputs": [
				{
					"internalType": "uint256",
					"name": "_patientID",
					"type": "uint256"
				},
				{
					"internalType": "uint8",
					"name": "_newAge",
					"type": "uint8"
				}
			],
			"name": "updateAge",
			"outputs": [],
			"stateMutability": "nonpayable",
			"type": "function"
		}
	]
}